{
  "_format": "hh-sol-artifact-1",
  "contractName": "DmtpProxyAdmin",
  "sourceName": "contracts/proxy/DmtpProxyAdmin.sol",
  "abi": [
    {
      "inputs": [
        {
          "internalType": "address",
          "name": "initialOwner",
          "type": "address"
        }
      ],
      "stateMutability": "nonpayable",
      "type": "constructor"
    },
    {
      "inputs": [
        {
          "internalType": "address",
          "name": "owner",
          "type": "address"
        }
      ],
      "name": "OwnableInvalidOwner",
      "type": "error"
    },
    {
      "inputs": [
        {
          "internalType": "address",
          "name": "account",
          "type": "address"
        }
      ],
      "name": "OwnableUnauthorizedAccount",
      "type": "error"
    },
    {
      "anonymous": false,
      "inputs": [
        {
          "indexed": true,
          "internalType": "address",
          "name": "previousOwner",
          "type": "address"
        },
        {
          "indexed": true,
          "internalType": "address",
          "name": "newOwner",
          "type": "address"
        }
      ],
      "name": "OwnershipTransferred",
      "type": "event"
    },
    {
      "inputs": [],
      "name": "UPGRADE_INTERFACE_VERSION",
      "outputs": [
        {
          "internalType": "string",
          "name": "",
          "type": "string"
        }
      ],
      "stateMutability": "view",
      "type": "function"
    },
    {
      "inputs": [
        {
          "internalType": "address",
          "name": "proxy",
          "type": "address"
        }
      ],
      "name": "isAdminOf",
      "outputs": [
        {
          "internalType": "bool",
          "name": "",
          "type": "bool"
        }
      ],
      "stateMutability": "view",
      "type": "function"
    },
    {
      "inputs": [],
      "name": "owner",
      "outputs": [
        {
          "internalType": "address",
          "name": "",
          "type": "address"
        }
      ],
      "stateMutability": "view",
      "type": "function"
    },
    {
      "inputs": [],
      "name": "renounceOwnership",
      "outputs": [],
      "stateMutability": "nonpayable",
      "type": "function"
    },
    {
      "inputs": [
        {
          "internalType": "address",
          "name": "newOwner",
          "type": "address"
        }
      ],
      "name": "transferOwnership",
      "outputs": [],
      "stateMutability": "nonpayable",
      "type": "function"
    },
    {
      "inputs": [
        {
          "internalType": "contract ITransparentUpgradeableProxy",
          "name": "proxy",
          "type": "address"
        },
        {
          "internalType": "address",
          "name": "implementation",
          "type": "address"
        },
        {
          "internalType": "bytes",
          "name": "data",
          "type": "bytes"
        }
      ],
      "name": "upgradeAndCall",
      "outputs": [],
      "stateMutability": "payable",
      "type": "function"
    }
  ],
  "bytecode": "0x60803460bc57601f6104e738819003918201601f19168301916001600160401b0383118484101760c15780849260209460405283398101031260bc57516001600160a01b0381169081900360bc57801560a657600080546001600160a01b031981168317825560405192916001600160a01b03909116907f8be0079c531659141344cd1fd0a4f28419497f9722a3daafe3b4186f6b6457e09080a361040f90816100d88239f35b631e4fbdf760e01b600052600060045260246000fd5b600080fd5b634e487b7160e01b600052604160045260246000fdfe608080604052600436101561001357600080fd5b600090813560e01c90816305f38c71146102c257508063715018a6146102685780638da5cb5b146102415780639623609d14610138578063ad3cb1cc146100eb5763f2fde38b1461006357600080fd5b346100e85760203660031901126100e85761007c610329565b6100846103d9565b6001600160a01b031680156100d45781546001600160a01b03198116821783556001600160a01b03167f8be0079c531659141344cd1fd0a4f28419497f9722a3daafe3b4186f6b6457e08380a380f35b631e4fbdf760e01b82526004829052602482fd5b80fd5b50346100e857806003193601126100e8575061013460405161010e604082610344565b60058152640352e302e360dc1b6020820152604051918291602083526020830190610398565b0390f35b5060603660031901126100e8576004356001600160a01b0381169081900361023d57816024356001600160a01b0381169081900361023d5760443567ffffffffffffffff8111610235573660238201121561023557806004013561019b8161037c565b916101a96040519384610344565b81835236602483830101116102395781859260246020930183860137830101526101d16103d9565b833b156102355761020793839260405180968194829363278f794360e11b84526004840152604060248401526044830190610398565b039134905af180156102285761021a5780f35b61022391610344565b388180f35b50604051903d90823e3d90fd5b8280fd5b8480fd5b5080fd5b50346100e857806003193601126100e857546040516001600160a01b039091168152602090f35b50346100e857806003193601126100e8576102816103d9565b80546001600160a01b03198116825581906001600160a01b03167f8be0079c531659141344cd1fd0a4f28419497f9722a3daafe3b4186f6b6457e08280a380f35b90503461023d57602036600319011261023d5790808060046020946102e5610329565b635c60da1b60e01b82525afa903d15610323573d906103038261037c565b916103116040519384610344565b8252833d92013e5b6040519015158152f35b50610319565b600435906001600160a01b038216820361033f57565b600080fd5b90601f8019910116810190811067ffffffffffffffff82111761036657604052565b634e487b7160e01b600052604160045260246000fd5b67ffffffffffffffff811161036657601f01601f191660200190565b919082519283825260005b8481106103c4575050826000602080949584010152601f8019910116010190565b806020809284010151828286010152016103a3565b6000546001600160a01b031633036103ed57565b63118cdaa760e01b6000523360045260246000fdfea164736f6c634300081c000a",
  "linkReferences": {},
  "deployedLinkReferences": {}
}