{
  "_format": "hh-sol-artifact-1",
  "contractName": "DmtpProxy",
  "sourceName": "contracts/proxy/DmtpProxy.sol",
  "abi": [
    {
      "inputs": [
        {
          "internalType": "address",
          "name": "_logic",
          "type": "address"
        },
        {
          "internalType": "address",
          "name": "initialOwner",
          "type": "address"
        }
      ],
      "stateMutability": "payable",
      "type": "constructor"
    },
    {
      "inputs": [
        {
          "internalType": "address",
          "name": "target",
          "type": "address"
        }
      ],
      "name": "AddressEmptyCode",
      "type": "error"
    },
    {
      "inputs": [
        {
          "internalType": "address",
          "name": "admin",
          "type": "address"
        }
      ],
      "name": "ERC1967InvalidAdmin",
      "type": "error"
    },
    {
      "inputs": [
        {
          "internalType": "address",
          "name": "implementation",
          "type": "address"
        }
      ],
      "name": "ERC1967InvalidImplementation",
      "type": "error"
    },
    {
      "inputs": [],
      "name": "ERC1967NonPayable",
      "type": "error"
    },
    {
      "inputs": [],
      "name": "FailedCall",
      "type": "error"
    },
    {
      "inputs": [],
      "name": "ProxyDeniedAdminAccess",
      "type": "error"
    },
    {
      "anonymous": false,
      "inputs": [
        {
          "indexed": false,
          "internalType": "address",
          "name": "previousAdmin",
          "type": "address"
        },
        {
          "indexed": false,
          "internalType": "address",
          "name": "newAdmin",
          "type": "address"
        }
      ],
      "name": "AdminChanged",
      "type": "event"
    },
    {
      "anonymous": false,
      "inputs": [
        {
          "indexed": true,
          "internalType": "address",
          "name": "implementation",
          "type": "address"
        }
      ],
      "name": "Upgraded",
      "type": "event"
    },
    {
      "stateMutability": "payable",
      "type": "fallback"
    },
    {
      "inputs": [
        {
          "internalType": "address",
          "name": "newAdmin",
          "type": "address"
        }
      ],
      "name": "changeAdmin",
      "outputs": [],
      "stateMutability": "nonpayable",
      "type": "function"
    },
    {
      "inputs": [],
      "name": "getAdmin",
      "outputs": [
        {
          "internalType": "address",
          "name": "",
          "type": "address"
        }
      ],
      "stateMutability": "view",
      "type": "function"
    },
    {
      "stateMutability": "payable",
      "type": "receive"
    }
  ],
  "bytecode": "0x6080604052610b856040813803918261001781610259565b9384928339810103126102545761003960206100328361027e565b920161027e565b60209161004583610259565b60008152813b15610232577f360894a13ba1a3210667c828492db98dca3e2076cc3735a920a3ca505d382bbc80546001600160a01b0319166001600160a01b0384169081179091557fbc7cd75a20ee27fd9adebab32041f755214dbc6bffa90cc0225b39da2e5c2d3b600080a280511561021957600081858293519101845af43d1561020c573d906001600160401b0382116101f657610100926100f1601f8401601f19168701610259565b9283523d60008785013e610292565b505b604051906104e78083016001600160401b038111848210176101f6578492849261067e84396001600160a01b031681520301906000f080156101ea57600080546001600160a01b0319166001600160a01b03928316908117909155600080516020610b6583398151915254604080519382168452938301829052909290917f7e644d79422f17c01e4894b5f4f588d331ebfa28653d42ae832dc59e38c9798f9190a181156101d4576001600160a01b03191617600080516020610b658339815191525560405161038a90816102f48239f35b633173bdd160e11b600052600060045260246000fd5b6040513d6000823e3d90fd5b634e487b7160e01b600052604160045260246000fd5b9061010091606091610292565b505034156101025763b398979f60e01b60005260046000fd5b50634c9c8ce360e01b60009081526001600160a01b0391909116600452602490fd5b600080fd5b6040519190601f01601f191682016001600160401b038111838210176101f657604052565b51906001600160a01b038216820361025457565b906102b857508051156102a757805190602001fd5b63d6bda27560e01b60005260046000fd5b815115806102ea575b6102c9575090565b639996b31560e01b60009081526001600160a01b0391909116600452602490fd5b50803b156102c156fe6080604052600436101561001e575b361561001c5761001c6100b5565b005b60003560e01c80636e9960c31461007d57638f2839700361000e573461007857602036600319011261007857600435610056816100a4565b600080546001600160a01b0319166001600160a01b0392909216919091179055005b600080fd5b34610078576000366003190112610078576000546001600160a01b03166080908152602090f35b6001600160a01b0381160361007857565b600054336001600160a01b039091160361017e576000356001600160e01b03191663278f794360e11b146100f4576334ad5dbb60e21b60005260046000fd5b3660041161007857604036600319011261007857600435610114816100a4565b6024359067ffffffffffffffff82116100785736602383011215610078578160040135906101496101448361020c565b6101e1565b91808352366024828601011161007857602081600092602461017c970183870137840101526001600160a01b0316610228565b565b7f360894a13ba1a3210667c828492db98dca3e2076cc3735a920a3ca505d382bbc5460009081906001600160a01b0316368280378136915af43d6000803e156101c6573d6000f35b3d6000fd5b634e487b7160e01b600052604160045260246000fd5b6040519190601f01601f1916820167ffffffffffffffff81118382101761020757604052565b6101cb565b67ffffffffffffffff811161020757601f01601f191660200190565b90813b156102bf577f360894a13ba1a3210667c828492db98dca3e2076cc3735a920a3ca505d382bbc80546001600160a01b0319166001600160a01b0384169081179091557fbc7cd75a20ee27fd9adebab32041f755214dbc6bffa90cc0225b39da2e5c2d3b600080a28051156102a5576102a2916102e1565b50565b5050346102ae57565b63b398979f60e01b60005260046000fd5b50634c9c8ce360e01b60009081526001600160a01b0391909116600452602490fd5b60008061031593602081519101845af43d15610318573d916103056101448461020c565b9283523d6000602085013e61031c565b90565b6060915b90610342575080511561033157805190602001fd5b63d6bda27560e01b60005260046000fd5b81511580610374575b610353575090565b639996b31560e01b60009081526001600160a01b0391909116600452602490fd5b50803b1561034b56fea164736f6c634300081c000a60803460bc57601f6104e738819003918201601f19168301916001600160401b0383118484101760c15780849260209460405283398101031260bc57516001600160a01b0381169081900360bc57801560a657600080546001600160a01b031981168317825560405192916001600160a01b03909116907f8be0079c531659141344cd1fd0a4f28419497f9722a3daafe3b4186f6b6457e09080a361040f90816100d88239f35b631e4fbdf760e01b600052600060045260246000fd5b600080fd5b634e487b7160e01b600052604160045260246000fdfe608080604052600436101561001357600080fd5b600090813560e01c90816305f38c71146102c257508063715018a6146102685780638da5cb5b146102415780639623609d14610138578063ad3cb1cc146100eb5763f2fde38b1461006357600080fd5b346100e85760203660031901126100e85761007c610329565b6100846103d9565b6001600160a01b031680156100d45781546001600160a01b03198116821783556001600160a01b03167f8be0079c531659141344cd1fd0a4f28419497f9722a3daafe3b4186f6b6457e08380a380f35b631e4fbdf760e01b82526004829052602482fd5b80fd5b50346100e857806003193601126100e8575061013460405161010e604082610344565b60058152640352e302e360dc1b6020820152604051918291602083526020830190610398565b0390f35b5060603660031901126100e8576004356001600160a01b0381169081900361023d57816024356001600160a01b0381169081900361023d5760443567ffffffffffffffff8111610235573660238201121561023557806004013561019b8161037c565b916101a96040519384610344565b81835236602483830101116102395781859260246020930183860137830101526101d16103d9565b833b156102355761020793839260405180968194829363278f794360e11b84526004840152604060248401526044830190610398565b039134905af180156102285761021a5780f35b61022391610344565b388180f35b50604051903d90823e3d90fd5b8280fd5b8480fd5b5080fd5b50346100e857806003193601126100e857546040516001600160a01b039091168152602090f35b50346100e857806003193601126100e8576102816103d9565b80546001600160a01b03198116825581906001600160a01b03167f8be0079c531659141344cd1fd0a4f28419497f9722a3daafe3b4186f6b6457e08280a380f35b90503461023d57602036600319011261023d5790808060046020946102e5610329565b635c60da1b60e01b82525afa903d15610323573d906103038261037c565b916103116040519384610344565b8252833d92013e5b6040519015158152f35b50610319565b600435906001600160a01b038216820361033f57565b600080fd5b90601f8019910116810190811067ffffffffffffffff82111761036657604052565b634e487b7160e01b600052604160045260246000fd5b67ffffffffffffffff811161036657601f01601f191660200190565b919082519283825260005b8481106103c4575050826000602080949584010152601f8019910116010190565b806020809284010151828286010152016103a3565b6000546001600160a01b031633036103ed57565b63118cdaa760e01b6000523360045260246000fdfea164736f6c634300081c000ab53127684a568b3173ae13b9f8a6016e243e63b6e8ee1178d6a717850b5d6103",
  "linkReferences": {},
  "deployedLinkReferences": {}
}