{
  "_format": "hh-sol-artifact-1",
  "contractName": "DmtpProxy",
  "sourceName": "contracts/proxy/DmtpProxy.sol",
  "abi": [
    {
      "inputs": [
        {
          "internalType": "address",
          "name": "_logic",
          "type": "address"
        },
        {
          "internalType": "address",
          "name": "admin_",
          "type": "address"
        }
      ],
      "stateMutability": "payable",
      "type": "constructor"
    },
    {
      "inputs": [
        {
          "internalType": "address",
          "name": "target",
          "type": "address"
        }
      ],
      "name": "AddressEmptyCode",
      "type": "error"
    },
    {
      "inputs": [
        {
          "internalType": "address",
          "name": "admin",
          "type": "address"
        }
      ],
      "name": "ERC1967InvalidAdmin",
      "type": "error"
    },
    {
      "inputs": [
        {
          "internalType": "address",
          "name": "implementation",
          "type": "address"
        }
      ],
      "name": "ERC1967InvalidImplementation",
      "type": "error"
    },
    {
      "inputs": [],
      "name": "ERC1967NonPayable",
      "type": "error"
    },
    {
      "inputs": [],
      "name": "FailedCall",
      "type": "error"
    },
    {
      "inputs": [],
      "name": "ProxyDeniedAdminAccess",
      "type": "error"
    },
    {
      "anonymous": false,
      "inputs": [
        {
          "indexed": false,
          "internalType": "address",
          "name": "previousAdmin",
          "type": "address"
        },
        {
          "indexed": false,
          "internalType": "address",
          "name": "newAdmin",
          "type": "address"
        }
      ],
      "name": "AdminChanged",
      "type": "event"
    },
    {
      "anonymous": false,
      "inputs": [
        {
          "indexed": true,
          "internalType": "address",
          "name": "implementation",
          "type": "address"
        }
      ],
      "name": "Upgraded",
      "type": "event"
    },
    {
      "stateMutability": "payable",
      "type": "fallback"
    },
    {
      "inputs": [
        {
          "internalType": "address",
          "name": "newAdmin",
          "type": "address"
        }
      ],
      "name": "changeAdmin",
      "outputs": [],
      "stateMutability": "nonpayable",
      "type": "function"
    },
    {
      "inputs": [],
      "name": "getAdmin",
      "outputs": [
        {
          "internalType": "address",
          "name": "",
          "type": "address"
        }
      ],
      "stateMutability": "view",
      "type": "function"
    },
    {
      "stateMutability": "payable",
      "type": "receive"
    }
  ],
  "bytecode": "0x60806040526107306040813803918261001781610221565b93849283398101031261021c57610039602061003283610246565b9201610246565b60209161004583610221565b60008152813b156101fa577f360894a13ba1a3210667c828492db98dca3e2076cc3735a920a3ca505d382bbc80546001600160a01b0319166001600160a01b0384169081179091557fbc7cd75a20ee27fd9adebab32041f755214dbc6bffa90cc0225b39da2e5c2d3b600080a28051156101e157600081858293519101845af43d156101d4573d906001600160401b0382116101be57610100926100f1601f8401601f19168701610221565b9283523d60008785013e61025a565b505b600080546001600160a01b0319166001600160a01b0392831690811790915560008051602061071083398151915254604080519382168452938301829052909290917f7e644d79422f17c01e4894b5f4f588d331ebfa28653d42ae832dc59e38c9798f9190a181156101a8576001600160a01b03199081169190911760008051602061071083398151915255600180549091163317905560405161045490816102bc8239f35b633173bdd160e11b600052600060045260246000fd5b634e487b7160e01b600052604160045260246000fd5b906101009160609161025a565b505034156101025763b398979f60e01b60005260046000fd5b50634c9c8ce360e01b60009081526001600160a01b0391909116600452602490fd5b600080fd5b6040519190601f01601f191682016001600160401b038111838210176101be57604052565b51906001600160a01b038216820361021c57565b90610280575080511561026f57805190602001fd5b63d6bda27560e01b60005260046000fd5b815115806102b2575b610291575090565b639996b31560e01b60009081526001600160a01b0391909116600452602490fd5b50803b1561028956fe6080604052600436101561001e575b361561001c5761001c61017f565b005b60003560e01c80636e9960c31461014757638f2839700361000e5734610142576020366003190112610142576004356100568161016e565b6001546001600160a01b0316330361012d5760018060a01b0316806bffffffffffffffffffffffff60a01b60005416176000557fb53127684a568b3173ae13b9f8a6016e243e63b6e8ee1178d6a717850b5d6103547f7e644d79422f17c01e4894b5f4f588d331ebfa28653d42ae832dc59e38c9798f6040805160018060a01b0384168152846020820152a18115610117576001600160a01b031916177fb53127684a568b3173ae13b9f8a6016e243e63b6e8ee1178d6a717850b5d610355005b633173bdd160e11b600052600060045260246000fd5b633173bdd160e11b6000523360045260246000fd5b600080fd5b34610142576000366003190112610142576000546001600160a01b03166080908152602090f35b6001600160a01b0381160361014257565b600054336001600160a01b0390911603610248576000356001600160e01b03191663278f794360e11b146101be576334ad5dbb60e21b60005260046000fd5b36600411610142576040366003190112610142576004356101de8161016e565b6024359067ffffffffffffffff821161014257366023830112156101425781600401359061021361020e836102d6565b6102ab565b918083523660248286010111610142576020816000926024610246970183870137840101526001600160a01b03166102f2565b565b7f360894a13ba1a3210667c828492db98dca3e2076cc3735a920a3ca505d382bbc5460009081906001600160a01b0316368280378136915af43d6000803e15610290573d6000f35b3d6000fd5b634e487b7160e01b600052604160045260246000fd5b6040519190601f01601f1916820167ffffffffffffffff8111838210176102d157604052565b610295565b67ffffffffffffffff81116102d157601f01601f191660200190565b90813b15610389577f360894a13ba1a3210667c828492db98dca3e2076cc3735a920a3ca505d382bbc80546001600160a01b0319166001600160a01b0384169081179091557fbc7cd75a20ee27fd9adebab32041f755214dbc6bffa90cc0225b39da2e5c2d3b600080a280511561036f5761036c916103ab565b50565b50503461037857565b63b398979f60e01b60005260046000fd5b50634c9c8ce360e01b60009081526001600160a01b0391909116600452602490fd5b6000806103df93602081519101845af43d156103e2573d916103cf61020e846102d6565b9283523d6000602085013e6103e6565b90565b6060915b9061040c57508051156103fb57805190602001fd5b63d6bda27560e01b60005260046000fd5b8151158061043e575b61041d575090565b639996b31560e01b60009081526001600160a01b0391909116600452602490fd5b50803b1561041556fea164736f6c634300081c000ab53127684a568b3173ae13b9f8a6016e243e63b6e8ee1178d6a717850b5d6103",
  "linkReferences": {},
  "deployedLinkReferences": {}
}