{
  "_format": "hh-sol-artifact-1",
  "contractName": "DmtpProxy",
  "sourceName": "contracts/proxy/DmtpProxy.sol",
  "abi": [
    {
      "inputs": [
        {
          "internalType": "address",
          "name": "_logic",
          "type": "address"
        },
        {
          "internalType": "address",
          "name": "initialOwner",
          "type": "address"
        }
      ],
      "stateMutability": "payable",
      "type": "constructor"
    },
    {
      "inputs": [
        {
          "internalType": "address",
          "name": "target",
          "type": "address"
        }
      ],
      "name": "AddressEmptyCode",
      "type": "error"
    },
    {
      "inputs": [
        {
          "internalType": "address",
          "name": "admin",
          "type": "address"
        }
      ],
      "name": "ERC1967InvalidAdmin",
      "type": "error"
    },
    {
      "inputs": [
        {
          "internalType": "address",
          "name": "implementation",
          "type": "address"
        }
      ],
      "name": "ERC1967InvalidImplementation",
      "type": "error"
    },
    {
      "inputs": [],
      "name": "ERC1967NonPayable",
      "type": "error"
    },
    {
      "inputs": [],
      "name": "FailedCall",
      "type": "error"
    },
    {
      "inputs": [],
      "name": "ProxyDeniedAdminAccess",
      "type": "error"
    },
    {
      "anonymous": false,
      "inputs": [
        {
          "indexed": false,
          "internalType": "address",
          "name": "previousAdmin",
          "type": "address"
        },
        {
          "indexed": false,
          "internalType": "address",
          "name": "newAdmin",
          "type": "address"
        }
      ],
      "name": "AdminChanged",
      "type": "event"
    },
    {
      "anonymous": false,
      "inputs": [
        {
          "indexed": true,
          "internalType": "address",
          "name": "implementation",
          "type": "address"
        }
      ],
      "name": "Upgraded",
      "type": "event"
    },
    {
      "stateMutability": "payable",
      "type": "fallback"
    },
    {
      "inputs": [],
      "name": "_initialOwner",
      "outputs": [
        {
          "internalType": "address",
          "name": "",
          "type": "address"
        }
      ],
      "stateMutability": "view",
      "type": "function"
    },
    {
      "inputs": [
        {
          "internalType": "address",
          "name": "newAdmin",
          "type": "address"
        }
      ],
      "name": "changeAdmin",
      "outputs": [],
      "stateMutability": "nonpayable",
      "type": "function"
    },
    {
      "inputs": [],
      "name": "getAdmin",
      "outputs": [
        {
          "internalType": "address",
          "name": "",
          "type": "address"
        }
      ],
      "stateMutability": "view",
      "type": "function"
    },
    {
      "stateMutability": "payable",
      "type": "receive"
    }
  ],
  "bytecode": "0x6080604052610c79604081380391826100178161026c565b93849283398101031261026757610039602061003283610291565b9201610291565b906020906100468261026c565b60008152813b15610245577f360894a13ba1a3210667c828492db98dca3e2076cc3735a920a3ca505d382bbc80546001600160a01b0319166001600160a01b0384169081179091557fbc7cd75a20ee27fd9adebab32041f755214dbc6bffa90cc0225b39da2e5c2d3b600080a280511561022c57600081848293519101845af43d1561021f573d906001600160401b03821161020957610101926100f2601f8401601f1916860161026c565b9283523d60008685013e6102a5565b505b6040516104e780820193906001600160401b03851183861017610209578391839161077283396001600160a01b0316808652940301906000f080156101fd57600080546001600160a01b0319166001600160a01b03928316908117909155600080516020610c5983398151915254604080519382168452938301829052909290917f7e644d79422f17c01e4894b5f4f588d331ebfa28653d42ae832dc59e38c9798f9190a181156101e75760018060a01b03191617600080516020610c598339815191525560018060a01b0319600154161760015560405161046b90816103078239f35b633173bdd160e11b600052600060045260246000fd5b6040513d6000823e3d90fd5b634e487b7160e01b600052604160045260246000fd5b90610101916060916102a5565b505034156101035763b398979f60e01b60005260046000fd5b50634c9c8ce360e01b60009081526001600160a01b0391909116600452602490fd5b600080fd5b6040519190601f01601f191682016001600160401b0381118382101761020957604052565b51906001600160a01b038216820361026757565b906102cb57508051156102ba57805190602001fd5b63d6bda27560e01b60005260046000fd5b815115806102fd575b6102dc575090565b639996b31560e01b60009081526001600160a01b0391909116600452602490fd5b50803b156102d456fe6080604052600436101561001e575b361561001c5761001c610196565b005b60003560e01c806318efdb991461004e5780636e9960c31461004957638f2839700361000e576100b4565b61007a565b34610075576000366003190112610075576001546001600160a01b03166080908152602090f35b600080fd5b34610075576000366003190112610075576000546040516001600160a01b039091168152602090f35b6001600160a01b0381160361007557565b34610075576020366003190112610075576004356100d1816100a3565b60018060a01b0316806bffffffffffffffffffffffff60a01b60005416176000557fb53127684a568b3173ae13b9f8a6016e243e63b6e8ee1178d6a717850b5d6103547f7e644d79422f17c01e4894b5f4f588d331ebfa28653d42ae832dc59e38c9798f6040805160018060a01b0384168152846020820152a18115610180576001600160a01b031916177fb53127684a568b3173ae13b9f8a6016e243e63b6e8ee1178d6a717850b5d610355005b633173bdd160e11b600052600060045260246000fd5b600054336001600160a01b039091160361025f576000356001600160e01b03191663278f794360e11b146101d5576334ad5dbb60e21b60005260046000fd5b36600411610075576040366003190112610075576004356101f5816100a3565b6024359067ffffffffffffffff821161007557366023830112156100755781600401359061022a610225836102ed565b6102c2565b91808352366024828601011161007557602081600092602461025d970183870137840101526001600160a01b0316610309565b565b7f360894a13ba1a3210667c828492db98dca3e2076cc3735a920a3ca505d382bbc5460009081906001600160a01b0316368280378136915af43d6000803e156102a7573d6000f35b3d6000fd5b634e487b7160e01b600052604160045260246000fd5b6040519190601f01601f1916820167ffffffffffffffff8111838210176102e857604052565b6102ac565b67ffffffffffffffff81116102e857601f01601f191660200190565b90813b156103a0577f360894a13ba1a3210667c828492db98dca3e2076cc3735a920a3ca505d382bbc80546001600160a01b0319166001600160a01b0384169081179091557fbc7cd75a20ee27fd9adebab32041f755214dbc6bffa90cc0225b39da2e5c2d3b600080a280511561038657610383916103c2565b50565b50503461038f57565b63b398979f60e01b60005260046000fd5b50634c9c8ce360e01b60009081526001600160a01b0391909116600452602490fd5b6000806103f693602081519101845af43d156103f9573d916103e6610225846102ed565b9283523d6000602085013e6103fd565b90565b6060915b90610423575080511561041257805190602001fd5b63d6bda27560e01b60005260046000fd5b81511580610455575b610434575090565b639996b31560e01b60009081526001600160a01b0391909116600452602490fd5b50803b1561042c56fea164736f6c634300081c000a60803460bc57601f6104e738819003918201601f19168301916001600160401b0383118484101760c15780849260209460405283398101031260bc57516001600160a01b0381169081900360bc57801560a657600080546001600160a01b031981168317825560405192916001600160a01b03909116907f8be0079c531659141344cd1fd0a4f28419497f9722a3daafe3b4186f6b6457e09080a361040f90816100d88239f35b631e4fbdf760e01b600052600060045260246000fd5b600080fd5b634e487b7160e01b600052604160045260246000fdfe608080604052600436101561001357600080fd5b600090813560e01c90816305f38c71146102c257508063715018a6146102685780638da5cb5b146102415780639623609d14610138578063ad3cb1cc146100eb5763f2fde38b1461006357600080fd5b346100e85760203660031901126100e85761007c610329565b6100846103d9565b6001600160a01b031680156100d45781546001600160a01b03198116821783556001600160a01b03167f8be0079c531659141344cd1fd0a4f28419497f9722a3daafe3b4186f6b6457e08380a380f35b631e4fbdf760e01b82526004829052602482fd5b80fd5b50346100e857806003193601126100e8575061013460405161010e604082610344565b60058152640352e302e360dc1b6020820152604051918291602083526020830190610398565b0390f35b5060603660031901126100e8576004356001600160a01b0381169081900361023d57816024356001600160a01b0381169081900361023d5760443567ffffffffffffffff8111610235573660238201121561023557806004013561019b8161037c565b916101a96040519384610344565b81835236602483830101116102395781859260246020930183860137830101526101d16103d9565b833b156102355761020793839260405180968194829363278f794360e11b84526004840152604060248401526044830190610398565b039134905af180156102285761021a5780f35b61022391610344565b388180f35b50604051903d90823e3d90fd5b8280fd5b8480fd5b5080fd5b50346100e857806003193601126100e857546040516001600160a01b039091168152602090f35b50346100e857806003193601126100e8576102816103d9565b80546001600160a01b03198116825581906001600160a01b03167f8be0079c531659141344cd1fd0a4f28419497f9722a3daafe3b4186f6b6457e08280a380f35b90503461023d57602036600319011261023d5790808060046020946102e5610329565b635c60da1b60e01b82525afa903d15610323573d906103038261037c565b916103116040519384610344565b8252833d92013e5b6040519015158152f35b50610319565b600435906001600160a01b038216820361033f57565b600080fd5b90601f8019910116810190811067ffffffffffffffff82111761036657604052565b634e487b7160e01b600052604160045260246000fd5b67ffffffffffffffff811161036657601f01601f191660200190565b919082519283825260005b8481106103c4575050826000602080949584010152601f8019910116010190565b806020809284010151828286010152016103a3565b6000546001600160a01b031633036103ed57565b63118cdaa760e01b6000523360045260246000fdfea164736f6c634300081c000ab53127684a568b3173ae13b9f8a6016e243e63b6e8ee1178d6a717850b5d6103",
  "linkReferences": {},
  "deployedLinkReferences": {}
}