{"contracts/proxy/DmtpProxyAdmin.sol":{"DmtpProxyAdmin":{"abi":[{"inputs":[{"internalType":"address","name":"initialOwner","type":"address"}],"stateMutability":"nonpayable","type":"constructor"},{"inputs":[{"internalType":"address","name":"owner","type":"address"}],"name":"OwnableInvalidOwner","type":"error"},{"inputs":[{"internalType":"address","name":"account","type":"address"}],"name":"OwnableUnauthorizedAccount","type":"error"},{"anonymous":false,"inputs":[{"indexed":true,"internalType":"address","name":"previousOwner","type":"address"},{"indexed":true,"internalType":"address","name":"newOwner","type":"address"}],"name":"OwnershipTransferred","type":"event"},{"inputs":[],"name":"UPGRADE_INTERFACE_VERSION","outputs":[{"internalType":"string","name":"","type":"string"}],"stateMutability":"view","type":"function"},{"inputs":[{"internalType":"address","name":"proxy","type":"address"}],"name":"isAdminOf","outputs":[{"internalType":"bool","name":"","type":"bool"}],"stateMutability":"view","type":"function"},{"inputs":[],"name":"owner","outputs":[{"internalType":"address","name":"","type":"address"}],"stateMutability":"view","type":"function"},{"inputs":[],"name":"renounceOwnership","outputs":[],"stateMutability":"nonpayable","type":"function"},{"inputs":[{"internalType":"address","name":"newOwner","type":"address"}],"name":"transferOwnership","outputs":[],"stateMutability":"nonpayable","type":"function"},{"inputs":[{"internalType":"contract ITransparentUpgradeableProxy","name":"proxy","type":"address"},{"internalType":"address","name":"implementation","type":"address"},{"internalType":"bytes","name":"data","type":"bytes"}],"name":"upgradeAndCall","outputs":[],"stateMutability":"payable","type":"function"}],"devdoc":{"errors":{"OwnableInvalidOwner(address)":[{"details":"The owner is not a valid owner account. (eg. `address(0)`)"}],"OwnableUnauthorizedAccount(address)":[{"details":"The caller account is not authorized to perform an operation."}]},"kind":"dev","methods":{"owner()":{"details":"Returns the address of the current owner."},"renounceOwnership()":{"details":"Leaves the contract without owner. It will not be possible to call `onlyOwner` functions. Can only be called by the current owner. NOTE: Renouncing ownership will leave the contract without an owner, thereby disabling any functionality that is only available to the owner."},"transferOwnership(address)":{"details":"Transfers ownership of the contract to a new account (`newOwner`). Can only be called by the current owner."},"upgradeAndCall(address,address,bytes)":{"details":"Upgrades `proxy` to `implementation` and calls a function on the new implementation. See {TransparentUpgradeableProxy-_dispatchUpgradeToAndCall}. Requirements: - This contract must be the admin of `proxy`. - If `data` is empty, `msg.value` must be zero."}},"version":1},"evm":{"assembly":"    /* \"contracts/proxy/DmtpProxyAdmin.sol\":127:560  contract DmtpProxyAdmin is ProxyAdmin {... */\n  0x80\n  jumpi(tag_7, callvalue)\n  0x1f\n  bytecodeSize\n  codesize\n  dup2\n  swap1\n  sub\n  swap2\n  dup3\n  add\n  not(0x1f)\n  and\n  dup4\n  add\n  swap2\n  sub(shl(0x40, 0x01), 0x01)\n  dup4\n  gt\n  dup5\n  dup5\n  lt\n  or\n  tag_3\n  jumpi\n  dup1\n  dup5\n  swap3\n  0x20\n  swap5\n  0x40\n  mstore\n  dup4\n  codecopy\n  dup2\n  add\n  sub\n  slt\n  tag_7\n  jumpi\n  mload\n  sub(shl(0xa0, 0x01), 0x01)\n  dup2\n  and\n  swap1\n  dup2\n  swap1\n  sub\n  tag_7\n  jumpi\n    /* \"@openzeppelin/contracts/access/Ownable.sol\":1273:1299  initialOwner == address(0) */\n  dup1\n  iszero\n    /* \"@openzeppelin/contracts/access/Ownable.sol\":1269:1364  if (initialOwner == address(0)) {... */\n  tag_9\n  jumpi\n  0x00\n    /* \"contracts/proxy/DmtpProxyAdmin.sol\":127:560  contract DmtpProxyAdmin is ProxyAdmin {... */\n  dup1\n  sload\n  not(sub(shl(0xa0, 0x01), 0x01))\n  dup2\n  and\n  dup4\n  or\n  dup3\n  sstore\n  mload(0x40)\n  swap3\n  swap2\n  sub(shl(0xa0, 0x01), 0x01)\n  swap1\n  swap2\n  and\n  swap1\n    /* \"@openzeppelin/contracts/access/Ownable.sol\":3052:3092  OwnershipTransferred(oldOwner, newOwner) */\n  0x8be0079c531659141344cd1fd0a4f28419497f9722a3daafe3b4186f6b6457e0\n  swap1\n  dup1\n  log3\n    /* \"contracts/proxy/DmtpProxyAdmin.sol\":127:560  contract DmtpProxyAdmin is ProxyAdmin {... */\n  dataSize(sub_0)\n  swap1\n  dup2\n  dataOffset(sub_0)\n  dup3\n  codecopy\n  return\n    /* \"@openzeppelin/contracts/access/Ownable.sol\":1269:1364  if (initialOwner == address(0)) {... */\ntag_9:\n    /* \"@openzeppelin/contracts/access/Ownable.sol\":1322:1353  OwnableInvalidOwner(address(0)) */\n  mstore(0x00, shl(0xe0, 0x1e4fbdf7))\n  0x00\n  0x04\n    /* \"contracts/proxy/DmtpProxyAdmin.sol\":127:560  contract DmtpProxyAdmin is ProxyAdmin {... */\n  mstore\n  0x24\n  0x00\n    /* \"@openzeppelin/contracts/access/Ownable.sol\":1322:1353  OwnableInvalidOwner(address(0)) */\n  revert\n    /* \"contracts/proxy/DmtpProxyAdmin.sol\":127:560  contract DmtpProxyAdmin is ProxyAdmin {... */\ntag_7:\n  0x00\n  dup1\n  revert\ntag_3:\n  mstore(0x00, shl(0xe0, 0x4e487b71))\n  mstore(0x04, 0x41)\n  revert(0x00, 0x24)\nstop\n\nsub_0: assembly {\n        /* \"contracts/proxy/DmtpProxyAdmin.sol\":127:560  contract DmtpProxyAdmin is ProxyAdmin {... */\n      0x80\n      dup1\n      0x40\n      mstore\n      jumpi(tag_6, iszero(lt(calldatasize, 0x04)))\n      0x00\n      dup1\n      revert\n    tag_6:\n      0x00\n      swap1\n      dup2\n      calldataload\n      0xe0\n      shr\n      swap1\n      dup2\n      0x05f38c71\n      eq\n      tag_8\n      jumpi\n      pop\n      dup1\n      0x715018a6\n      eq\n      tag_10\n      jumpi\n      dup1\n      0x8da5cb5b\n      eq\n      tag_12\n      jumpi\n      dup1\n      0x9623609d\n      eq\n      tag_14\n      jumpi\n      dup1\n      0xad3cb1cc\n      eq\n      tag_16\n      jumpi\n      0xf2fde38b\n      eq\n      tag_18\n      jumpi\n      0x00\n      dup1\n      revert\n    tag_18:\n      jumpi(tag_22, callvalue)\n      jumpi(tag_22, slt(add(not(0x03), calldatasize), 0x20))\n      tag_24\n      tag_1\n      jump\t// in\n    tag_24:\n        /* \"@openzeppelin/contracts/access/Ownable.sol\":1500:1562  modifier onlyOwner() {... */\n      tag_25\n      tag_5\n      jump\t// in\n    tag_25:\n      sub(shl(0xa0, 0x01), 0x01)\n        /* \"contracts/proxy/DmtpProxyAdmin.sol\":127:560  contract DmtpProxyAdmin is ProxyAdmin {... */\n      and\n        /* \"@openzeppelin/contracts/access/Ownable.sol\":2627:2649  newOwner == address(0) */\n      dup1\n      iszero\n        /* \"@openzeppelin/contracts/access/Ownable.sol\":2623:2714  if (newOwner == address(0)) {... */\n      tag_26\n      jumpi\n        /* \"contracts/proxy/DmtpProxyAdmin.sol\":127:560  contract DmtpProxyAdmin is ProxyAdmin {... */\n      dup2\n      sload\n      not(sub(shl(0xa0, 0x01), 0x01))\n      dup2\n      and\n      dup3\n      or\n      dup4\n      sstore\n      sub(shl(0xa0, 0x01), 0x01)\n      and\n        /* \"@openzeppelin/contracts/access/Ownable.sol\":3052:3092  OwnershipTransferred(oldOwner, newOwner) */\n      0x8be0079c531659141344cd1fd0a4f28419497f9722a3daafe3b4186f6b6457e0\n        /* \"contracts/proxy/DmtpProxyAdmin.sol\":127:560  contract DmtpProxyAdmin is ProxyAdmin {... */\n      dup4\n      dup1\n        /* \"@openzeppelin/contracts/access/Ownable.sol\":3052:3092  OwnershipTransferred(oldOwner, newOwner) */\n      log3\n        /* \"contracts/proxy/DmtpProxyAdmin.sol\":127:560  contract DmtpProxyAdmin is ProxyAdmin {... */\n      dup1\n      return\n        /* \"@openzeppelin/contracts/access/Ownable.sol\":2623:2714  if (newOwner == address(0)) {... */\n    tag_26:\n      shl(0xe0, 0x1e4fbdf7)\n        /* \"@openzeppelin/contracts/access/Ownable.sol\":2672:2703  OwnableInvalidOwner(address(0)) */\n      dup3\n      mstore\n        /* \"contracts/proxy/DmtpProxyAdmin.sol\":127:560  contract DmtpProxyAdmin is ProxyAdmin {... */\n      0x04\n      dup3\n      swap1\n      mstore\n      0x24\n        /* \"@openzeppelin/contracts/access/Ownable.sol\":2672:2703  OwnableInvalidOwner(address(0)) */\n      dup3\n      revert\n        /* \"contracts/proxy/DmtpProxyAdmin.sol\":127:560  contract DmtpProxyAdmin is ProxyAdmin {... */\n    tag_22:\n      dup1\n      revert\n    tag_16:\n      pop\n      jumpi(tag_22, callvalue)\n      dup1\n      add(calldatasize, not(0x03))\n      slt\n      tag_22\n      jumpi\n      pop\n      tag_32\n      mload(0x40)\n      tag_33\n      0x40\n      dup3\n      tag_2\n      jump\t// in\n    tag_33:\n      0x05\n      dup2\n      mstore\n      shl(0xdc, 0x0352e302e3)\n      0x20\n      dup3\n      add\n      mstore\n      mload(0x40)\n      swap2\n      dup3\n      swap2\n      0x20\n      dup4\n      mstore\n      0x20\n      dup4\n      add\n      swap1\n      tag_4\n      jump\t// in\n    tag_32:\n      sub\n      swap1\n      return\n    tag_14:\n      pop\n      jumpi(tag_22, slt(add(not(0x03), calldatasize), 0x60))\n      calldataload(0x04)\n      sub(shl(0xa0, 0x01), 0x01)\n      dup2\n      and\n      swap1\n      dup2\n      swap1\n      sub\n      tag_38\n      jumpi\n      dup2\n      calldataload(0x24)\n      sub(shl(0xa0, 0x01), 0x01)\n      dup2\n      and\n      swap1\n      dup2\n      swap1\n      sub\n      tag_38\n      jumpi\n      calldataload(0x44)\n      0xffffffffffffffff\n      dup2\n      gt\n      tag_49\n      jumpi\n      calldatasize\n      0x23\n      dup3\n      add\n      slt\n      iszero\n      tag_49\n      jumpi\n      dup1\n      0x04\n      add\n      calldataload\n      tag_44\n      dup2\n      tag_3\n      jump\t// in\n    tag_44:\n      swap2\n      tag_45\n      mload(0x40)\n      swap4\n      dup5\n      tag_2\n      jump\t// in\n    tag_45:\n      dup2\n      dup4\n      mstore\n      calldatasize\n      0x24\n      dup4\n      dup4\n      add\n      add\n      gt\n      tag_46\n      jumpi\n      dup2\n      dup6\n      swap3\n      0x24\n      0x20\n      swap4\n      add\n      dup4\n      dup7\n      add\n      calldatacopy\n      dup4\n      add\n      add\n      mstore\n        /* \"@openzeppelin/contracts/access/Ownable.sol\":1500:1562  modifier onlyOwner() {... */\n      tag_48\n      tag_5\n      jump\t// in\n    tag_48:\n        /* \"@openzeppelin/contracts/proxy/transparent/ProxyAdmin.sol\":1893:1955  proxy.upgradeToAndCall{value: msg.value}(implementation, data) */\n      dup4\n      extcodesize\n      iszero\n      tag_49\n      jumpi\n        /* \"contracts/proxy/DmtpProxyAdmin.sol\":127:560  contract DmtpProxyAdmin is ProxyAdmin {... */\n      tag_51\n      swap4\n      dup4\n      swap3\n      mload(0x40)\n      dup1\n      swap7\n      dup2\n      swap5\n      dup3\n      swap4\n      shl(0xe1, 0x278f7943)\n        /* \"@openzeppelin/contracts/proxy/transparent/ProxyAdmin.sol\":1893:1955  proxy.upgradeToAndCall{value: msg.value}(implementation, data) */\n      dup5\n      mstore\n        /* \"contracts/proxy/DmtpProxyAdmin.sol\":127:560  contract DmtpProxyAdmin is ProxyAdmin {... */\n      0x04\n        /* \"@openzeppelin/contracts/proxy/transparent/ProxyAdmin.sol\":1893:1955  proxy.upgradeToAndCall{value: msg.value}(implementation, data) */\n      dup5\n      add\n        /* \"contracts/proxy/DmtpProxyAdmin.sol\":127:560  contract DmtpProxyAdmin is ProxyAdmin {... */\n      mstore\n      0x40\n      0x24\n      dup5\n      add\n      mstore\n      0x44\n      dup4\n      add\n      swap1\n      tag_4\n      jump\t// in\n    tag_51:\n        /* \"@openzeppelin/contracts/proxy/transparent/ProxyAdmin.sol\":1893:1955  proxy.upgradeToAndCall{value: msg.value}(implementation, data) */\n      sub\n        /* \"@openzeppelin/contracts/proxy/transparent/ProxyAdmin.sol\":1923:1932  msg.value */\n      swap2\n      callvalue\n        /* \"@openzeppelin/contracts/proxy/transparent/ProxyAdmin.sol\":1893:1955  proxy.upgradeToAndCall{value: msg.value}(implementation, data) */\n      swap1\n      gas\n      call\n      dup1\n      iszero\n      tag_52\n      jumpi\n      tag_54\n      jumpi\n        /* \"contracts/proxy/DmtpProxyAdmin.sol\":127:560  contract DmtpProxyAdmin is ProxyAdmin {... */\n      dup1\n      return\n        /* \"@openzeppelin/contracts/proxy/transparent/ProxyAdmin.sol\":1893:1955  proxy.upgradeToAndCall{value: msg.value}(implementation, data) */\n    tag_54:\n      tag_56\n      swap2\n      tag_2\n      jump\t// in\n    tag_56:\n      codesize\n      dup2\n        /* \"contracts/proxy/DmtpProxyAdmin.sol\":127:560  contract DmtpProxyAdmin is ProxyAdmin {... */\n      dup1\n      return\n        /* \"@openzeppelin/contracts/proxy/transparent/ProxyAdmin.sol\":1893:1955  proxy.upgradeToAndCall{value: msg.value}(implementation, data) */\n    tag_52:\n        /* \"contracts/proxy/DmtpProxyAdmin.sol\":127:560  contract DmtpProxyAdmin is ProxyAdmin {... */\n      pop\n      mload(0x40)\n      swap1\n      returndatasize\n      swap1\n      dup3\n      returndatacopy\n      returndatasize\n      swap1\n      revert\n        /* \"@openzeppelin/contracts/proxy/transparent/ProxyAdmin.sol\":1893:1955  proxy.upgradeToAndCall{value: msg.value}(implementation, data) */\n    tag_49:\n        /* \"contracts/proxy/DmtpProxyAdmin.sol\":127:560  contract DmtpProxyAdmin is ProxyAdmin {... */\n      dup3\n      dup1\n      revert\n    tag_46:\n      dup5\n      dup1\n      revert\n    tag_38:\n      pop\n      dup1\n      revert\n    tag_12:\n      pop\n      jumpi(tag_22, callvalue)\n      dup1\n      add(calldatasize, not(0x03))\n      slt\n      tag_22\n      jumpi\n      sload\n      mload(0x40)\n      sub(shl(0xa0, 0x01), 0x01)\n      swap1\n      swap2\n      and\n      dup2\n      mstore\n      0x20\n      swap1\n      return\n    tag_10:\n      pop\n      jumpi(tag_22, callvalue)\n      dup1\n      add(calldatasize, not(0x03))\n      slt\n      tag_22\n      jumpi\n        /* \"@openzeppelin/contracts/access/Ownable.sol\":1500:1562  modifier onlyOwner() {... */\n      tag_65\n      tag_5\n      jump\t// in\n    tag_65:\n        /* \"contracts/proxy/DmtpProxyAdmin.sol\":127:560  contract DmtpProxyAdmin is ProxyAdmin {... */\n      dup1\n      sload\n      not(sub(shl(0xa0, 0x01), 0x01))\n      dup2\n      and\n      dup3\n      sstore\n      dup2\n      swap1\n      sub(shl(0xa0, 0x01), 0x01)\n      and\n        /* \"@openzeppelin/contracts/access/Ownable.sol\":3052:3092  OwnershipTransferred(oldOwner, newOwner) */\n      0x8be0079c531659141344cd1fd0a4f28419497f9722a3daafe3b4186f6b6457e0\n        /* \"contracts/proxy/DmtpProxyAdmin.sol\":127:560  contract DmtpProxyAdmin is ProxyAdmin {... */\n      dup3\n      dup1\n        /* \"@openzeppelin/contracts/access/Ownable.sol\":3052:3092  OwnershipTransferred(oldOwner, newOwner) */\n      log3\n        /* \"contracts/proxy/DmtpProxyAdmin.sol\":127:560  contract DmtpProxyAdmin is ProxyAdmin {... */\n      dup1\n      return\n    tag_8:\n      swap1\n      pop\n      jumpi(tag_38, callvalue)\n      jumpi(tag_38, slt(add(not(0x03), calldatasize), 0x20))\n      swap1\n      dup1\n      dup1\n      0x04\n      0x20\n      swap5\n      tag_70\n      tag_1\n      jump\t// in\n    tag_70:\n      shl(0xe0, 0x5c60da1b)\n      dup3\n      mstore\n        /* \"contracts/proxy/DmtpProxyAdmin.sol\":487:527  address(proxy).staticcall(hex\"5c60da1b\") */\n      gas\n      staticcall\n      swap1\n        /* \"contracts/proxy/DmtpProxyAdmin.sol\":127:560  contract DmtpProxyAdmin is ProxyAdmin {... */\n      jumpi(tag_71, iszero(returndatasize))\n      returndatasize\n      swap1\n      tag_73\n      dup3\n      tag_3\n      jump\t// in\n    tag_73:\n      swap2\n      tag_74\n      mload(0x40)\n      swap4\n      dup5\n      tag_2\n      jump\t// in\n    tag_74:\n      dup3\n      mstore\n      dup4\n      returndatasize\n      swap3\n      add\n      returndatacopy\n    tag_75:\n      mload(0x40)\n      swap1\n      iszero\n      iszero\n      dup2\n      mstore\n      return\n    tag_71:\n      pop\n      jump(tag_75)\n    tag_1:\n      calldataload(0x04)\n      swap1\n      sub(shl(0xa0, 0x01), 0x01)\n      dup3\n      and\n      dup3\n      sub\n      tag_76\n      jumpi\n      jump\t// out\n    tag_76:\n      0x00\n      dup1\n      revert\n    tag_2:\n      swap1\n      0x1f\n      dup1\n      not\n      swap2\n      add\n      and\n      dup2\n      add\n      swap1\n      dup2\n      lt\n      0xffffffffffffffff\n      dup3\n      gt\n      or\n      tag_78\n      jumpi\n      0x40\n      mstore\n      jump\t// out\n    tag_78:\n      mstore(0x00, shl(0xe0, 0x4e487b71))\n      mstore(0x04, 0x41)\n      revert(0x00, 0x24)\n    tag_3:\n      0xffffffffffffffff\n      dup2\n      gt\n      tag_78\n      jumpi\n      0x1f\n      add\n      not(0x1f)\n      and\n      0x20\n      add\n      swap1\n      jump\t// out\n    tag_4:\n      swap2\n      swap1\n      dup3\n      mload\n      swap3\n      dup4\n      dup3\n      mstore\n      0x00\n    tag_82:\n      dup5\n      dup2\n      lt\n      tag_83\n      jumpi\n      pop\n      pop\n      dup3\n      0x00\n      0x20\n      dup1\n      swap5\n      swap6\n      dup5\n      add\n      add\n      mstore\n      0x1f\n      dup1\n      not\n      swap2\n      add\n      and\n      add\n      add\n      swap1\n      jump\t// out\n    tag_83:\n      dup1\n      0x20\n      dup1\n      swap3\n      dup5\n      add\n      add\n      mload\n      dup3\n      dup3\n      dup7\n      add\n      add\n      mstore\n      add\n      jump(tag_82)\n        /* \"@openzeppelin/contracts/access/Ownable.sol\":1796:1958  function _checkOwner() internal view virtual {... */\n    tag_5:\n        /* \"@openzeppelin/contracts/access/Ownable.sol\":1710:1716  _owner */\n      0x00\n        /* \"contracts/proxy/DmtpProxyAdmin.sol\":127:560  contract DmtpProxyAdmin is ProxyAdmin {... */\n      sload\n      sub(shl(0xa0, 0x01), 0x01)\n      and\n        /* \"@openzeppelin/contracts/utils/Context.sol\":735:745  msg.sender */\n      caller\n        /* \"@openzeppelin/contracts/access/Ownable.sol\":1855:1878  owner() != _msgSender() */\n      sub\n        /* \"@openzeppelin/contracts/access/Ownable.sol\":1851:1952  if (owner() != _msgSender()) {... */\n      tag_85\n      jumpi\n        /* \"@openzeppelin/contracts/access/Ownable.sol\":1796:1958  function _checkOwner() internal view virtual {... */\n      jump\t// out\n        /* \"@openzeppelin/contracts/access/Ownable.sol\":1851:1952  if (owner() != _msgSender()) {... */\n    tag_85:\n        /* \"@openzeppelin/contracts/access/Ownable.sol\":1901:1941  OwnableUnauthorizedAccount(_msgSender()) */\n      shl(0xe0, 0x118cdaa7)\n        /* \"@openzeppelin/contracts/access/Ownable.sol\":1710:1716  _owner */\n      0x00\n        /* \"@openzeppelin/contracts/access/Ownable.sol\":1901:1941  OwnableUnauthorizedAccount(_msgSender()) */\n      mstore\n        /* \"@openzeppelin/contracts/utils/Context.sol\":735:745  msg.sender */\n      caller\n        /* \"@openzeppelin/contracts/access/Ownable.sol\":1901:1941  OwnableUnauthorizedAccount(_msgSender()) */\n      0x04\n        /* \"contracts/proxy/DmtpProxyAdmin.sol\":127:560  contract DmtpProxyAdmin is ProxyAdmin {... */\n      mstore\n      0x24\n        /* \"@openzeppelin/contracts/access/Ownable.sol\":1710:1716  _owner */\n      0x00\n        /* \"@openzeppelin/contracts/access/Ownable.sol\":1901:1941  OwnableUnauthorizedAccount(_msgSender()) */\n      revert\n\n    auxdata: 0xa164736f6c634300081c000a\n}\n","bytecode":{"linkReferences":{},"object":"60803460bc57601f6104e738819003918201601f19168301916001600160401b0383118484101760c15780849260209460405283398101031260bc57516001600160a01b0381169081900360bc57801560a657600080546001600160a01b031981168317825560405192916001600160a01b03909116907f8be0079c531659141344cd1fd0a4f28419497f9722a3daafe3b4186f6b6457e09080a361040f90816100d88239f35b631e4fbdf760e01b600052600060045260246000fd5b600080fd5b634e487b7160e01b600052604160045260246000fdfe608080604052600436101561001357600080fd5b600090813560e01c90816305f38c71146102c257508063715018a6146102685780638da5cb5b146102415780639623609d14610138578063ad3cb1cc146100eb5763f2fde38b1461006357600080fd5b346100e85760203660031901126100e85761007c610329565b6100846103d9565b6001600160a01b031680156100d45781546001600160a01b03198116821783556001600160a01b03167f8be0079c531659141344cd1fd0a4f28419497f9722a3daafe3b4186f6b6457e08380a380f35b631e4fbdf760e01b82526004829052602482fd5b80fd5b50346100e857806003193601126100e8575061013460405161010e604082610344565b60058152640352e302e360dc1b6020820152604051918291602083526020830190610398565b0390f35b5060603660031901126100e8576004356001600160a01b0381169081900361023d57816024356001600160a01b0381169081900361023d5760443567ffffffffffffffff8111610235573660238201121561023557806004013561019b8161037c565b916101a96040519384610344565b81835236602483830101116102395781859260246020930183860137830101526101d16103d9565b833b156102355761020793839260405180968194829363278f794360e11b84526004840152604060248401526044830190610398565b039134905af180156102285761021a5780f35b61022391610344565b388180f35b50604051903d90823e3d90fd5b8280fd5b8480fd5b5080fd5b50346100e857806003193601126100e857546040516001600160a01b039091168152602090f35b50346100e857806003193601126100e8576102816103d9565b80546001600160a01b03198116825581906001600160a01b03167f8be0079c531659141344cd1fd0a4f28419497f9722a3daafe3b4186f6b6457e08280a380f35b90503461023d57602036600319011261023d5790808060046020946102e5610329565b635c60da1b60e01b82525afa903d15610323573d906103038261037c565b916103116040519384610344565b8252833d92013e5b6040519015158152f35b50610319565b600435906001600160a01b038216820361033f57565b600080fd5b90601f8019910116810190811067ffffffffffffffff82111761036657604052565b634e487b7160e01b600052604160045260246000fd5b67ffffffffffffffff811161036657601f01601f191660200190565b919082519283825260005b8481106103c4575050826000602080949584010152601f8019910116010190565b806020809284010151828286010152016103a3565b6000546001600160a01b031633036103ed57565b63118cdaa760e01b6000523360045260246000fdfea164736f6c634300081c000a","opcodes":"PUSH1 0x80 CALLVALUE PUSH1 0xBC JUMPI PUSH1 0x1F PUSH2 0x4E7 CODESIZE DUP2 SWAP1 SUB SWAP2 DUP3 ADD PUSH1 0x1F NOT AND DUP4 ADD SWAP2 PUSH1 0x1 PUSH1 0x1 PUSH1 0x40 SHL SUB DUP4 GT DUP5 DUP5 LT OR PUSH1 0xC1 JUMPI DUP1 DUP5 SWAP3 PUSH1 0x20 SWAP5 PUSH1 0x40 MSTORE DUP4 CODECOPY DUP2 ADD SUB SLT PUSH1 0xBC JUMPI MLOAD PUSH1 0x1 PUSH1 0x1 PUSH1 0xA0 SHL SUB DUP2 AND SWAP1 DUP2 SWAP1 SUB PUSH1 0xBC JUMPI DUP1 ISZERO PUSH1 0xA6 JUMPI PUSH1 0x0 DUP1 SLOAD PUSH1 0x1 PUSH1 0x1 PUSH1 0xA0 SHL SUB NOT DUP2 AND DUP4 OR DUP3 SSTORE PUSH1 0x40 MLOAD SWAP3 SWAP2 PUSH1 0x1 PUSH1 0x1 PUSH1 0xA0 SHL SUB SWAP1 SWAP2 AND SWAP1 PUSH32 0x8BE0079C531659141344CD1FD0A4F28419497F9722A3DAAFE3B4186F6B6457E0 SWAP1 DUP1 LOG3 PUSH2 0x40F SWAP1 DUP2 PUSH2 0xD8 DUP3 CODECOPY RETURN JUMPDEST PUSH4 0x1E4FBDF7 PUSH1 0xE0 SHL PUSH1 0x0 MSTORE PUSH1 0x0 PUSH1 0x4 MSTORE PUSH1 0x24 PUSH1 0x0 REVERT JUMPDEST PUSH1 0x0 DUP1 REVERT JUMPDEST PUSH4 0x4E487B71 PUSH1 0xE0 SHL PUSH1 0x0 MSTORE PUSH1 0x41 PUSH1 0x4 MSTORE PUSH1 0x24 PUSH1 0x0 REVERT INVALID PUSH1 0x80 DUP1 PUSH1 0x40 MSTORE PUSH1 0x4 CALLDATASIZE LT ISZERO PUSH2 0x13 JUMPI PUSH1 0x0 DUP1 REVERT JUMPDEST PUSH1 0x0 SWAP1 DUP2 CALLDATALOAD PUSH1 0xE0 SHR SWAP1 DUP2 PUSH4 0x5F38C71 EQ PUSH2 0x2C2 JUMPI POP DUP1 PUSH4 0x715018A6 EQ PUSH2 0x268 JUMPI DUP1 PUSH4 0x8DA5CB5B EQ PUSH2 0x241 JUMPI DUP1 PUSH4 0x9623609D EQ PUSH2 0x138 JUMPI DUP1 PUSH4 0xAD3CB1CC EQ PUSH2 0xEB JUMPI PUSH4 0xF2FDE38B EQ PUSH2 0x63 JUMPI PUSH1 0x0 DUP1 REVERT JUMPDEST CALLVALUE PUSH2 0xE8 JUMPI PUSH1 0x20 CALLDATASIZE PUSH1 0x3 NOT ADD SLT PUSH2 0xE8 JUMPI PUSH2 0x7C PUSH2 0x329 JUMP JUMPDEST PUSH2 0x84 PUSH2 0x3D9 JUMP JUMPDEST PUSH1 0x1 PUSH1 0x1 PUSH1 0xA0 SHL SUB AND DUP1 ISZERO PUSH2 0xD4 JUMPI DUP2 SLOAD PUSH1 0x1 PUSH1 0x1 PUSH1 0xA0 SHL SUB NOT DUP2 AND DUP3 OR DUP4 SSTORE PUSH1 0x1 PUSH1 0x1 PUSH1 0xA0 SHL SUB AND PUSH32 0x8BE0079C531659141344CD1FD0A4F28419497F9722A3DAAFE3B4186F6B6457E0 DUP4 DUP1 LOG3 DUP1 RETURN JUMPDEST PUSH4 0x1E4FBDF7 PUSH1 0xE0 SHL DUP3 MSTORE PUSH1 0x4 DUP3 SWAP1 MSTORE PUSH1 0x24 DUP3 REVERT JUMPDEST DUP1 REVERT JUMPDEST POP CALLVALUE PUSH2 0xE8 JUMPI DUP1 PUSH1 0x3 NOT CALLDATASIZE ADD SLT PUSH2 0xE8 JUMPI POP PUSH2 0x134 PUSH1 0x40 MLOAD PUSH2 0x10E PUSH1 0x40 DUP3 PUSH2 0x344 JUMP JUMPDEST PUSH1 0x5 DUP2 MSTORE PUSH5 0x352E302E3 PUSH1 0xDC SHL PUSH1 0x20 DUP3 ADD MSTORE PUSH1 0x40 MLOAD SWAP2 DUP3 SWAP2 PUSH1 0x20 DUP4 MSTORE PUSH1 0x20 DUP4 ADD SWAP1 PUSH2 0x398 JUMP JUMPDEST SUB SWAP1 RETURN JUMPDEST POP PUSH1 0x60 CALLDATASIZE PUSH1 0x3 NOT ADD SLT PUSH2 0xE8 JUMPI PUSH1 0x4 CALLDATALOAD PUSH1 0x1 PUSH1 0x1 PUSH1 0xA0 SHL SUB DUP2 AND SWAP1 DUP2 SWAP1 SUB PUSH2 0x23D JUMPI DUP2 PUSH1 0x24 CALLDATALOAD PUSH1 0x1 PUSH1 0x1 PUSH1 0xA0 SHL SUB DUP2 AND SWAP1 DUP2 SWAP1 SUB PUSH2 0x23D JUMPI PUSH1 0x44 CALLDATALOAD PUSH8 0xFFFFFFFFFFFFFFFF DUP2 GT PUSH2 0x235 JUMPI CALLDATASIZE PUSH1 0x23 DUP3 ADD SLT ISZERO PUSH2 0x235 JUMPI DUP1 PUSH1 0x4 ADD CALLDATALOAD PUSH2 0x19B DUP2 PUSH2 0x37C JUMP JUMPDEST SWAP2 PUSH2 0x1A9 PUSH1 0x40 MLOAD SWAP4 DUP5 PUSH2 0x344 JUMP JUMPDEST DUP2 DUP4 MSTORE CALLDATASIZE PUSH1 0x24 DUP4 DUP4 ADD ADD GT PUSH2 0x239 JUMPI DUP2 DUP6 SWAP3 PUSH1 0x24 PUSH1 0x20 SWAP4 ADD DUP4 DUP7 ADD CALLDATACOPY DUP4 ADD ADD MSTORE PUSH2 0x1D1 PUSH2 0x3D9 JUMP JUMPDEST DUP4 EXTCODESIZE ISZERO PUSH2 0x235 JUMPI PUSH2 0x207 SWAP4 DUP4 SWAP3 PUSH1 0x40 MLOAD DUP1 SWAP7 DUP2 SWAP5 DUP3 SWAP4 PUSH4 0x278F7943 PUSH1 0xE1 SHL DUP5 MSTORE PUSH1 0x4 DUP5 ADD MSTORE PUSH1 0x40 PUSH1 0x24 DUP5 ADD MSTORE PUSH1 0x44 DUP4 ADD SWAP1 PUSH2 0x398 JUMP JUMPDEST SUB SWAP2 CALLVALUE SWAP1 GAS CALL DUP1 ISZERO PUSH2 0x228 JUMPI PUSH2 0x21A JUMPI DUP1 RETURN JUMPDEST PUSH2 0x223 SWAP2 PUSH2 0x344 JUMP JUMPDEST CODESIZE DUP2 DUP1 RETURN JUMPDEST POP PUSH1 0x40 MLOAD SWAP1 RETURNDATASIZE SWAP1 DUP3 RETURNDATACOPY RETURNDATASIZE SWAP1 REVERT JUMPDEST DUP3 DUP1 REVERT JUMPDEST DUP5 DUP1 REVERT JUMPDEST POP DUP1 REVERT JUMPDEST POP CALLVALUE PUSH2 0xE8 JUMPI DUP1 PUSH1 0x3 NOT CALLDATASIZE ADD SLT PUSH2 0xE8 JUMPI SLOAD PUSH1 0x40 MLOAD PUSH1 0x1 PUSH1 0x1 PUSH1 0xA0 SHL SUB SWAP1 SWAP2 AND DUP2 MSTORE PUSH1 0x20 SWAP1 RETURN JUMPDEST POP CALLVALUE PUSH2 0xE8 JUMPI DUP1 PUSH1 0x3 NOT CALLDATASIZE ADD SLT PUSH2 0xE8 JUMPI PUSH2 0x281 PUSH2 0x3D9 JUMP JUMPDEST DUP1 SLOAD PUSH1 0x1 PUSH1 0x1 PUSH1 0xA0 SHL SUB NOT DUP2 AND DUP3 SSTORE DUP2 SWAP1 PUSH1 0x1 PUSH1 0x1 PUSH1 0xA0 SHL SUB AND PUSH32 0x8BE0079C531659141344CD1FD0A4F28419497F9722A3DAAFE3B4186F6B6457E0 DUP3 DUP1 LOG3 DUP1 RETURN JUMPDEST SWAP1 POP CALLVALUE PUSH2 0x23D JUMPI PUSH1 0x20 CALLDATASIZE PUSH1 0x3 NOT ADD SLT PUSH2 0x23D JUMPI SWAP1 DUP1 DUP1 PUSH1 0x4 PUSH1 0x20 SWAP5 PUSH2 0x2E5 PUSH2 0x329 JUMP JUMPDEST PUSH4 0x5C60DA1B PUSH1 0xE0 SHL DUP3 MSTORE GAS STATICCALL SWAP1 RETURNDATASIZE ISZERO PUSH2 0x323 JUMPI RETURNDATASIZE SWAP1 PUSH2 0x303 DUP3 PUSH2 0x37C JUMP JUMPDEST SWAP2 PUSH2 0x311 PUSH1 0x40 MLOAD SWAP4 DUP5 PUSH2 0x344 JUMP JUMPDEST DUP3 MSTORE DUP4 RETURNDATASIZE SWAP3 ADD RETURNDATACOPY JUMPDEST PUSH1 0x40 MLOAD SWAP1 ISZERO ISZERO DUP2 MSTORE RETURN JUMPDEST POP PUSH2 0x319 JUMP JUMPDEST PUSH1 0x4 CALLDATALOAD SWAP1 PUSH1 0x1 PUSH1 0x1 PUSH1 0xA0 SHL SUB DUP3 AND DUP3 SUB PUSH2 0x33F JUMPI JUMP JUMPDEST PUSH1 0x0 DUP1 REVERT JUMPDEST SWAP1 PUSH1 0x1F DUP1 NOT SWAP2 ADD AND DUP2 ADD SWAP1 DUP2 LT PUSH8 0xFFFFFFFFFFFFFFFF DUP3 GT OR PUSH2 0x366 JUMPI PUSH1 0x40 MSTORE JUMP JUMPDEST PUSH4 0x4E487B71 PUSH1 0xE0 SHL PUSH1 0x0 MSTORE PUSH1 0x41 PUSH1 0x4 MSTORE PUSH1 0x24 PUSH1 0x0 REVERT JUMPDEST PUSH8 0xFFFFFFFFFFFFFFFF DUP2 GT PUSH2 0x366 JUMPI PUSH1 0x1F ADD PUSH1 0x1F NOT AND PUSH1 0x20 ADD SWAP1 JUMP JUMPDEST SWAP2 SWAP1 DUP3 MLOAD SWAP3 DUP4 DUP3 MSTORE PUSH1 0x0 JUMPDEST DUP5 DUP2 LT PUSH2 0x3C4 JUMPI POP POP DUP3 PUSH1 0x0 PUSH1 0x20 DUP1 SWAP5 SWAP6 DUP5 ADD ADD MSTORE PUSH1 0x1F DUP1 NOT SWAP2 ADD AND ADD ADD SWAP1 JUMP JUMPDEST DUP1 PUSH1 0x20 DUP1 SWAP3 DUP5 ADD ADD MLOAD DUP3 DUP3 DUP7 ADD ADD MSTORE ADD PUSH2 0x3A3 JUMP JUMPDEST PUSH1 0x0 SLOAD PUSH1 0x1 PUSH1 0x1 PUSH1 0xA0 SHL SUB AND CALLER SUB PUSH2 0x3ED JUMPI JUMP JUMPDEST PUSH4 0x118CDAA7 PUSH1 0xE0 SHL PUSH1 0x0 MSTORE CALLER PUSH1 0x4 MSTORE PUSH1 0x24 PUSH1 0x0 REVERT INVALID LOG1 PUSH5 0x736F6C6343 STOP ADDMOD SHR STOP EXP "},"methodIdentifiers":{"UPGRADE_INTERFACE_VERSION()":"ad3cb1cc","isAdminOf(address)":"05f38c71","owner()":"8da5cb5b","renounceOwnership()":"715018a6","transferOwnership(address)":"f2fde38b","upgradeAndCall(address,address,bytes)":"9623609d"}},"storageLayout":{"storage":[{"astId":8,"contract":"contracts/proxy/DmtpProxyAdmin.sol:DmtpProxyAdmin","label":"_owner","offset":0,"slot":"0","type":"t_address"}],"types":{"t_address":{"encoding":"inplace","label":"address","numberOfBytes":"20"}}}}}}