{"contracts/DmtpTech.sol":{"DmtpTech":{"abi":[{"inputs":[],"name":"AccessControlBadConfirmation","type":"error"},{"inputs":[{"internalType":"address","name":"account","type":"address"},{"internalType":"bytes32","name":"neededRole","type":"bytes32"}],"name":"AccessControlUnauthorizedAccount","type":"error"},{"inputs":[],"name":"InvalidInitialization","type":"error"},{"inputs":[],"name":"NotInitializing","type":"error"},{"inputs":[],"name":"ReentrancyGuardReentrantCall","type":"error"},{"anonymous":false,"inputs":[{"indexed":false,"internalType":"uint256","name":"rate","type":"uint256"},{"indexed":false,"internalType":"address","name":"receiver_","type":"address"},{"indexed":false,"internalType":"uint256","name":"keyGeneratorRate","type":"uint256"}],"name":"CommissionUpdated","type":"event"},{"anonymous":false,"inputs":[{"indexed":false,"internalType":"uint64","name":"version","type":"uint64"}],"name":"Initialized","type":"event"},{"anonymous":false,"inputs":[{"indexed":false,"internalType":"uint256","name":"keyId","type":"uint256"},{"indexed":false,"internalType":"address","name":"buyer","type":"address"},{"indexed":false,"internalType":"uint256","name":"price","type":"uint256"}],"name":"KeyBought","type":"event"},{"anonymous":false,"inputs":[{"indexed":false,"internalType":"address","name":"key","type":"address"}],"name":"KeyContractUpdated","type":"event"},{"anonymous":false,"inputs":[{"indexed":false,"internalType":"uint256","name":"keyId","type":"uint256"},{"indexed":false,"internalType":"address","name":"kol","type":"address"}],"name":"KeyGenerated","type":"event"},{"anonymous":false,"inputs":[{"indexed":false,"internalType":"uint256","name":"keyId","type":"uint256"},{"indexed":false,"internalType":"address","name":"seller","type":"address"},{"indexed":false,"internalType":"uint256","name":"price","type":"uint256"}],"name":"KeySold","type":"event"},{"anonymous":false,"inputs":[{"indexed":true,"internalType":"bytes32","name":"role","type":"bytes32"},{"indexed":true,"internalType":"bytes32","name":"previousAdminRole","type":"bytes32"},{"indexed":true,"internalType":"bytes32","name":"newAdminRole","type":"bytes32"}],"name":"RoleAdminChanged","type":"event"},{"anonymous":false,"inputs":[{"indexed":true,"internalType":"bytes32","name":"role","type":"bytes32"},{"indexed":true,"internalType":"address","name":"account","type":"address"},{"indexed":true,"internalType":"address","name":"sender","type":"address"}],"name":"RoleGranted","type":"event"},{"anonymous":false,"inputs":[{"indexed":true,"internalType":"bytes32","name":"role","type":"bytes32"},{"indexed":true,"internalType":"address","name":"account","type":"address"},{"indexed":true,"internalType":"address","name":"sender","type":"address"}],"name":"RoleRevoked","type":"event"},{"anonymous":false,"inputs":[{"indexed":false,"internalType":"address","name":"signer","type":"address"}],"name":"SignerSet","type":"event"},{"inputs":[],"name":"A_HUNDRED_PERCENT","outputs":[{"internalType":"uint256","name":"","type":"uint256"}],"stateMutability":"view","type":"function"},{"inputs":[],"name":"DEFAULT_ADMIN_ROLE","outputs":[{"internalType":"bytes32","name":"","type":"bytes32"}],"stateMutability":"view","type":"function"},{"inputs":[],"name":"MINTER_ROLE","outputs":[{"internalType":"bytes32","name":"","type":"bytes32"}],"stateMutability":"view","type":"function"},{"inputs":[],"name":"OPERATOR_ROLE","outputs":[{"internalType":"bytes32","name":"","type":"bytes32"}],"stateMutability":"view","type":"function"},{"inputs":[{"internalType":"address","name":"seller_","type":"address"},{"internalType":"uint256","name":"id_","type":"uint256"}],"name":"allowToSellKey","outputs":[{"internalType":"bool","name":"","type":"bool"}],"stateMutability":"view","type":"function"},{"inputs":[{"internalType":"uint256","name":"id_","type":"uint256"}],"name":"buyKey","outputs":[],"stateMutability":"payable","type":"function"},{"inputs":[{"internalType":"uint256","name":"id_","type":"uint256"},{"internalType":"address","name":"receiver_","type":"address"}],"name":"buyKeyFor","outputs":[],"stateMutability":"payable","type":"function"},{"inputs":[],"name":"commission","outputs":[{"internalType":"uint256","name":"rate","type":"uint256"},{"internalType":"address","name":"receiver","type":"address"},{"internalType":"uint256","name":"keyGeneratorRate","type":"uint256"}],"stateMutability":"view","type":"function"},{"inputs":[{"internalType":"bytes","name":"signature_","type":"bytes"}],"name":"generateKey","outputs":[],"stateMutability":"nonpayable","type":"function"},{"inputs":[{"internalType":"address","name":"","type":"address"}],"name":"generated","outputs":[{"internalType":"uint256","name":"","type":"uint256"}],"stateMutability":"view","type":"function"},{"inputs":[{"internalType":"bytes32","name":"role","type":"bytes32"}],"name":"getRoleAdmin","outputs":[{"internalType":"bytes32","name":"","type":"bytes32"}],"stateMutability":"view","type":"function"},{"inputs":[{"internalType":"bytes32","name":"role","type":"bytes32"},{"internalType":"address","name":"account","type":"address"}],"name":"grantRole","outputs":[],"stateMutability":"nonpayable","type":"function"},{"inputs":[{"internalType":"bytes32","name":"role","type":"bytes32"},{"internalType":"address","name":"account","type":"address"}],"name":"hasRole","outputs":[{"internalType":"bool","name":"","type":"bool"}],"stateMutability":"view","type":"function"},{"inputs":[{"internalType":"address","name":"key_","type":"address"},{"internalType":"address","name":"signer_","type":"address"},{"internalType":"uint256","name":"commissionRate_","type":"uint256"},{"internalType":"address","name":"commissionReceiver_","type":"address"},{"internalType":"uint256","name":"commissionKeyGeneratorRate_","type":"uint256"}],"name":"initialize","outputs":[],"stateMutability":"nonpayable","type":"function"},{"inputs":[],"name":"key","outputs":[{"internalType":"contract IKey","name":"","type":"address"}],"stateMutability":"view","type":"function"},{"inputs":[{"internalType":"uint256","name":"","type":"uint256"}],"name":"keyGenerators","outputs":[{"internalType":"address","name":"","type":"address"}],"stateMutability":"view","type":"function"},{"inputs":[],"name":"needToCheckWhitelist","outputs":[{"internalType":"bool","name":"","type":"bool"}],"stateMutability":"view","type":"function"},{"inputs":[{"internalType":"uint256","name":"id_","type":"uint256"}],"name":"priceWithCommission","outputs":[{"internalType":"uint256","name":"price","type":"uint256"},{"internalType":"uint256","name":"fee","type":"uint256"},{"internalType":"uint256","name":"payout","type":"uint256"}],"stateMutability":"view","type":"function"},{"inputs":[{"internalType":"bytes32","name":"role","type":"bytes32"},{"internalType":"address","name":"callerConfirmation","type":"address"}],"name":"renounceRole","outputs":[],"stateMutability":"nonpayable","type":"function"},{"inputs":[{"internalType":"bytes32","name":"role","type":"bytes32"},{"internalType":"address","name":"account","type":"address"}],"name":"revokeRole","outputs":[],"stateMutability":"nonpayable","type":"function"},{"inputs":[{"internalType":"uint256","name":"id_","type":"uint256"},{"internalType":"uint256","name":"price_","type":"uint256"}],"name":"sellKey","outputs":[],"stateMutability":"nonpayable","type":"function"},{"inputs":[{"internalType":"uint256","name":"id_","type":"uint256"}],"name":"sellPriceWithCommission","outputs":[{"internalType":"uint256","name":"price","type":"uint256"},{"internalType":"uint256","name":"fee","type":"uint256"},{"internalType":"uint256","name":"payout","type":"uint256"}],"stateMutability":"view","type":"function"},{"inputs":[{"internalType":"uint256","name":"rate_","type":"uint256"},{"internalType":"address","name":"receiver_","type":"address"},{"internalType":"uint256","name":"keyGeneratorRate_","type":"uint256"}],"name":"setCommission","outputs":[],"stateMutability":"nonpayable","type":"function"},{"inputs":[{"internalType":"address","name":"key_","type":"address"}],"name":"setKeyContract","outputs":[],"stateMutability":"nonpayable","type":"function"},{"inputs":[{"internalType":"uint256","name":"keyId_","type":"uint256"},{"internalType":"address","name":"account_","type":"address"}],"name":"setKeyGeneratos","outputs":[],"stateMutability":"nonpayable","type":"function"},{"inputs":[{"internalType":"bool","name":"check_","type":"bool"}],"name":"setNeedToCheckWhitelist","outputs":[],"stateMutability":"nonpayable","type":"function"},{"inputs":[{"internalType":"address","name":"signer_","type":"address"}],"name":"setSigner","outputs":[],"stateMutability":"nonpayable","type":"function"},{"inputs":[],"name":"signer","outputs":[{"internalType":"address","name":"","type":"address"}],"stateMutability":"view","type":"function"},{"inputs":[{"internalType":"bytes4","name":"interfaceId","type":"bytes4"}],"name":"supportsInterface","outputs":[{"internalType":"bool","name":"","type":"bool"}],"stateMutability":"view","type":"function"}],"devdoc":{"errors":{"AccessControlBadConfirmation()":[{"details":"The caller of a function is not the expected one. NOTE: Don't confuse with {AccessControlUnauthorizedAccount}."}],"AccessControlUnauthorizedAccount(address,bytes32)":[{"details":"The `account` is missing a role."}],"InvalidInitialization()":[{"details":"The contract is already initialized."}],"NotInitializing()":[{"details":"The contract is not initializing."}],"ReentrancyGuardReentrantCall()":[{"details":"Unauthorized reentrant call."}]},"events":{"Initialized(uint64)":{"details":"Triggered when the contract has been initialized or reinitialized."},"RoleAdminChanged(bytes32,bytes32,bytes32)":{"details":"Emitted when `newAdminRole` is set as ``role``'s admin role, replacing `previousAdminRole` `DEFAULT_ADMIN_ROLE` is the starting admin for all roles, despite {RoleAdminChanged} not being emitted signaling this."},"RoleGranted(bytes32,address,address)":{"details":"Emitted when `account` is granted `role`. `sender` is the account that originated the contract call. This account bears the admin role (for the granted role). Expected in cases where the role was granted using the internal {AccessControl-_grantRole}."},"RoleRevoked(bytes32,address,address)":{"details":"Emitted when `account` is revoked `role`. `sender` is the account that originated the contract call:   - if using `revokeRole`, it is the admin role bearer   - if using `renounceRole`, it is the role bearer (i.e. `account`)"}},"kind":"dev","methods":{"getRoleAdmin(bytes32)":{"details":"Returns the admin role that controls `role`. See {grantRole} and {revokeRole}. To change a role's admin, use {_setRoleAdmin}."},"grantRole(bytes32,address)":{"details":"Grants `role` to `account`. If `account` had not been already granted `role`, emits a {RoleGranted} event. Requirements: - the caller must have ``role``'s admin role. May emit a {RoleGranted} event."},"hasRole(bytes32,address)":{"details":"Returns `true` if `account` has been granted `role`."},"renounceRole(bytes32,address)":{"details":"Revokes `role` from the calling account. Roles are often managed via {grantRole} and {revokeRole}: this function's purpose is to provide a mechanism for accounts to lose their privileges if they are compromised (such as when a trusted device is misplaced). If the calling account had been revoked `role`, emits a {RoleRevoked} event. Requirements: - the caller must be `callerConfirmation`. May emit a {RoleRevoked} event."},"revokeRole(bytes32,address)":{"details":"Revokes `role` from `account`. If `account` had been granted `role`, emits a {RoleRevoked} event. Requirements: - the caller must have ``role``'s admin role. May emit a {RoleRevoked} event."},"supportsInterface(bytes4)":{"details":"See {IERC165-supportsInterface}."}},"version":1},"evm":{"assembly":"    /* \"contracts/DmtpTech.sol\":355:7931  contract DmtpTech is ContextUpgradeable, AbstractRole, ReentrancyGuard {... */\n  0x80\n  dup1\n  0x40\n  mstore\n  jumpi(tag_1, callvalue)\n    /* \"@openzeppelin/contracts/utils/ReentrancyGuard.sol\":1857:1858  1 */\n  0x01\n    /* \"@openzeppelin/contracts/utils/ReentrancyGuard.sol\":2061:2082  _status = NOT_ENTERED */\n  0x00\n    /* \"@openzeppelin/contracts/utils/ReentrancyGuard.sol\":1857:1858  1 */\n  sstore\n    /* \"contracts/DmtpTech.sol\":355:7931  contract DmtpTech is ContextUpgradeable, AbstractRole, ReentrancyGuard {... */\n  dataSize(sub_0)\n  swap1\n  dup2\n  dataOffset(sub_0)\n  dup3\n  codecopy\n  return\ntag_1:\n  0x00\n  dup1\n  revert\nstop\n\nsub_0: assembly {\n        /* \"contracts/DmtpTech.sol\":355:7931  contract DmtpTech is ContextUpgradeable, AbstractRole, ReentrancyGuard {... */\n      mstore(0x40, 0x80)\n      jumpi(tag_92, iszero(lt(calldatasize, 0x04)))\n      0x00\n      dup1\n      revert\n    tag_92:\n      shr(0xe0, calldataload(0x00))\n      dup1\n      0x01ffc9a7\n      eq\n      tag_94\n      jumpi\n      dup1\n      0x0d54a882\n      eq\n      tag_96\n      jumpi\n      dup1\n      0x15534028\n      eq\n      tag_98\n      jumpi\n      dup1\n      0x238ac933\n      eq\n      tag_100\n      jumpi\n      dup1\n      0x248a9ca3\n      eq\n      tag_102\n      jumpi\n      dup1\n      0x2f2ff15d\n      eq\n      tag_104\n      jumpi\n      dup1\n      0x36568abe\n      eq\n      tag_106\n      jumpi\n      dup1\n      0x3943380c\n      eq\n      tag_108\n      jumpi\n      dup1\n      0x5ba906c0\n      eq\n      tag_110\n      jumpi\n      dup1\n      0x62bea295\n      eq\n      tag_112\n      jumpi\n      dup1\n      0x66c04491\n      eq\n      tag_114\n      jumpi\n      dup1\n      0x6c19e783\n      eq\n      tag_116\n      jumpi\n      dup1\n      0x79894f96\n      eq\n      tag_118\n      jumpi\n      dup1\n      0x7d9edc96\n      eq\n      tag_120\n      jumpi\n      dup1\n      0x81803632\n      eq\n      tag_122\n      jumpi\n      dup1\n      0x882e9918\n      eq\n      tag_124\n      jumpi\n      dup1\n      0x8d5ea68b\n      eq\n      tag_126\n      jumpi\n      dup1\n      0x8dc9330f\n      eq\n      tag_128\n      jumpi\n      dup1\n      0x8fd7c568\n      eq\n      tag_130\n      jumpi\n      dup1\n      0x91d14854\n      eq\n      tag_132\n      jumpi\n      dup1\n      0x9fef93f8\n      eq\n      tag_134\n      jumpi\n      dup1\n      0xa217fddf\n      eq\n      tag_136\n      jumpi\n      dup1\n      0xb0afbfd2\n      eq\n      tag_138\n      jumpi\n      dup1\n      0xb77c0f00\n      eq\n      tag_140\n      jumpi\n      dup1\n      0xd5391393\n      eq\n      tag_142\n      jumpi\n      dup1\n      0xd547741f\n      eq\n      tag_144\n      jumpi\n      dup1\n      0xe1489191\n      eq\n      tag_146\n      jumpi\n      dup1\n      0xf5b541a6\n      eq\n      tag_148\n      jumpi\n      0xf7c00e63\n      eq\n      tag_150\n      jumpi\n      0x00\n      dup1\n      revert\n    tag_150:\n      tag_48\n      jump\t// in\n    tag_148:\n      tag_47\n      jump\t// in\n    tag_146:\n      tag_46\n      jump\t// in\n    tag_144:\n      tag_43\n      jump\t// in\n    tag_142:\n      tag_42\n      jump\t// in\n    tag_140:\n      tag_41\n      jump\t// in\n    tag_138:\n      tag_39\n      jump\t// in\n    tag_136:\n      tag_38\n      jump\t// in\n    tag_134:\n      tag_37\n      jump\t// in\n    tag_132:\n      tag_36\n      jump\t// in\n    tag_130:\n      tag_35\n      jump\t// in\n    tag_128:\n      tag_34\n      jump\t// in\n    tag_126:\n      tag_33\n      jump\t// in\n    tag_124:\n      tag_30\n      jump\t// in\n    tag_122:\n      tag_29\n      jump\t// in\n    tag_120:\n      tag_28\n      jump\t// in\n    tag_118:\n      tag_27\n      jump\t// in\n    tag_116:\n      tag_26\n      jump\t// in\n    tag_114:\n      tag_25\n      jump\t// in\n    tag_112:\n      tag_24\n      jump\t// in\n    tag_110:\n      tag_20\n      jump\t// in\n    tag_108:\n      tag_18\n      jump\t// in\n    tag_106:\n      tag_17\n      jump\t// in\n    tag_104:\n      tag_16\n      jump\t// in\n    tag_102:\n      tag_15\n      jump\t// in\n    tag_100:\n      tag_14\n      jump\t// in\n    tag_98:\n      tag_12\n      jump\t// in\n    tag_96:\n      tag_7\n      jump\t// in\n    tag_94:\n      jumpi(tag_156, callvalue)\n      jumpi(tag_156, slt(add(not(0x03), calldatasize), 0x20))\n      calldataload(0x04)\n      shl(0xe0, 0xffffffff)\n      dup2\n      and\n      dup1\n      swap2\n      sub\n      tag_156\n      jumpi\n      0x20\n      swap1\n      shl(0xe0, 0x7965db0b)\n        /* \"@openzeppelin/contracts-upgradeable/access/AccessControlUpgradeable.sol\":3551:3598  interfaceId == type(IAccessControl).interfaceId */\n      dup2\n      eq\n      swap1\n        /* \"@openzeppelin/contracts-upgradeable/access/AccessControlUpgradeable.sol\":3551:3638  interfaceId == type(IAccessControl).interfaceId || super.supportsInterface(interfaceId) */\n      dup2\n      iszero\n      tag_158\n      jumpi\n        /* \"contracts/DmtpTech.sol\":355:7931  contract DmtpTech is ContextUpgradeable, AbstractRole, ReentrancyGuard {... */\n    tag_159:\n      pop\n      mload(0x40)\n      swap1\n      iszero\n      iszero\n      dup2\n      mstore\n      return\n        /* \"@openzeppelin/contracts-upgradeable/access/AccessControlUpgradeable.sol\":3551:3638  interfaceId == type(IAccessControl).interfaceId || super.supportsInterface(interfaceId) */\n    tag_158:\n      shl(0xe0, 0x01ffc9a7)\n        /* \"@openzeppelin/contracts-upgradeable/utils/introspection/ERC165Upgradeable.sol\":1134:1174  interfaceId == type(IERC165).interfaceId */\n      eq\n      swap1\n      pop\n        /* \"@openzeppelin/contracts-upgradeable/access/AccessControlUpgradeable.sol\":3551:3638  interfaceId == type(IAccessControl).interfaceId || super.supportsInterface(interfaceId) */\n      codesize\n      jump(tag_159)\n        /* \"contracts/DmtpTech.sol\":355:7931  contract DmtpTech is ContextUpgradeable, AbstractRole, ReentrancyGuard {... */\n    tag_156:\n      0x00\n      dup1\n      revert\n    tag_7:\n      jumpi(tag_156, callvalue)\n      jumpi(tag_156, slt(add(not(0x03), calldatasize), 0x40))\n      calldataload(0x04)\n      calldataload(0x24)\n        /* \"@openzeppelin/contracts/utils/ReentrancyGuard.sol\":2466:2569  modifier nonReentrant() {... */\n      tag_166\n      tag_81\n      jump\t// in\n    tag_166:\n        /* \"contracts/DmtpTech.sol\":3399:3505  require(... */\n      tag_167\n        /* \"contracts/DmtpTech.sol\":3420:3447  allowToSellKey(seller, id_) */\n      tag_168\n        /* \"@openzeppelin/contracts-upgradeable/utils/ContextUpgradeable.sol\":966:976  msg.sender */\n      dup4\n      caller\n        /* \"contracts/DmtpTech.sol\":3420:3447  allowToSellKey(seller, id_) */\n      tag_68\n      jump\t// in\n    tag_168:\n        /* \"contracts/DmtpTech.sol\":3399:3505  require(... */\n      tag_49\n      jump\t// in\n    tag_167:\n        /* \"contracts/DmtpTech.sol\":3532:3535  key */\n      0x02\n        /* \"contracts/DmtpTech.sol\":355:7931  contract DmtpTech is ContextUpgradeable, AbstractRole, ReentrancyGuard {... */\n      sload\n        /* \"contracts/DmtpTech.sol\":3532:3547  key.sellPriceOf */\n      tag_169\n      swap1\n      sub(shl(0xa0, 0x01), 0x01)\n        /* \"contracts/DmtpTech.sol\":355:7931  contract DmtpTech is ContextUpgradeable, AbstractRole, ReentrancyGuard {... */\n      and\n    tag_170:\n      sub(shl(0xa0, 0x01), 0x01)\n      and\n      swap1\n      jump\n        /* \"contracts/DmtpTech.sol\":3532:3547  key.sellPriceOf */\n    tag_169:\n        /* \"contracts/DmtpTech.sol\":355:7931  contract DmtpTech is ContextUpgradeable, AbstractRole, ReentrancyGuard {... */\n      mload(0x40)\n      shl(0xe1, 0x54787371)\n        /* \"contracts/DmtpTech.sol\":3532:3552  key.sellPriceOf(id_) */\n      dup2\n      mstore\n        /* \"contracts/DmtpTech.sol\":355:7931  contract DmtpTech is ContextUpgradeable, AbstractRole, ReentrancyGuard {... */\n      0x04\n        /* \"contracts/DmtpTech.sol\":3532:3552  key.sellPriceOf(id_) */\n      dup2\n      add\n        /* \"contracts/DmtpTech.sol\":355:7931  contract DmtpTech is ContextUpgradeable, AbstractRole, ReentrancyGuard {... */\n      dup5\n      swap1\n      mstore\n      swap2\n      0x20\n      dup4\n      0x24\n      dup2\n        /* \"contracts/DmtpTech.sol\":3532:3552  key.sellPriceOf(id_) */\n      dup6\n      gas\n      staticcall\n      swap3\n      dup4\n      iszero\n      tag_205\n      jumpi\n      0x00\n      swap4\n      tag_174\n      jumpi\n        /* \"contracts/DmtpTech.sol\":355:7931  contract DmtpTech is ContextUpgradeable, AbstractRole, ReentrancyGuard {... */\n    tag_175:\n        /* \"contracts/DmtpTech.sol\":3570:3585  price_ == price */\n      pop\n      dup3\n        /* \"contracts/DmtpTech.sol\":3562:3613  require(price_ == price, \"DMTP_TECH_PRICE_CHANGED\") */\n      tag_176\n        /* \"contracts/DmtpTech.sol\":3570:3585  price_ == price */\n      swap2\n      eq\n        /* \"contracts/DmtpTech.sol\":3562:3613  require(price_ == price, \"DMTP_TECH_PRICE_CHANGED\") */\n      tag_52\n      jump\t// in\n    tag_176:\n        /* \"contracts/DmtpTech.sol\":3638:3683  (price * commission.rate) / A_HUNDRED_PERCENT */\n      tag_177\n        /* \"contracts/DmtpTech.sol\":3639:3662  price * commission.rate */\n      tag_178\n        /* \"contracts/DmtpTech.sol\":3647:3657  commission */\n      0x05\n        /* \"contracts/DmtpTech.sol\":355:7931  contract DmtpTech is ContextUpgradeable, AbstractRole, ReentrancyGuard {... */\n      sload\n        /* \"contracts/DmtpTech.sol\":3639:3662  price * commission.rate */\n      dup5\n      tag_54\n      jump\t// in\n    tag_178:\n        /* \"contracts/DmtpTech.sol\":510:516  10_000 */\n      0x2710\n        /* \"contracts/DmtpTech.sol\":355:7931  contract DmtpTech is ContextUpgradeable, AbstractRole, ReentrancyGuard {... */\n      swap1\n      div\n      swap1\n      jump\n        /* \"contracts/DmtpTech.sol\":3638:3683  (price * commission.rate) / A_HUNDRED_PERCENT */\n    tag_177:\n        /* \"contracts/DmtpTech.sol\":3710:3721  price - fee */\n      swap1\n      tag_179\n      dup3\n      dup5\n      tag_56\n      jump\t// in\n    tag_179:\n        /* \"contracts/DmtpTech.sol\":3732:3756  key.burn(seller, id_, 1) */\n      dup2\n      extcodesize\n      iszero\n      tag_156\n      jumpi\n        /* \"contracts/DmtpTech.sol\":355:7931  contract DmtpTech is ContextUpgradeable, AbstractRole, ReentrancyGuard {... */\n      mload(0x40)\n      shl(0xe1, 0x7a94c565)\n        /* \"contracts/DmtpTech.sol\":3732:3756  key.burn(seller, id_, 1) */\n      dup2\n      mstore\n        /* \"@openzeppelin/contracts-upgradeable/utils/ContextUpgradeable.sol\":966:976  msg.sender */\n      caller\n        /* \"contracts/DmtpTech.sol\":355:7931  contract DmtpTech is ContextUpgradeable, AbstractRole, ReentrancyGuard {... */\n      0x04\n        /* \"contracts/DmtpTech.sol\":3732:3756  key.burn(seller, id_, 1) */\n      dup3\n      add\n        /* \"contracts/DmtpTech.sol\":355:7931  contract DmtpTech is ContextUpgradeable, AbstractRole, ReentrancyGuard {... */\n      mstore\n      0x24\n      dup2\n      add\n      dup7\n      swap1\n      mstore\n        /* \"contracts/DmtpTech.sol\":3754:3755  1 */\n      0x01\n        /* \"contracts/DmtpTech.sol\":355:7931  contract DmtpTech is ContextUpgradeable, AbstractRole, ReentrancyGuard {... */\n      0x44\n      dup3\n      add\n      mstore\n      swap2\n      0x00\n      swap1\n      dup4\n      swap1\n      0x64\n      swap1\n      dup3\n      swap1\n      dup5\n      swap1\n        /* \"contracts/DmtpTech.sol\":3732:3756  key.burn(seller, id_, 1) */\n      gas\n      call\n      swap2\n      dup3\n      iszero\n      tag_205\n      jumpi\n      0x00\n      swap3\n      dup4\n      swap3\n      dup4\n      swap3\n      dup4\n      swap3\n      tag_185\n      jumpi\n        /* \"contracts/DmtpTech.sol\":355:7931  contract DmtpTech is ContextUpgradeable, AbstractRole, ReentrancyGuard {... */\n    tag_186:\n        /* \"contracts/DmtpTech.sol\":3767:3799  payable(seller).transfer(payout) */\n      pop\n      dup2\n      dup2\n      iszero\n      tag_187\n      jumpi\n        /* \"contracts/DmtpTech.sol\":355:7931  contract DmtpTech is ContextUpgradeable, AbstractRole, ReentrancyGuard {... */\n    tag_188:\n        /* \"@openzeppelin/contracts-upgradeable/utils/ContextUpgradeable.sol\":966:976  msg.sender */\n      caller\n        /* \"contracts/DmtpTech.sol\":3767:3799  payable(seller).transfer(payout) */\n      swap1\n      call\n      iszero\n      tag_205\n      jumpi\n        /* \"contracts/DmtpTech.sol\":3836:3905  (price * commission.keyGeneratorRate) /... */\n      tag_191\n        /* \"contracts/DmtpTech.sol\":3837:3872  price * commission.keyGeneratorRate */\n      tag_178\n        /* \"contracts/DmtpTech.sol\":3845:3872  commission.keyGeneratorRate */\n      0x07\n        /* \"contracts/DmtpTech.sol\":355:7931  contract DmtpTech is ContextUpgradeable, AbstractRole, ReentrancyGuard {... */\n      sload\n        /* \"contracts/DmtpTech.sol\":3837:3872  price * commission.keyGeneratorRate */\n      dup5\n      tag_54\n      jump\t// in\n        /* \"contracts/DmtpTech.sol\":3836:3905  (price * commission.keyGeneratorRate) /... */\n    tag_191:\n        /* \"contracts/DmtpTech.sol\":3919:3938  keyGeneratorFee > 0 */\n      dup1\n      dup1\n      iszero\n      dup1\n      iszero\n        /* \"contracts/DmtpTech.sol\":3915:4018  if (keyGeneratorFee > 0) {... */\n      tag_193\n      jumpi\n        /* \"contracts/DmtpTech.sol\":355:7931  contract DmtpTech is ContextUpgradeable, AbstractRole, ReentrancyGuard {... */\n    tag_194:\n      pop\n      pop\n        /* \"contracts/DmtpTech.sol\":4032:4051  commission.receiver */\n      0x06\n        /* \"contracts/DmtpTech.sol\":355:7931  contract DmtpTech is ContextUpgradeable, AbstractRole, ReentrancyGuard {... */\n      sload\n      sub(shl(0xa0, 0x01), 0x01)\n      and\n      dup1\n        /* \"contracts/DmtpTech.sol\":4028:4152  if (commission.receiver != address(0)) {... */\n      tag_196\n      jumpi\n        /* \"contracts/DmtpTech.sol\":355:7931  contract DmtpTech is ContextUpgradeable, AbstractRole, ReentrancyGuard {... */\n    tag_197:\n      0x40\n      dup1\n      mload\n      dup7\n      dup2\n      mstore\n        /* \"@openzeppelin/contracts-upgradeable/utils/ContextUpgradeable.sol\":966:976  msg.sender */\n      caller\n        /* \"contracts/DmtpTech.sol\":355:7931  contract DmtpTech is ContextUpgradeable, AbstractRole, ReentrancyGuard {... */\n      0x20\n      dup3\n      add\n      mstore\n      swap1\n      dup2\n      add\n      dup6\n      swap1\n      mstore\n        /* \"contracts/DmtpTech.sol\":4167:4194  KeySold(id_, seller, price) */\n      0x76bf686fc9ca17368677b445c3982fe5bdba241b5b1ec5a879739a52e1620376\n      swap1\n        /* \"contracts/DmtpTech.sol\":355:7931  contract DmtpTech is ContextUpgradeable, AbstractRole, ReentrancyGuard {... */\n      dup1\n      0x60\n      dup2\n      add\n        /* \"contracts/DmtpTech.sol\":4167:4194  KeySold(id_, seller, price) */\n    tag_198:\n      sub\n      swap1\n      log1\n        /* \"@openzeppelin/contracts/utils/ReentrancyGuard.sol\":2531:2532  _ */\n      tag_199\n        /* \"@openzeppelin/contracts/utils/ReentrancyGuard.sol\":1857:1858  1 */\n      0x01\n        /* \"@openzeppelin/contracts/utils/ReentrancyGuard.sol\":3068:3089  _status = NOT_ENTERED */\n      0x00\n        /* \"contracts/DmtpTech.sol\":355:7931  contract DmtpTech is ContextUpgradeable, AbstractRole, ReentrancyGuard {... */\n      sstore\n        /* \"@openzeppelin/contracts/utils/ReentrancyGuard.sol\":2888:3096  function _nonReentrantAfter() private {... */\n      jump\n        /* \"@openzeppelin/contracts/utils/ReentrancyGuard.sol\":2531:2532  _ */\n    tag_199:\n        /* \"contracts/DmtpTech.sol\":355:7931  contract DmtpTech is ContextUpgradeable, AbstractRole, ReentrancyGuard {... */\n      stop\n        /* \"contracts/DmtpTech.sol\":4028:4152  if (commission.receiver != address(0)) {... */\n    tag_196:\n      0x00\n      swap3\n      dup4\n      swap3\n      dup4\n      swap3\n      dup4\n      swap3\n        /* \"contracts/DmtpTech.sol\":4081:4109  payable(commission.receiver) */\n      swap2\n        /* \"contracts/DmtpTech.sol\":4119:4140  fee - keyGeneratorFee */\n      tag_200\n      swap2\n        /* \"contracts/DmtpTech.sol\":4081:4118  payable(commission.receiver).transfer */\n      tag_201\n      swap1\n      sub(shl(0xa0, 0x01), 0x01)\n        /* \"contracts/DmtpTech.sol\":355:7931  contract DmtpTech is ContextUpgradeable, AbstractRole, ReentrancyGuard {... */\n      and\n        /* \"contracts/DmtpTech.sol\":4081:4109  payable(commission.receiver) */\n      tag_170\n        /* \"contracts/DmtpTech.sol\":355:7931  contract DmtpTech is ContextUpgradeable, AbstractRole, ReentrancyGuard {... */\n      jump\n        /* \"contracts/DmtpTech.sol\":4081:4118  payable(commission.receiver).transfer */\n    tag_201:\n        /* \"contracts/DmtpTech.sol\":4119:4140  fee - keyGeneratorFee */\n      swap3\n      tag_56\n      jump\t// in\n    tag_200:\n        /* \"contracts/DmtpTech.sol\":4081:4141  payable(commission.receiver).transfer(fee - keyGeneratorFee) */\n      swap1\n      dup3\n      dup3\n      iszero\n      tag_203\n      jumpi\n        /* \"contracts/DmtpTech.sol\":4028:4152  if (commission.receiver != address(0)) {... */\n    tag_204:\n        /* \"contracts/DmtpTech.sol\":4081:4141  payable(commission.receiver).transfer(fee - keyGeneratorFee) */\n      call\n      iszero\n      tag_205\n      jumpi\n        /* \"contracts/DmtpTech.sol\":4028:4152  if (commission.receiver != address(0)) {... */\n      codesize\n      dup1\n      dup1\n      jump(tag_197)\n        /* \"contracts/DmtpTech.sol\":4081:4141  payable(commission.receiver).transfer(fee - keyGeneratorFee) */\n    tag_205:\n      tag_51\n      jump\t// in\n    tag_203:\n      pop\n      0x08fc\n      jump(tag_204)\n        /* \"contracts/DmtpTech.sol\":3915:4018  if (keyGeneratorFee > 0) {... */\n    tag_193:\n      0x00\n        /* \"contracts/DmtpTech.sol\":3962:3980  keyGenerators[id_] */\n      dup1\n      dup1\n      swap4\n      dup2\n      swap4\n        /* \"contracts/DmtpTech.sol\":3954:3990  payable(keyGenerators[id_]).transfer */\n      tag_207\n        /* \"contracts/DmtpTech.sol\":3954:3981  payable(keyGenerators[id_]) */\n      tag_170\n        /* \"contracts/DmtpTech.sol\":3962:3980  keyGenerators[id_] */\n      tag_170\n      tag_210\n      dup14\n        /* \"contracts/DmtpTech.sol\":355:7931  contract DmtpTech is ContextUpgradeable, AbstractRole, ReentrancyGuard {... */\n      0x00\n      mstore\n        /* \"contracts/DmtpTech.sol\":3962:3975  keyGenerators */\n      0x08\n        /* \"contracts/DmtpTech.sol\":355:7931  contract DmtpTech is ContextUpgradeable, AbstractRole, ReentrancyGuard {... */\n      0x20\n      mstore\n      keccak256(0x00, 0x40)\n      swap1\n      jump\n        /* \"contracts/DmtpTech.sol\":3962:3980  keyGenerators[id_] */\n    tag_210:\n        /* \"contracts/DmtpTech.sol\":355:7931  contract DmtpTech is ContextUpgradeable, AbstractRole, ReentrancyGuard {... */\n      sload\n      sub(shl(0xa0, 0x01), 0x01)\n      and\n      swap1\n      jump\n        /* \"contracts/DmtpTech.sol\":3954:3990  payable(keyGenerators[id_]).transfer */\n    tag_207:\n        /* \"contracts/DmtpTech.sol\":3954:4007  payable(keyGenerators[id_]).transfer(keyGeneratorFee) */\n      swap1\n      dup4\n      swap1\n      tag_211\n      jumpi\n        /* \"contracts/DmtpTech.sol\":3915:4018  if (keyGeneratorFee > 0) {... */\n    tag_212:\n        /* \"contracts/DmtpTech.sol\":3954:4007  payable(keyGenerators[id_]).transfer(keyGeneratorFee) */\n      call\n      iszero\n      tag_205\n      jumpi\n        /* \"contracts/DmtpTech.sol\":3915:4018  if (keyGeneratorFee > 0) {... */\n      dup1\n      codesize\n      jump(tag_194)\n        /* \"contracts/DmtpTech.sol\":3954:4007  payable(keyGenerators[id_]).transfer(keyGeneratorFee) */\n    tag_211:\n      pop\n      0x08fc\n      jump(tag_212)\n        /* \"contracts/DmtpTech.sol\":3767:3799  payable(seller).transfer(payout) */\n    tag_187:\n      pop\n      0x08fc\n      jump(tag_188)\n        /* \"contracts/DmtpTech.sol\":3732:3756  key.burn(seller, id_, 1) */\n    tag_185:\n      dup1\n      tag_215\n      dup5\n      tag_216\n      swap4\n      tag_32\n      jump\t// in\n    tag_215:\n      dup1\n      tag_13\n      jump\t// in\n    tag_216:\n      codesize\n      jump(tag_186)\n        /* \"contracts/DmtpTech.sol\":3532:3552  key.sellPriceOf(id_) */\n    tag_174:\n        /* \"contracts/DmtpTech.sol\":3562:3613  require(price_ == price, \"DMTP_TECH_PRICE_CHANGED\") */\n      tag_176\n        /* \"contracts/DmtpTech.sol\":3532:3552  key.sellPriceOf(id_) */\n      swap2\n      swap4\n      pop\n      tag_217\n      swap1\n        /* \"contracts/DmtpTech.sol\":355:7931  contract DmtpTech is ContextUpgradeable, AbstractRole, ReentrancyGuard {... */\n      0x20\n        /* \"contracts/DmtpTech.sol\":3532:3552  key.sellPriceOf(id_) */\n      returndatasize\n        /* \"contracts/DmtpTech.sol\":355:7931  contract DmtpTech is ContextUpgradeable, AbstractRole, ReentrancyGuard {... */\n      0x20\n        /* \"contracts/DmtpTech.sol\":3532:3552  key.sellPriceOf(id_) */\n      gt\n      tag_218\n      jumpi\n    tag_219:\n      tag_220\n      dup2\n      dup4\n      tag_32\n      jump\t// in\n    tag_220:\n      dup2\n      add\n      swap1\n      tag_50\n      jump\t// in\n    tag_217:\n      swap3\n      swap1\n      jump(tag_175)\n    tag_218:\n      pop\n      returndatasize\n      jump(tag_219)\n        /* \"contracts/DmtpTech.sol\":355:7931  contract DmtpTech is ContextUpgradeable, AbstractRole, ReentrancyGuard {... */\n    tag_9:\n      calldataload(0x24)\n      swap1\n      sub(shl(0xa0, 0x01), 0x01)\n      dup3\n      and\n      dup3\n      sub\n      tag_156\n      jumpi\n      jump\t// out\n    tag_10:\n      calldataload(0x04)\n      swap1\n      sub(shl(0xa0, 0x01), 0x01)\n      dup3\n      and\n      dup3\n      sub\n      tag_156\n      jumpi\n      jump\t// out\n    tag_11:\n      calldataload(0x64)\n      swap1\n      sub(shl(0xa0, 0x01), 0x01)\n      dup3\n      and\n      dup3\n      sub\n      tag_156\n      jumpi\n      jump\t// out\n    tag_12:\n      jumpi(tag_156, slt(add(not(0x03), calldatasize), 0x40))\n      calldataload(0x04)\n      tag_230\n      tag_9\n      jump\t// in\n    tag_230:\n        /* \"@openzeppelin/contracts/utils/ReentrancyGuard.sol\":2466:2569  modifier nonReentrant() {... */\n      tag_231\n      tag_81\n      jump\t// in\n    tag_231:\n        /* \"contracts/DmtpTech.sol\":7203:7263  require(id_ <= _keyIdCounter, \"DMTP_TECH_PARAM_KEY_INVALID\") */\n      tag_232\n        /* \"contracts/DmtpTech.sol\":7218:7231  _keyIdCounter */\n      0x01\n        /* \"contracts/DmtpTech.sol\":355:7931  contract DmtpTech is ContextUpgradeable, AbstractRole, ReentrancyGuard {... */\n      sload\n        /* \"contracts/DmtpTech.sol\":7211:7231  id_ <= _keyIdCounter */\n      dup4\n      gt\n      iszero\n        /* \"contracts/DmtpTech.sol\":7203:7263  require(id_ <= _keyIdCounter, \"DMTP_TECH_PARAM_KEY_INVALID\") */\n      tag_58\n      jump\t// in\n    tag_232:\n        /* \"contracts/DmtpTech.sol\":7290:7293  key */\n      0x02\n        /* \"contracts/DmtpTech.sol\":355:7931  contract DmtpTech is ContextUpgradeable, AbstractRole, ReentrancyGuard {... */\n      sload\n        /* \"contracts/DmtpTech.sol\":7290:7301  key.priceOf */\n      tag_233\n      swap1\n      sub(shl(0xa0, 0x01), 0x01)\n        /* \"contracts/DmtpTech.sol\":355:7931  contract DmtpTech is ContextUpgradeable, AbstractRole, ReentrancyGuard {... */\n      and\n      jump(tag_170)\n        /* \"contracts/DmtpTech.sol\":7290:7301  key.priceOf */\n    tag_233:\n        /* \"contracts/DmtpTech.sol\":355:7931  contract DmtpTech is ContextUpgradeable, AbstractRole, ReentrancyGuard {... */\n      mload(0x40)\n      shl(0xe0, 0xb9186d7d)\n        /* \"contracts/DmtpTech.sol\":7290:7306  key.priceOf(id_) */\n      dup2\n      mstore\n        /* \"contracts/DmtpTech.sol\":355:7931  contract DmtpTech is ContextUpgradeable, AbstractRole, ReentrancyGuard {... */\n      0x04\n        /* \"contracts/DmtpTech.sol\":7290:7306  key.priceOf(id_) */\n      dup2\n      add\n        /* \"contracts/DmtpTech.sol\":355:7931  contract DmtpTech is ContextUpgradeable, AbstractRole, ReentrancyGuard {... */\n      dup5\n      swap1\n      mstore\n      swap3\n      swap1\n      0x20\n      dup5\n      0x24\n      dup2\n      dup5\n        /* \"contracts/DmtpTech.sol\":7290:7306  key.priceOf(id_) */\n      gas\n      staticcall\n      swap4\n      dup5\n      iszero\n      tag_205\n      jumpi\n      0x00\n      swap5\n      tag_238\n      jumpi\n        /* \"contracts/DmtpTech.sol\":355:7931  contract DmtpTech is ContextUpgradeable, AbstractRole, ReentrancyGuard {... */\n    tag_239:\n      pop\n        /* \"contracts/DmtpTech.sol\":7331:7376  (price * commission.rate) / A_HUNDRED_PERCENT */\n      tag_240\n        /* \"contracts/DmtpTech.sol\":7332:7355  price * commission.rate */\n      tag_178\n        /* \"contracts/DmtpTech.sol\":7340:7350  commission */\n      0x05\n        /* \"contracts/DmtpTech.sol\":355:7931  contract DmtpTech is ContextUpgradeable, AbstractRole, ReentrancyGuard {... */\n      sload\n        /* \"contracts/DmtpTech.sol\":7332:7355  price * commission.rate */\n      dup7\n      tag_54\n      jump\t// in\n        /* \"contracts/DmtpTech.sol\":7331:7376  (price * commission.rate) / A_HUNDRED_PERCENT */\n    tag_240:\n        /* \"contracts/DmtpTech.sol\":7403:7414  price + fee */\n      swap1\n        /* \"contracts/DmtpTech.sol\":7425:7480  require(msg.value == payout, \"DMTP_TECH_PRICE_CHANGED\") */\n      tag_242\n        /* \"contracts/DmtpTech.sol\":7403:7414  price + fee */\n      tag_243\n      dup4\n      dup8\n      tag_60\n      jump\t// in\n    tag_243:\n        /* \"contracts/DmtpTech.sol\":7433:7442  msg.value */\n      callvalue\n        /* \"contracts/DmtpTech.sol\":7433:7452  msg.value == payout */\n      eq\n        /* \"contracts/DmtpTech.sol\":7425:7480  require(msg.value == payout, \"DMTP_TECH_PRICE_CHANGED\") */\n      tag_52\n      jump\t// in\n    tag_242:\n        /* \"contracts/DmtpTech.sol\":7491:7522  key.mint(receiver_, id_, 1, \"\") */\n      dup1\n      extcodesize\n      iszero\n      tag_156\n      jumpi\n        /* \"contracts/DmtpTech.sol\":355:7931  contract DmtpTech is ContextUpgradeable, AbstractRole, ReentrancyGuard {... */\n      mload(0x40)\n      shl(0xe0, 0x731133e9)\n        /* \"contracts/DmtpTech.sol\":7491:7522  key.mint(receiver_, id_, 1, \"\") */\n      dup2\n      mstore\n      sub(shl(0xa0, 0x01), 0x01)\n        /* \"contracts/DmtpTech.sol\":355:7931  contract DmtpTech is ContextUpgradeable, AbstractRole, ReentrancyGuard {... */\n      dup6\n      and\n      0x04\n        /* \"contracts/DmtpTech.sol\":7491:7522  key.mint(receiver_, id_, 1, \"\") */\n      dup3\n      add\n        /* \"contracts/DmtpTech.sol\":355:7931  contract DmtpTech is ContextUpgradeable, AbstractRole, ReentrancyGuard {... */\n      mstore\n      0x24\n      dup2\n      add\n      dup5\n      swap1\n      mstore\n      0x01\n      0x44\n      dup3\n      add\n      mstore\n      0x80\n      0x64\n      dup3\n      add\n      mstore\n      0x00\n      0x84\n      dup3\n      add\n      dup2\n      swap1\n      mstore\n      swap1\n      swap2\n      dup3\n      swap1\n      0xa4\n      swap1\n      dup3\n      swap1\n      dup5\n      swap1\n        /* \"contracts/DmtpTech.sol\":7491:7522  key.mint(receiver_, id_, 1, \"\") */\n      gas\n      call\n      dup1\n      iszero\n      tag_205\n      jumpi\n      tag_249\n      jumpi\n        /* \"contracts/DmtpTech.sol\":355:7931  contract DmtpTech is ContextUpgradeable, AbstractRole, ReentrancyGuard {... */\n    tag_250:\n      pop\n        /* \"contracts/DmtpTech.sol\":7559:7628  (price * commission.keyGeneratorRate) /... */\n      tag_251\n        /* \"contracts/DmtpTech.sol\":7560:7595  price * commission.keyGeneratorRate */\n      tag_178\n        /* \"contracts/DmtpTech.sol\":7568:7595  commission.keyGeneratorRate */\n      0x07\n        /* \"contracts/DmtpTech.sol\":355:7931  contract DmtpTech is ContextUpgradeable, AbstractRole, ReentrancyGuard {... */\n      sload\n        /* \"contracts/DmtpTech.sol\":7560:7595  price * commission.keyGeneratorRate */\n      dup7\n      tag_54\n      jump\t// in\n        /* \"contracts/DmtpTech.sol\":7559:7628  (price * commission.keyGeneratorRate) /... */\n    tag_251:\n        /* \"contracts/DmtpTech.sol\":7642:7661  keyGeneratorFee > 0 */\n      dup1\n      dup1\n      iszero\n      dup1\n      iszero\n        /* \"contracts/DmtpTech.sol\":7638:7741  if (keyGeneratorFee > 0) {... */\n      tag_253\n      jumpi\n        /* \"contracts/DmtpTech.sol\":355:7931  contract DmtpTech is ContextUpgradeable, AbstractRole, ReentrancyGuard {... */\n    tag_254:\n      pop\n      pop\n        /* \"contracts/DmtpTech.sol\":7755:7774  commission.receiver */\n      0x06\n        /* \"contracts/DmtpTech.sol\":355:7931  contract DmtpTech is ContextUpgradeable, AbstractRole, ReentrancyGuard {... */\n      sload\n      sub(shl(0xa0, 0x01), 0x01)\n      and\n      dup1\n        /* \"contracts/DmtpTech.sol\":7751:7875  if (commission.receiver != address(0)) {... */\n      tag_256\n      jumpi\n        /* \"contracts/DmtpTech.sol\":355:7931  contract DmtpTech is ContextUpgradeable, AbstractRole, ReentrancyGuard {... */\n    tag_257:\n      pop\n      pop\n      0x40\n      dup1\n      mload\n      swap3\n      dup4\n      mstore\n      sub(shl(0xa0, 0x01), 0x01)\n      swap1\n      swap4\n      and\n      0x20\n      dup4\n      add\n      mstore\n      pop\n      swap1\n      dup2\n      add\n      swap2\n      swap1\n      swap2\n      mstore\n        /* \"contracts/DmtpTech.sol\":7890:7922  KeyBought(id_, receiver_, price) */\n      0xced28ea7ef5f4276044389e457757e3f21ca4368040c3b864e3890bcd56a9988\n      swap1\n        /* \"contracts/DmtpTech.sol\":355:7931  contract DmtpTech is ContextUpgradeable, AbstractRole, ReentrancyGuard {... */\n      dup1\n      0x60\n      dup2\n      add\n        /* \"contracts/DmtpTech.sol\":7890:7922  KeyBought(id_, receiver_, price) */\n      tag_198\n        /* \"contracts/DmtpTech.sol\":355:7931  contract DmtpTech is ContextUpgradeable, AbstractRole, ReentrancyGuard {... */\n      jump\n        /* \"contracts/DmtpTech.sol\":7751:7875  if (commission.receiver != address(0)) {... */\n    tag_256:\n      0x00\n      swap3\n      dup4\n      swap3\n      dup4\n      swap3\n      dup4\n      swap3\n        /* \"contracts/DmtpTech.sol\":7804:7832  payable(commission.receiver) */\n      swap2\n        /* \"contracts/DmtpTech.sol\":7842:7863  fee - keyGeneratorFee */\n      tag_260\n      swap2\n        /* \"contracts/DmtpTech.sol\":7804:7841  payable(commission.receiver).transfer */\n      tag_201\n      swap1\n      sub(shl(0xa0, 0x01), 0x01)\n        /* \"contracts/DmtpTech.sol\":355:7931  contract DmtpTech is ContextUpgradeable, AbstractRole, ReentrancyGuard {... */\n      and\n        /* \"contracts/DmtpTech.sol\":7804:7832  payable(commission.receiver) */\n      tag_170\n        /* \"contracts/DmtpTech.sol\":355:7931  contract DmtpTech is ContextUpgradeable, AbstractRole, ReentrancyGuard {... */\n      jump\n        /* \"contracts/DmtpTech.sol\":7842:7863  fee - keyGeneratorFee */\n    tag_260:\n        /* \"contracts/DmtpTech.sol\":7804:7864  payable(commission.receiver).transfer(fee - keyGeneratorFee) */\n      swap1\n      dup3\n      dup3\n      iszero\n      tag_263\n      jumpi\n        /* \"contracts/DmtpTech.sol\":7751:7875  if (commission.receiver != address(0)) {... */\n    tag_264:\n        /* \"contracts/DmtpTech.sol\":7804:7864  payable(commission.receiver).transfer(fee - keyGeneratorFee) */\n      call\n      iszero\n      tag_205\n      jumpi\n        /* \"contracts/DmtpTech.sol\":7751:7875  if (commission.receiver != address(0)) {... */\n      codesize\n      dup1\n      dup1\n      jump(tag_257)\n        /* \"contracts/DmtpTech.sol\":7804:7864  payable(commission.receiver).transfer(fee - keyGeneratorFee) */\n    tag_263:\n      pop\n      0x08fc\n      jump(tag_264)\n        /* \"contracts/DmtpTech.sol\":7638:7741  if (keyGeneratorFee > 0) {... */\n    tag_253:\n      0x00\n        /* \"contracts/DmtpTech.sol\":7685:7703  keyGenerators[id_] */\n      dup1\n      dup1\n      swap4\n      dup2\n      swap4\n        /* \"contracts/DmtpTech.sol\":7677:7713  payable(keyGenerators[id_]).transfer */\n      tag_267\n        /* \"contracts/DmtpTech.sol\":7677:7704  payable(keyGenerators[id_]) */\n      tag_170\n        /* \"contracts/DmtpTech.sol\":7685:7703  keyGenerators[id_] */\n      tag_170\n      tag_210\n      dup13\n        /* \"contracts/DmtpTech.sol\":355:7931  contract DmtpTech is ContextUpgradeable, AbstractRole, ReentrancyGuard {... */\n      0x00\n      mstore\n        /* \"contracts/DmtpTech.sol\":3962:3975  keyGenerators */\n      0x08\n        /* \"contracts/DmtpTech.sol\":355:7931  contract DmtpTech is ContextUpgradeable, AbstractRole, ReentrancyGuard {... */\n      0x20\n      mstore\n      keccak256(0x00, 0x40)\n      swap1\n      jump\n        /* \"contracts/DmtpTech.sol\":7677:7713  payable(keyGenerators[id_]).transfer */\n    tag_267:\n        /* \"contracts/DmtpTech.sol\":7677:7730  payable(keyGenerators[id_]).transfer(keyGeneratorFee) */\n      swap1\n      dup4\n      swap1\n      tag_271\n      jumpi\n        /* \"contracts/DmtpTech.sol\":7638:7741  if (keyGeneratorFee > 0) {... */\n    tag_272:\n        /* \"contracts/DmtpTech.sol\":7677:7730  payable(keyGenerators[id_]).transfer(keyGeneratorFee) */\n      call\n      iszero\n      tag_205\n      jumpi\n        /* \"contracts/DmtpTech.sol\":7638:7741  if (keyGeneratorFee > 0) {... */\n      dup1\n      codesize\n      jump(tag_254)\n        /* \"contracts/DmtpTech.sol\":7677:7730  payable(keyGenerators[id_]).transfer(keyGeneratorFee) */\n    tag_271:\n      pop\n      0x08fc\n      jump(tag_272)\n        /* \"contracts/DmtpTech.sol\":7491:7522  key.mint(receiver_, id_, 1, \"\") */\n    tag_249:\n      dup1\n      tag_215\n      0x00\n      tag_276\n      swap4\n      tag_32\n      jump\t// in\n    tag_276:\n      codesize\n      jump(tag_250)\n        /* \"contracts/DmtpTech.sol\":7290:7306  key.priceOf(id_) */\n    tag_238:\n      tag_277\n      swap2\n      swap5\n      pop\n        /* \"contracts/DmtpTech.sol\":355:7931  contract DmtpTech is ContextUpgradeable, AbstractRole, ReentrancyGuard {... */\n      0x20\n        /* \"contracts/DmtpTech.sol\":7290:7306  key.priceOf(id_) */\n      returndatasize\n        /* \"contracts/DmtpTech.sol\":355:7931  contract DmtpTech is ContextUpgradeable, AbstractRole, ReentrancyGuard {... */\n      0x20\n        /* \"contracts/DmtpTech.sol\":7290:7306  key.priceOf(id_) */\n      gt\n      tag_218\n      jumpi\n      tag_220\n      dup2\n      dup4\n      tag_32\n      jump\t// in\n    tag_277:\n      swap3\n      codesize\n      jump(tag_239)\n        /* \"contracts/DmtpTech.sol\":355:7931  contract DmtpTech is ContextUpgradeable, AbstractRole, ReentrancyGuard {... */\n    tag_13:\n      0x00\n      swap2\n      sub\n      slt\n      tag_156\n      jumpi\n      jump\t// out\n    tag_14:\n      jumpi(tag_156, callvalue)\n      jumpi(tag_156, slt(add(not(0x03), calldatasize), 0x00))\n        /* \"contracts/DmtpTech.sol\":1082:1103  address public signer */\n      0x03\n        /* \"contracts/DmtpTech.sol\":355:7931  contract DmtpTech is ContextUpgradeable, AbstractRole, ReentrancyGuard {... */\n      sload\n      mload(0x40)\n      sub(shl(0xa0, 0x01), 0x01)\n      swap1\n      swap2\n      and\n      dup2\n      mstore\n      0x20\n      swap1\n      return\n    tag_15:\n      jumpi(tag_156, callvalue)\n      jumpi(tag_156, slt(add(not(0x03), calldatasize), 0x20))\n      0x20\n      tag_291\n      calldataload(0x04)\n      tag_62\n      jump\t// in\n    tag_291:\n      mload(0x40)\n      swap1\n      dup2\n      mstore\n      return\n    tag_16:\n      jumpi(tag_156, callvalue)\n      jumpi(tag_156, slt(add(not(0x03), calldatasize), 0x40))\n        /* \"@openzeppelin/contracts-upgradeable/access/AccessControlUpgradeable.sol\":5350:5375  _grantRole(role, account) */\n      tag_199\n        /* \"contracts/DmtpTech.sol\":355:7931  contract DmtpTech is ContextUpgradeable, AbstractRole, ReentrancyGuard {... */\n      calldataload(0x04)\n      tag_297\n      tag_9\n      jump\t// in\n    tag_297:\n        /* \"@openzeppelin/contracts-upgradeable/access/AccessControlUpgradeable.sol\":5320:5338  getRoleAdmin(role) */\n      swap1\n        /* \"@openzeppelin/contracts-upgradeable/access/AccessControlUpgradeable.sol\":3202:3206  role */\n      tag_298\n        /* \"@openzeppelin/contracts-upgradeable/access/AccessControlUpgradeable.sol\":5320:5338  getRoleAdmin(role) */\n      tag_299\n      dup3\n      tag_62\n      jump\t// in\n    tag_299:\n        /* \"@openzeppelin/contracts-upgradeable/access/AccessControlUpgradeable.sol\":3202:3206  role */\n      tag_84\n      jump\t// in\n    tag_298:\n        /* \"@openzeppelin/contracts-upgradeable/access/AccessControlUpgradeable.sol\":5350:5375  _grantRole(role, account) */\n      tag_87\n      jump\t// in\n        /* \"contracts/DmtpTech.sol\":355:7931  contract DmtpTech is ContextUpgradeable, AbstractRole, ReentrancyGuard {... */\n    tag_17:\n      jumpi(tag_156, callvalue)\n      jumpi(tag_156, slt(add(not(0x03), calldatasize), 0x40))\n      calldataload(0x04)\n      tag_304\n      tag_9\n      jump\t// in\n    tag_304:\n        /* \"@openzeppelin/contracts-upgradeable/utils/ContextUpgradeable.sol\":966:976  msg.sender */\n      caller\n      sub(shl(0xa0, 0x01), 0x01)\n        /* \"contracts/DmtpTech.sol\":355:7931  contract DmtpTech is ContextUpgradeable, AbstractRole, ReentrancyGuard {... */\n      dup3\n      and\n        /* \"@openzeppelin/contracts-upgradeable/access/AccessControlUpgradeable.sol\":6441:6475  callerConfirmation != _msgSender() */\n      sub\n        /* \"@openzeppelin/contracts-upgradeable/access/AccessControlUpgradeable.sol\":6437:6539  if (callerConfirmation != _msgSender()) {... */\n      tag_305\n      jumpi\n        /* \"@openzeppelin/contracts-upgradeable/access/AccessControlUpgradeable.sol\":6549:6586  _revokeRole(role, callerConfirmation) */\n      tag_199\n      swap2\n      tag_88\n      jump\t// in\n        /* \"@openzeppelin/contracts-upgradeable/access/AccessControlUpgradeable.sol\":6437:6539  if (callerConfirmation != _msgSender()) {... */\n    tag_305:\n        /* \"@openzeppelin/contracts-upgradeable/access/AccessControlUpgradeable.sol\":6498:6528  AccessControlBadConfirmation() */\n      mstore(0x00, shl(0xe1, 0x334bd919))\n        /* \"contracts/DmtpTech.sol\":355:7931  contract DmtpTech is ContextUpgradeable, AbstractRole, ReentrancyGuard {... */\n      0x04\n      0x00\n        /* \"@openzeppelin/contracts-upgradeable/access/AccessControlUpgradeable.sol\":6498:6528  AccessControlBadConfirmation() */\n      revert\n        /* \"contracts/DmtpTech.sol\":355:7931  contract DmtpTech is ContextUpgradeable, AbstractRole, ReentrancyGuard {... */\n    tag_18:\n      jumpi(tag_156, callvalue)\n      jumpi(tag_156, slt(add(not(0x03), calldatasize), 0x00))\n        /* \"contracts/DmtpTech.sol\":1061:1076  IKey public key */\n      0x02\n        /* \"contracts/DmtpTech.sol\":355:7931  contract DmtpTech is ContextUpgradeable, AbstractRole, ReentrancyGuard {... */\n      sload\n      mload(0x40)\n      sub(shl(0xa0, 0x01), 0x01)\n      swap1\n      swap2\n      and\n      dup2\n      mstore\n      0x20\n      swap1\n      return\n    tag_20:\n      jumpi(tag_156, callvalue)\n      jumpi(tag_156, slt(add(not(0x03), calldatasize), 0x20))\n        /* \"contracts/DmtpTech.sol\":5682:5685  key */\n      0x02\n        /* \"contracts/DmtpTech.sol\":355:7931  contract DmtpTech is ContextUpgradeable, AbstractRole, ReentrancyGuard {... */\n      sload\n      mload(0x40)\n      shl(0xe0, 0xb9186d7d)\n        /* \"contracts/DmtpTech.sol\":5682:5698  key.priceOf(id_) */\n      dup2\n      mstore\n        /* \"contracts/DmtpTech.sol\":355:7931  contract DmtpTech is ContextUpgradeable, AbstractRole, ReentrancyGuard {... */\n      0x04\n      dup1\n      calldataload\n        /* \"contracts/DmtpTech.sol\":5682:5698  key.priceOf(id_) */\n      swap1\n      dup3\n      add\n        /* \"contracts/DmtpTech.sol\":355:7931  contract DmtpTech is ContextUpgradeable, AbstractRole, ReentrancyGuard {... */\n      mstore\n      swap1\n      0x20\n      swap1\n      dup3\n      swap1\n        /* \"contracts/DmtpTech.sol\":5682:5698  key.priceOf(id_) */\n      0x24\n      swap1\n        /* \"contracts/DmtpTech.sol\":355:7931  contract DmtpTech is ContextUpgradeable, AbstractRole, ReentrancyGuard {... */\n      dup3\n      swap1\n      sub(shl(0xa0, 0x01), 0x01)\n      and\n        /* \"contracts/DmtpTech.sol\":5682:5698  key.priceOf(id_) */\n      gas\n      staticcall\n      swap1\n      dup2\n      iszero\n      tag_205\n      jumpi\n      0x00\n      swap2\n      tag_319\n      jumpi\n        /* \"contracts/DmtpTech.sol\":355:7931  contract DmtpTech is ContextUpgradeable, AbstractRole, ReentrancyGuard {... */\n    tag_320:\n      pop\n        /* \"contracts/DmtpTech.sol\":510:516  10_000 */\n      0x2710\n        /* \"contracts/DmtpTech.sol\":5715:5738  price * commission.rate */\n      tag_321\n        /* \"contracts/DmtpTech.sol\":5723:5733  commission */\n      0x05\n        /* \"contracts/DmtpTech.sol\":355:7931  contract DmtpTech is ContextUpgradeable, AbstractRole, ReentrancyGuard {... */\n      sload\n        /* \"contracts/DmtpTech.sol\":5715:5738  price * commission.rate */\n      dup4\n      tag_54\n      jump\t// in\n    tag_321:\n        /* \"contracts/DmtpTech.sol\":355:7931  contract DmtpTech is ContextUpgradeable, AbstractRole, ReentrancyGuard {... */\n      div\n        /* \"contracts/DmtpTech.sol\":5778:5789  price + fee */\n      swap1\n        /* \"contracts/DmtpTech.sol\":355:7931  contract DmtpTech is ContextUpgradeable, AbstractRole, ReentrancyGuard {... */\n      tag_322\n        /* \"contracts/DmtpTech.sol\":5778:5789  price + fee */\n      tag_323\n      dup4\n      dup4\n      tag_60\n      jump\t// in\n    tag_323:\n        /* \"contracts/DmtpTech.sol\":355:7931  contract DmtpTech is ContextUpgradeable, AbstractRole, ReentrancyGuard {... */\n      mload(0x40)\n      swap4\n      dup5\n      swap4\n      dup5\n      0x40\n      swap2\n      swap5\n      swap4\n      swap3\n      0x60\n      dup3\n      add\n      swap6\n      dup3\n      mstore\n      0x20\n      dup3\n      add\n      mstore\n      add\n      mstore\n      jump\n    tag_322:\n      sub\n      swap1\n      return\n        /* \"contracts/DmtpTech.sol\":5682:5698  key.priceOf(id_) */\n    tag_319:\n      tag_324\n      swap2\n      pop\n        /* \"contracts/DmtpTech.sol\":355:7931  contract DmtpTech is ContextUpgradeable, AbstractRole, ReentrancyGuard {... */\n      0x20\n        /* \"contracts/DmtpTech.sol\":5682:5698  key.priceOf(id_) */\n      returndatasize\n        /* \"contracts/DmtpTech.sol\":355:7931  contract DmtpTech is ContextUpgradeable, AbstractRole, ReentrancyGuard {... */\n      0x20\n        /* \"contracts/DmtpTech.sol\":5682:5698  key.priceOf(id_) */\n      gt\n      tag_218\n      jumpi\n      tag_220\n      dup2\n      dup4\n      tag_32\n      jump\t// in\n    tag_324:\n      codesize\n      jump(tag_320)\n        /* \"contracts/DmtpTech.sol\":355:7931  contract DmtpTech is ContextUpgradeable, AbstractRole, ReentrancyGuard {... */\n    tag_24:\n      jumpi(tag_156, callvalue)\n      jumpi(tag_156, slt(add(not(0x03), calldatasize), 0x20))\n      sub(shl(0xa0, 0x01), 0x01)\n      tag_332\n      tag_10\n      jump\t// in\n    tag_332:\n      and\n      0x00\n      mstore\n      mstore(0x20, 0x04)\n      0x20\n      sload(keccak256(0x00, 0x40))\n      mload(0x40)\n      swap1\n      dup2\n      mstore\n      return\n    tag_25:\n      jumpi(tag_156, callvalue)\n      jumpi(tag_156, slt(add(not(0x03), calldatasize), 0x20))\n        /* \"contracts/DmtpTech.sol\":5984:5987  key */\n      0x02\n        /* \"contracts/DmtpTech.sol\":355:7931  contract DmtpTech is ContextUpgradeable, AbstractRole, ReentrancyGuard {... */\n      sload\n      mload(0x40)\n      shl(0xe1, 0x54787371)\n        /* \"contracts/DmtpTech.sol\":5984:6004  key.sellPriceOf(id_) */\n      dup2\n      mstore\n        /* \"contracts/DmtpTech.sol\":355:7931  contract DmtpTech is ContextUpgradeable, AbstractRole, ReentrancyGuard {... */\n      0x04\n      dup1\n      calldataload\n        /* \"contracts/DmtpTech.sol\":5984:6004  key.sellPriceOf(id_) */\n      swap1\n      dup3\n      add\n        /* \"contracts/DmtpTech.sol\":355:7931  contract DmtpTech is ContextUpgradeable, AbstractRole, ReentrancyGuard {... */\n      mstore\n      swap1\n      0x20\n      swap1\n      dup3\n      swap1\n        /* \"contracts/DmtpTech.sol\":5984:6004  key.sellPriceOf(id_) */\n      0x24\n      swap1\n        /* \"contracts/DmtpTech.sol\":355:7931  contract DmtpTech is ContextUpgradeable, AbstractRole, ReentrancyGuard {... */\n      dup3\n      swap1\n      sub(shl(0xa0, 0x01), 0x01)\n      and\n        /* \"contracts/DmtpTech.sol\":5984:6004  key.sellPriceOf(id_) */\n      gas\n      staticcall\n      swap1\n      dup2\n      iszero\n      tag_205\n      jumpi\n      0x00\n      swap2\n      tag_340\n      jumpi\n        /* \"contracts/DmtpTech.sol\":355:7931  contract DmtpTech is ContextUpgradeable, AbstractRole, ReentrancyGuard {... */\n    tag_341:\n      pop\n        /* \"contracts/DmtpTech.sol\":510:516  10_000 */\n      0x2710\n        /* \"contracts/DmtpTech.sol\":6021:6044  price * commission.rate */\n      tag_342\n        /* \"contracts/DmtpTech.sol\":6029:6039  commission */\n      0x05\n        /* \"contracts/DmtpTech.sol\":355:7931  contract DmtpTech is ContextUpgradeable, AbstractRole, ReentrancyGuard {... */\n      sload\n        /* \"contracts/DmtpTech.sol\":6021:6044  price * commission.rate */\n      dup4\n      tag_54\n      jump\t// in\n    tag_342:\n        /* \"contracts/DmtpTech.sol\":355:7931  contract DmtpTech is ContextUpgradeable, AbstractRole, ReentrancyGuard {... */\n      div\n        /* \"contracts/DmtpTech.sol\":6084:6095  price - fee */\n      swap1\n        /* \"contracts/DmtpTech.sol\":355:7931  contract DmtpTech is ContextUpgradeable, AbstractRole, ReentrancyGuard {... */\n      tag_322\n        /* \"contracts/DmtpTech.sol\":6084:6095  price - fee */\n      tag_323\n      dup4\n      dup4\n      tag_56\n      jump\t// in\n        /* \"contracts/DmtpTech.sol\":5984:6004  key.sellPriceOf(id_) */\n    tag_340:\n      tag_345\n      swap2\n      pop\n        /* \"contracts/DmtpTech.sol\":355:7931  contract DmtpTech is ContextUpgradeable, AbstractRole, ReentrancyGuard {... */\n      0x20\n        /* \"contracts/DmtpTech.sol\":5984:6004  key.sellPriceOf(id_) */\n      returndatasize\n        /* \"contracts/DmtpTech.sol\":355:7931  contract DmtpTech is ContextUpgradeable, AbstractRole, ReentrancyGuard {... */\n      0x20\n        /* \"contracts/DmtpTech.sol\":5984:6004  key.sellPriceOf(id_) */\n      gt\n      tag_218\n      jumpi\n      tag_220\n      dup2\n      dup4\n      tag_32\n      jump\t// in\n    tag_345:\n      codesize\n      jump(tag_341)\n        /* \"contracts/DmtpTech.sol\":355:7931  contract DmtpTech is ContextUpgradeable, AbstractRole, ReentrancyGuard {... */\n    tag_26:\n      jumpi(tag_156, callvalue)\n      jumpi(tag_156, slt(add(not(0x03), calldatasize), 0x20))\n        /* \"contracts/DmtpTech.sol\":2443:2461  SignerSet(signer_) */\n      0x9eaa897564d022fb8c5efaf0acdb5d9d27b440b2aad44400b6e1c702e65b9ed3\n        /* \"contracts/DmtpTech.sol\":355:7931  contract DmtpTech is ContextUpgradeable, AbstractRole, ReentrancyGuard {... */\n      0x20\n      tag_353\n      tag_10\n      jump\t// in\n    tag_353:\n        /* \"@openzeppelin/contracts-upgradeable/access/AccessControlUpgradeable.sol\":3202:3206  role */\n      tag_354\n      tag_83\n      jump\t// in\n    tag_354:\n      sub(shl(0xa0, 0x01), 0x01)\n        /* \"contracts/DmtpTech.sol\":355:7931  contract DmtpTech is ContextUpgradeable, AbstractRole, ReentrancyGuard {... */\n      and\n        /* \"contracts/DmtpTech.sol\":2335:2400  require(signer_ != address(0), \"DMTP_TECH_PARAM_ADDRESS_INVALID\") */\n      tag_355\n        /* \"contracts/DmtpTech.sol\":2343:2364  signer_ != address(0) */\n      dup2\n      iszero\n      iszero\n        /* \"contracts/DmtpTech.sol\":2335:2400  require(signer_ != address(0), \"DMTP_TECH_PARAM_ADDRESS_INVALID\") */\n      tag_63\n      jump\t// in\n    tag_355:\n        /* \"contracts/DmtpTech.sol\":2411:2427  signer = signer_ */\n      0x03\n        /* \"contracts/DmtpTech.sol\":355:7931  contract DmtpTech is ContextUpgradeable, AbstractRole, ReentrancyGuard {... */\n      dup1\n      sload\n      not(sub(shl(0xa0, 0x01), 0x01))\n      and\n      dup3\n      or\n      swap1\n      sstore\n      mload(0x40)\n      swap1\n      dup2\n      mstore\n        /* \"contracts/DmtpTech.sol\":2443:2461  SignerSet(signer_) */\n      log1\n        /* \"contracts/DmtpTech.sol\":355:7931  contract DmtpTech is ContextUpgradeable, AbstractRole, ReentrancyGuard {... */\n      stop\n    tag_27:\n      jumpi(tag_156, callvalue)\n      jumpi(tag_156, slt(add(not(0x03), calldatasize), 0x60))\n        /* \"contracts/DmtpTech.sol\":5474:5528  CommissionUpdated(rate_, receiver_, keyGeneratorRate_) */\n      0x827988aa1b695ab4719b95a49399fb75159954cc25d5b37c53cf23e8a6a58d36\n        /* \"contracts/DmtpTech.sol\":355:7931  contract DmtpTech is ContextUpgradeable, AbstractRole, ReentrancyGuard {... */\n      calldataload(0x04)\n      tag_360\n      tag_9\n      jump\t// in\n    tag_360:\n      swap1\n        /* \"contracts/DmtpTech.sol\":5474:5528  CommissionUpdated(rate_, receiver_, keyGeneratorRate_) */\n      tag_361\n        /* \"contracts/DmtpTech.sol\":355:7931  contract DmtpTech is ContextUpgradeable, AbstractRole, ReentrancyGuard {... */\n      calldataload(0x44)\n        /* \"@openzeppelin/contracts-upgradeable/access/AccessControlUpgradeable.sol\":3202:3206  role */\n      tag_362\n      tag_83\n      jump\t// in\n    tag_362:\n        /* \"contracts/DmtpTech.sol\":5337:5356  commission.receiver */\n      0x06\n        /* \"contracts/DmtpTech.sol\":355:7931  contract DmtpTech is ContextUpgradeable, AbstractRole, ReentrancyGuard {... */\n      dup1\n      sload\n      not(sub(shl(0xa0, 0x01), 0x01))\n      and\n      sub(shl(0xa0, 0x01), 0x01)\n      swap6\n      swap1\n      swap6\n      and\n      swap5\n      dup6\n      or\n      swap1\n      sstore\n        /* \"contracts/DmtpTech.sol\":5337:5347  commission */\n      0x05\n        /* \"contracts/DmtpTech.sol\":355:7931  contract DmtpTech is ContextUpgradeable, AbstractRole, ReentrancyGuard {... */\n      dup4\n      swap1\n      sstore\n        /* \"contracts/DmtpTech.sol\":5411:5438  commission.keyGeneratorRate */\n      0x07\n        /* \"contracts/DmtpTech.sol\":355:7931  contract DmtpTech is ContextUpgradeable, AbstractRole, ReentrancyGuard {... */\n      dup2\n      swap1\n      sstore\n      0x40\n      dup1\n      mload\n      swap4\n      dup5\n      mstore\n      0x20\n      dup5\n      add\n      swap5\n      swap1\n      swap5\n      mstore\n      swap3\n      dup3\n      add\n      swap3\n      swap1\n      swap3\n      mstore\n      swap1\n      dup2\n      swap1\n      0x60\n      dup3\n      add\n      swap1\n      jump\n        /* \"contracts/DmtpTech.sol\":5474:5528  CommissionUpdated(rate_, receiver_, keyGeneratorRate_) */\n    tag_361:\n      sub\n      swap1\n      log1\n        /* \"contracts/DmtpTech.sol\":355:7931  contract DmtpTech is ContextUpgradeable, AbstractRole, ReentrancyGuard {... */\n      stop\n    tag_28:\n      jumpi(tag_156, callvalue)\n      jumpi(tag_156, slt(add(not(0x03), calldatasize), 0x20))\n        /* \"contracts/DmtpTech.sol\":5143:5167  KeyContractUpdated(key_) */\n      0x9c421f75c1b2cd6cdf5bd68ae0986ad4518d273a5c59745ac6454392b0b709a5\n        /* \"contracts/DmtpTech.sol\":355:7931  contract DmtpTech is ContextUpgradeable, AbstractRole, ReentrancyGuard {... */\n      0x20\n      tag_367\n      tag_10\n      jump\t// in\n    tag_367:\n        /* \"@openzeppelin/contracts-upgradeable/access/AccessControlUpgradeable.sol\":3202:3206  role */\n      tag_368\n      tag_83\n      jump\t// in\n    tag_368:\n      sub(shl(0xa0, 0x01), 0x01)\n        /* \"contracts/DmtpTech.sol\":355:7931  contract DmtpTech is ContextUpgradeable, AbstractRole, ReentrancyGuard {... */\n      and\n        /* \"contracts/DmtpTech.sol\":5038:5100  require(key_ != address(0), \"DMTP_TECH_PARAM_ADDRESS_INVALID\") */\n      tag_369\n        /* \"contracts/DmtpTech.sol\":5046:5064  key_ != address(0) */\n      dup2\n      iszero\n      iszero\n        /* \"contracts/DmtpTech.sol\":5038:5100  require(key_ != address(0), \"DMTP_TECH_PARAM_ADDRESS_INVALID\") */\n      tag_63\n      jump\t// in\n    tag_369:\n        /* \"contracts/DmtpTech.sol\":5111:5127  key = IKey(key_) */\n      0x02\n        /* \"contracts/DmtpTech.sol\":355:7931  contract DmtpTech is ContextUpgradeable, AbstractRole, ReentrancyGuard {... */\n      dup1\n      sload\n      not(sub(shl(0xa0, 0x01), 0x01))\n      and\n      dup3\n      or\n      swap1\n      sstore\n      mload(0x40)\n      swap1\n      dup2\n      mstore\n        /* \"contracts/DmtpTech.sol\":5143:5167  KeyContractUpdated(key_) */\n      log1\n        /* \"contracts/DmtpTech.sol\":355:7931  contract DmtpTech is ContextUpgradeable, AbstractRole, ReentrancyGuard {... */\n      stop\n    tag_29:\n      jumpi(tag_156, callvalue)\n      jumpi(tag_156, slt(add(not(0x03), calldatasize), 0x00))\n      0x20\n      mload(0x40)\n        /* \"contracts/DmtpTech.sol\":510:516  10_000 */\n      0x2710\n        /* \"contracts/DmtpTech.sol\":355:7931  contract DmtpTech is ContextUpgradeable, AbstractRole, ReentrancyGuard {... */\n      dup2\n      mstore\n      return\n    tag_30:\n      jumpi(tag_156, callvalue)\n      jumpi(tag_156, slt(add(not(0x03), calldatasize), 0x40))\n      0x20\n      tag_378\n      tag_379\n      tag_10\n      jump\t// in\n    tag_379:\n      calldataload(0x24)\n      swap1\n      tag_68\n      jump\t// in\n    tag_378:\n      mload(0x40)\n      swap1\n      iszero\n      iszero\n      dup2\n      mstore\n      return\n    tag_31:\n      mstore(0x00, shl(0xe0, 0x4e487b71))\n      mstore(0x04, 0x41)\n      revert(0x00, 0x24)\n    tag_32:\n      swap1\n      0x1f\n      dup1\n      not\n      swap2\n      add\n      and\n      dup2\n      add\n      swap1\n      dup2\n      lt\n      0xffffffffffffffff\n      dup3\n      gt\n      or\n      tag_380\n      jumpi\n      0x40\n      mstore\n      jump\t// out\n    tag_380:\n      tag_31\n      jump\t// in\n    tag_33:\n      jumpi(tag_156, callvalue)\n      jumpi(tag_156, slt(add(not(0x03), calldatasize), 0x20))\n      calldataload(0x04)\n      0xffffffffffffffff\n      dup2\n      gt\n      tag_156\n      jumpi\n      calldatasize\n      0x23\n      dup3\n      add\n      slt\n      iszero\n      tag_156\n      jumpi\n      dup1\n      0x04\n      add\n      calldataload\n      0xffffffffffffffff\n      dup2\n      gt\n      tag_380\n      jumpi\n      mload(0x40)\n      swap1\n      tag_392\n      0x1f\n      dup3\n      add\n      not(0x1f)\n      and\n      0x20\n      add\n      dup4\n      tag_32\n      jump\t// in\n    tag_392:\n      dup1\n      dup3\n      mstore\n      calldatasize\n      0x24\n      dup3\n      dup6\n      add\n      add\n      gt\n      tag_156\n      jumpi\n      0x20\n      dup2\n      0x00\n      swap3\n      0x24\n        /* \"contracts/DmtpTech.sol\":4207:4951  function generateKey(bytes memory signature_) external nonReentrant {... */\n      tag_199\n        /* \"contracts/DmtpTech.sol\":355:7931  contract DmtpTech is ContextUpgradeable, AbstractRole, ReentrancyGuard {... */\n      swap7\n      add\n      dup4\n      dup7\n      add\n      calldatacopy\n      dup4\n      add\n      add\n      mstore\n        /* \"contracts/DmtpTech.sol\":4207:4951  function generateKey(bytes memory signature_) external nonReentrant {... */\n      tag_69\n      jump\t// in\n        /* \"contracts/DmtpTech.sol\":355:7931  contract DmtpTech is ContextUpgradeable, AbstractRole, ReentrancyGuard {... */\n    tag_34:\n      jumpi(tag_156, callvalue)\n      jumpi(tag_156, slt(add(not(0x03), calldatasize), 0x40))\n        /* \"contracts/DmtpTech.sol\":6467:6499  keyGenerators[keyId_] = account_ */\n      tag_199\n        /* \"contracts/DmtpTech.sol\":355:7931  contract DmtpTech is ContextUpgradeable, AbstractRole, ReentrancyGuard {... */\n      calldataload(0x04)\n      tag_401\n      tag_9\n      jump\t// in\n    tag_401:\n        /* \"@openzeppelin/contracts-upgradeable/access/AccessControlUpgradeable.sol\":3202:3206  role */\n      swap1\n      tag_402\n      tag_83\n      jump\t// in\n    tag_402:\n        /* \"contracts/DmtpTech.sol\":6290:6300  keyId_ > 0 */\n      dup1\n      iszero\n      iszero\n        /* \"contracts/DmtpTech.sol\":6290:6327  keyId_ > 0 && keyId_ <= _keyIdCounter */\n      dup1\n      tag_403\n      jumpi\n        /* \"contracts/DmtpTech.sol\":355:7931  contract DmtpTech is ContextUpgradeable, AbstractRole, ReentrancyGuard {... */\n    tag_404:\n        /* \"contracts/DmtpTech.sol\":6269:6380  require(... */\n      tag_405\n      swap1\n      tag_58\n      jump\t// in\n    tag_405:\n        /* \"contracts/DmtpTech.sol\":6390:6456  require(account_ != address(0), \"DMTP_TECH_PARAM_ADDRESS_INVALID\") */\n      tag_406\n      sub(shl(0xa0, 0x01), 0x01)\n        /* \"contracts/DmtpTech.sol\":355:7931  contract DmtpTech is ContextUpgradeable, AbstractRole, ReentrancyGuard {... */\n      dup4\n      and\n        /* \"contracts/DmtpTech.sol\":6398:6420  account_ != address(0) */\n      iszero\n      iszero\n        /* \"contracts/DmtpTech.sol\":6390:6456  require(account_ != address(0), \"DMTP_TECH_PARAM_ADDRESS_INVALID\") */\n      tag_63\n      jump\t// in\n    tag_406:\n      0x00\n        /* \"contracts/DmtpTech.sol\":355:7931  contract DmtpTech is ContextUpgradeable, AbstractRole, ReentrancyGuard {... */\n      mstore\n        /* \"contracts/DmtpTech.sol\":6467:6480  keyGenerators */\n      0x08\n        /* \"contracts/DmtpTech.sol\":355:7931  contract DmtpTech is ContextUpgradeable, AbstractRole, ReentrancyGuard {... */\n      0x20\n      mstore\n      keccak256(0x00, 0x40)\n      swap1\n      0x01\n      dup1\n      0xa0\n      shl\n      sub\n      and\n      shl(0xa0, sub(shl(0x60, 0x01), 0x01))\n      dup3\n      sload\n      and\n      or\n      swap1\n      sstore\n      jump\n        /* \"contracts/DmtpTech.sol\":6290:6327  keyId_ > 0 && keyId_ <= _keyIdCounter */\n    tag_403:\n      pop\n        /* \"contracts/DmtpTech.sol\":6314:6327  _keyIdCounter */\n      0x01\n        /* \"contracts/DmtpTech.sol\":355:7931  contract DmtpTech is ContextUpgradeable, AbstractRole, ReentrancyGuard {... */\n      sload\n        /* \"contracts/DmtpTech.sol\":6304:6327  keyId_ <= _keyIdCounter */\n      dup2\n      gt\n      iszero\n        /* \"contracts/DmtpTech.sol\":6290:6327  keyId_ > 0 && keyId_ <= _keyIdCounter */\n      jump(tag_404)\n        /* \"contracts/DmtpTech.sol\":355:7931  contract DmtpTech is ContextUpgradeable, AbstractRole, ReentrancyGuard {... */\n    tag_35:\n      jumpi(tag_156, callvalue)\n      jumpi(tag_156, slt(add(not(0x03), calldatasize), 0x00))\n      0x20\n      0xff\n        /* \"contracts/DmtpTech.sol\":1249:1281  bool public needToCheckWhitelist */\n      0x09\n        /* \"contracts/DmtpTech.sol\":355:7931  contract DmtpTech is ContextUpgradeable, AbstractRole, ReentrancyGuard {... */\n      sload\n      and\n      mload(0x40)\n      swap1\n      iszero\n      iszero\n      dup2\n      mstore\n      return\n    tag_36:\n      jumpi(tag_156, callvalue)\n      jumpi(tag_156, slt(add(not(0x03), calldatasize), 0x40))\n      0x20\n      0xff\n        /* \"@openzeppelin/contracts-upgradeable/access/AccessControlUpgradeable.sol\":3901:3932  $._roles[role].hasRole[account] */\n      tag_415\n        /* \"contracts/DmtpTech.sol\":355:7931  contract DmtpTech is ContextUpgradeable, AbstractRole, ReentrancyGuard {... */\n      calldataload(0x04)\n      tag_416\n      tag_9\n      jump\t// in\n    tag_416:\n      swap1\n      0x00\n      mstore\n      0x00\n      dup1\n      mload\n      0x20\n      data_b3da67d1b252aeab7c8063542d95e75f82a5307a82535949bc38f7cf7ba8897f\n      dup4\n      codecopy\n      dup2\n      mload\n      swap2\n      mstore\n      dup5\n      mstore\n      keccak256(0x00, 0x40)\n      swap1\n      0x01\n      dup1\n      0xa0\n      shl\n      sub\n      and\n      0x00\n      mstore\n      0x20\n      mstore\n      keccak256(0x00, 0x40)\n      swap1\n      jump\n        /* \"@openzeppelin/contracts-upgradeable/access/AccessControlUpgradeable.sol\":3901:3932  $._roles[role].hasRole[account] */\n    tag_415:\n        /* \"contracts/DmtpTech.sol\":355:7931  contract DmtpTech is ContextUpgradeable, AbstractRole, ReentrancyGuard {... */\n      sload\n      and\n      mload(0x40)\n      swap1\n      iszero\n      iszero\n      dup2\n      mstore\n      return\n    tag_37:\n      jumpi(tag_156, slt(add(not(0x03), calldatasize), 0x20))\n      calldataload(0x04)\n        /* \"@openzeppelin/contracts/utils/ReentrancyGuard.sol\":2466:2569  modifier nonReentrant() {... */\n      tag_420\n      tag_81\n      jump\t// in\n    tag_420:\n        /* \"contracts/DmtpTech.sol\":2543:2603  require(id_ <= _keyIdCounter, \"DMTP_TECH_PARAM_KEY_INVALID\") */\n      tag_421\n        /* \"contracts/DmtpTech.sol\":2558:2571  _keyIdCounter */\n      0x01\n        /* \"contracts/DmtpTech.sol\":355:7931  contract DmtpTech is ContextUpgradeable, AbstractRole, ReentrancyGuard {... */\n      sload\n        /* \"contracts/DmtpTech.sol\":2551:2571  id_ <= _keyIdCounter */\n      dup3\n      gt\n      iszero\n        /* \"contracts/DmtpTech.sol\":2543:2603  require(id_ <= _keyIdCounter, \"DMTP_TECH_PARAM_KEY_INVALID\") */\n      tag_58\n      jump\t// in\n    tag_421:\n        /* \"contracts/DmtpTech.sol\":2630:2633  key */\n      0x02\n        /* \"contracts/DmtpTech.sol\":355:7931  contract DmtpTech is ContextUpgradeable, AbstractRole, ReentrancyGuard {... */\n      sload\n        /* \"contracts/DmtpTech.sol\":2630:2641  key.priceOf */\n      tag_422\n      swap1\n      sub(shl(0xa0, 0x01), 0x01)\n        /* \"contracts/DmtpTech.sol\":355:7931  contract DmtpTech is ContextUpgradeable, AbstractRole, ReentrancyGuard {... */\n      and\n      jump(tag_170)\n        /* \"contracts/DmtpTech.sol\":2630:2641  key.priceOf */\n    tag_422:\n        /* \"contracts/DmtpTech.sol\":355:7931  contract DmtpTech is ContextUpgradeable, AbstractRole, ReentrancyGuard {... */\n      mload(0x40)\n      shl(0xe0, 0xb9186d7d)\n        /* \"contracts/DmtpTech.sol\":2630:2646  key.priceOf(id_) */\n      dup2\n      mstore\n        /* \"contracts/DmtpTech.sol\":355:7931  contract DmtpTech is ContextUpgradeable, AbstractRole, ReentrancyGuard {... */\n      0x04\n        /* \"contracts/DmtpTech.sol\":2630:2646  key.priceOf(id_) */\n      dup2\n      add\n        /* \"contracts/DmtpTech.sol\":355:7931  contract DmtpTech is ContextUpgradeable, AbstractRole, ReentrancyGuard {... */\n      dup4\n      swap1\n      mstore\n      swap1\n      0x20\n      dup3\n      0x24\n      dup2\n      dup5\n        /* \"contracts/DmtpTech.sol\":2630:2646  key.priceOf(id_) */\n      gas\n      staticcall\n      swap2\n      dup3\n      iszero\n      tag_205\n      jumpi\n      0x00\n      swap3\n      tag_427\n      jumpi\n        /* \"contracts/DmtpTech.sol\":355:7931  contract DmtpTech is ContextUpgradeable, AbstractRole, ReentrancyGuard {... */\n    tag_428:\n      pop\n        /* \"contracts/DmtpTech.sol\":2671:2716  (price * commission.rate) / A_HUNDRED_PERCENT */\n      tag_429\n        /* \"contracts/DmtpTech.sol\":2672:2695  price * commission.rate */\n      tag_178\n        /* \"contracts/DmtpTech.sol\":2680:2690  commission */\n      0x05\n        /* \"contracts/DmtpTech.sol\":355:7931  contract DmtpTech is ContextUpgradeable, AbstractRole, ReentrancyGuard {... */\n      sload\n        /* \"contracts/DmtpTech.sol\":2672:2695  price * commission.rate */\n      dup5\n      tag_54\n      jump\t// in\n        /* \"contracts/DmtpTech.sol\":2671:2716  (price * commission.rate) / A_HUNDRED_PERCENT */\n    tag_429:\n        /* \"contracts/DmtpTech.sol\":2743:2754  price + fee */\n      swap1\n        /* \"contracts/DmtpTech.sol\":2765:2820  require(msg.value == payout, \"DMTP_TECH_PRICE_CHANGED\") */\n      tag_431\n        /* \"contracts/DmtpTech.sol\":2743:2754  price + fee */\n      tag_243\n      dup4\n      dup6\n      tag_60\n      jump\t// in\n        /* \"contracts/DmtpTech.sol\":2765:2820  require(msg.value == payout, \"DMTP_TECH_PRICE_CHANGED\") */\n    tag_431:\n        /* \"contracts/DmtpTech.sol\":2831:2865  key.mint(_msgSender(), id_, 1, \"\") */\n      dup1\n      extcodesize\n      iszero\n      tag_156\n      jumpi\n        /* \"contracts/DmtpTech.sol\":355:7931  contract DmtpTech is ContextUpgradeable, AbstractRole, ReentrancyGuard {... */\n      mload(0x40)\n      shl(0xe0, 0x731133e9)\n        /* \"contracts/DmtpTech.sol\":2831:2865  key.mint(_msgSender(), id_, 1, \"\") */\n      dup2\n      mstore\n        /* \"@openzeppelin/contracts-upgradeable/utils/ContextUpgradeable.sol\":966:976  msg.sender */\n      caller\n        /* \"contracts/DmtpTech.sol\":355:7931  contract DmtpTech is ContextUpgradeable, AbstractRole, ReentrancyGuard {... */\n      0x04\n        /* \"contracts/DmtpTech.sol\":2831:2865  key.mint(_msgSender(), id_, 1, \"\") */\n      dup3\n      add\n        /* \"contracts/DmtpTech.sol\":355:7931  contract DmtpTech is ContextUpgradeable, AbstractRole, ReentrancyGuard {... */\n      mstore\n      0x24\n      dup2\n      add\n      dup6\n      swap1\n      mstore\n      0x01\n      0x44\n      dup3\n      add\n      mstore\n      0x80\n      0x64\n      dup3\n      add\n      mstore\n      0x00\n      0x84\n      dup3\n      add\n      dup2\n      swap1\n      mstore\n      swap1\n      swap2\n      dup3\n      swap1\n      0xa4\n      swap1\n      dup3\n      swap1\n      dup5\n      swap1\n        /* \"contracts/DmtpTech.sol\":2831:2865  key.mint(_msgSender(), id_, 1, \"\") */\n      gas\n      call\n      dup1\n      iszero\n      tag_205\n      jumpi\n      tag_438\n      jumpi\n        /* \"contracts/DmtpTech.sol\":355:7931  contract DmtpTech is ContextUpgradeable, AbstractRole, ReentrancyGuard {... */\n    tag_439:\n      pop\n        /* \"contracts/DmtpTech.sol\":2902:2971  (price * commission.keyGeneratorRate) /... */\n      tag_440\n        /* \"contracts/DmtpTech.sol\":2903:2938  price * commission.keyGeneratorRate */\n      tag_178\n        /* \"contracts/DmtpTech.sol\":2911:2938  commission.keyGeneratorRate */\n      0x07\n        /* \"contracts/DmtpTech.sol\":355:7931  contract DmtpTech is ContextUpgradeable, AbstractRole, ReentrancyGuard {... */\n      sload\n        /* \"contracts/DmtpTech.sol\":2903:2938  price * commission.keyGeneratorRate */\n      dup5\n      tag_54\n      jump\t// in\n        /* \"contracts/DmtpTech.sol\":2902:2971  (price * commission.keyGeneratorRate) /... */\n    tag_440:\n        /* \"contracts/DmtpTech.sol\":2985:3004  keyGeneratorFee > 0 */\n      dup1\n      dup1\n      iszero\n      dup1\n      iszero\n        /* \"contracts/DmtpTech.sol\":2981:3084  if (keyGeneratorFee > 0) {... */\n      tag_442\n      jumpi\n        /* \"contracts/DmtpTech.sol\":355:7931  contract DmtpTech is ContextUpgradeable, AbstractRole, ReentrancyGuard {... */\n    tag_443:\n      pop\n      pop\n        /* \"contracts/DmtpTech.sol\":3098:3117  commission.receiver */\n      0x06\n        /* \"contracts/DmtpTech.sol\":355:7931  contract DmtpTech is ContextUpgradeable, AbstractRole, ReentrancyGuard {... */\n      sload\n      sub(shl(0xa0, 0x01), 0x01)\n      and\n      dup1\n        /* \"contracts/DmtpTech.sol\":3094:3218  if (commission.receiver != address(0)) {... */\n      tag_445\n      jumpi\n        /* \"contracts/DmtpTech.sol\":355:7931  contract DmtpTech is ContextUpgradeable, AbstractRole, ReentrancyGuard {... */\n    tag_446:\n      0x40\n      dup1\n      mload\n      dup7\n      dup2\n      mstore\n        /* \"@openzeppelin/contracts-upgradeable/utils/ContextUpgradeable.sol\":966:976  msg.sender */\n      caller\n        /* \"contracts/DmtpTech.sol\":355:7931  contract DmtpTech is ContextUpgradeable, AbstractRole, ReentrancyGuard {... */\n      0x20\n      dup3\n      add\n      mstore\n      swap1\n      dup2\n      add\n      dup6\n      swap1\n      mstore\n        /* \"contracts/DmtpTech.sol\":3233:3268  KeyBought(id_, _msgSender(), price) */\n      0xced28ea7ef5f4276044389e457757e3f21ca4368040c3b864e3890bcd56a9988\n      swap1\n        /* \"contracts/DmtpTech.sol\":355:7931  contract DmtpTech is ContextUpgradeable, AbstractRole, ReentrancyGuard {... */\n      dup1\n      0x60\n      dup2\n      add\n        /* \"contracts/DmtpTech.sol\":3233:3268  KeyBought(id_, _msgSender(), price) */\n      tag_198\n        /* \"contracts/DmtpTech.sol\":355:7931  contract DmtpTech is ContextUpgradeable, AbstractRole, ReentrancyGuard {... */\n      jump\n        /* \"contracts/DmtpTech.sol\":3094:3218  if (commission.receiver != address(0)) {... */\n    tag_445:\n      0x00\n      swap3\n      dup4\n      swap3\n      dup4\n      swap3\n      dup4\n      swap3\n        /* \"contracts/DmtpTech.sol\":3147:3175  payable(commission.receiver) */\n      swap2\n        /* \"contracts/DmtpTech.sol\":3185:3206  fee - keyGeneratorFee */\n      tag_449\n      swap2\n        /* \"contracts/DmtpTech.sol\":3147:3184  payable(commission.receiver).transfer */\n      tag_201\n      swap1\n      sub(shl(0xa0, 0x01), 0x01)\n        /* \"contracts/DmtpTech.sol\":355:7931  contract DmtpTech is ContextUpgradeable, AbstractRole, ReentrancyGuard {... */\n      and\n        /* \"contracts/DmtpTech.sol\":3147:3175  payable(commission.receiver) */\n      tag_170\n        /* \"contracts/DmtpTech.sol\":355:7931  contract DmtpTech is ContextUpgradeable, AbstractRole, ReentrancyGuard {... */\n      jump\n        /* \"contracts/DmtpTech.sol\":3185:3206  fee - keyGeneratorFee */\n    tag_449:\n        /* \"contracts/DmtpTech.sol\":3147:3207  payable(commission.receiver).transfer(fee - keyGeneratorFee) */\n      swap1\n      dup3\n      dup3\n      iszero\n      tag_452\n      jumpi\n        /* \"contracts/DmtpTech.sol\":3094:3218  if (commission.receiver != address(0)) {... */\n    tag_453:\n        /* \"contracts/DmtpTech.sol\":3147:3207  payable(commission.receiver).transfer(fee - keyGeneratorFee) */\n      call\n      iszero\n      tag_205\n      jumpi\n        /* \"contracts/DmtpTech.sol\":3094:3218  if (commission.receiver != address(0)) {... */\n      codesize\n      dup1\n      dup1\n      jump(tag_446)\n        /* \"contracts/DmtpTech.sol\":3147:3207  payable(commission.receiver).transfer(fee - keyGeneratorFee) */\n    tag_452:\n      pop\n      0x08fc\n      jump(tag_453)\n        /* \"contracts/DmtpTech.sol\":2981:3084  if (keyGeneratorFee > 0) {... */\n    tag_442:\n      0x00\n        /* \"contracts/DmtpTech.sol\":3028:3046  keyGenerators[id_] */\n      dup1\n      dup1\n      swap4\n      dup2\n      swap4\n        /* \"contracts/DmtpTech.sol\":3020:3056  payable(keyGenerators[id_]).transfer */\n      tag_456\n        /* \"contracts/DmtpTech.sol\":3020:3047  payable(keyGenerators[id_]) */\n      tag_170\n        /* \"contracts/DmtpTech.sol\":3028:3046  keyGenerators[id_] */\n      tag_170\n      tag_210\n      dup14\n        /* \"contracts/DmtpTech.sol\":355:7931  contract DmtpTech is ContextUpgradeable, AbstractRole, ReentrancyGuard {... */\n      0x00\n      mstore\n        /* \"contracts/DmtpTech.sol\":3962:3975  keyGenerators */\n      0x08\n        /* \"contracts/DmtpTech.sol\":355:7931  contract DmtpTech is ContextUpgradeable, AbstractRole, ReentrancyGuard {... */\n      0x20\n      mstore\n      keccak256(0x00, 0x40)\n      swap1\n      jump\n        /* \"contracts/DmtpTech.sol\":3020:3056  payable(keyGenerators[id_]).transfer */\n    tag_456:\n        /* \"contracts/DmtpTech.sol\":3020:3073  payable(keyGenerators[id_]).transfer(keyGeneratorFee) */\n      swap1\n      dup4\n      swap1\n      tag_460\n      jumpi\n        /* \"contracts/DmtpTech.sol\":2981:3084  if (keyGeneratorFee > 0) {... */\n    tag_461:\n        /* \"contracts/DmtpTech.sol\":3020:3073  payable(keyGenerators[id_]).transfer(keyGeneratorFee) */\n      call\n      iszero\n      tag_205\n      jumpi\n        /* \"contracts/DmtpTech.sol\":2981:3084  if (keyGeneratorFee > 0) {... */\n      dup1\n      codesize\n      jump(tag_443)\n        /* \"contracts/DmtpTech.sol\":3020:3073  payable(keyGenerators[id_]).transfer(keyGeneratorFee) */\n    tag_460:\n      pop\n      0x08fc\n      jump(tag_461)\n        /* \"contracts/DmtpTech.sol\":2831:2865  key.mint(_msgSender(), id_, 1, \"\") */\n    tag_438:\n      dup1\n      tag_215\n      0x00\n      tag_465\n      swap4\n      tag_32\n      jump\t// in\n    tag_465:\n      codesize\n      jump(tag_439)\n        /* \"contracts/DmtpTech.sol\":2630:2646  key.priceOf(id_) */\n    tag_427:\n      tag_466\n      swap2\n      swap3\n      pop\n        /* \"contracts/DmtpTech.sol\":355:7931  contract DmtpTech is ContextUpgradeable, AbstractRole, ReentrancyGuard {... */\n      0x20\n        /* \"contracts/DmtpTech.sol\":2630:2646  key.priceOf(id_) */\n      returndatasize\n        /* \"contracts/DmtpTech.sol\":355:7931  contract DmtpTech is ContextUpgradeable, AbstractRole, ReentrancyGuard {... */\n      0x20\n        /* \"contracts/DmtpTech.sol\":2630:2646  key.priceOf(id_) */\n      gt\n      tag_218\n      jumpi\n      tag_220\n      dup2\n      dup4\n      tag_32\n      jump\t// in\n    tag_466:\n      swap1\n      codesize\n      jump(tag_428)\n        /* \"contracts/DmtpTech.sol\":355:7931  contract DmtpTech is ContextUpgradeable, AbstractRole, ReentrancyGuard {... */\n    tag_38:\n      jumpi(tag_156, callvalue)\n      jumpi(tag_156, slt(add(not(0x03), calldatasize), 0x00))\n      0x20\n      mload(0x40)\n      0x00\n      dup2\n      mstore\n      return\n    tag_39:\n      jumpi(tag_156, callvalue)\n      jumpi(tag_156, slt(add(not(0x03), calldatasize), 0x20))\n      calldataload(0x04)\n      dup1\n      iszero\n      dup1\n      iszero\n      dup1\n      swap3\n      sub\n      tag_156\n      jumpi\n        /* \"@openzeppelin/contracts-upgradeable/access/AccessControlUpgradeable.sol\":3202:3206  role */\n      tag_480\n      tag_83\n      jump\t// in\n    tag_480:\n        /* \"contracts/DmtpTech.sol\":6987:7007  needToCheckWhitelist */\n      0x09\n        /* \"contracts/DmtpTech.sol\":355:7931  contract DmtpTech is ContextUpgradeable, AbstractRole, ReentrancyGuard {... */\n      sload\n      swap2\n      0xff\n      dup4\n      and\n      iszero\n      iszero\n        /* \"contracts/DmtpTech.sol\":6977:7007  check_ != needToCheckWhitelist */\n      eq\n        /* \"contracts/DmtpTech.sol\":355:7931  contract DmtpTech is ContextUpgradeable, AbstractRole, ReentrancyGuard {... */\n      tag_481\n      jumpi\n      0xff\n      and\n      swap1\n      not(0xff)\n      and\n      or\n        /* \"contracts/DmtpTech.sol\":6987:7007  needToCheckWhitelist */\n      0x09\n        /* \"contracts/DmtpTech.sol\":355:7931  contract DmtpTech is ContextUpgradeable, AbstractRole, ReentrancyGuard {... */\n      sstore\n      0x00\n      dup1\n      return\n    tag_481:\n      mload(0x40)\n      shl(0xe5, 0x461bcd)\n      dup2\n      mstore\n      0x20\n      0x04\n      dup3\n      add\n      mstore\n      0x18\n      0x24\n      dup3\n      add\n      mstore\n      0x444d54505f544543485f434f4e4649475f4841535f5345540000000000000000\n      0x44\n      dup3\n      add\n      mstore\n      0x64\n      swap1\n      revert\n    tag_41:\n      jumpi(tag_156, callvalue)\n      jumpi(tag_156, slt(add(not(0x03), calldatasize), 0x20))\n      mstore(0x00, calldataload(0x04))\n        /* \"contracts/DmtpTech.sol\":1195:1243  mapping(uint256 => address) public keyGenerators */\n      0x08\n        /* \"contracts/DmtpTech.sol\":355:7931  contract DmtpTech is ContextUpgradeable, AbstractRole, ReentrancyGuard {... */\n      0x20\n      mstore\n      0x20\n      0x01\n      dup1\n      0xa0\n      shl\n      sub\n      sload(keccak256(0x00, 0x40))\n      and\n      mload(0x40)\n      swap1\n      dup2\n      mstore\n      return\n    tag_42:\n      jumpi(tag_156, callvalue)\n      jumpi(tag_156, slt(add(not(0x03), calldatasize), 0x00))\n      0x20\n      mload(0x40)\n        /* \"abstract/AbstractRole.sol\":311:335  keccak256(\"MINTER_ROLE\") */\n      0x9f2df0fed2c77648de5860a4cc508cd0818c85b8b8a1ab4ceeef8d981c8956a6\n        /* \"contracts/DmtpTech.sol\":355:7931  contract DmtpTech is ContextUpgradeable, AbstractRole, ReentrancyGuard {... */\n      dup2\n      mstore\n      return\n    tag_43:\n      jumpi(tag_156, callvalue)\n      jumpi(tag_156, slt(add(not(0x03), calldatasize), 0x40))\n        /* \"@openzeppelin/contracts-upgradeable/access/AccessControlUpgradeable.sol\":5767:5793  _revokeRole(role, account) */\n      tag_199\n        /* \"contracts/DmtpTech.sol\":355:7931  contract DmtpTech is ContextUpgradeable, AbstractRole, ReentrancyGuard {... */\n      calldataload(0x04)\n      tag_496\n      tag_9\n      jump\t// in\n    tag_496:\n        /* \"@openzeppelin/contracts-upgradeable/access/AccessControlUpgradeable.sol\":5737:5755  getRoleAdmin(role) */\n      swap1\n        /* \"@openzeppelin/contracts-upgradeable/access/AccessControlUpgradeable.sol\":3202:3206  role */\n      tag_497\n        /* \"@openzeppelin/contracts-upgradeable/access/AccessControlUpgradeable.sol\":5737:5755  getRoleAdmin(role) */\n      tag_299\n      dup3\n      tag_62\n      jump\t// in\n        /* \"@openzeppelin/contracts-upgradeable/access/AccessControlUpgradeable.sol\":3202:3206  role */\n    tag_497:\n        /* \"@openzeppelin/contracts-upgradeable/access/AccessControlUpgradeable.sol\":5767:5793  _revokeRole(role, account) */\n      tag_88\n      jump\t// in\n        /* \"contracts/DmtpTech.sol\":355:7931  contract DmtpTech is ContextUpgradeable, AbstractRole, ReentrancyGuard {... */\n    tag_46:\n      jumpi(tag_156, callvalue)\n      jumpi(tag_156, slt(add(not(0x03), calldatasize), 0x00))\n        /* \"contracts/DmtpTech.sol\":1160:1188  Commission public commission */\n      0x05\n        /* \"contracts/DmtpTech.sol\":355:7931  contract DmtpTech is ContextUpgradeable, AbstractRole, ReentrancyGuard {... */\n      sload\n        /* \"contracts/DmtpTech.sol\":1160:1188  Commission public commission */\n      0x06\n        /* \"contracts/DmtpTech.sol\":355:7931  contract DmtpTech is ContextUpgradeable, AbstractRole, ReentrancyGuard {... */\n      sload\n        /* \"contracts/DmtpTech.sol\":1160:1188  Commission public commission */\n      0x07\n        /* \"contracts/DmtpTech.sol\":355:7931  contract DmtpTech is ContextUpgradeable, AbstractRole, ReentrancyGuard {... */\n      sload\n      0x40\n      dup1\n      mload\n      swap4\n      dup5\n      mstore\n      sub(shl(0xa0, 0x01), 0x01)\n      swap1\n      swap3\n      and\n      0x20\n      dup5\n      add\n      mstore\n      swap1\n      dup3\n      add\n      mstore\n      0x60\n      swap1\n      return\n    tag_47:\n      jumpi(tag_156, callvalue)\n      jumpi(tag_156, slt(add(not(0x03), calldatasize), 0x00))\n      0x20\n      mload(0x40)\n        /* \"abstract/AbstractRole.sol\":243:269  keccak256(\"OPERATOR_ROLE\") */\n      0x97667070c54ef182b0f5858b034beac1b6f3089aa2d3188bb1e8929f4fa9b929\n        /* \"contracts/DmtpTech.sol\":355:7931  contract DmtpTech is ContextUpgradeable, AbstractRole, ReentrancyGuard {... */\n      dup2\n      mstore\n      return\n    tag_48:\n      jumpi(tag_156, callvalue)\n      jumpi(tag_156, slt(add(not(0x03), calldatasize), 0xa0))\n      tag_512\n      tag_10\n      jump\t// in\n    tag_512:\n      tag_513\n      tag_9\n      jump\t// in\n    tag_513:\n      swap1\n      calldataload(0x44)\n      tag_515\n      tag_11\n      jump\t// in\n    tag_515:\n      calldataload(0x84)\n      swap2\n      0x00\n      dup1\n      mload\n      0x20\n      data_e28a5566b8a884201ab44e2d991177ce8b88325e02e52cbc3da6e67b3ecf29c6\n      dup4\n      codecopy\n      dup2\n      mload\n      swap2\n      mstore\n      sload\n      swap5\n      0xffffffffffffffff\n      tag_517\n        /* \"@openzeppelin/contracts-upgradeable/proxy/utils/Initializable.sol\":4301:4317  !$._initializing */\n      tag_518\n        /* \"contracts/DmtpTech.sol\":355:7931  contract DmtpTech is ContextUpgradeable, AbstractRole, ReentrancyGuard {... */\n      tag_519\n      dup10\n      0xff\n      swap1\n      0x40\n      shr\n      and\n      swap1\n      jump\n    tag_519:\n        /* \"@openzeppelin/contracts-upgradeable/proxy/utils/Initializable.sol\":4301:4317  !$._initializing */\n      iszero\n      swap1\n        /* \"contracts/DmtpTech.sol\":355:7931  contract DmtpTech is ContextUpgradeable, AbstractRole, ReentrancyGuard {... */\n      jump\n        /* \"@openzeppelin/contracts-upgradeable/proxy/utils/Initializable.sol\":4301:4317  !$._initializing */\n    tag_518:\n        /* \"contracts/DmtpTech.sol\":355:7931  contract DmtpTech is ContextUpgradeable, AbstractRole, ReentrancyGuard {... */\n      swap8\n      0xffffffffffffffff\n      and\n      swap1\n      jump\n    tag_517:\n      and\n        /* \"@openzeppelin/contracts-upgradeable/proxy/utils/Initializable.sol\":4726:4742  initialized == 0 */\n      dup1\n      iszero\n        /* \"@openzeppelin/contracts-upgradeable/proxy/utils/Initializable.sol\":4726:4760  initialized == 0 && isTopLevelCall */\n      swap1\n      dup2\n      tag_520\n      jumpi\n        /* \"contracts/DmtpTech.sol\":355:7931  contract DmtpTech is ContextUpgradeable, AbstractRole, ReentrancyGuard {... */\n    tag_521:\n        /* \"@openzeppelin/contracts-upgradeable/proxy/utils/Initializable.sol\":4805:4806  1 */\n      0x01\n        /* \"@openzeppelin/contracts-upgradeable/proxy/utils/Initializable.sol\":4790:4806  initialized == 1 */\n      eq\n        /* \"@openzeppelin/contracts-upgradeable/proxy/utils/Initializable.sol\":4790:4840  initialized == 1 && address(this).code.length == 0 */\n      swap1\n      dup2\n      tag_522\n      jumpi\n        /* \"contracts/DmtpTech.sol\":355:7931  contract DmtpTech is ContextUpgradeable, AbstractRole, ReentrancyGuard {... */\n    tag_523:\n        /* \"@openzeppelin/contracts-upgradeable/proxy/utils/Initializable.sol\":4855:4868  !initialSetup */\n      iszero\n        /* \"@openzeppelin/contracts-upgradeable/proxy/utils/Initializable.sol\":4855:4885  !initialSetup && !construction */\n      swap1\n      dup2\n      tag_524\n      jumpi\n        /* \"contracts/DmtpTech.sol\":355:7931  contract DmtpTech is ContextUpgradeable, AbstractRole, ReentrancyGuard {... */\n    tag_525:\n        /* \"@openzeppelin/contracts-upgradeable/proxy/utils/Initializable.sol\":4851:4942  if (!initialSetup && !construction) {... */\n      pop\n      tag_526\n      jumpi\n        /* \"contracts/DmtpTech.sol\":2206:2233  commissionKeyGeneratorRate_ */\n      tag_528\n        /* \"@openzeppelin/contracts-upgradeable/proxy/utils/Initializable.sol\":4951:4969  $._initialized = 1 */\n      swap5\n      dup7\n      tag_529\n        /* \"contracts/DmtpTech.sol\":355:7931  contract DmtpTech is ContextUpgradeable, AbstractRole, ReentrancyGuard {... */\n      0x01\n      not(0xffffffffffffffff)\n      0x00\n      dup1\n      mload\n      0x20\n      data_e28a5566b8a884201ab44e2d991177ce8b88325e02e52cbc3da6e67b3ecf29c6\n      dup4\n      codecopy\n      dup2\n      mload\n      swap2\n      mstore\n      sload\n      and\n      or\n      0x00\n      dup1\n      mload\n      0x20\n      data_e28a5566b8a884201ab44e2d991177ce8b88325e02e52cbc3da6e67b3ecf29c6\n      dup4\n      codecopy\n      dup2\n      mload\n      swap2\n      mstore\n      sstore\n      jump\n        /* \"@openzeppelin/contracts-upgradeable/proxy/utils/Initializable.sol\":4951:4969  $._initialized = 1 */\n    tag_529:\n        /* \"@openzeppelin/contracts-upgradeable/proxy/utils/Initializable.sol\":4979:5046  if (isTopLevelCall) {... */\n      tag_530\n      jumpi\n        /* \"contracts/DmtpTech.sol\":2206:2233  commissionKeyGeneratorRate_ */\n      tag_91\n      jump\t// in\n    tag_528:\n        /* \"@openzeppelin/contracts-upgradeable/proxy/utils/Initializable.sol\":5066:5167  if (isTopLevelCall) {... */\n      tag_532\n      jumpi\n        /* \"contracts/DmtpTech.sol\":355:7931  contract DmtpTech is ContextUpgradeable, AbstractRole, ReentrancyGuard {... */\n      stop\n        /* \"@openzeppelin/contracts-upgradeable/proxy/utils/Initializable.sol\":5066:5167  if (isTopLevelCall) {... */\n    tag_532:\n        /* \"@openzeppelin/contracts-upgradeable/proxy/utils/Initializable.sol\":5100:5123  $._initializing = false */\n      tag_534\n      shl(0x40, 0xff)\n        /* \"contracts/DmtpTech.sol\":355:7931  contract DmtpTech is ContextUpgradeable, AbstractRole, ReentrancyGuard {... */\n      not\n      0x00\n      dup1\n      mload\n      0x20\n      data_e28a5566b8a884201ab44e2d991177ce8b88325e02e52cbc3da6e67b3ecf29c6\n      dup4\n      codecopy\n      dup2\n      mload\n      swap2\n      mstore\n      sload\n      and\n      0x00\n      dup1\n      mload\n      0x20\n      data_e28a5566b8a884201ab44e2d991177ce8b88325e02e52cbc3da6e67b3ecf29c6\n      dup4\n      codecopy\n      dup2\n      mload\n      swap2\n      mstore\n      sstore\n      jump\n        /* \"@openzeppelin/contracts-upgradeable/proxy/utils/Initializable.sol\":5100:5123  $._initializing = false */\n    tag_534:\n        /* \"contracts/DmtpTech.sol\":355:7931  contract DmtpTech is ContextUpgradeable, AbstractRole, ReentrancyGuard {... */\n      mload(0x40)\n        /* \"@openzeppelin/contracts-upgradeable/proxy/utils/Initializable.sol\":4805:4806  1 */\n      0x01\n        /* \"contracts/DmtpTech.sol\":355:7931  contract DmtpTech is ContextUpgradeable, AbstractRole, ReentrancyGuard {... */\n      dup2\n      mstore\n        /* \"@openzeppelin/contracts-upgradeable/proxy/utils/Initializable.sol\":5142:5156  Initialized(1) */\n      0xc7f505b2f371ae2175ee4913f4499e1f2633a7b5936321eed1cdaeb6115181d2\n      swap1\n        /* \"contracts/DmtpTech.sol\":355:7931  contract DmtpTech is ContextUpgradeable, AbstractRole, ReentrancyGuard {... */\n      dup1\n      0x20\n      dup2\n      add\n        /* \"@openzeppelin/contracts-upgradeable/proxy/utils/Initializable.sol\":5142:5156  Initialized(1) */\n      tag_361\n        /* \"contracts/DmtpTech.sol\":355:7931  contract DmtpTech is ContextUpgradeable, AbstractRole, ReentrancyGuard {... */\n      jump\n        /* \"@openzeppelin/contracts-upgradeable/proxy/utils/Initializable.sol\":4979:5046  if (isTopLevelCall) {... */\n    tag_530:\n        /* \"@openzeppelin/contracts-upgradeable/proxy/utils/Initializable.sol\":5013:5035  $._initializing = true */\n      tag_536\n        /* \"contracts/DmtpTech.sol\":355:7931  contract DmtpTech is ContextUpgradeable, AbstractRole, ReentrancyGuard {... */\n      0x010000000000000000\n      not(shl(0x40, 0xff))\n      0x00\n      dup1\n      mload\n      0x20\n      data_e28a5566b8a884201ab44e2d991177ce8b88325e02e52cbc3da6e67b3ecf29c6\n      dup4\n      codecopy\n      dup2\n      mload\n      swap2\n      mstore\n      sload\n      and\n      or\n      0x00\n      dup1\n      mload\n      0x20\n      data_e28a5566b8a884201ab44e2d991177ce8b88325e02e52cbc3da6e67b3ecf29c6\n      dup4\n      codecopy\n      dup2\n      mload\n      swap2\n      mstore\n      sstore\n      jump\n        /* \"@openzeppelin/contracts-upgradeable/proxy/utils/Initializable.sol\":5013:5035  $._initializing = true */\n    tag_536:\n        /* \"contracts/DmtpTech.sol\":2206:2233  commissionKeyGeneratorRate_ */\n      tag_91\n      jump\t// in\n        /* \"@openzeppelin/contracts-upgradeable/proxy/utils/Initializable.sol\":4851:4942  if (!initialSetup && !construction) {... */\n    tag_526:\n        /* \"@openzeppelin/contracts-upgradeable/proxy/utils/Initializable.sol\":4908:4931  InvalidInitialization() */\n      mstore(0x00, shl(0xe0, 0xf92ee8a9))\n        /* \"contracts/DmtpTech.sol\":355:7931  contract DmtpTech is ContextUpgradeable, AbstractRole, ReentrancyGuard {... */\n      0x04\n      0x00\n        /* \"@openzeppelin/contracts-upgradeable/proxy/utils/Initializable.sol\":4908:4931  InvalidInitialization() */\n      revert\n        /* \"@openzeppelin/contracts-upgradeable/proxy/utils/Initializable.sol\":4855:4885  !initialSetup && !construction */\n    tag_524:\n        /* \"@openzeppelin/contracts-upgradeable/proxy/utils/Initializable.sol\":4872:4885  !construction */\n      swap1\n      pop\n      iszero\n        /* \"@openzeppelin/contracts-upgradeable/proxy/utils/Initializable.sol\":4855:4885  !initialSetup && !construction */\n      codesize\n      jump(tag_525)\n        /* \"@openzeppelin/contracts-upgradeable/proxy/utils/Initializable.sol\":4790:4840  initialized == 1 && address(this).code.length == 0 */\n    tag_522:\n        /* \"@openzeppelin/contracts-upgradeable/proxy/utils/Initializable.sol\":4818:4822  this */\n      address\n        /* \"@openzeppelin/contracts-upgradeable/proxy/utils/Initializable.sol\":4810:4835  address(this).code.length */\n      extcodesize\n        /* \"@openzeppelin/contracts-upgradeable/proxy/utils/Initializable.sol\":4810:4840  address(this).code.length == 0 */\n      iszero\n      swap2\n      pop\n        /* \"@openzeppelin/contracts-upgradeable/proxy/utils/Initializable.sol\":4790:4840  initialized == 1 && address(this).code.length == 0 */\n      jump(tag_523)\n        /* \"@openzeppelin/contracts-upgradeable/proxy/utils/Initializable.sol\":4726:4760  initialized == 0 && isTopLevelCall */\n    tag_520:\n      dup8\n      swap2\n      pop\n      jump(tag_521)\n        /* \"contracts/DmtpTech.sol\":355:7931  contract DmtpTech is ContextUpgradeable, AbstractRole, ReentrancyGuard {... */\n    tag_49:\n      iszero\n      tag_537\n      jumpi\n      jump\t// out\n    tag_537:\n      0x64\n      mload(0x40)\n      shl(0xe5, 0x461bcd)\n      dup2\n      mstore\n      0x20\n      0x04\n      dup3\n      add\n      mstore\n      0x20\n      0x24\n      dup3\n      add\n      mstore\n      0x444d54505f544543485f4e4f545f414c4c4f575f544f5f53454c4c5f4b455953\n      0x44\n      dup3\n      add\n      mstore\n      revert\n    tag_50:\n      swap1\n      dup2\n      0x20\n      swap2\n      sub\n      slt\n      tag_156\n      jumpi\n      mload\n      swap1\n      jump\t// out\n    tag_51:\n      mload(0x40)\n      returndatasize\n      0x00\n      dup3\n      returndatacopy\n      returndatasize\n      swap1\n      revert\n    tag_52:\n      iszero\n      tag_541\n      jumpi\n      jump\t// out\n    tag_541:\n      mload(0x40)\n      shl(0xe5, 0x461bcd)\n      dup2\n      mstore\n      0x20\n      0x04\n      dup3\n      add\n      mstore\n      0x17\n      0x24\n      dup3\n      add\n      mstore\n      0x444d54505f544543485f50524943455f4348414e474544000000000000000000\n      0x44\n      dup3\n      add\n      mstore\n      0x64\n      swap1\n      revert\n    tag_53:\n      mstore(0x00, shl(0xe0, 0x4e487b71))\n      mstore(0x04, 0x11)\n      revert(0x00, 0x24)\n    tag_54:\n      dup2\n      dup2\n      mul\n      swap3\n      swap2\n      dup2\n      iszero\n      swap2\n      dup5\n      div\n      eq\n      or\n      iszero\n      tag_543\n      jumpi\n      jump\t// out\n    tag_543:\n      tag_53\n      jump\t// in\n    tag_56:\n      swap2\n      swap1\n      dup3\n      sub\n      swap2\n      dup3\n      gt\n      tag_543\n      jumpi\n      jump\t// out\n    tag_58:\n      iszero\n      tag_547\n      jumpi\n      jump\t// out\n    tag_547:\n      mload(0x40)\n      shl(0xe5, 0x461bcd)\n      dup2\n      mstore\n      0x20\n      0x04\n      dup3\n      add\n      mstore\n      0x1b\n      0x24\n      dup3\n      add\n      mstore\n      0x444d54505f544543485f504152414d5f4b45595f494e56414c49440000000000\n      0x44\n      dup3\n      add\n      mstore\n      0x64\n      swap1\n      revert\n    tag_59:\n      swap1\n        /* \"contracts/DmtpTech.sol\":4746:4759  _keyIdCounter */\n      0x01\n        /* \"contracts/DmtpTech.sol\":355:7931  contract DmtpTech is ContextUpgradeable, AbstractRole, ReentrancyGuard {... */\n      dup3\n      add\n      dup1\n      swap3\n      gt\n      tag_543\n      jumpi\n      jump\t// out\n    tag_60:\n      swap2\n      swap1\n      dup3\n      add\n      dup1\n      swap3\n      gt\n      tag_543\n      jumpi\n      jump\t// out\n        /* \"@openzeppelin/contracts-upgradeable/access/AccessControlUpgradeable.sol\":4759:4950  function getRoleAdmin(bytes32 role) public view virtual returns (bytes32) {... */\n    tag_62:\n      0x00\n        /* \"contracts/DmtpTech.sol\":355:7931  contract DmtpTech is ContextUpgradeable, AbstractRole, ReentrancyGuard {... */\n      mstore\n      0x00\n      dup1\n      mload\n      0x20\n      data_b3da67d1b252aeab7c8063542d95e75f82a5307a82535949bc38f7cf7ba8897f\n      dup4\n      codecopy\n      dup2\n      mload\n      swap2\n      mstore\n      0x20\n      mstore\n        /* \"@openzeppelin/contracts-upgradeable/access/AccessControlUpgradeable.sol\":4919:4943  $._roles[role].adminRole */\n      0x01\n        /* \"contracts/DmtpTech.sol\":355:7931  contract DmtpTech is ContextUpgradeable, AbstractRole, ReentrancyGuard {... */\n      keccak256(0x00, 0x40)\n        /* \"@openzeppelin/contracts-upgradeable/access/AccessControlUpgradeable.sol\":4919:4943  $._roles[role].adminRole */\n      add\n        /* \"contracts/DmtpTech.sol\":355:7931  contract DmtpTech is ContextUpgradeable, AbstractRole, ReentrancyGuard {... */\n      sload\n        /* \"@openzeppelin/contracts-upgradeable/access/AccessControlUpgradeable.sol\":4759:4950  function getRoleAdmin(bytes32 role) public view virtual returns (bytes32) {... */\n      swap1\n      jump\t// out\n        /* \"contracts/DmtpTech.sol\":355:7931  contract DmtpTech is ContextUpgradeable, AbstractRole, ReentrancyGuard {... */\n    tag_63:\n      iszero\n      tag_553\n      jumpi\n      jump\t// out\n    tag_553:\n      mload(0x40)\n      shl(0xe5, 0x461bcd)\n      dup2\n      mstore\n      0x20\n      0x04\n      dup3\n      add\n      mstore\n      0x1f\n      0x24\n      dup3\n      add\n      mstore\n      0x444d54505f544543485f504152414d5f414444524553535f494e56414c494400\n      0x44\n      dup3\n      add\n      mstore\n      0x64\n      swap1\n      revert\n        /* \"contracts/DmtpTech.sol\":6512:6860  function allowToSellKey(... */\n    tag_68:\n      sub(shl(0xa0, 0x01), 0x01)\n        /* \"contracts/DmtpTech.sol\":355:7931  contract DmtpTech is ContextUpgradeable, AbstractRole, ReentrancyGuard {... */\n      dup2\n      and\n      0x00\n      swap1\n      dup2\n      mstore\n        /* \"contracts/DmtpTech.sol\":6629:6638  generated */\n      0x04\n        /* \"contracts/DmtpTech.sol\":355:7931  contract DmtpTech is ContextUpgradeable, AbstractRole, ReentrancyGuard {... */\n      0x20\n      mstore\n      0x40\n      swap1\n      keccak256\n        /* \"contracts/DmtpTech.sol\":6629:6647  generated[seller_] */\n      dup3\n      swap1\n        /* \"contracts/DmtpTech.sol\":355:7931  contract DmtpTech is ContextUpgradeable, AbstractRole, ReentrancyGuard {... */\n      sload\n        /* \"contracts/DmtpTech.sol\":6629:6654  generated[seller_] != id_ */\n      sub\n        /* \"contracts/DmtpTech.sol\":6625:6692  if (generated[seller_] != id_) {... */\n      tag_556\n      jumpi\n        /* \"contracts/DmtpTech.sol\":6721:6767  IERC1155(address(key)).balanceOf(seller_, id_) */\n      tag_558\n        /* \"contracts/DmtpTech.sol\":355:7931  contract DmtpTech is ContextUpgradeable, AbstractRole, ReentrancyGuard {... */\n      swap2\n        /* \"contracts/DmtpTech.sol\":6721:6767  IERC1155(address(key)).balanceOf(seller_, id_) */\n      0x20\n        /* \"contracts/DmtpTech.sol\":355:7931  contract DmtpTech is ContextUpgradeable, AbstractRole, ReentrancyGuard {... */\n      swap2\n        /* \"contracts/DmtpTech.sol\":6721:6753  IERC1155(address(key)).balanceOf */\n      tag_559\n        /* \"contracts/DmtpTech.sol\":6721:6743  IERC1155(address(key)) */\n      tag_170\n        /* \"contracts/DmtpTech.sol\":6730:6742  address(key) */\n      tag_170\n        /* \"contracts/DmtpTech.sol\":355:7931  contract DmtpTech is ContextUpgradeable, AbstractRole, ReentrancyGuard {... */\n      tag_170\n        /* \"contracts/DmtpTech.sol\":6738:6741  key */\n      0x02\n        /* \"contracts/DmtpTech.sol\":355:7931  contract DmtpTech is ContextUpgradeable, AbstractRole, ReentrancyGuard {... */\n      sload\n      0x01\n      dup1\n      0xa0\n      shl\n      sub\n      and\n      swap1\n      jump\n        /* \"contracts/DmtpTech.sol\":6721:6753  IERC1155(address(key)).balanceOf */\n    tag_559:\n        /* \"contracts/DmtpTech.sol\":355:7931  contract DmtpTech is ContextUpgradeable, AbstractRole, ReentrancyGuard {... */\n      mload(0x40)\n      shl(0xe1, 0x7eeac7)\n        /* \"contracts/DmtpTech.sol\":6721:6767  IERC1155(address(key)).balanceOf(seller_, id_) */\n      dup2\n      mstore\n      sub(shl(0xa0, 0x01), 0x01)\n        /* \"contracts/DmtpTech.sol\":355:7931  contract DmtpTech is ContextUpgradeable, AbstractRole, ReentrancyGuard {... */\n      swap1\n      swap3\n      and\n        /* \"contracts/DmtpTech.sol\":6629:6638  generated */\n      0x04\n        /* \"contracts/DmtpTech.sol\":6721:6767  IERC1155(address(key)).balanceOf(seller_, id_) */\n      dup4\n      add\n        /* \"contracts/DmtpTech.sol\":355:7931  contract DmtpTech is ContextUpgradeable, AbstractRole, ReentrancyGuard {... */\n      mstore\n      0x24\n      dup3\n      add\n      swap3\n      swap1\n      swap3\n      mstore\n      swap3\n      dup4\n      swap2\n      swap1\n      dup3\n      swap1\n      dup2\n      swap1\n      0x44\n      dup3\n      add\n      swap1\n      jump\n        /* \"contracts/DmtpTech.sol\":6721:6767  IERC1155(address(key)).balanceOf(seller_, id_) */\n    tag_558:\n      sub\n      swap2\n      gas\n      staticcall\n      dup1\n      iszero\n      tag_205\n      jumpi\n        /* \"contracts/DmtpTech.sol\":6792:6793  1 */\n      0x01\n        /* \"contracts/DmtpTech.sol\":6721:6767  IERC1155(address(key)).balanceOf(seller_, id_) */\n      swap2\n        /* \"contracts/DmtpTech.sol\":355:7931  contract DmtpTech is ContextUpgradeable, AbstractRole, ReentrancyGuard {... */\n      0x00\n        /* \"contracts/DmtpTech.sol\":6721:6767  IERC1155(address(key)).balanceOf(seller_, id_) */\n      swap2\n      tag_565\n      jumpi\n        /* \"contracts/DmtpTech.sol\":6512:6860  function allowToSellKey(... */\n    tag_566:\n        /* \"contracts/DmtpTech.sol\":6781:6793  balances > 1 */\n      pop\n      gt\n        /* \"contracts/DmtpTech.sol\":6777:6831  if (balances > 1) {... */\n      tag_567\n      jumpi\n        /* \"contracts/DmtpTech.sol\":355:7931  contract DmtpTech is ContextUpgradeable, AbstractRole, ReentrancyGuard {... */\n      0x00\n        /* \"contracts/DmtpTech.sol\":6512:6860  function allowToSellKey(... */\n      swap1\n      jump\t// out\n        /* \"contracts/DmtpTech.sol\":6777:6831  if (balances > 1) {... */\n    tag_567:\n        /* \"contracts/DmtpTech.sol\":6792:6793  1 */\n      0x01\n        /* \"contracts/DmtpTech.sol\":6809:6820  return true */\n      swap1\n      jump\t// out\n        /* \"contracts/DmtpTech.sol\":6721:6767  IERC1155(address(key)).balanceOf(seller_, id_) */\n    tag_565:\n      tag_569\n      swap2\n      pop\n      0x20\n      jumpi(tag_218, gt(0x20, returndatasize))\n      tag_220\n      dup2\n      dup4\n      tag_32\n      jump\t// in\n    tag_569:\n      codesize\n      jump(tag_566)\n        /* \"contracts/DmtpTech.sol\":6625:6692  if (generated[seller_] != id_) {... */\n    tag_556:\n        /* \"contracts/DmtpTech.sol\":6670:6681  return true */\n      pop\n      pop\n        /* \"contracts/DmtpTech.sol\":6677:6681  true */\n      0x01\n        /* \"contracts/DmtpTech.sol\":6670:6681  return true */\n      swap1\n      jump\t// out\n        /* \"@openzeppelin/contracts/utils/ReentrancyGuard.sol\":2466:2569  modifier nonReentrant() {... */\n    tag_69:\n      tag_573\n      tag_81\n      jump\t// in\n    tag_573:\n        /* \"@openzeppelin/contracts-upgradeable/utils/ContextUpgradeable.sol\":966:976  msg.sender */\n      caller\n        /* \"contracts/DmtpTech.sol\":355:7931  contract DmtpTech is ContextUpgradeable, AbstractRole, ReentrancyGuard {... */\n      0x00\n      swap1\n      dup2\n      mstore\n        /* \"contracts/DmtpTech.sol\":6629:6638  generated */\n      0x04\n        /* \"contracts/DmtpTech.sol\":355:7931  contract DmtpTech is ContextUpgradeable, AbstractRole, ReentrancyGuard {... */\n      0x20\n      mstore\n      0x40\n      swap1\n      keccak256\n        /* \"contracts/DmtpTech.sol\":4324:4387  require(generated[sender] == 0, \"DMTP_TECH_ALREADY_ISSUED_KEY\") */\n      tag_574\n      swap1\n        /* \"contracts/DmtpTech.sol\":355:7931  contract DmtpTech is ContextUpgradeable, AbstractRole, ReentrancyGuard {... */\n      sload\n        /* \"contracts/DmtpTech.sol\":4332:4354  generated[sender] == 0 */\n      iszero\n        /* \"contracts/DmtpTech.sol\":4324:4387  require(generated[sender] == 0, \"DMTP_TECH_ALREADY_ISSUED_KEY\") */\n      tag_70\n      jump\t// in\n    tag_574:\n        /* \"contracts/DmtpTech.sol\":4402:4422  needToCheckWhitelist */\n      0x09\n        /* \"contracts/DmtpTech.sol\":355:7931  contract DmtpTech is ContextUpgradeable, AbstractRole, ReentrancyGuard {... */\n      sload\n      0xff\n      and\n        /* \"contracts/DmtpTech.sol\":4398:4723  if (needToCheckWhitelist) {... */\n      tag_577\n      jumpi\n        /* \"@openzeppelin/contracts/utils/ReentrancyGuard.sol\":2466:2569  modifier nonReentrant() {... */\n    tag_578:\n        /* \"contracts/DmtpTech.sol\":355:7931  contract DmtpTech is ContextUpgradeable, AbstractRole, ReentrancyGuard {... */\n      pop\n        /* \"contracts/DmtpTech.sol\":4746:4763  _keyIdCounter + 1 */\n      tag_579\n        /* \"contracts/DmtpTech.sol\":4746:4759  _keyIdCounter */\n      0x01\n        /* \"contracts/DmtpTech.sol\":355:7931  contract DmtpTech is ContextUpgradeable, AbstractRole, ReentrancyGuard {... */\n      sload\n        /* \"contracts/DmtpTech.sol\":4746:4763  _keyIdCounter + 1 */\n      tag_59\n      jump\t// in\n    tag_579:\n        /* \"contracts/DmtpTech.sol\":4774:4777  key */\n      0x02\n        /* \"contracts/DmtpTech.sol\":355:7931  contract DmtpTech is ContextUpgradeable, AbstractRole, ReentrancyGuard {... */\n      sload\n        /* \"contracts/DmtpTech.sol\":4774:4782  key.mint */\n      tag_580\n      swap1\n      sub(shl(0xa0, 0x01), 0x01)\n        /* \"contracts/DmtpTech.sol\":355:7931  contract DmtpTech is ContextUpgradeable, AbstractRole, ReentrancyGuard {... */\n      and\n      jump(tag_170)\n        /* \"contracts/DmtpTech.sol\":4774:4782  key.mint */\n    tag_580:\n        /* \"contracts/DmtpTech.sol\":4774:4807  key.mint(_msgSender(), id, 1, \"\") */\n      swap1\n      dup2\n      extcodesize\n      iszero\n      tag_156\n      jumpi\n        /* \"contracts/DmtpTech.sol\":355:7931  contract DmtpTech is ContextUpgradeable, AbstractRole, ReentrancyGuard {... */\n      mload(0x40)\n      shl(0xe0, 0x731133e9)\n        /* \"contracts/DmtpTech.sol\":4774:4807  key.mint(_msgSender(), id, 1, \"\") */\n      dup2\n      mstore\n        /* \"@openzeppelin/contracts-upgradeable/utils/ContextUpgradeable.sol\":966:976  msg.sender */\n      caller\n        /* \"contracts/DmtpTech.sol\":4332:4341  generated */\n      0x04\n        /* \"contracts/DmtpTech.sol\":4774:4807  key.mint(_msgSender(), id, 1, \"\") */\n      dup3\n      add\n        /* \"contracts/DmtpTech.sol\":355:7931  contract DmtpTech is ContextUpgradeable, AbstractRole, ReentrancyGuard {... */\n      mstore\n      0x24\n      dup2\n      add\n      dup3\n      swap1\n      mstore\n      0x01\n      0x44\n      dup3\n      add\n      mstore\n      0x80\n      0x64\n      dup3\n      add\n      mstore\n      0x00\n      0x84\n      dup3\n      add\n      dup2\n      swap1\n      mstore\n      swap1\n      swap3\n      dup4\n      swap1\n      0xa4\n      swap1\n      dup3\n      swap1\n      dup5\n      swap1\n        /* \"contracts/DmtpTech.sol\":4774:4807  key.mint(_msgSender(), id, 1, \"\") */\n      gas\n      call\n      swap1\n      dup2\n      iszero\n      tag_205\n      jumpi\n        /* \"contracts/DmtpTech.sol\":4920:4944  KeyGenerated(id, sender) */\n      0x21f36f1ce7fe044293979690e893402c51515f757aa4e48b13bcfb269a9b6410\n        /* \"contracts/DmtpTech.sol\":4774:4807  key.mint(_msgSender(), id, 1, \"\") */\n      swap3\n        /* \"contracts/DmtpTech.sol\":4920:4944  KeyGenerated(id, sender) */\n      tag_587\n        /* \"contracts/DmtpTech.sol\":4774:4807  key.mint(_msgSender(), id, 1, \"\") */\n      swap3\n      tag_588\n      jumpi\n        /* \"@openzeppelin/contracts/utils/ReentrancyGuard.sol\":2466:2569  modifier nonReentrant() {... */\n    tag_589:\n        /* \"contracts/DmtpTech.sol\":4818:4836  _keyIdCounter = id */\n      pop\n      tag_590\n      dup2\n        /* \"contracts/DmtpTech.sol\":4746:4759  _keyIdCounter */\n      0x01\n        /* \"contracts/DmtpTech.sol\":355:7931  contract DmtpTech is ContextUpgradeable, AbstractRole, ReentrancyGuard {... */\n      sstore\n      jump\n        /* \"contracts/DmtpTech.sol\":4818:4836  _keyIdCounter = id */\n    tag_590:\n        /* \"@openzeppelin/contracts-upgradeable/utils/ContextUpgradeable.sol\":966:976  msg.sender */\n      caller\n        /* \"contracts/DmtpTech.sol\":355:7931  contract DmtpTech is ContextUpgradeable, AbstractRole, ReentrancyGuard {... */\n      0x00\n      swap1\n      dup2\n      mstore\n        /* \"contracts/DmtpTech.sol\":6629:6638  generated */\n      0x04\n        /* \"contracts/DmtpTech.sol\":355:7931  contract DmtpTech is ContextUpgradeable, AbstractRole, ReentrancyGuard {... */\n      0x20\n      mstore\n      0x40\n      swap1\n      keccak256\n        /* \"@openzeppelin/contracts-upgradeable/utils/ContextUpgradeable.sol\":966:976  msg.sender */\n      dup2\n      swap1\n        /* \"contracts/DmtpTech.sol\":355:7931  contract DmtpTech is ContextUpgradeable, AbstractRole, ReentrancyGuard {... */\n      sstore\n        /* \"contracts/DmtpTech.sol\":4878:4904  keyGenerators[id] = sender */\n      tag_592\n        /* \"@openzeppelin/contracts-upgradeable/utils/ContextUpgradeable.sol\":966:976  msg.sender */\n      caller\n        /* \"contracts/DmtpTech.sol\":4878:4895  keyGenerators[id] */\n      tag_593\n      dup4\n        /* \"contracts/DmtpTech.sol\":355:7931  contract DmtpTech is ContextUpgradeable, AbstractRole, ReentrancyGuard {... */\n      0x00\n      mstore\n        /* \"contracts/DmtpTech.sol\":3962:3975  keyGenerators */\n      0x08\n        /* \"contracts/DmtpTech.sol\":355:7931  contract DmtpTech is ContextUpgradeable, AbstractRole, ReentrancyGuard {... */\n      0x20\n      mstore\n      keccak256(0x00, 0x40)\n      swap1\n      jump\n        /* \"contracts/DmtpTech.sol\":4878:4895  keyGenerators[id] */\n    tag_593:\n        /* \"contracts/DmtpTech.sol\":355:7931  contract DmtpTech is ContextUpgradeable, AbstractRole, ReentrancyGuard {... */\n      dup1\n      sload\n      not(sub(shl(0xa0, 0x01), 0x01))\n      and\n      sub(shl(0xa0, 0x01), 0x01)\n      swap1\n      swap3\n      and\n      swap2\n      swap1\n      swap2\n      or\n      swap1\n      sstore\n      jump\n        /* \"contracts/DmtpTech.sol\":4878:4904  keyGenerators[id] = sender */\n    tag_592:\n        /* \"contracts/DmtpTech.sol\":355:7931  contract DmtpTech is ContextUpgradeable, AbstractRole, ReentrancyGuard {... */\n      0x40\n      dup1\n      mload\n      swap2\n      dup3\n      mstore\n        /* \"@openzeppelin/contracts-upgradeable/utils/ContextUpgradeable.sol\":966:976  msg.sender */\n      caller\n        /* \"contracts/DmtpTech.sol\":355:7931  contract DmtpTech is ContextUpgradeable, AbstractRole, ReentrancyGuard {... */\n      0x20\n      dup4\n      add\n      mstore\n      swap1\n      swap2\n      dup3\n      swap2\n      dup3\n      add\n      swap1\n      jump\n        /* \"contracts/DmtpTech.sol\":4920:4944  KeyGenerated(id, sender) */\n    tag_587:\n      sub\n      swap1\n      log1\n        /* \"@openzeppelin/contracts/utils/ReentrancyGuard.sol\":2531:2532  _ */\n      tag_594\n        /* \"@openzeppelin/contracts/utils/ReentrancyGuard.sol\":1857:1858  1 */\n      0x01\n        /* \"@openzeppelin/contracts/utils/ReentrancyGuard.sol\":3068:3089  _status = NOT_ENTERED */\n      0x00\n        /* \"contracts/DmtpTech.sol\":355:7931  contract DmtpTech is ContextUpgradeable, AbstractRole, ReentrancyGuard {... */\n      sstore\n        /* \"@openzeppelin/contracts/utils/ReentrancyGuard.sol\":2888:3096  function _nonReentrantAfter() private {... */\n      jump\n        /* \"@openzeppelin/contracts/utils/ReentrancyGuard.sol\":2531:2532  _ */\n    tag_594:\n        /* \"@openzeppelin/contracts/utils/ReentrancyGuard.sol\":2466:2569  modifier nonReentrant() {... */\n      jump\t// out\n        /* \"contracts/DmtpTech.sol\":4774:4807  key.mint(_msgSender(), id, 1, \"\") */\n    tag_588:\n      dup1\n      tag_215\n      0x00\n      tag_596\n      swap4\n      tag_32\n      jump\t// in\n    tag_596:\n      codesize\n      jump(tag_589)\n        /* \"contracts/DmtpTech.sol\":4398:4723  if (needToCheckWhitelist) {... */\n    tag_577:\n        /* \"contracts/DmtpTech.sol\":4602:4635  message.recoverSigner(signature_) */\n      tag_597\n        /* \"contracts/DmtpTech.sol\":4577:4712  require(... */\n      tag_598\n        /* \"contracts/DmtpTech.sol\":355:7931  contract DmtpTech is ContextUpgradeable, AbstractRole, ReentrancyGuard {... */\n      swap2\n        /* \"contracts/DmtpTech.sol\":4456:4562  keccak256(... */\n      tag_599\n        /* \"contracts/DmtpTech.sol\":355:7931  contract DmtpTech is ContextUpgradeable, AbstractRole, ReentrancyGuard {... */\n      mload(0x40)\n        /* \"contracts/DmtpTech.sol\":4483:4537  abi.encodePacked(sender, block.chainid, address(this)) */\n      0x20\n      dup2\n      add\n        /* \"contracts/DmtpTech.sol\":4531:4535  this */\n      swap1\n        /* \"contracts/DmtpTech.sol\":4483:4537  abi.encodePacked(sender, block.chainid, address(this)) */\n      tag_600\n        /* \"contracts/DmtpTech.sol\":4531:4535  this */\n      dup2\n        /* \"contracts/DmtpTech.sol\":4483:4537  abi.encodePacked(sender, block.chainid, address(this)) */\n      tag_601\n        /* \"contracts/DmtpTech.sol\":4531:4535  this */\n      address\n        /* \"contracts/DmtpTech.sol\":4508:4521  block.chainid */\n      chainid\n        /* \"@openzeppelin/contracts-upgradeable/utils/ContextUpgradeable.sol\":966:976  msg.sender */\n      caller\n        /* \"contracts/DmtpTech.sol\":4483:4537  abi.encodePacked(sender, block.chainid, address(this)) */\n      dup8\n        /* \"contracts/DmtpTech.sol\":355:7931  contract DmtpTech is ContextUpgradeable, AbstractRole, ReentrancyGuard {... */\n      swap2\n      0x48\n      swap4\n      swap2\n      not(sub(shl(0x60, 0x01), 0x01))\n      swap1\n      0x60\n      shl\n      and\n      dup4\n      mstore\n      0x14\n      dup4\n      add\n      mstore\n      not(sub(shl(0x60, 0x01), 0x01))\n      swap1\n      0x60\n      shl\n      and\n      0x34\n      dup3\n      add\n      mstore\n      add\n      swap1\n      jump\n        /* \"contracts/DmtpTech.sol\":4483:4537  abi.encodePacked(sender, block.chainid, address(this)) */\n    tag_601:\n      sub\n        /* \"contracts/DmtpTech.sol\":355:7931  contract DmtpTech is ContextUpgradeable, AbstractRole, ReentrancyGuard {... */\n      not(0x1f)\n        /* \"contracts/DmtpTech.sol\":4483:4537  abi.encodePacked(sender, block.chainid, address(this)) */\n      dup2\n      add\n      dup4\n      mstore\n      dup3\n      tag_32\n      jump\t// in\n    tag_600:\n        /* \"contracts/DmtpTech.sol\":355:7931  contract DmtpTech is ContextUpgradeable, AbstractRole, ReentrancyGuard {... */\n      mload\n        /* \"contracts/DmtpTech.sol\":4456:4551  keccak256(... */\n      swap1\n      keccak256\n        /* \"contracts/DmtpTech.sol\":4456:4562  keccak256(... */\n      tag_89\n      jump\t// in\n    tag_599:\n        /* \"contracts/DmtpTech.sol\":4602:4635  message.recoverSigner(signature_) */\n      tag_90\n      jump\t// in\n    tag_597:\n        /* \"contracts/DmtpTech.sol\":4639:4645  signer */\n      0x03\n        /* \"contracts/DmtpTech.sol\":355:7931  contract DmtpTech is ContextUpgradeable, AbstractRole, ReentrancyGuard {... */\n      sload\n        /* \"contracts/DmtpTech.sol\":4602:4645  message.recoverSigner(signature_) == signer */\n      tag_602\n      swap1\n      sub(shl(0xa0, 0x01), 0x01)\n        /* \"contracts/DmtpTech.sol\":355:7931  contract DmtpTech is ContextUpgradeable, AbstractRole, ReentrancyGuard {... */\n      and\n      jump(tag_170)\n        /* \"contracts/DmtpTech.sol\":4602:4645  message.recoverSigner(signature_) == signer */\n    tag_602:\n      sub(shl(0xa0, 0x01), 0x01)\n        /* \"contracts/DmtpTech.sol\":355:7931  contract DmtpTech is ContextUpgradeable, AbstractRole, ReentrancyGuard {... */\n      swap1\n      swap2\n      and\n        /* \"contracts/DmtpTech.sol\":4602:4645  message.recoverSigner(signature_) == signer */\n      eq\n        /* \"contracts/DmtpTech.sol\":4577:4712  require(... */\n      tag_73\n      jump\t// in\n    tag_598:\n        /* \"contracts/DmtpTech.sol\":4398:4723  if (needToCheckWhitelist) {... */\n      codesize\n      jump(tag_578)\n        /* \"contracts/DmtpTech.sol\":355:7931  contract DmtpTech is ContextUpgradeable, AbstractRole, ReentrancyGuard {... */\n    tag_70:\n      iszero\n      tag_604\n      jumpi\n      jump\t// out\n    tag_604:\n      mload(0x40)\n      shl(0xe5, 0x461bcd)\n      dup2\n      mstore\n      0x20\n      0x04\n      dup3\n      add\n      mstore\n      0x1c\n      0x24\n      dup3\n      add\n      mstore\n      0x444d54505f544543485f414c52454144595f4953535545445f4b455900000000\n      0x44\n      dup3\n      add\n      mstore\n      0x64\n      swap1\n      revert\n    tag_73:\n      iszero\n      tag_606\n      jumpi\n      jump\t// out\n    tag_606:\n      mload(0x40)\n      shl(0xe5, 0x461bcd)\n      dup2\n      mstore\n      0x20\n      0x04\n      dup3\n      add\n      mstore\n      0x21\n      0x24\n      dup3\n      add\n      mstore\n      0x444d54505f544543485f504152414d5f5349474e41545552455f494e56414c49\n      0x44\n      dup3\n      add\n      mstore\n      shl(0xfa, 0x11)\n      0x64\n      dup3\n      add\n      mstore\n      0x84\n      swap1\n      revert\n        /* \"@openzeppelin/contracts/utils/ReentrancyGuard.sol\":2575:2882  function _nonReentrantBefore() private {... */\n    tag_81:\n        /* \"@openzeppelin/contracts/utils/ReentrancyGuard.sol\":1899:1900  2 */\n      0x02\n        /* \"@openzeppelin/contracts/utils/ReentrancyGuard.sol\":2702:2709  _status */\n      0x00\n        /* \"contracts/DmtpTech.sol\":355:7931  contract DmtpTech is ContextUpgradeable, AbstractRole, ReentrancyGuard {... */\n      sload\n        /* \"@openzeppelin/contracts/utils/ReentrancyGuard.sol\":2702:2720  _status == ENTERED */\n      eq\n        /* \"@openzeppelin/contracts/utils/ReentrancyGuard.sol\":2698:2784  if (_status == ENTERED) {... */\n      tag_608\n      jumpi\n        /* \"@openzeppelin/contracts/utils/ReentrancyGuard.sol\":1899:1900  2 */\n      0x02\n        /* \"@openzeppelin/contracts/utils/ReentrancyGuard.sol\":2702:2709  _status */\n      0x00\n        /* \"contracts/DmtpTech.sol\":355:7931  contract DmtpTech is ContextUpgradeable, AbstractRole, ReentrancyGuard {... */\n      sstore\n        /* \"@openzeppelin/contracts/utils/ReentrancyGuard.sol\":2575:2882  function _nonReentrantBefore() private {... */\n      jump\t// out\n        /* \"@openzeppelin/contracts/utils/ReentrancyGuard.sol\":2698:2784  if (_status == ENTERED) {... */\n    tag_608:\n        /* \"@openzeppelin/contracts/utils/ReentrancyGuard.sol\":2743:2773  ReentrancyGuardReentrantCall() */\n      shl(0xe0, 0x3ee5aeb5)\n        /* \"@openzeppelin/contracts/utils/ReentrancyGuard.sol\":2702:2709  _status */\n      0x00\n        /* \"@openzeppelin/contracts/utils/ReentrancyGuard.sol\":2743:2773  ReentrancyGuardReentrantCall() */\n      mstore\n      0x04\n        /* \"@openzeppelin/contracts/utils/ReentrancyGuard.sol\":2702:2709  _status */\n      0x00\n        /* \"@openzeppelin/contracts/utils/ReentrancyGuard.sol\":2743:2773  ReentrancyGuardReentrantCall() */\n      revert\n        /* \"@openzeppelin/contracts-upgradeable/access/AccessControlUpgradeable.sol\":4148:4251  function _checkRole(bytes32 role) internal view virtual {... */\n    tag_83:\n        /* \"@openzeppelin/contracts-upgradeable/utils/ContextUpgradeable.sol\":966:976  msg.sender */\n      caller\n      0x00\n        /* \"contracts/DmtpTech.sol\":355:7931  contract DmtpTech is ContextUpgradeable, AbstractRole, ReentrancyGuard {... */\n      swap1\n      dup2\n      mstore\n      mstore(0x20, 0x448256db8f8fb95ee3eaaf89c1051414494e85cebb6057fcf996cc3d0ccfb456)\n      0x40\n      swap1\n      keccak256\n      sload\n      0xff\n      and\n        /* \"@openzeppelin/contracts-upgradeable/access/AccessControlUpgradeable.sol\":4468:4491  !hasRole(role, account) */\n      iszero\n        /* \"@openzeppelin/contracts-upgradeable/access/AccessControlUpgradeable.sol\":4464:4572  if (!hasRole(role, account)) {... */\n      tag_611\n      jumpi\n        /* \"@openzeppelin/contracts-upgradeable/access/AccessControlUpgradeable.sol\":4148:4251  function _checkRole(bytes32 role) internal view virtual {... */\n      jump\t// out\n        /* \"@openzeppelin/contracts-upgradeable/access/AccessControlUpgradeable.sol\":4464:4572  if (!hasRole(role, account)) {... */\n    tag_611:\n        /* \"@openzeppelin/contracts-upgradeable/access/AccessControlUpgradeable.sol\":4514:4561  AccessControlUnauthorizedAccount(account, role) */\n      mstore(0x00, shl(0xe0, 0xe2517d3f))\n        /* \"@openzeppelin/contracts-upgradeable/utils/ContextUpgradeable.sol\":966:976  msg.sender */\n      caller\n        /* \"@openzeppelin/contracts-upgradeable/access/AccessControlUpgradeable.sol\":4514:4561  AccessControlUnauthorizedAccount(account, role) */\n      0x04\n        /* \"contracts/DmtpTech.sol\":355:7931  contract DmtpTech is ContextUpgradeable, AbstractRole, ReentrancyGuard {... */\n      mstore\n        /* \"abstract/AbstractRole.sol\":243:269  keccak256(\"OPERATOR_ROLE\") */\n      0x97667070c54ef182b0f5858b034beac1b6f3089aa2d3188bb1e8929f4fa9b929\n        /* \"contracts/DmtpTech.sol\":355:7931  contract DmtpTech is ContextUpgradeable, AbstractRole, ReentrancyGuard {... */\n      0x24\n      mstore\n      0x44\n      0x00\n        /* \"@openzeppelin/contracts-upgradeable/access/AccessControlUpgradeable.sol\":4514:4561  AccessControlUnauthorizedAccount(account, role) */\n      revert\n        /* \"@openzeppelin/contracts-upgradeable/access/AccessControlUpgradeable.sol\":4148:4251  function _checkRole(bytes32 role) internal view virtual {... */\n    tag_84:\n      0x00\n        /* \"contracts/DmtpTech.sol\":355:7931  contract DmtpTech is ContextUpgradeable, AbstractRole, ReentrancyGuard {... */\n      dup2\n      dup2\n      mstore\n      0x00\n      dup1\n      mload\n      0x20\n      data_b3da67d1b252aeab7c8063542d95e75f82a5307a82535949bc38f7cf7ba8897f\n      dup4\n      codecopy\n      dup2\n      mload\n      swap2\n      mstore\n      0x20\n      swap1\n      dup2\n      mstore\n      0x40\n      dup1\n      dup4\n      keccak256\n        /* \"@openzeppelin/contracts-upgradeable/utils/ContextUpgradeable.sol\":966:976  msg.sender */\n      caller\n        /* \"contracts/DmtpTech.sol\":355:7931  contract DmtpTech is ContextUpgradeable, AbstractRole, ReentrancyGuard {... */\n      dup5\n      mstore\n      swap1\n      swap2\n      mstore\n      swap1\n      keccak256\n      sload\n      0xff\n      and\n        /* \"@openzeppelin/contracts-upgradeable/access/AccessControlUpgradeable.sol\":4468:4491  !hasRole(role, account) */\n      iszero\n        /* \"@openzeppelin/contracts-upgradeable/access/AccessControlUpgradeable.sol\":4464:4572  if (!hasRole(role, account)) {... */\n      tag_614\n      jumpi\n        /* \"@openzeppelin/contracts-upgradeable/access/AccessControlUpgradeable.sol\":4148:4251  function _checkRole(bytes32 role) internal view virtual {... */\n      pop\n      jump\t// out\n        /* \"@openzeppelin/contracts-upgradeable/access/AccessControlUpgradeable.sol\":4464:4572  if (!hasRole(role, account)) {... */\n    tag_614:\n        /* \"@openzeppelin/contracts-upgradeable/access/AccessControlUpgradeable.sol\":4514:4561  AccessControlUnauthorizedAccount(account, role) */\n      mstore(0x00, shl(0xe0, 0xe2517d3f))\n        /* \"@openzeppelin/contracts-upgradeable/utils/ContextUpgradeable.sol\":966:976  msg.sender */\n      caller\n        /* \"@openzeppelin/contracts-upgradeable/access/AccessControlUpgradeable.sol\":4514:4561  AccessControlUnauthorizedAccount(account, role) */\n      0x04\n        /* \"contracts/DmtpTech.sol\":355:7931  contract DmtpTech is ContextUpgradeable, AbstractRole, ReentrancyGuard {... */\n      mstore\n      0x24\n      mstore\n      0x44\n      0x00\n        /* \"@openzeppelin/contracts-upgradeable/access/AccessControlUpgradeable.sol\":4514:4561  AccessControlUnauthorizedAccount(account, role) */\n      revert\n        /* \"@openzeppelin/contracts-upgradeable/access/AccessControlUpgradeable.sol\":7270:7657  function _grantRole(bytes32 role, address account) internal virtual returns (bool) {... */\n    tag_85:\n      sub(shl(0xa0, 0x01), 0x01)\n        /* \"contracts/DmtpTech.sol\":355:7931  contract DmtpTech is ContextUpgradeable, AbstractRole, ReentrancyGuard {... */\n      dup2\n      and\n        /* \"@openzeppelin/contracts-upgradeable/access/AccessControlUpgradeable.sol\":2362:2366  0x00 */\n      0x00\n        /* \"contracts/DmtpTech.sol\":355:7931  contract DmtpTech is ContextUpgradeable, AbstractRole, ReentrancyGuard {... */\n      swap1\n      dup2\n      mstore\n      mstore(0x20, 0xb7db2dd08fcb62d0c9e08c51941cae53c267786a0b75803fb7960902fc8ef97d)\n      0x40\n      swap1\n      keccak256\n      sload\n      0xff\n      and\n      tag_617\n      jumpi\n      sub(shl(0xa0, 0x01), 0x01)\n      and\n        /* \"@openzeppelin/contracts-upgradeable/access/AccessControlUpgradeable.sol\":2362:2366  0x00 */\n      0x00\n        /* \"contracts/DmtpTech.sol\":355:7931  contract DmtpTech is ContextUpgradeable, AbstractRole, ReentrancyGuard {... */\n      dup2\n      dup2\n      mstore\n      mstore(0x20, 0xb7db2dd08fcb62d0c9e08c51941cae53c267786a0b75803fb7960902fc8ef97d)\n      0x40\n      dup2\n      keccak256\n      dup1\n      sload\n      not(0xff)\n      and\n        /* \"@openzeppelin/contracts-upgradeable/access/AccessControlUpgradeable.sol\":7509:7513  true */\n      0x01\n        /* \"contracts/DmtpTech.sol\":355:7931  contract DmtpTech is ContextUpgradeable, AbstractRole, ReentrancyGuard {... */\n      or\n      swap1\n      sstore\n        /* \"@openzeppelin/contracts-upgradeable/utils/ContextUpgradeable.sol\":966:976  msg.sender */\n      caller\n      swap2\n        /* \"contracts/DmtpTech.sol\":355:7931  contract DmtpTech is ContextUpgradeable, AbstractRole, ReentrancyGuard {... */\n      swap1\n        /* \"@openzeppelin/contracts-upgradeable/access/AccessControlUpgradeable.sol\":7532:7572  RoleGranted(role, account, _msgSender()) */\n      0x2f8788117e7eff1d82e926ec794901d17c78024a50270940304540a733656f0d\n        /* \"@openzeppelin/contracts-upgradeable/access/AccessControlUpgradeable.sol\":2362:2366  0x00 */\n      dup2\n      dup1\n        /* \"@openzeppelin/contracts-upgradeable/access/AccessControlUpgradeable.sol\":7532:7572  RoleGranted(role, account, _msgSender()) */\n      log4\n        /* \"@openzeppelin/contracts-upgradeable/access/AccessControlUpgradeable.sol\":7509:7513  true */\n      0x01\n        /* \"@openzeppelin/contracts-upgradeable/access/AccessControlUpgradeable.sol\":7586:7597  return true */\n      swap1\n      jump\t// out\n        /* \"@openzeppelin/contracts-upgradeable/access/AccessControlUpgradeable.sol\":7432:7651  if (!hasRole(role, account)) {... */\n    tag_617:\n        /* \"@openzeppelin/contracts-upgradeable/access/AccessControlUpgradeable.sol\":7628:7640  return false */\n      pop\n        /* \"@openzeppelin/contracts-upgradeable/access/AccessControlUpgradeable.sol\":2362:2366  0x00 */\n      0x00\n        /* \"@openzeppelin/contracts-upgradeable/access/AccessControlUpgradeable.sol\":7628:7640  return false */\n      swap1\n      jump\t// out\n        /* \"@openzeppelin/contracts-upgradeable/access/AccessControlUpgradeable.sol\":7270:7657  function _grantRole(bytes32 role, address account) internal virtual returns (bool) {... */\n    tag_86:\n      sub(shl(0xa0, 0x01), 0x01)\n        /* \"contracts/DmtpTech.sol\":355:7931  contract DmtpTech is ContextUpgradeable, AbstractRole, ReentrancyGuard {... */\n      dup2\n      and\n      0x00\n      swap1\n      dup2\n      mstore\n      mstore(0x20, 0x448256db8f8fb95ee3eaaf89c1051414494e85cebb6057fcf996cc3d0ccfb456)\n      0x40\n      swap1\n      keccak256\n      sload\n      0xff\n      and\n      tag_617\n      jumpi\n      sub(shl(0xa0, 0x01), 0x01)\n      dup2\n      and\n      0x00\n      swap1\n      dup2\n      mstore\n      mstore(0x20, 0x448256db8f8fb95ee3eaaf89c1051414494e85cebb6057fcf996cc3d0ccfb456)\n      0x40\n      swap1\n      keccak256\n      dup1\n      sload\n      not(0xff)\n      and\n        /* \"@openzeppelin/contracts-upgradeable/access/AccessControlUpgradeable.sol\":7509:7513  true */\n      0x01\n        /* \"contracts/DmtpTech.sol\":355:7931  contract DmtpTech is ContextUpgradeable, AbstractRole, ReentrancyGuard {... */\n      or\n      swap1\n      sstore\n        /* \"@openzeppelin/contracts-upgradeable/utils/ContextUpgradeable.sol\":966:976  msg.sender */\n      caller\n      swap1\n      sub(shl(0xa0, 0x01), 0x01)\n        /* \"contracts/DmtpTech.sol\":355:7931  contract DmtpTech is ContextUpgradeable, AbstractRole, ReentrancyGuard {... */\n      and\n        /* \"abstract/AbstractRole.sol\":243:269  keccak256(\"OPERATOR_ROLE\") */\n      0x97667070c54ef182b0f5858b034beac1b6f3089aa2d3188bb1e8929f4fa9b929\n        /* \"@openzeppelin/contracts-upgradeable/access/AccessControlUpgradeable.sol\":7532:7572  RoleGranted(role, account, _msgSender()) */\n      0x2f8788117e7eff1d82e926ec794901d17c78024a50270940304540a733656f0d\n      0x00\n      dup1\n      log4\n        /* \"@openzeppelin/contracts-upgradeable/access/AccessControlUpgradeable.sol\":7509:7513  true */\n      0x01\n        /* \"@openzeppelin/contracts-upgradeable/access/AccessControlUpgradeable.sol\":7586:7597  return true */\n      swap1\n      jump\t// out\n        /* \"@openzeppelin/contracts-upgradeable/access/AccessControlUpgradeable.sol\":7270:7657  function _grantRole(bytes32 role, address account) internal virtual returns (bool) {... */\n    tag_87:\n        /* \"contracts/DmtpTech.sol\":355:7931  contract DmtpTech is ContextUpgradeable, AbstractRole, ReentrancyGuard {... */\n      0x00\n      dup2\n      dup2\n      mstore\n      0x00\n      dup1\n      mload\n      0x20\n      data_b3da67d1b252aeab7c8063542d95e75f82a5307a82535949bc38f7cf7ba8897f\n      dup4\n      codecopy\n      dup2\n      mload\n      swap2\n      mstore\n      0x20\n      swap1\n      dup2\n      mstore\n      0x40\n      dup1\n      dup4\n      keccak256\n      sub(shl(0xa0, 0x01), 0x01)\n      dup7\n      and\n      dup5\n      mstore\n      swap1\n      swap2\n      mstore\n      swap1\n      keccak256\n      sload\n      0xff\n      and\n      tag_625\n      jumpi\n      0x00\n      dup2\n      dup2\n      mstore\n      0x00\n      dup1\n      mload\n      0x20\n      data_b3da67d1b252aeab7c8063542d95e75f82a5307a82535949bc38f7cf7ba8897f\n      dup4\n      codecopy\n      dup2\n      mload\n      swap2\n      mstore\n      0x20\n      swap1\n      dup2\n      mstore\n      0x40\n      dup1\n      dup4\n      keccak256\n      sub(shl(0xa0, 0x01), 0x01)\n      dup7\n      and\n      dup5\n      mstore\n      swap1\n      swap2\n      mstore\n      swap1\n      keccak256\n      dup1\n      sload\n      not(0xff)\n      and\n        /* \"@openzeppelin/contracts-upgradeable/access/AccessControlUpgradeable.sol\":7509:7513  true */\n      0x01\n        /* \"contracts/DmtpTech.sol\":355:7931  contract DmtpTech is ContextUpgradeable, AbstractRole, ReentrancyGuard {... */\n      or\n      swap1\n      sstore\n        /* \"@openzeppelin/contracts-upgradeable/utils/ContextUpgradeable.sol\":966:976  msg.sender */\n      caller\n      swap2\n      sub(shl(0xa0, 0x01), 0x01)\n        /* \"contracts/DmtpTech.sol\":355:7931  contract DmtpTech is ContextUpgradeable, AbstractRole, ReentrancyGuard {... */\n      and\n      swap1\n        /* \"@openzeppelin/contracts-upgradeable/access/AccessControlUpgradeable.sol\":7532:7572  RoleGranted(role, account, _msgSender()) */\n      0x2f8788117e7eff1d82e926ec794901d17c78024a50270940304540a733656f0d\n      0x00\n      dup1\n      log4\n        /* \"@openzeppelin/contracts-upgradeable/access/AccessControlUpgradeable.sol\":7509:7513  true */\n      0x01\n        /* \"@openzeppelin/contracts-upgradeable/access/AccessControlUpgradeable.sol\":7586:7597  return true */\n      swap1\n      jump\t// out\n        /* \"@openzeppelin/contracts-upgradeable/access/AccessControlUpgradeable.sol\":7432:7651  if (!hasRole(role, account)) {... */\n    tag_625:\n        /* \"@openzeppelin/contracts-upgradeable/access/AccessControlUpgradeable.sol\":7628:7640  return false */\n      pop\n      pop\n        /* \"contracts/DmtpTech.sol\":355:7931  contract DmtpTech is ContextUpgradeable, AbstractRole, ReentrancyGuard {... */\n      0x00\n        /* \"@openzeppelin/contracts-upgradeable/access/AccessControlUpgradeable.sol\":7628:7640  return false */\n      swap1\n      jump\t// out\n        /* \"@openzeppelin/contracts-upgradeable/access/AccessControlUpgradeable.sol\":7892:8280  function _revokeRole(bytes32 role, address account) internal virtual returns (bool) {... */\n    tag_88:\n        /* \"contracts/DmtpTech.sol\":355:7931  contract DmtpTech is ContextUpgradeable, AbstractRole, ReentrancyGuard {... */\n      0x00\n      dup2\n      dup2\n      mstore\n      0x00\n      dup1\n      mload\n      0x20\n      data_b3da67d1b252aeab7c8063542d95e75f82a5307a82535949bc38f7cf7ba8897f\n      dup4\n      codecopy\n      dup2\n      mload\n      swap2\n      mstore\n      0x20\n      swap1\n      dup2\n      mstore\n      0x40\n      dup1\n      dup4\n      keccak256\n      sub(shl(0xa0, 0x01), 0x01)\n      dup7\n      and\n      dup5\n      mstore\n      swap1\n      swap2\n      mstore\n      swap1\n      keccak256\n      sload\n      0xff\n      and\n      iszero\n      tag_625\n      jumpi\n      0x00\n      dup2\n      dup2\n      mstore\n      0x00\n      dup1\n      mload\n      0x20\n      data_b3da67d1b252aeab7c8063542d95e75f82a5307a82535949bc38f7cf7ba8897f\n      dup4\n      codecopy\n      dup2\n      mload\n      swap2\n      mstore\n      0x20\n      swap1\n      dup2\n      mstore\n      0x40\n      dup1\n      dup4\n      keccak256\n      sub(shl(0xa0, 0x01), 0x01)\n      dup7\n      and\n      dup5\n      mstore\n      swap1\n      swap2\n      mstore\n      swap1\n      keccak256\n      dup1\n      sload\n      not(0xff)\n      and\n      swap1\n      sstore\n        /* \"@openzeppelin/contracts-upgradeable/utils/ContextUpgradeable.sol\":966:976  msg.sender */\n      caller\n      swap2\n      sub(shl(0xa0, 0x01), 0x01)\n        /* \"contracts/DmtpTech.sol\":355:7931  contract DmtpTech is ContextUpgradeable, AbstractRole, ReentrancyGuard {... */\n      and\n      swap1\n        /* \"@openzeppelin/contracts-upgradeable/access/AccessControlUpgradeable.sol\":8155:8195  RoleRevoked(role, account, _msgSender()) */\n      0xf6391f5c32d9c69d2a47ea670b442974b53935d1edc7fd64eb21e047a839171b\n      0x00\n      dup1\n      log4\n        /* \"contracts/DmtpTech.sol\":355:7931  contract DmtpTech is ContextUpgradeable, AbstractRole, ReentrancyGuard {... */\n      0x01\n        /* \"@openzeppelin/contracts-upgradeable/access/AccessControlUpgradeable.sol\":8209:8220  return true */\n      swap1\n      jump\t// out\n        /* \"libs/Signature.sol\":762:919  function prefixed(bytes32 hash) internal pure returns (bytes32) {... */\n    tag_89:\n        /* \"contracts/DmtpTech.sol\":355:7931  contract DmtpTech is ContextUpgradeable, AbstractRole, ReentrancyGuard {... */\n      mload(0x40)\n        /* \"libs/Signature.sol\":853:911  abi.encodePacked(\"\\x19Ethereum Signed Message:\\n32\", hash) */\n      0x20\n      dup2\n      add\n        /* \"contracts/DmtpTech.sol\":355:7931  contract DmtpTech is ContextUpgradeable, AbstractRole, ReentrancyGuard {... */\n      swap2\n      0x19457468657265756d205369676e6564204d6573736167653a0a333200000000\n      dup4\n      mstore\n      0x3c\n      dup3\n      add\n      mstore\n      0x3c\n        /* \"libs/Signature.sol\":853:911  abi.encodePacked(\"\\x19Ethereum Signed Message:\\n32\", hash) */\n      dup2\n      mstore\n      tag_632\n      0x5c\n      dup3\n      tag_32\n      jump\t// in\n    tag_632:\n        /* \"contracts/DmtpTech.sol\":355:7931  contract DmtpTech is ContextUpgradeable, AbstractRole, ReentrancyGuard {... */\n      mload\n        /* \"libs/Signature.sol\":843:912  keccak256(abi.encodePacked(\"\\x19Ethereum Signed Message:\\n32\", hash)) */\n      swap1\n      keccak256\n        /* \"libs/Signature.sol\":762:919  function prefixed(bytes32 hash) internal pure returns (bytes32) {... */\n      swap1\n      jump\t// out\n        /* \"libs/Signature.sol\":551:756  function recoverSigner(bytes32 message, bytes memory sig) internal pure returns (address) {... */\n    tag_90:\n        /* \"libs/Signature.sol\":209:211  65 */\n      0x41\n        /* \"contracts/DmtpTech.sol\":355:7931  contract DmtpTech is ContextUpgradeable, AbstractRole, ReentrancyGuard {... */\n      dup3\n      mload\n        /* \"libs/Signature.sol\":195:211  sig.length == 65 */\n      sub\n        /* \"contracts/DmtpTech.sol\":355:7931  contract DmtpTech is ContextUpgradeable, AbstractRole, ReentrancyGuard {... */\n      tag_156\n      jumpi\n      0x80\n      0x00\n        /* \"libs/Signature.sol\":223:512  assembly {... */\n      swap2\n      dup4\n      0x20\n      dup1\n      swap6\n      add\n      mload\n      0x60\n      0x40\n      dup4\n      add\n      mload\n      swap3\n      add\n      mload\n      dup6\n      byte\n      0x40\n        /* \"contracts/DmtpTech.sol\":355:7931  contract DmtpTech is ContextUpgradeable, AbstractRole, ReentrancyGuard {... */\n      mload\n      swap4\n      dup5\n      mstore\n      dup7\n      dup5\n      add\n      mstore\n        /* \"libs/Signature.sol\":223:512  assembly {... */\n      0x40\n        /* \"contracts/DmtpTech.sol\":355:7931  contract DmtpTech is ContextUpgradeable, AbstractRole, ReentrancyGuard {... */\n      dup4\n      add\n      mstore\n        /* \"libs/Signature.sol\":223:512  assembly {... */\n      0x60\n        /* \"contracts/DmtpTech.sol\":355:7931  contract DmtpTech is ContextUpgradeable, AbstractRole, ReentrancyGuard {... */\n      dup3\n      add\n      mstore\n        /* \"libs/Signature.sol\":722:749  ecrecover(message, v, r, s) */\n      dup3\n      dup1\n      mstore\n      0x01\n      gas\n      staticcall\n      iszero\n      tag_205\n      jumpi\n      mload(0x00)\n        /* \"libs/Signature.sol\":551:756  function recoverSigner(bytes32 message, bytes memory sig) internal pure returns (address) {... */\n      swap1\n      jump\t// out\n        /* \"contracts/DmtpTech.sol\":1288:1860  function __init(... */\n    tag_91:\n      swap4\n      swap3\n      swap2\n      swap1\n        /* \"contracts/DmtpTech.sol\":355:7931  contract DmtpTech is ContextUpgradeable, AbstractRole, ReentrancyGuard {... */\n      0xff\n      0x00\n      dup1\n      mload\n      0x20\n      data_e28a5566b8a884201ab44e2d991177ce8b88325e02e52cbc3da6e67b3ecf29c6\n      dup4\n      codecopy\n      dup2\n      mload\n      swap2\n      mstore\n      sload\n      0x40\n      shr\n      and\n        /* \"@openzeppelin/contracts-upgradeable/proxy/utils/Initializable.sol\":7150:7168  !_isInitializing() */\n      iszero\n        /* \"@openzeppelin/contracts-upgradeable/proxy/utils/Initializable.sol\":7146:7219  if (!_isInitializing()) {... */\n      tag_637\n      jumpi\n        /* \"contracts/DmtpTech.sol\":1796:1853  commission.keyGeneratorRate = commissionKeyGeneratorRate_ */\n      tag_594\n        /* \"contracts/DmtpTech.sol\":355:7931  contract DmtpTech is ContextUpgradeable, AbstractRole, ReentrancyGuard {... */\n      swap5\n      0x01\n      dup1\n      0xa0\n      shl\n      sub\n      and\n      shl(0xa0, sub(shl(0x60, 0x01), 0x01))\n        /* \"contracts/DmtpTech.sol\":1517:1533  key = IKey(key_) */\n      0x02\n        /* \"contracts/DmtpTech.sol\":355:7931  contract DmtpTech is ContextUpgradeable, AbstractRole, ReentrancyGuard {... */\n      sload\n      and\n      or\n        /* \"contracts/DmtpTech.sol\":1517:1533  key = IKey(key_) */\n      0x02\n        /* \"contracts/DmtpTech.sol\":355:7931  contract DmtpTech is ContextUpgradeable, AbstractRole, ReentrancyGuard {... */\n      sstore\n        /* \"contracts/DmtpTech.sol\":1583:1621  _grantRole(DEFAULT_ADMIN_ROLE, sender) */\n      tag_640\n        /* \"@openzeppelin/contracts-upgradeable/utils/ContextUpgradeable.sol\":966:976  msg.sender */\n      caller\n        /* \"contracts/DmtpTech.sol\":1583:1621  _grantRole(DEFAULT_ADMIN_ROLE, sender) */\n      tag_85\n      jump\t// in\n    tag_640:\n      pop\n        /* \"contracts/DmtpTech.sol\":1631:1664  _grantRole(OPERATOR_ROLE, sender) */\n      tag_641\n        /* \"@openzeppelin/contracts-upgradeable/utils/ContextUpgradeable.sol\":966:976  msg.sender */\n      caller\n        /* \"contracts/DmtpTech.sol\":1631:1664  _grantRole(OPERATOR_ROLE, sender) */\n      tag_86\n      jump\t// in\n    tag_641:\n      pop\n        /* \"contracts/DmtpTech.sol\":355:7931  contract DmtpTech is ContextUpgradeable, AbstractRole, ReentrancyGuard {... */\n      0x01\n      dup1\n      0xa0\n      shl\n      sub\n      and\n      shl(0xa0, sub(shl(0x60, 0x01), 0x01))\n        /* \"contracts/DmtpTech.sol\":1675:1691  signer = signer_ */\n      0x03\n        /* \"contracts/DmtpTech.sol\":355:7931  contract DmtpTech is ContextUpgradeable, AbstractRole, ReentrancyGuard {... */\n      sload\n      and\n      or\n        /* \"contracts/DmtpTech.sol\":1675:1691  signer = signer_ */\n      0x03\n        /* \"contracts/DmtpTech.sol\":355:7931  contract DmtpTech is ContextUpgradeable, AbstractRole, ReentrancyGuard {... */\n      sstore\n        /* \"contracts/DmtpTech.sol\":1702:1712  commission */\n      0x05\n        /* \"contracts/DmtpTech.sol\":355:7931  contract DmtpTech is ContextUpgradeable, AbstractRole, ReentrancyGuard {... */\n      sstore\n      0x01\n      dup1\n      0xa0\n      shl\n      sub\n      and\n      shl(0xa0, sub(shl(0x60, 0x01), 0x01))\n        /* \"contracts/DmtpTech.sol\":1745:1764  commission.receiver */\n      0x06\n        /* \"contracts/DmtpTech.sol\":355:7931  contract DmtpTech is ContextUpgradeable, AbstractRole, ReentrancyGuard {... */\n      sload\n      and\n      or\n        /* \"contracts/DmtpTech.sol\":1745:1764  commission.receiver */\n      0x06\n        /* \"contracts/DmtpTech.sol\":355:7931  contract DmtpTech is ContextUpgradeable, AbstractRole, ReentrancyGuard {... */\n      sstore\n        /* \"contracts/DmtpTech.sol\":1796:1823  commission.keyGeneratorRate */\n      0x07\n        /* \"contracts/DmtpTech.sol\":355:7931  contract DmtpTech is ContextUpgradeable, AbstractRole, ReentrancyGuard {... */\n      sstore\n      jump\n        /* \"@openzeppelin/contracts-upgradeable/proxy/utils/Initializable.sol\":7146:7219  if (!_isInitializing()) {... */\n    tag_637:\n        /* \"@openzeppelin/contracts-upgradeable/proxy/utils/Initializable.sol\":7191:7208  NotInitializing() */\n      mstore(0x00, shl(0xe3, 0x1afcd79f))\n      revert(0x00, 0x04)\n    stop\n    data_b3da67d1b252aeab7c8063542d95e75f82a5307a82535949bc38f7cf7ba8897f 02dd7bc7dec4dceedda775e58dd541e08a116c6c53815c0bd028192f7b626800\n    data_e28a5566b8a884201ab44e2d991177ce8b88325e02e52cbc3da6e67b3ecf29c6 f0c57e16840df040f15088dc2f81fe391c3923bec73e23a9662efc9c229c6a00\n\n    auxdata: 0xa164736f6c634300081c000a\n}\n","bytecode":{"linkReferences":{},"object":"60808060405234601a576001600055611caf90816100208239f35b600080fdfe6080604052600436101561001257600080fd5b60003560e01c806301ffc9a7146101e75780630d54a882146101e257806315534028146101dd578063238ac933146101d8578063248a9ca3146101d35780632f2ff15d146101ce57806336568abe146101c95780633943380c146101c45780635ba906c0146101bf57806362bea295146101ba57806366c04491146101b55780636c19e783146101b057806379894f96146101ab5780637d9edc96146101a657806381803632146101a1578063882e99181461019c5780638d5ea68b146101975780638dc9330f146101925780638fd7c5681461018d57806391d14854146101885780639fef93f814610183578063a217fddf1461017e578063b0afbfd214610179578063b77c0f0014610174578063d53913931461016f578063d547741f1461016a578063e148919114610165578063f5b541a6146101605763f7c00e631461015b57600080fd5b6110d1565b611096565b61105c565b61102b565b610ff0565b610fbc565b610f30565b610f14565b610d1a565b610cba565b610c97565b610c14565b610b91565b610b23565b610b06565b610a93565b6109f9565b610986565b6108fa565b6108c0565b610813565b6107ea565b6107a4565b61076e565b610748565b61071f565b6104f3565b610242565b3461023d57602036600319011261023d5760043563ffffffff60e01b811680910361023d57602090637965db0b60e01b811490811561022c575b506040519015158152f35b6301ffc9a760e01b14905038610221565b600080fd5b3461023d57604036600319011261023d5760043560243561026161177b565b61027361026e8333611432565b611271565b600254610290906001600160a01b03165b6001600160a01b031690565b604051635478737160e11b81526004810184905291602083602481855afa9283156103fc5760009361047c575b50826102c991146112d7565b6102e06102d860055484611339565b612710900490565b906102eb8284611351565b813b1561023d57604051637a94c56560e11b81523360048201526024810186905260016044820152916000908390606490829084905af19182156103fc57600092839283928392610462575b50818115610459575b3390f1156103fc576103576102d860075484611339565b808015801561040a575b50506006546001600160a01b0316806103bf575b604080518681523360208201529081018590527f76bf686fc9ca17368677b445c3982fe5bdba241b5b1ec5a879739a52e16203769080606081015b0390a16103bd6001600055565b005b600092839283928392916103e5916103df906001600160a01b0316610284565b92611351565b90828215610401575bf1156103fc57388080610375565b6112cb565b506108fc6103ee565b6000808093819361043b61028461028461042e8d6000526008602052604060002090565b546001600160a01b031690565b908390610450575bf1156103fc578038610361565b506108fc610443565b506108fc610340565b806104708461047693610b6a565b80610714565b38610337565b6102c99193506104a39060203d6020116104aa575b61049b8183610b6a565b8101906112bc565b92906102bd565b503d610491565b602435906001600160a01b038216820361023d57565b600435906001600160a01b038216820361023d57565b606435906001600160a01b038216820361023d57565b604036600319011261023d5760043561050a6104b1565b61051261177b565b61052060015483111561135e565b600254610535906001600160a01b0316610284565b60405163b9186d7d60e01b8152600481018490529290602084602481845afa9384156103fc576000946106f3575b506105736102d860055486611339565b9061058861058183876113b8565b34146112d7565b803b1561023d5760405163731133e960e01b81526001600160a01b03851660048201526024810184905260016044820152608060648201526000608482018190529091829060a490829084905af180156103fc576106de575b506105f16102d860075486611339565b808015801561069c575b50506006546001600160a01b03168061065c575b5050604080519283526001600160a01b03909316602083015250908101919091527fced28ea7ef5f4276044389e457757e3f21ca4368040c3b864e3890bcd56a99889080606081016103b0565b6000928392839283929161067c916103df906001600160a01b0316610284565b90828215610693575bf1156103fc5738808061060f565b506108fc610685565b600080809381936106c061028461028461042e8c6000526008602052604060002090565b9083906106d5575bf1156103fc5780386105fb565b506108fc6106c8565b8061047060006106ed93610b6a565b386105e1565b61070d91945060203d6020116104aa5761049b8183610b6a565b9238610563565b600091031261023d57565b3461023d57600036600319011261023d576003546040516001600160a01b039091168152602090f35b3461023d57602036600319011261023d5760206107666004356113c5565b604051908152f35b3461023d57604036600319011261023d576103bd60043561078d6104b1565b9061079f61079a826113c5565b61180f565b6119e2565b3461023d57604036600319011261023d576004356107c06104b1565b336001600160a01b038216036107d9576103bd91611a90565b63334bd91960e11b60005260046000fd5b3461023d57600036600319011261023d576002546040516001600160a01b039091168152602090f35b3461023d57602036600319011261023d5760025460405163b9186d7d60e01b8152600480359082015290602090829060249082906001600160a01b03165afa9081156103fc576000916108a1575b5061271061087160055483611339565b049061089d61088083836113b8565b604051938493846040919493926060820195825260208201520152565b0390f35b6108ba915060203d6020116104aa5761049b8183610b6a565b38610861565b3461023d57602036600319011261023d576001600160a01b036108e16104c7565b1660005260046020526020604060002054604051908152f35b3461023d57602036600319011261023d57600254604051635478737160e11b8152600480359082015290602090829060249082906001600160a01b03165afa9081156103fc57600091610967575b5061271061095860055483611339565b049061089d6108808383611351565b610980915060203d6020116104aa5761049b8183610b6a565b38610948565b3461023d57602036600319011261023d577f9eaa897564d022fb8c5efaf0acdb5d9d27b440b2aad44400b6e1c702e65b9ed360206109c26104c7565b6109ca61179d565b6001600160a01b03166109de8115156113e6565b600380546001600160a01b03191682179055604051908152a1005b3461023d57606036600319011261023d577f827988aa1b695ab4719b95a49399fb75159954cc25d5b37c53cf23e8a6a58d36600435610a366104b1565b90610a8e604435610a4561179d565b600680546001600160a01b0319166001600160a01b0395909516948517905560058390556007819055604080519384526020840194909452928201929092529081906060820190565b0390a1005b3461023d57602036600319011261023d577f9c421f75c1b2cd6cdf5bd68ae0986ad4518d273a5c59745ac6454392b0b709a56020610acf6104c7565b610ad761179d565b6001600160a01b0316610aeb8115156113e6565b600280546001600160a01b03191682179055604051908152a1005b3461023d57600036600319011261023d5760206040516127108152f35b3461023d57604036600319011261023d576020610b4a610b416104c7565b60243590611432565b6040519015158152f35b634e487b7160e01b600052604160045260246000fd5b90601f8019910116810190811067ffffffffffffffff821117610b8c57604052565b610b54565b3461023d57602036600319011261023d5760043567ffffffffffffffff811161023d573660238201121561023d57806004013567ffffffffffffffff8111610b8c5760405190610beb601f8201601f191660200183610b6a565b808252366024828501011161023d5760208160009260246103bd960183860137830101526114f1565b3461023d57604036600319011261023d576103bd600435610c336104b1565b90610c3c61179d565b80151580610c8b575b610c4e9061135e565b610c626001600160a01b03831615156113e6565b600052600860205260406000209060018060a01b03166001600160601b0360a01b825416179055565b50600154811115610c45565b3461023d57600036600319011261023d57602060ff600954166040519015158152f35b3461023d57604036600319011261023d57602060ff610d0e600435610cdd6104b1565b90600052600080516020611c63833981519152845260406000209060018060a01b0316600052602052604060002090565b54166040519015158152f35b602036600319011261023d57600435610d3161177b565b610d3f60015482111561135e565b600254610d54906001600160a01b0316610284565b60405163b9186d7d60e01b81526004810183905290602082602481845afa9182156103fc57600092610ef3575b50610d916102d860055484611339565b90610d9f61058183856113b8565b803b1561023d5760405163731133e960e01b81523360048201526024810185905260016044820152608060648201526000608482018190529091829060a490829084905af180156103fc57610ede575b50610dff6102d860075484611339565b8080158015610e9c575b50506006546001600160a01b031680610e5c575b604080518681523360208201529081018590527fced28ea7ef5f4276044389e457757e3f21ca4368040c3b864e3890bcd56a99889080606081016103b0565b60009283928392839291610e7c916103df906001600160a01b0316610284565b90828215610e93575bf1156103fc57388080610e1d565b506108fc610e85565b60008080938193610ec061028461028461042e8d6000526008602052604060002090565b908390610ed5575bf1156103fc578038610e09565b506108fc610ec8565b806104706000610eed93610b6a565b38610def565b610f0d91925060203d6020116104aa5761049b8183610b6a565b9038610d81565b3461023d57600036600319011261023d57602060405160008152f35b3461023d57602036600319011261023d576004358015801580920361023d57610f5761179d565b6009549160ff8316151514610f775760ff169060ff191617600955600080f35b60405162461bcd60e51b815260206004820152601860248201527f444d54505f544543485f434f4e4649475f4841535f53455400000000000000006044820152606490fd5b3461023d57602036600319011261023d576004356000526008602052602060018060a01b0360406000205416604051908152f35b3461023d57600036600319011261023d5760206040517f9f2df0fed2c77648de5860a4cc508cd0818c85b8b8a1ab4ceeef8d981c8956a68152f35b3461023d57604036600319011261023d576103bd60043561104a6104b1565b9061105761079a826113c5565b611a90565b3461023d57600036600319011261023d57600554600654600754604080519384526001600160a01b03909216602084015290820152606090f35b3461023d57600036600319011261023d5760206040517f97667070c54ef182b0f5858b034beac1b6f3089aa2d3188bb1e8929f4fa9b9298152f35b3461023d5760a036600319011261023d576110ea6104c7565b6110f26104b1565b906044356110fe6104dd565b60843591600080516020611c83833981519152549467ffffffffffffffff6111426111346111308960ff9060401c1690565b1590565b9767ffffffffffffffff1690565b1680159081611269575b600114908161125f575b159081611256575b50611245576111a4948661119b600167ffffffffffffffff19600080516020611c83833981519152541617600080516020611c8383398151915255565b61120957611bc1565b6111aa57005b6111d660ff60401b19600080516020611c838339815191525416600080516020611c8383398151915255565b604051600181527fc7f505b2f371ae2175ee4913f4499e1f2633a7b5936321eed1cdaeb6115181d2908060208101610a8e565b6112406801000000000000000060ff60401b19600080516020611c83833981519152541617600080516020611c8383398151915255565b611bc1565b63f92ee8a960e01b60005260046000fd5b9050153861115e565b303b159150611156565b87915061114c565b1561127857565b606460405162461bcd60e51b815260206004820152602060248201527f444d54505f544543485f4e4f545f414c4c4f575f544f5f53454c4c5f4b4559536044820152fd5b9081602091031261023d575190565b6040513d6000823e3d90fd5b156112de57565b60405162461bcd60e51b815260206004820152601760248201527f444d54505f544543485f50524943455f4348414e4745440000000000000000006044820152606490fd5b634e487b7160e01b600052601160045260246000fd5b8181029291811591840414171561134c57565b611323565b9190820391821161134c57565b1561136557565b60405162461bcd60e51b815260206004820152601b60248201527f444d54505f544543485f504152414d5f4b45595f494e56414c494400000000006044820152606490fd5b906001820180921161134c57565b9190820180921161134c57565b600052600080516020611c6383398151915260205260016040600020015490565b156113ed57565b60405162461bcd60e51b815260206004820152601f60248201527f444d54505f544543485f504152414d5f414444524553535f494e56414c4944006044820152606490fd5b6001600160a01b0381166000908152600460205260409020829054036114ea576114a69160209161147361028461028461028460025460018060a01b031690565b604051627eeac760e11b81526001600160a01b039092166004830152602482019290925292839190829081906044820190565b03915afa80156103fc576001916000916114cb575b50116114c657600090565b600190565b6114e4915060203d6020116104aa5761049b8183610b6a565b386114bb565b5050600190565b6114f961177b565b3360009081526004602052604090206115139054156116d9565b60095460ff16611644575b5061152a6001546113aa565b60025461153f906001600160a01b0316610284565b90813b1561023d5760405163731133e960e01b81523360048201526024810182905260016044820152608060648201526000608482018190529092839060a490829084905af19081156103fc577f21f36f1ce7fe044293979690e893402c51515f757aa4e48b13bcfb269a9b6410926116209261162f575b506115c181600155565b33600090815260046020526040902081905561160a336115eb836000526008602052604060002090565b80546001600160a01b0319166001600160a01b03909216919091179055565b6040805191825233602083015290918291820190565b0390a161162d6001600055565b565b80610470600061163e93610b6a565b386115b7565b6116ad6116d3916116a860405160208101906116a0816116923046338791604893916001600160601b03199060601b16835260148301526001600160601b03199060601b1660348201520190565b03601f198101835282610b6a565b519020611b35565b611b7a565b6003546116c2906001600160a01b0316610284565b6001600160a01b0390911614611725565b3861151e565b156116e057565b60405162461bcd60e51b815260206004820152601c60248201527f444d54505f544543485f414c52454144595f4953535545445f4b4559000000006044820152606490fd5b1561172c57565b60405162461bcd60e51b815260206004820152602160248201527f444d54505f544543485f504152414d5f5349474e41545552455f494e56414c496044820152601160fa1b6064820152608490fd5b60026000541461178c576002600055565b633ee5aeb560e01b60005260046000fd5b3360009081527f448256db8f8fb95ee3eaaf89c1051414494e85cebb6057fcf996cc3d0ccfb456602052604090205460ff16156117d657565b63e2517d3f60e01b600052336004527f97667070c54ef182b0f5858b034beac1b6f3089aa2d3188bb1e8929f4fa9b92960245260446000fd5b6000818152600080516020611c638339815191526020908152604080832033845290915290205460ff16156118415750565b63e2517d3f60e01b6000523360045260245260446000fd5b6001600160a01b03811660009081527fb7db2dd08fcb62d0c9e08c51941cae53c267786a0b75803fb7960902fc8ef97d602052604090205460ff16611905576001600160a01b031660008181527fb7db2dd08fcb62d0c9e08c51941cae53c267786a0b75803fb7960902fc8ef97d60205260408120805460ff191660011790553391907f2f8788117e7eff1d82e926ec794901d17c78024a50270940304540a733656f0d8180a4600190565b50600090565b6001600160a01b03811660009081527f448256db8f8fb95ee3eaaf89c1051414494e85cebb6057fcf996cc3d0ccfb456602052604090205460ff16611905576001600160a01b03811660009081527f448256db8f8fb95ee3eaaf89c1051414494e85cebb6057fcf996cc3d0ccfb45660205260409020805460ff1916600117905533906001600160a01b03167f97667070c54ef182b0f5858b034beac1b6f3089aa2d3188bb1e8929f4fa9b9297f2f8788117e7eff1d82e926ec794901d17c78024a50270940304540a733656f0d600080a4600190565b6000818152600080516020611c63833981519152602090815260408083206001600160a01b038616845290915290205460ff16611a89576000818152600080516020611c63833981519152602090815260408083206001600160a01b03861684529091529020805460ff1916600117905533916001600160a01b0316907f2f8788117e7eff1d82e926ec794901d17c78024a50270940304540a733656f0d600080a4600190565b5050600090565b6000818152600080516020611c63833981519152602090815260408083206001600160a01b038616845290915290205460ff1615611a89576000818152600080516020611c63833981519152602090815260408083206001600160a01b03861684529091529020805460ff1916905533916001600160a01b0316907ff6391f5c32d9c69d2a47ea670b442974b53935d1edc7fd64eb21e047a839171b600080a4600190565b60405160208101917f19457468657265756d205369676e6564204d6573736167653a0a3332000000008352603c820152603c8152611b74605c82610b6a565b51902090565b604182510361023d5760806000918360208095015160606040830151920151851a604051938452868401526040830152606082015282805260015afa156103fc5760005190565b9392919060ff600080516020611c838339815191525460401c1615611c515761162d9460018060a01b03166001600160601b0360a01b6002541617600255611c0833611859565b50611c123361190b565b5060018060a01b03166001600160601b0360a01b600354161760035560055560018060a01b03166001600160601b0360a01b6006541617600655600755565b631afcd79f60e31b60005260046000fdfe02dd7bc7dec4dceedda775e58dd541e08a116c6c53815c0bd028192f7b626800f0c57e16840df040f15088dc2f81fe391c3923bec73e23a9662efc9c229c6a00a164736f6c634300081c000a","opcodes":"PUSH1 0x80 DUP1 PUSH1 0x40 MSTORE CALLVALUE PUSH1 0x1A JUMPI PUSH1 0x1 PUSH1 0x0 SSTORE PUSH2 0x1CAF SWAP1 DUP2 PUSH2 0x20 DUP3 CODECOPY RETURN JUMPDEST PUSH1 0x0 DUP1 REVERT INVALID PUSH1 0x80 PUSH1 0x40 MSTORE PUSH1 0x4 CALLDATASIZE LT ISZERO PUSH2 0x12 JUMPI PUSH1 0x0 DUP1 REVERT JUMPDEST PUSH1 0x0 CALLDATALOAD PUSH1 0xE0 SHR DUP1 PUSH4 0x1FFC9A7 EQ PUSH2 0x1E7 JUMPI DUP1 PUSH4 0xD54A882 EQ PUSH2 0x1E2 JUMPI DUP1 PUSH4 0x15534028 EQ PUSH2 0x1DD JUMPI DUP1 PUSH4 0x238AC933 EQ PUSH2 0x1D8 JUMPI DUP1 PUSH4 0x248A9CA3 EQ PUSH2 0x1D3 JUMPI DUP1 PUSH4 0x2F2FF15D EQ PUSH2 0x1CE JUMPI DUP1 PUSH4 0x36568ABE EQ PUSH2 0x1C9 JUMPI DUP1 PUSH4 0x3943380C EQ PUSH2 0x1C4 JUMPI DUP1 PUSH4 0x5BA906C0 EQ PUSH2 0x1BF JUMPI DUP1 PUSH4 0x62BEA295 EQ PUSH2 0x1BA JUMPI DUP1 PUSH4 0x66C04491 EQ PUSH2 0x1B5 JUMPI DUP1 PUSH4 0x6C19E783 EQ PUSH2 0x1B0 JUMPI DUP1 PUSH4 0x79894F96 EQ PUSH2 0x1AB JUMPI DUP1 PUSH4 0x7D9EDC96 EQ PUSH2 0x1A6 JUMPI DUP1 PUSH4 0x81803632 EQ PUSH2 0x1A1 JUMPI DUP1 PUSH4 0x882E9918 EQ PUSH2 0x19C JUMPI DUP1 PUSH4 0x8D5EA68B EQ PUSH2 0x197 JUMPI DUP1 PUSH4 0x8DC9330F EQ PUSH2 0x192 JUMPI DUP1 PUSH4 0x8FD7C568 EQ PUSH2 0x18D JUMPI DUP1 PUSH4 0x91D14854 EQ PUSH2 0x188 JUMPI DUP1 PUSH4 0x9FEF93F8 EQ PUSH2 0x183 JUMPI DUP1 PUSH4 0xA217FDDF EQ PUSH2 0x17E JUMPI DUP1 PUSH4 0xB0AFBFD2 EQ PUSH2 0x179 JUMPI DUP1 PUSH4 0xB77C0F00 EQ PUSH2 0x174 JUMPI DUP1 PUSH4 0xD5391393 EQ PUSH2 0x16F JUMPI DUP1 PUSH4 0xD547741F EQ PUSH2 0x16A JUMPI DUP1 PUSH4 0xE1489191 EQ PUSH2 0x165 JUMPI DUP1 PUSH4 0xF5B541A6 EQ PUSH2 0x160 JUMPI PUSH4 0xF7C00E63 EQ PUSH2 0x15B JUMPI PUSH1 0x0 DUP1 REVERT JUMPDEST PUSH2 0x10D1 JUMP JUMPDEST PUSH2 0x1096 JUMP JUMPDEST PUSH2 0x105C JUMP JUMPDEST PUSH2 0x102B JUMP JUMPDEST PUSH2 0xFF0 JUMP JUMPDEST PUSH2 0xFBC JUMP JUMPDEST PUSH2 0xF30 JUMP JUMPDEST PUSH2 0xF14 JUMP JUMPDEST PUSH2 0xD1A JUMP JUMPDEST PUSH2 0xCBA JUMP JUMPDEST PUSH2 0xC97 JUMP JUMPDEST PUSH2 0xC14 JUMP JUMPDEST PUSH2 0xB91 JUMP JUMPDEST PUSH2 0xB23 JUMP JUMPDEST PUSH2 0xB06 JUMP JUMPDEST PUSH2 0xA93 JUMP JUMPDEST PUSH2 0x9F9 JUMP JUMPDEST PUSH2 0x986 JUMP JUMPDEST PUSH2 0x8FA JUMP JUMPDEST PUSH2 0x8C0 JUMP JUMPDEST PUSH2 0x813 JUMP JUMPDEST PUSH2 0x7EA JUMP JUMPDEST PUSH2 0x7A4 JUMP JUMPDEST PUSH2 0x76E JUMP JUMPDEST PUSH2 0x748 JUMP JUMPDEST PUSH2 0x71F JUMP JUMPDEST PUSH2 0x4F3 JUMP JUMPDEST PUSH2 0x242 JUMP JUMPDEST CALLVALUE PUSH2 0x23D JUMPI PUSH1 0x20 CALLDATASIZE PUSH1 0x3 NOT ADD SLT PUSH2 0x23D JUMPI PUSH1 0x4 CALLDATALOAD PUSH4 0xFFFFFFFF PUSH1 0xE0 SHL DUP2 AND DUP1 SWAP2 SUB PUSH2 0x23D JUMPI PUSH1 0x20 SWAP1 PUSH4 0x7965DB0B PUSH1 0xE0 SHL DUP2 EQ SWAP1 DUP2 ISZERO PUSH2 0x22C JUMPI JUMPDEST POP PUSH1 0x40 MLOAD SWAP1 ISZERO ISZERO DUP2 MSTORE RETURN JUMPDEST PUSH4 0x1FFC9A7 PUSH1 0xE0 SHL EQ SWAP1 POP CODESIZE PUSH2 0x221 JUMP JUMPDEST PUSH1 0x0 DUP1 REVERT JUMPDEST CALLVALUE PUSH2 0x23D JUMPI PUSH1 0x40 CALLDATASIZE PUSH1 0x3 NOT ADD SLT PUSH2 0x23D JUMPI PUSH1 0x4 CALLDATALOAD PUSH1 0x24 CALLDATALOAD PUSH2 0x261 PUSH2 0x177B JUMP JUMPDEST PUSH2 0x273 PUSH2 0x26E DUP4 CALLER PUSH2 0x1432 JUMP JUMPDEST PUSH2 0x1271 JUMP JUMPDEST PUSH1 0x2 SLOAD PUSH2 0x290 SWAP1 PUSH1 0x1 PUSH1 0x1 PUSH1 0xA0 SHL SUB AND JUMPDEST PUSH1 0x1 PUSH1 0x1 PUSH1 0xA0 SHL SUB AND SWAP1 JUMP JUMPDEST PUSH1 0x40 MLOAD PUSH4 0x54787371 PUSH1 0xE1 SHL DUP2 MSTORE PUSH1 0x4 DUP2 ADD DUP5 SWAP1 MSTORE SWAP2 PUSH1 0x20 DUP4 PUSH1 0x24 DUP2 DUP6 GAS STATICCALL SWAP3 DUP4 ISZERO PUSH2 0x3FC JUMPI PUSH1 0x0 SWAP4 PUSH2 0x47C JUMPI JUMPDEST POP DUP3 PUSH2 0x2C9 SWAP2 EQ PUSH2 0x12D7 JUMP JUMPDEST PUSH2 0x2E0 PUSH2 0x2D8 PUSH1 0x5 SLOAD DUP5 PUSH2 0x1339 JUMP JUMPDEST PUSH2 0x2710 SWAP1 DIV SWAP1 JUMP JUMPDEST SWAP1 PUSH2 0x2EB DUP3 DUP5 PUSH2 0x1351 JUMP JUMPDEST DUP2 EXTCODESIZE ISZERO PUSH2 0x23D JUMPI PUSH1 0x40 MLOAD PUSH4 0x7A94C565 PUSH1 0xE1 SHL DUP2 MSTORE CALLER PUSH1 0x4 DUP3 ADD MSTORE PUSH1 0x24 DUP2 ADD DUP7 SWAP1 MSTORE PUSH1 0x1 PUSH1 0x44 DUP3 ADD MSTORE SWAP2 PUSH1 0x0 SWAP1 DUP4 SWAP1 PUSH1 0x64 SWAP1 DUP3 SWAP1 DUP5 SWAP1 GAS CALL SWAP2 DUP3 ISZERO PUSH2 0x3FC JUMPI PUSH1 0x0 SWAP3 DUP4 SWAP3 DUP4 SWAP3 DUP4 SWAP3 PUSH2 0x462 JUMPI JUMPDEST POP DUP2 DUP2 ISZERO PUSH2 0x459 JUMPI JUMPDEST CALLER SWAP1 CALL ISZERO PUSH2 0x3FC JUMPI PUSH2 0x357 PUSH2 0x2D8 PUSH1 0x7 SLOAD DUP5 PUSH2 0x1339 JUMP JUMPDEST DUP1 DUP1 ISZERO DUP1 ISZERO PUSH2 0x40A JUMPI JUMPDEST POP POP PUSH1 0x6 SLOAD PUSH1 0x1 PUSH1 0x1 PUSH1 0xA0 SHL SUB AND DUP1 PUSH2 0x3BF JUMPI JUMPDEST PUSH1 0x40 DUP1 MLOAD DUP7 DUP2 MSTORE CALLER PUSH1 0x20 DUP3 ADD MSTORE SWAP1 DUP2 ADD DUP6 SWAP1 MSTORE PUSH32 0x76BF686FC9CA17368677B445C3982FE5BDBA241B5B1EC5A879739A52E1620376 SWAP1 DUP1 PUSH1 0x60 DUP2 ADD JUMPDEST SUB SWAP1 LOG1 PUSH2 0x3BD PUSH1 0x1 PUSH1 0x0 SSTORE JUMP JUMPDEST STOP JUMPDEST PUSH1 0x0 SWAP3 DUP4 SWAP3 DUP4 SWAP3 DUP4 SWAP3 SWAP2 PUSH2 0x3E5 SWAP2 PUSH2 0x3DF SWAP1 PUSH1 0x1 PUSH1 0x1 PUSH1 0xA0 SHL SUB AND PUSH2 0x284 JUMP JUMPDEST SWAP3 PUSH2 0x1351 JUMP JUMPDEST SWAP1 DUP3 DUP3 ISZERO PUSH2 0x401 JUMPI JUMPDEST CALL ISZERO PUSH2 0x3FC JUMPI CODESIZE DUP1 DUP1 PUSH2 0x375 JUMP JUMPDEST PUSH2 0x12CB JUMP JUMPDEST POP PUSH2 0x8FC PUSH2 0x3EE JUMP JUMPDEST PUSH1 0x0 DUP1 DUP1 SWAP4 DUP2 SWAP4 PUSH2 0x43B PUSH2 0x284 PUSH2 0x284 PUSH2 0x42E DUP14 PUSH1 0x0 MSTORE PUSH1 0x8 PUSH1 0x20 MSTORE PUSH1 0x40 PUSH1 0x0 KECCAK256 SWAP1 JUMP JUMPDEST SLOAD PUSH1 0x1 PUSH1 0x1 PUSH1 0xA0 SHL SUB AND SWAP1 JUMP JUMPDEST SWAP1 DUP4 SWAP1 PUSH2 0x450 JUMPI JUMPDEST CALL ISZERO PUSH2 0x3FC JUMPI DUP1 CODESIZE PUSH2 0x361 JUMP JUMPDEST POP PUSH2 0x8FC PUSH2 0x443 JUMP JUMPDEST POP PUSH2 0x8FC PUSH2 0x340 JUMP JUMPDEST DUP1 PUSH2 0x470 DUP5 PUSH2 0x476 SWAP4 PUSH2 0xB6A JUMP JUMPDEST DUP1 PUSH2 0x714 JUMP JUMPDEST CODESIZE PUSH2 0x337 JUMP JUMPDEST PUSH2 0x2C9 SWAP2 SWAP4 POP PUSH2 0x4A3 SWAP1 PUSH1 0x20 RETURNDATASIZE PUSH1 0x20 GT PUSH2 0x4AA JUMPI JUMPDEST PUSH2 0x49B DUP2 DUP4 PUSH2 0xB6A JUMP JUMPDEST DUP2 ADD SWAP1 PUSH2 0x12BC JUMP JUMPDEST SWAP3 SWAP1 PUSH2 0x2BD JUMP JUMPDEST POP RETURNDATASIZE PUSH2 0x491 JUMP JUMPDEST PUSH1 0x24 CALLDATALOAD SWAP1 PUSH1 0x1 PUSH1 0x1 PUSH1 0xA0 SHL SUB DUP3 AND DUP3 SUB PUSH2 0x23D JUMPI JUMP JUMPDEST PUSH1 0x4 CALLDATALOAD SWAP1 PUSH1 0x1 PUSH1 0x1 PUSH1 0xA0 SHL SUB DUP3 AND DUP3 SUB PUSH2 0x23D JUMPI JUMP JUMPDEST PUSH1 0x64 CALLDATALOAD SWAP1 PUSH1 0x1 PUSH1 0x1 PUSH1 0xA0 SHL SUB DUP3 AND DUP3 SUB PUSH2 0x23D JUMPI JUMP JUMPDEST PUSH1 0x40 CALLDATASIZE PUSH1 0x3 NOT ADD SLT PUSH2 0x23D JUMPI PUSH1 0x4 CALLDATALOAD PUSH2 0x50A PUSH2 0x4B1 JUMP JUMPDEST PUSH2 0x512 PUSH2 0x177B JUMP JUMPDEST PUSH2 0x520 PUSH1 0x1 SLOAD DUP4 GT ISZERO PUSH2 0x135E JUMP JUMPDEST PUSH1 0x2 SLOAD PUSH2 0x535 SWAP1 PUSH1 0x1 PUSH1 0x1 PUSH1 0xA0 SHL SUB AND PUSH2 0x284 JUMP JUMPDEST PUSH1 0x40 MLOAD PUSH4 0xB9186D7D PUSH1 0xE0 SHL DUP2 MSTORE PUSH1 0x4 DUP2 ADD DUP5 SWAP1 MSTORE SWAP3 SWAP1 PUSH1 0x20 DUP5 PUSH1 0x24 DUP2 DUP5 GAS STATICCALL SWAP4 DUP5 ISZERO PUSH2 0x3FC JUMPI PUSH1 0x0 SWAP5 PUSH2 0x6F3 JUMPI JUMPDEST POP PUSH2 0x573 PUSH2 0x2D8 PUSH1 0x5 SLOAD DUP7 PUSH2 0x1339 JUMP JUMPDEST SWAP1 PUSH2 0x588 PUSH2 0x581 DUP4 DUP8 PUSH2 0x13B8 JUMP JUMPDEST CALLVALUE EQ PUSH2 0x12D7 JUMP JUMPDEST DUP1 EXTCODESIZE ISZERO PUSH2 0x23D JUMPI PUSH1 0x40 MLOAD PUSH4 0x731133E9 PUSH1 0xE0 SHL DUP2 MSTORE PUSH1 0x1 PUSH1 0x1 PUSH1 0xA0 SHL SUB DUP6 AND PUSH1 0x4 DUP3 ADD MSTORE PUSH1 0x24 DUP2 ADD DUP5 SWAP1 MSTORE PUSH1 0x1 PUSH1 0x44 DUP3 ADD MSTORE PUSH1 0x80 PUSH1 0x64 DUP3 ADD MSTORE PUSH1 0x0 PUSH1 0x84 DUP3 ADD DUP2 SWAP1 MSTORE SWAP1 SWAP2 DUP3 SWAP1 PUSH1 0xA4 SWAP1 DUP3 SWAP1 DUP5 SWAP1 GAS CALL DUP1 ISZERO PUSH2 0x3FC JUMPI PUSH2 0x6DE JUMPI JUMPDEST POP PUSH2 0x5F1 PUSH2 0x2D8 PUSH1 0x7 SLOAD DUP7 PUSH2 0x1339 JUMP JUMPDEST DUP1 DUP1 ISZERO DUP1 ISZERO PUSH2 0x69C JUMPI JUMPDEST POP POP PUSH1 0x6 SLOAD PUSH1 0x1 PUSH1 0x1 PUSH1 0xA0 SHL SUB AND DUP1 PUSH2 0x65C JUMPI JUMPDEST POP POP PUSH1 0x40 DUP1 MLOAD SWAP3 DUP4 MSTORE PUSH1 0x1 PUSH1 0x1 PUSH1 0xA0 SHL SUB SWAP1 SWAP4 AND PUSH1 0x20 DUP4 ADD MSTORE POP SWAP1 DUP2 ADD SWAP2 SWAP1 SWAP2 MSTORE PUSH32 0xCED28EA7EF5F4276044389E457757E3F21CA4368040C3B864E3890BCD56A9988 SWAP1 DUP1 PUSH1 0x60 DUP2 ADD PUSH2 0x3B0 JUMP JUMPDEST PUSH1 0x0 SWAP3 DUP4 SWAP3 DUP4 SWAP3 DUP4 SWAP3 SWAP2 PUSH2 0x67C SWAP2 PUSH2 0x3DF SWAP1 PUSH1 0x1 PUSH1 0x1 PUSH1 0xA0 SHL SUB AND PUSH2 0x284 JUMP JUMPDEST SWAP1 DUP3 DUP3 ISZERO PUSH2 0x693 JUMPI JUMPDEST CALL ISZERO PUSH2 0x3FC JUMPI CODESIZE DUP1 DUP1 PUSH2 0x60F JUMP JUMPDEST POP PUSH2 0x8FC PUSH2 0x685 JUMP JUMPDEST PUSH1 0x0 DUP1 DUP1 SWAP4 DUP2 SWAP4 PUSH2 0x6C0 PUSH2 0x284 PUSH2 0x284 PUSH2 0x42E DUP13 PUSH1 0x0 MSTORE PUSH1 0x8 PUSH1 0x20 MSTORE PUSH1 0x40 PUSH1 0x0 KECCAK256 SWAP1 JUMP JUMPDEST SWAP1 DUP4 SWAP1 PUSH2 0x6D5 JUMPI JUMPDEST CALL ISZERO PUSH2 0x3FC JUMPI DUP1 CODESIZE PUSH2 0x5FB JUMP JUMPDEST POP PUSH2 0x8FC PUSH2 0x6C8 JUMP JUMPDEST DUP1 PUSH2 0x470 PUSH1 0x0 PUSH2 0x6ED SWAP4 PUSH2 0xB6A JUMP JUMPDEST CODESIZE PUSH2 0x5E1 JUMP JUMPDEST PUSH2 0x70D SWAP2 SWAP5 POP PUSH1 0x20 RETURNDATASIZE PUSH1 0x20 GT PUSH2 0x4AA JUMPI PUSH2 0x49B DUP2 DUP4 PUSH2 0xB6A JUMP JUMPDEST SWAP3 CODESIZE PUSH2 0x563 JUMP JUMPDEST PUSH1 0x0 SWAP2 SUB SLT PUSH2 0x23D JUMPI JUMP JUMPDEST CALLVALUE PUSH2 0x23D JUMPI PUSH1 0x0 CALLDATASIZE PUSH1 0x3 NOT ADD SLT PUSH2 0x23D JUMPI PUSH1 0x3 SLOAD PUSH1 0x40 MLOAD PUSH1 0x1 PUSH1 0x1 PUSH1 0xA0 SHL SUB SWAP1 SWAP2 AND DUP2 MSTORE PUSH1 0x20 SWAP1 RETURN JUMPDEST CALLVALUE PUSH2 0x23D JUMPI PUSH1 0x20 CALLDATASIZE PUSH1 0x3 NOT ADD SLT PUSH2 0x23D JUMPI PUSH1 0x20 PUSH2 0x766 PUSH1 0x4 CALLDATALOAD PUSH2 0x13C5 JUMP JUMPDEST PUSH1 0x40 MLOAD SWAP1 DUP2 MSTORE RETURN JUMPDEST CALLVALUE PUSH2 0x23D JUMPI PUSH1 0x40 CALLDATASIZE PUSH1 0x3 NOT ADD SLT PUSH2 0x23D JUMPI PUSH2 0x3BD PUSH1 0x4 CALLDATALOAD PUSH2 0x78D PUSH2 0x4B1 JUMP JUMPDEST SWAP1 PUSH2 0x79F PUSH2 0x79A DUP3 PUSH2 0x13C5 JUMP JUMPDEST PUSH2 0x180F JUMP JUMPDEST PUSH2 0x19E2 JUMP JUMPDEST CALLVALUE PUSH2 0x23D JUMPI PUSH1 0x40 CALLDATASIZE PUSH1 0x3 NOT ADD SLT PUSH2 0x23D JUMPI PUSH1 0x4 CALLDATALOAD PUSH2 0x7C0 PUSH2 0x4B1 JUMP JUMPDEST CALLER PUSH1 0x1 PUSH1 0x1 PUSH1 0xA0 SHL SUB DUP3 AND SUB PUSH2 0x7D9 JUMPI PUSH2 0x3BD SWAP2 PUSH2 0x1A90 JUMP JUMPDEST PUSH4 0x334BD919 PUSH1 0xE1 SHL PUSH1 0x0 MSTORE PUSH1 0x4 PUSH1 0x0 REVERT JUMPDEST CALLVALUE PUSH2 0x23D JUMPI PUSH1 0x0 CALLDATASIZE PUSH1 0x3 NOT ADD SLT PUSH2 0x23D JUMPI PUSH1 0x2 SLOAD PUSH1 0x40 MLOAD PUSH1 0x1 PUSH1 0x1 PUSH1 0xA0 SHL SUB SWAP1 SWAP2 AND DUP2 MSTORE PUSH1 0x20 SWAP1 RETURN JUMPDEST CALLVALUE PUSH2 0x23D JUMPI PUSH1 0x20 CALLDATASIZE PUSH1 0x3 NOT ADD SLT PUSH2 0x23D JUMPI PUSH1 0x2 SLOAD PUSH1 0x40 MLOAD PUSH4 0xB9186D7D PUSH1 0xE0 SHL DUP2 MSTORE PUSH1 0x4 DUP1 CALLDATALOAD SWAP1 DUP3 ADD MSTORE SWAP1 PUSH1 0x20 SWAP1 DUP3 SWAP1 PUSH1 0x24 SWAP1 DUP3 SWAP1 PUSH1 0x1 PUSH1 0x1 PUSH1 0xA0 SHL SUB AND GAS STATICCALL SWAP1 DUP2 ISZERO PUSH2 0x3FC JUMPI PUSH1 0x0 SWAP2 PUSH2 0x8A1 JUMPI JUMPDEST POP PUSH2 0x2710 PUSH2 0x871 PUSH1 0x5 SLOAD DUP4 PUSH2 0x1339 JUMP JUMPDEST DIV SWAP1 PUSH2 0x89D PUSH2 0x880 DUP4 DUP4 PUSH2 0x13B8 JUMP JUMPDEST PUSH1 0x40 MLOAD SWAP4 DUP5 SWAP4 DUP5 PUSH1 0x40 SWAP2 SWAP5 SWAP4 SWAP3 PUSH1 0x60 DUP3 ADD SWAP6 DUP3 MSTORE PUSH1 0x20 DUP3 ADD MSTORE ADD MSTORE JUMP JUMPDEST SUB SWAP1 RETURN JUMPDEST PUSH2 0x8BA SWAP2 POP PUSH1 0x20 RETURNDATASIZE PUSH1 0x20 GT PUSH2 0x4AA JUMPI PUSH2 0x49B DUP2 DUP4 PUSH2 0xB6A JUMP JUMPDEST CODESIZE PUSH2 0x861 JUMP JUMPDEST CALLVALUE PUSH2 0x23D JUMPI PUSH1 0x20 CALLDATASIZE PUSH1 0x3 NOT ADD SLT PUSH2 0x23D JUMPI PUSH1 0x1 PUSH1 0x1 PUSH1 0xA0 SHL SUB PUSH2 0x8E1 PUSH2 0x4C7 JUMP JUMPDEST AND PUSH1 0x0 MSTORE PUSH1 0x4 PUSH1 0x20 MSTORE PUSH1 0x20 PUSH1 0x40 PUSH1 0x0 KECCAK256 SLOAD PUSH1 0x40 MLOAD SWAP1 DUP2 MSTORE RETURN JUMPDEST CALLVALUE PUSH2 0x23D JUMPI PUSH1 0x20 CALLDATASIZE PUSH1 0x3 NOT ADD SLT PUSH2 0x23D JUMPI PUSH1 0x2 SLOAD PUSH1 0x40 MLOAD PUSH4 0x54787371 PUSH1 0xE1 SHL DUP2 MSTORE PUSH1 0x4 DUP1 CALLDATALOAD SWAP1 DUP3 ADD MSTORE SWAP1 PUSH1 0x20 SWAP1 DUP3 SWAP1 PUSH1 0x24 SWAP1 DUP3 SWAP1 PUSH1 0x1 PUSH1 0x1 PUSH1 0xA0 SHL SUB AND GAS STATICCALL SWAP1 DUP2 ISZERO PUSH2 0x3FC JUMPI PUSH1 0x0 SWAP2 PUSH2 0x967 JUMPI JUMPDEST POP PUSH2 0x2710 PUSH2 0x958 PUSH1 0x5 SLOAD DUP4 PUSH2 0x1339 JUMP JUMPDEST DIV SWAP1 PUSH2 0x89D PUSH2 0x880 DUP4 DUP4 PUSH2 0x1351 JUMP JUMPDEST PUSH2 0x980 SWAP2 POP PUSH1 0x20 RETURNDATASIZE PUSH1 0x20 GT PUSH2 0x4AA JUMPI PUSH2 0x49B DUP2 DUP4 PUSH2 0xB6A JUMP JUMPDEST CODESIZE PUSH2 0x948 JUMP JUMPDEST CALLVALUE PUSH2 0x23D JUMPI PUSH1 0x20 CALLDATASIZE PUSH1 0x3 NOT ADD SLT PUSH2 0x23D JUMPI PUSH32 0x9EAA897564D022FB8C5EFAF0ACDB5D9D27B440B2AAD44400B6E1C702E65B9ED3 PUSH1 0x20 PUSH2 0x9C2 PUSH2 0x4C7 JUMP JUMPDEST PUSH2 0x9CA PUSH2 0x179D JUMP JUMPDEST PUSH1 0x1 PUSH1 0x1 PUSH1 0xA0 SHL SUB AND PUSH2 0x9DE DUP2 ISZERO ISZERO PUSH2 0x13E6 JUMP JUMPDEST PUSH1 0x3 DUP1 SLOAD PUSH1 0x1 PUSH1 0x1 PUSH1 0xA0 SHL SUB NOT AND DUP3 OR SWAP1 SSTORE PUSH1 0x40 MLOAD SWAP1 DUP2 MSTORE LOG1 STOP JUMPDEST CALLVALUE PUSH2 0x23D JUMPI PUSH1 0x60 CALLDATASIZE PUSH1 0x3 NOT ADD SLT PUSH2 0x23D JUMPI PUSH32 0x827988AA1B695AB4719B95A49399FB75159954CC25D5B37C53CF23E8A6A58D36 PUSH1 0x4 CALLDATALOAD PUSH2 0xA36 PUSH2 0x4B1 JUMP JUMPDEST SWAP1 PUSH2 0xA8E PUSH1 0x44 CALLDATALOAD PUSH2 0xA45 PUSH2 0x179D JUMP JUMPDEST PUSH1 0x6 DUP1 SLOAD PUSH1 0x1 PUSH1 0x1 PUSH1 0xA0 SHL SUB NOT AND PUSH1 0x1 PUSH1 0x1 PUSH1 0xA0 SHL SUB SWAP6 SWAP1 SWAP6 AND SWAP5 DUP6 OR SWAP1 SSTORE PUSH1 0x5 DUP4 SWAP1 SSTORE PUSH1 0x7 DUP2 SWAP1 SSTORE PUSH1 0x40 DUP1 MLOAD SWAP4 DUP5 MSTORE PUSH1 0x20 DUP5 ADD SWAP5 SWAP1 SWAP5 MSTORE SWAP3 DUP3 ADD SWAP3 SWAP1 SWAP3 MSTORE SWAP1 DUP2 SWAP1 PUSH1 0x60 DUP3 ADD SWAP1 JUMP JUMPDEST SUB SWAP1 LOG1 STOP JUMPDEST CALLVALUE PUSH2 0x23D JUMPI PUSH1 0x20 CALLDATASIZE PUSH1 0x3 NOT ADD SLT PUSH2 0x23D JUMPI PUSH32 0x9C421F75C1B2CD6CDF5BD68AE0986AD4518D273A5C59745AC6454392B0B709A5 PUSH1 0x20 PUSH2 0xACF PUSH2 0x4C7 JUMP JUMPDEST PUSH2 0xAD7 PUSH2 0x179D JUMP JUMPDEST PUSH1 0x1 PUSH1 0x1 PUSH1 0xA0 SHL SUB AND PUSH2 0xAEB DUP2 ISZERO ISZERO PUSH2 0x13E6 JUMP JUMPDEST PUSH1 0x2 DUP1 SLOAD PUSH1 0x1 PUSH1 0x1 PUSH1 0xA0 SHL SUB NOT AND DUP3 OR SWAP1 SSTORE PUSH1 0x40 MLOAD SWAP1 DUP2 MSTORE LOG1 STOP JUMPDEST CALLVALUE PUSH2 0x23D JUMPI PUSH1 0x0 CALLDATASIZE PUSH1 0x3 NOT ADD SLT PUSH2 0x23D JUMPI PUSH1 0x20 PUSH1 0x40 MLOAD PUSH2 0x2710 DUP2 MSTORE RETURN JUMPDEST CALLVALUE PUSH2 0x23D JUMPI PUSH1 0x40 CALLDATASIZE PUSH1 0x3 NOT ADD SLT PUSH2 0x23D JUMPI PUSH1 0x20 PUSH2 0xB4A PUSH2 0xB41 PUSH2 0x4C7 JUMP JUMPDEST PUSH1 0x24 CALLDATALOAD SWAP1 PUSH2 0x1432 JUMP JUMPDEST PUSH1 0x40 MLOAD SWAP1 ISZERO ISZERO DUP2 MSTORE RETURN JUMPDEST PUSH4 0x4E487B71 PUSH1 0xE0 SHL PUSH1 0x0 MSTORE PUSH1 0x41 PUSH1 0x4 MSTORE PUSH1 0x24 PUSH1 0x0 REVERT JUMPDEST SWAP1 PUSH1 0x1F DUP1 NOT SWAP2 ADD AND DUP2 ADD SWAP1 DUP2 LT PUSH8 0xFFFFFFFFFFFFFFFF DUP3 GT OR PUSH2 0xB8C JUMPI PUSH1 0x40 MSTORE JUMP JUMPDEST PUSH2 0xB54 JUMP JUMPDEST CALLVALUE PUSH2 0x23D JUMPI PUSH1 0x20 CALLDATASIZE PUSH1 0x3 NOT ADD SLT PUSH2 0x23D JUMPI PUSH1 0x4 CALLDATALOAD PUSH8 0xFFFFFFFFFFFFFFFF DUP2 GT PUSH2 0x23D JUMPI CALLDATASIZE PUSH1 0x23 DUP3 ADD SLT ISZERO PUSH2 0x23D JUMPI DUP1 PUSH1 0x4 ADD CALLDATALOAD PUSH8 0xFFFFFFFFFFFFFFFF DUP2 GT PUSH2 0xB8C JUMPI PUSH1 0x40 MLOAD SWAP1 PUSH2 0xBEB PUSH1 0x1F DUP3 ADD PUSH1 0x1F NOT AND PUSH1 0x20 ADD DUP4 PUSH2 0xB6A JUMP JUMPDEST DUP1 DUP3 MSTORE CALLDATASIZE PUSH1 0x24 DUP3 DUP6 ADD ADD GT PUSH2 0x23D JUMPI PUSH1 0x20 DUP2 PUSH1 0x0 SWAP3 PUSH1 0x24 PUSH2 0x3BD SWAP7 ADD DUP4 DUP7 ADD CALLDATACOPY DUP4 ADD ADD MSTORE PUSH2 0x14F1 JUMP JUMPDEST CALLVALUE PUSH2 0x23D JUMPI PUSH1 0x40 CALLDATASIZE PUSH1 0x3 NOT ADD SLT PUSH2 0x23D JUMPI PUSH2 0x3BD PUSH1 0x4 CALLDATALOAD PUSH2 0xC33 PUSH2 0x4B1 JUMP JUMPDEST SWAP1 PUSH2 0xC3C PUSH2 0x179D JUMP JUMPDEST DUP1 ISZERO ISZERO DUP1 PUSH2 0xC8B JUMPI JUMPDEST PUSH2 0xC4E SWAP1 PUSH2 0x135E JUMP JUMPDEST PUSH2 0xC62 PUSH1 0x1 PUSH1 0x1 PUSH1 0xA0 SHL SUB DUP4 AND ISZERO ISZERO PUSH2 0x13E6 JUMP JUMPDEST PUSH1 0x0 MSTORE PUSH1 0x8 PUSH1 0x20 MSTORE PUSH1 0x40 PUSH1 0x0 KECCAK256 SWAP1 PUSH1 0x1 DUP1 PUSH1 0xA0 SHL SUB AND PUSH1 0x1 PUSH1 0x1 PUSH1 0x60 SHL SUB PUSH1 0xA0 SHL DUP3 SLOAD AND OR SWAP1 SSTORE JUMP JUMPDEST POP PUSH1 0x1 SLOAD DUP2 GT ISZERO PUSH2 0xC45 JUMP JUMPDEST CALLVALUE PUSH2 0x23D JUMPI PUSH1 0x0 CALLDATASIZE PUSH1 0x3 NOT ADD SLT PUSH2 0x23D JUMPI PUSH1 0x20 PUSH1 0xFF PUSH1 0x9 SLOAD AND PUSH1 0x40 MLOAD SWAP1 ISZERO ISZERO DUP2 MSTORE RETURN JUMPDEST CALLVALUE PUSH2 0x23D JUMPI PUSH1 0x40 CALLDATASIZE PUSH1 0x3 NOT ADD SLT PUSH2 0x23D JUMPI PUSH1 0x20 PUSH1 0xFF PUSH2 0xD0E PUSH1 0x4 CALLDATALOAD PUSH2 0xCDD PUSH2 0x4B1 JUMP JUMPDEST SWAP1 PUSH1 0x0 MSTORE PUSH1 0x0 DUP1 MLOAD PUSH1 0x20 PUSH2 0x1C63 DUP4 CODECOPY DUP2 MLOAD SWAP2 MSTORE DUP5 MSTORE PUSH1 0x40 PUSH1 0x0 KECCAK256 SWAP1 PUSH1 0x1 DUP1 PUSH1 0xA0 SHL SUB AND PUSH1 0x0 MSTORE PUSH1 0x20 MSTORE PUSH1 0x40 PUSH1 0x0 KECCAK256 SWAP1 JUMP JUMPDEST SLOAD AND PUSH1 0x40 MLOAD SWAP1 ISZERO ISZERO DUP2 MSTORE RETURN JUMPDEST PUSH1 0x20 CALLDATASIZE PUSH1 0x3 NOT ADD SLT PUSH2 0x23D JUMPI PUSH1 0x4 CALLDATALOAD PUSH2 0xD31 PUSH2 0x177B JUMP JUMPDEST PUSH2 0xD3F PUSH1 0x1 SLOAD DUP3 GT ISZERO PUSH2 0x135E JUMP JUMPDEST PUSH1 0x2 SLOAD PUSH2 0xD54 SWAP1 PUSH1 0x1 PUSH1 0x1 PUSH1 0xA0 SHL SUB AND PUSH2 0x284 JUMP JUMPDEST PUSH1 0x40 MLOAD PUSH4 0xB9186D7D PUSH1 0xE0 SHL DUP2 MSTORE PUSH1 0x4 DUP2 ADD DUP4 SWAP1 MSTORE SWAP1 PUSH1 0x20 DUP3 PUSH1 0x24 DUP2 DUP5 GAS STATICCALL SWAP2 DUP3 ISZERO PUSH2 0x3FC JUMPI PUSH1 0x0 SWAP3 PUSH2 0xEF3 JUMPI JUMPDEST POP PUSH2 0xD91 PUSH2 0x2D8 PUSH1 0x5 SLOAD DUP5 PUSH2 0x1339 JUMP JUMPDEST SWAP1 PUSH2 0xD9F PUSH2 0x581 DUP4 DUP6 PUSH2 0x13B8 JUMP JUMPDEST DUP1 EXTCODESIZE ISZERO PUSH2 0x23D JUMPI PUSH1 0x40 MLOAD PUSH4 0x731133E9 PUSH1 0xE0 SHL DUP2 MSTORE CALLER PUSH1 0x4 DUP3 ADD MSTORE PUSH1 0x24 DUP2 ADD DUP6 SWAP1 MSTORE PUSH1 0x1 PUSH1 0x44 DUP3 ADD MSTORE PUSH1 0x80 PUSH1 0x64 DUP3 ADD MSTORE PUSH1 0x0 PUSH1 0x84 DUP3 ADD DUP2 SWAP1 MSTORE SWAP1 SWAP2 DUP3 SWAP1 PUSH1 0xA4 SWAP1 DUP3 SWAP1 DUP5 SWAP1 GAS CALL DUP1 ISZERO PUSH2 0x3FC JUMPI PUSH2 0xEDE JUMPI JUMPDEST POP PUSH2 0xDFF PUSH2 0x2D8 PUSH1 0x7 SLOAD DUP5 PUSH2 0x1339 JUMP JUMPDEST DUP1 DUP1 ISZERO DUP1 ISZERO PUSH2 0xE9C JUMPI JUMPDEST POP POP PUSH1 0x6 SLOAD PUSH1 0x1 PUSH1 0x1 PUSH1 0xA0 SHL SUB AND DUP1 PUSH2 0xE5C JUMPI JUMPDEST PUSH1 0x40 DUP1 MLOAD DUP7 DUP2 MSTORE CALLER PUSH1 0x20 DUP3 ADD MSTORE SWAP1 DUP2 ADD DUP6 SWAP1 MSTORE PUSH32 0xCED28EA7EF5F4276044389E457757E3F21CA4368040C3B864E3890BCD56A9988 SWAP1 DUP1 PUSH1 0x60 DUP2 ADD PUSH2 0x3B0 JUMP JUMPDEST PUSH1 0x0 SWAP3 DUP4 SWAP3 DUP4 SWAP3 DUP4 SWAP3 SWAP2 PUSH2 0xE7C SWAP2 PUSH2 0x3DF SWAP1 PUSH1 0x1 PUSH1 0x1 PUSH1 0xA0 SHL SUB AND PUSH2 0x284 JUMP JUMPDEST SWAP1 DUP3 DUP3 ISZERO PUSH2 0xE93 JUMPI JUMPDEST CALL ISZERO PUSH2 0x3FC JUMPI CODESIZE DUP1 DUP1 PUSH2 0xE1D JUMP JUMPDEST POP PUSH2 0x8FC PUSH2 0xE85 JUMP JUMPDEST PUSH1 0x0 DUP1 DUP1 SWAP4 DUP2 SWAP4 PUSH2 0xEC0 PUSH2 0x284 PUSH2 0x284 PUSH2 0x42E DUP14 PUSH1 0x0 MSTORE PUSH1 0x8 PUSH1 0x20 MSTORE PUSH1 0x40 PUSH1 0x0 KECCAK256 SWAP1 JUMP JUMPDEST SWAP1 DUP4 SWAP1 PUSH2 0xED5 JUMPI JUMPDEST CALL ISZERO PUSH2 0x3FC JUMPI DUP1 CODESIZE PUSH2 0xE09 JUMP JUMPDEST POP PUSH2 0x8FC PUSH2 0xEC8 JUMP JUMPDEST DUP1 PUSH2 0x470 PUSH1 0x0 PUSH2 0xEED SWAP4 PUSH2 0xB6A JUMP JUMPDEST CODESIZE PUSH2 0xDEF JUMP JUMPDEST PUSH2 0xF0D SWAP2 SWAP3 POP PUSH1 0x20 RETURNDATASIZE PUSH1 0x20 GT PUSH2 0x4AA JUMPI PUSH2 0x49B DUP2 DUP4 PUSH2 0xB6A JUMP JUMPDEST SWAP1 CODESIZE PUSH2 0xD81 JUMP JUMPDEST CALLVALUE PUSH2 0x23D JUMPI PUSH1 0x0 CALLDATASIZE PUSH1 0x3 NOT ADD SLT PUSH2 0x23D JUMPI PUSH1 0x20 PUSH1 0x40 MLOAD PUSH1 0x0 DUP2 MSTORE RETURN JUMPDEST CALLVALUE PUSH2 0x23D JUMPI PUSH1 0x20 CALLDATASIZE PUSH1 0x3 NOT ADD SLT PUSH2 0x23D JUMPI PUSH1 0x4 CALLDATALOAD DUP1 ISZERO DUP1 ISZERO DUP1 SWAP3 SUB PUSH2 0x23D JUMPI PUSH2 0xF57 PUSH2 0x179D JUMP JUMPDEST PUSH1 0x9 SLOAD SWAP2 PUSH1 0xFF DUP4 AND ISZERO ISZERO EQ PUSH2 0xF77 JUMPI PUSH1 0xFF AND SWAP1 PUSH1 0xFF NOT AND OR PUSH1 0x9 SSTORE PUSH1 0x0 DUP1 RETURN JUMPDEST PUSH1 0x40 MLOAD PUSH3 0x461BCD PUSH1 0xE5 SHL DUP2 MSTORE PUSH1 0x20 PUSH1 0x4 DUP3 ADD MSTORE PUSH1 0x18 PUSH1 0x24 DUP3 ADD MSTORE PUSH32 0x444D54505F544543485F434F4E4649475F4841535F5345540000000000000000 PUSH1 0x44 DUP3 ADD MSTORE PUSH1 0x64 SWAP1 REVERT JUMPDEST CALLVALUE PUSH2 0x23D JUMPI PUSH1 0x20 CALLDATASIZE PUSH1 0x3 NOT ADD SLT PUSH2 0x23D JUMPI PUSH1 0x4 CALLDATALOAD PUSH1 0x0 MSTORE PUSH1 0x8 PUSH1 0x20 MSTORE PUSH1 0x20 PUSH1 0x1 DUP1 PUSH1 0xA0 SHL SUB PUSH1 0x40 PUSH1 0x0 KECCAK256 SLOAD AND PUSH1 0x40 MLOAD SWAP1 DUP2 MSTORE RETURN JUMPDEST CALLVALUE PUSH2 0x23D JUMPI PUSH1 0x0 CALLDATASIZE PUSH1 0x3 NOT ADD SLT PUSH2 0x23D JUMPI PUSH1 0x20 PUSH1 0x40 MLOAD PUSH32 0x9F2DF0FED2C77648DE5860A4CC508CD0818C85B8B8A1AB4CEEEF8D981C8956A6 DUP2 MSTORE RETURN JUMPDEST CALLVALUE PUSH2 0x23D JUMPI PUSH1 0x40 CALLDATASIZE PUSH1 0x3 NOT ADD SLT PUSH2 0x23D JUMPI PUSH2 0x3BD PUSH1 0x4 CALLDATALOAD PUSH2 0x104A PUSH2 0x4B1 JUMP JUMPDEST SWAP1 PUSH2 0x1057 PUSH2 0x79A DUP3 PUSH2 0x13C5 JUMP JUMPDEST PUSH2 0x1A90 JUMP JUMPDEST CALLVALUE PUSH2 0x23D JUMPI PUSH1 0x0 CALLDATASIZE PUSH1 0x3 NOT ADD SLT PUSH2 0x23D JUMPI PUSH1 0x5 SLOAD PUSH1 0x6 SLOAD PUSH1 0x7 SLOAD PUSH1 0x40 DUP1 MLOAD SWAP4 DUP5 MSTORE PUSH1 0x1 PUSH1 0x1 PUSH1 0xA0 SHL SUB SWAP1 SWAP3 AND PUSH1 0x20 DUP5 ADD MSTORE SWAP1 DUP3 ADD MSTORE PUSH1 0x60 SWAP1 RETURN JUMPDEST CALLVALUE PUSH2 0x23D JUMPI PUSH1 0x0 CALLDATASIZE PUSH1 0x3 NOT ADD SLT PUSH2 0x23D JUMPI PUSH1 0x20 PUSH1 0x40 MLOAD PUSH32 0x97667070C54EF182B0F5858B034BEAC1B6F3089AA2D3188BB1E8929F4FA9B929 DUP2 MSTORE RETURN JUMPDEST CALLVALUE PUSH2 0x23D JUMPI PUSH1 0xA0 CALLDATASIZE PUSH1 0x3 NOT ADD SLT PUSH2 0x23D JUMPI PUSH2 0x10EA PUSH2 0x4C7 JUMP JUMPDEST PUSH2 0x10F2 PUSH2 0x4B1 JUMP JUMPDEST SWAP1 PUSH1 0x44 CALLDATALOAD PUSH2 0x10FE PUSH2 0x4DD JUMP JUMPDEST PUSH1 0x84 CALLDATALOAD SWAP2 PUSH1 0x0 DUP1 MLOAD PUSH1 0x20 PUSH2 0x1C83 DUP4 CODECOPY DUP2 MLOAD SWAP2 MSTORE SLOAD SWAP5 PUSH8 0xFFFFFFFFFFFFFFFF PUSH2 0x1142 PUSH2 0x1134 PUSH2 0x1130 DUP10 PUSH1 0xFF SWAP1 PUSH1 0x40 SHR AND SWAP1 JUMP JUMPDEST ISZERO SWAP1 JUMP JUMPDEST SWAP8 PUSH8 0xFFFFFFFFFFFFFFFF AND SWAP1 JUMP JUMPDEST AND DUP1 ISZERO SWAP1 DUP2 PUSH2 0x1269 JUMPI JUMPDEST PUSH1 0x1 EQ SWAP1 DUP2 PUSH2 0x125F JUMPI JUMPDEST ISZERO SWAP1 DUP2 PUSH2 0x1256 JUMPI JUMPDEST POP PUSH2 0x1245 JUMPI PUSH2 0x11A4 SWAP5 DUP7 PUSH2 0x119B PUSH1 0x1 PUSH8 0xFFFFFFFFFFFFFFFF NOT PUSH1 0x0 DUP1 MLOAD PUSH1 0x20 PUSH2 0x1C83 DUP4 CODECOPY DUP2 MLOAD SWAP2 MSTORE SLOAD AND OR PUSH1 0x0 DUP1 MLOAD PUSH1 0x20 PUSH2 0x1C83 DUP4 CODECOPY DUP2 MLOAD SWAP2 MSTORE SSTORE JUMP JUMPDEST PUSH2 0x1209 JUMPI PUSH2 0x1BC1 JUMP JUMPDEST PUSH2 0x11AA JUMPI STOP JUMPDEST PUSH2 0x11D6 PUSH1 0xFF PUSH1 0x40 SHL NOT PUSH1 0x0 DUP1 MLOAD PUSH1 0x20 PUSH2 0x1C83 DUP4 CODECOPY DUP2 MLOAD SWAP2 MSTORE SLOAD AND PUSH1 0x0 DUP1 MLOAD PUSH1 0x20 PUSH2 0x1C83 DUP4 CODECOPY DUP2 MLOAD SWAP2 MSTORE SSTORE JUMP JUMPDEST PUSH1 0x40 MLOAD PUSH1 0x1 DUP2 MSTORE PUSH32 0xC7F505B2F371AE2175EE4913F4499E1F2633A7B5936321EED1CDAEB6115181D2 SWAP1 DUP1 PUSH1 0x20 DUP2 ADD PUSH2 0xA8E JUMP JUMPDEST PUSH2 0x1240 PUSH9 0x10000000000000000 PUSH1 0xFF PUSH1 0x40 SHL NOT PUSH1 0x0 DUP1 MLOAD PUSH1 0x20 PUSH2 0x1C83 DUP4 CODECOPY DUP2 MLOAD SWAP2 MSTORE SLOAD AND OR PUSH1 0x0 DUP1 MLOAD PUSH1 0x20 PUSH2 0x1C83 DUP4 CODECOPY DUP2 MLOAD SWAP2 MSTORE SSTORE JUMP JUMPDEST PUSH2 0x1BC1 JUMP JUMPDEST PUSH4 0xF92EE8A9 PUSH1 0xE0 SHL PUSH1 0x0 MSTORE PUSH1 0x4 PUSH1 0x0 REVERT JUMPDEST SWAP1 POP ISZERO CODESIZE PUSH2 0x115E JUMP JUMPDEST ADDRESS EXTCODESIZE ISZERO SWAP2 POP PUSH2 0x1156 JUMP JUMPDEST DUP8 SWAP2 POP PUSH2 0x114C JUMP JUMPDEST ISZERO PUSH2 0x1278 JUMPI JUMP JUMPDEST PUSH1 0x64 PUSH1 0x40 MLOAD PUSH3 0x461BCD PUSH1 0xE5 SHL DUP2 MSTORE PUSH1 0x20 PUSH1 0x4 DUP3 ADD MSTORE PUSH1 0x20 PUSH1 0x24 DUP3 ADD MSTORE PUSH32 0x444D54505F544543485F4E4F545F414C4C4F575F544F5F53454C4C5F4B455953 PUSH1 0x44 DUP3 ADD MSTORE REVERT JUMPDEST SWAP1 DUP2 PUSH1 0x20 SWAP2 SUB SLT PUSH2 0x23D JUMPI MLOAD SWAP1 JUMP JUMPDEST PUSH1 0x40 MLOAD RETURNDATASIZE PUSH1 0x0 DUP3 RETURNDATACOPY RETURNDATASIZE SWAP1 REVERT JUMPDEST ISZERO PUSH2 0x12DE JUMPI JUMP JUMPDEST PUSH1 0x40 MLOAD PUSH3 0x461BCD PUSH1 0xE5 SHL DUP2 MSTORE PUSH1 0x20 PUSH1 0x4 DUP3 ADD MSTORE PUSH1 0x17 PUSH1 0x24 DUP3 ADD MSTORE PUSH32 0x444D54505F544543485F50524943455F4348414E474544000000000000000000 PUSH1 0x44 DUP3 ADD MSTORE PUSH1 0x64 SWAP1 REVERT JUMPDEST PUSH4 0x4E487B71 PUSH1 0xE0 SHL PUSH1 0x0 MSTORE PUSH1 0x11 PUSH1 0x4 MSTORE PUSH1 0x24 PUSH1 0x0 REVERT JUMPDEST DUP2 DUP2 MUL SWAP3 SWAP2 DUP2 ISZERO SWAP2 DUP5 DIV EQ OR ISZERO PUSH2 0x134C JUMPI JUMP JUMPDEST PUSH2 0x1323 JUMP JUMPDEST SWAP2 SWAP1 DUP3 SUB SWAP2 DUP3 GT PUSH2 0x134C JUMPI JUMP JUMPDEST ISZERO PUSH2 0x1365 JUMPI JUMP JUMPDEST PUSH1 0x40 MLOAD PUSH3 0x461BCD PUSH1 0xE5 SHL DUP2 MSTORE PUSH1 0x20 PUSH1 0x4 DUP3 ADD MSTORE PUSH1 0x1B PUSH1 0x24 DUP3 ADD MSTORE PUSH32 0x444D54505F544543485F504152414D5F4B45595F494E56414C49440000000000 PUSH1 0x44 DUP3 ADD MSTORE PUSH1 0x64 SWAP1 REVERT JUMPDEST SWAP1 PUSH1 0x1 DUP3 ADD DUP1 SWAP3 GT PUSH2 0x134C JUMPI JUMP JUMPDEST SWAP2 SWAP1 DUP3 ADD DUP1 SWAP3 GT PUSH2 0x134C JUMPI JUMP JUMPDEST PUSH1 0x0 MSTORE PUSH1 0x0 DUP1 MLOAD PUSH1 0x20 PUSH2 0x1C63 DUP4 CODECOPY DUP2 MLOAD SWAP2 MSTORE PUSH1 0x20 MSTORE PUSH1 0x1 PUSH1 0x40 PUSH1 0x0 KECCAK256 ADD SLOAD SWAP1 JUMP JUMPDEST ISZERO PUSH2 0x13ED JUMPI JUMP JUMPDEST PUSH1 0x40 MLOAD PUSH3 0x461BCD PUSH1 0xE5 SHL DUP2 MSTORE PUSH1 0x20 PUSH1 0x4 DUP3 ADD MSTORE PUSH1 0x1F PUSH1 0x24 DUP3 ADD MSTORE PUSH32 0x444D54505F544543485F504152414D5F414444524553535F494E56414C494400 PUSH1 0x44 DUP3 ADD MSTORE PUSH1 0x64 SWAP1 REVERT JUMPDEST PUSH1 0x1 PUSH1 0x1 PUSH1 0xA0 SHL SUB DUP2 AND PUSH1 0x0 SWAP1 DUP2 MSTORE PUSH1 0x4 PUSH1 0x20 MSTORE PUSH1 0x40 SWAP1 KECCAK256 DUP3 SWAP1 SLOAD SUB PUSH2 0x14EA JUMPI PUSH2 0x14A6 SWAP2 PUSH1 0x20 SWAP2 PUSH2 0x1473 PUSH2 0x284 PUSH2 0x284 PUSH2 0x284 PUSH1 0x2 SLOAD PUSH1 0x1 DUP1 PUSH1 0xA0 SHL SUB AND SWAP1 JUMP JUMPDEST PUSH1 0x40 MLOAD PUSH3 0x7EEAC7 PUSH1 0xE1 SHL DUP2 MSTORE PUSH1 0x1 PUSH1 0x1 PUSH1 0xA0 SHL SUB SWAP1 SWAP3 AND PUSH1 0x4 DUP4 ADD MSTORE PUSH1 0x24 DUP3 ADD SWAP3 SWAP1 SWAP3 MSTORE SWAP3 DUP4 SWAP2 SWAP1 DUP3 SWAP1 DUP2 SWAP1 PUSH1 0x44 DUP3 ADD SWAP1 JUMP JUMPDEST SUB SWAP2 GAS STATICCALL DUP1 ISZERO PUSH2 0x3FC JUMPI PUSH1 0x1 SWAP2 PUSH1 0x0 SWAP2 PUSH2 0x14CB JUMPI JUMPDEST POP GT PUSH2 0x14C6 JUMPI PUSH1 0x0 SWAP1 JUMP JUMPDEST PUSH1 0x1 SWAP1 JUMP JUMPDEST PUSH2 0x14E4 SWAP2 POP PUSH1 0x20 RETURNDATASIZE PUSH1 0x20 GT PUSH2 0x4AA JUMPI PUSH2 0x49B DUP2 DUP4 PUSH2 0xB6A JUMP JUMPDEST CODESIZE PUSH2 0x14BB JUMP JUMPDEST POP POP PUSH1 0x1 SWAP1 JUMP JUMPDEST PUSH2 0x14F9 PUSH2 0x177B JUMP JUMPDEST CALLER PUSH1 0x0 SWAP1 DUP2 MSTORE PUSH1 0x4 PUSH1 0x20 MSTORE PUSH1 0x40 SWAP1 KECCAK256 PUSH2 0x1513 SWAP1 SLOAD ISZERO PUSH2 0x16D9 JUMP JUMPDEST PUSH1 0x9 SLOAD PUSH1 0xFF AND PUSH2 0x1644 JUMPI JUMPDEST POP PUSH2 0x152A PUSH1 0x1 SLOAD PUSH2 0x13AA JUMP JUMPDEST PUSH1 0x2 SLOAD PUSH2 0x153F SWAP1 PUSH1 0x1 PUSH1 0x1 PUSH1 0xA0 SHL SUB AND PUSH2 0x284 JUMP JUMPDEST SWAP1 DUP2 EXTCODESIZE ISZERO PUSH2 0x23D JUMPI PUSH1 0x40 MLOAD PUSH4 0x731133E9 PUSH1 0xE0 SHL DUP2 MSTORE CALLER PUSH1 0x4 DUP3 ADD MSTORE PUSH1 0x24 DUP2 ADD DUP3 SWAP1 MSTORE PUSH1 0x1 PUSH1 0x44 DUP3 ADD MSTORE PUSH1 0x80 PUSH1 0x64 DUP3 ADD MSTORE PUSH1 0x0 PUSH1 0x84 DUP3 ADD DUP2 SWAP1 MSTORE SWAP1 SWAP3 DUP4 SWAP1 PUSH1 0xA4 SWAP1 DUP3 SWAP1 DUP5 SWAP1 GAS CALL SWAP1 DUP2 ISZERO PUSH2 0x3FC JUMPI PUSH32 0x21F36F1CE7FE044293979690E893402C51515F757AA4E48B13BCFB269A9B6410 SWAP3 PUSH2 0x1620 SWAP3 PUSH2 0x162F JUMPI JUMPDEST POP PUSH2 0x15C1 DUP2 PUSH1 0x1 SSTORE JUMP JUMPDEST CALLER PUSH1 0x0 SWAP1 DUP2 MSTORE PUSH1 0x4 PUSH1 0x20 MSTORE PUSH1 0x40 SWAP1 KECCAK256 DUP2 SWAP1 SSTORE PUSH2 0x160A CALLER PUSH2 0x15EB DUP4 PUSH1 0x0 MSTORE PUSH1 0x8 PUSH1 0x20 MSTORE PUSH1 0x40 PUSH1 0x0 KECCAK256 SWAP1 JUMP JUMPDEST DUP1 SLOAD PUSH1 0x1 PUSH1 0x1 PUSH1 0xA0 SHL SUB NOT AND PUSH1 0x1 PUSH1 0x1 PUSH1 0xA0 SHL SUB SWAP1 SWAP3 AND SWAP2 SWAP1 SWAP2 OR SWAP1 SSTORE JUMP JUMPDEST PUSH1 0x40 DUP1 MLOAD SWAP2 DUP3 MSTORE CALLER PUSH1 0x20 DUP4 ADD MSTORE SWAP1 SWAP2 DUP3 SWAP2 DUP3 ADD SWAP1 JUMP JUMPDEST SUB SWAP1 LOG1 PUSH2 0x162D PUSH1 0x1 PUSH1 0x0 SSTORE JUMP JUMPDEST JUMP JUMPDEST DUP1 PUSH2 0x470 PUSH1 0x0 PUSH2 0x163E SWAP4 PUSH2 0xB6A JUMP JUMPDEST CODESIZE PUSH2 0x15B7 JUMP JUMPDEST PUSH2 0x16AD PUSH2 0x16D3 SWAP2 PUSH2 0x16A8 PUSH1 0x40 MLOAD PUSH1 0x20 DUP2 ADD SWAP1 PUSH2 0x16A0 DUP2 PUSH2 0x1692 ADDRESS CHAINID CALLER DUP8 SWAP2 PUSH1 0x48 SWAP4 SWAP2 PUSH1 0x1 PUSH1 0x1 PUSH1 0x60 SHL SUB NOT SWAP1 PUSH1 0x60 SHL AND DUP4 MSTORE PUSH1 0x14 DUP4 ADD MSTORE PUSH1 0x1 PUSH1 0x1 PUSH1 0x60 SHL SUB NOT SWAP1 PUSH1 0x60 SHL AND PUSH1 0x34 DUP3 ADD MSTORE ADD SWAP1 JUMP JUMPDEST SUB PUSH1 0x1F NOT DUP2 ADD DUP4 MSTORE DUP3 PUSH2 0xB6A JUMP JUMPDEST MLOAD SWAP1 KECCAK256 PUSH2 0x1B35 JUMP JUMPDEST PUSH2 0x1B7A JUMP JUMPDEST PUSH1 0x3 SLOAD PUSH2 0x16C2 SWAP1 PUSH1 0x1 PUSH1 0x1 PUSH1 0xA0 SHL SUB AND PUSH2 0x284 JUMP JUMPDEST PUSH1 0x1 PUSH1 0x1 PUSH1 0xA0 SHL SUB SWAP1 SWAP2 AND EQ PUSH2 0x1725 JUMP JUMPDEST CODESIZE PUSH2 0x151E JUMP JUMPDEST ISZERO PUSH2 0x16E0 JUMPI JUMP JUMPDEST PUSH1 0x40 MLOAD PUSH3 0x461BCD PUSH1 0xE5 SHL DUP2 MSTORE PUSH1 0x20 PUSH1 0x4 DUP3 ADD MSTORE PUSH1 0x1C PUSH1 0x24 DUP3 ADD MSTORE PUSH32 0x444D54505F544543485F414C52454144595F4953535545445F4B455900000000 PUSH1 0x44 DUP3 ADD MSTORE PUSH1 0x64 SWAP1 REVERT JUMPDEST ISZERO PUSH2 0x172C JUMPI JUMP JUMPDEST PUSH1 0x40 MLOAD PUSH3 0x461BCD PUSH1 0xE5 SHL DUP2 MSTORE PUSH1 0x20 PUSH1 0x4 DUP3 ADD MSTORE PUSH1 0x21 PUSH1 0x24 DUP3 ADD MSTORE PUSH32 0x444D54505F544543485F504152414D5F5349474E41545552455F494E56414C49 PUSH1 0x44 DUP3 ADD MSTORE PUSH1 0x11 PUSH1 0xFA SHL PUSH1 0x64 DUP3 ADD MSTORE PUSH1 0x84 SWAP1 REVERT JUMPDEST PUSH1 0x2 PUSH1 0x0 SLOAD EQ PUSH2 0x178C JUMPI PUSH1 0x2 PUSH1 0x0 SSTORE JUMP JUMPDEST PUSH4 0x3EE5AEB5 PUSH1 0xE0 SHL PUSH1 0x0 MSTORE PUSH1 0x4 PUSH1 0x0 REVERT JUMPDEST CALLER PUSH1 0x0 SWAP1 DUP2 MSTORE PUSH32 0x448256DB8F8FB95EE3EAAF89C1051414494E85CEBB6057FCF996CC3D0CCFB456 PUSH1 0x20 MSTORE PUSH1 0x40 SWAP1 KECCAK256 SLOAD PUSH1 0xFF AND ISZERO PUSH2 0x17D6 JUMPI JUMP JUMPDEST PUSH4 0xE2517D3F PUSH1 0xE0 SHL PUSH1 0x0 MSTORE CALLER PUSH1 0x4 MSTORE PUSH32 0x97667070C54EF182B0F5858B034BEAC1B6F3089AA2D3188BB1E8929F4FA9B929 PUSH1 0x24 MSTORE PUSH1 0x44 PUSH1 0x0 REVERT JUMPDEST PUSH1 0x0 DUP2 DUP2 MSTORE PUSH1 0x0 DUP1 MLOAD PUSH1 0x20 PUSH2 0x1C63 DUP4 CODECOPY DUP2 MLOAD SWAP2 MSTORE PUSH1 0x20 SWAP1 DUP2 MSTORE PUSH1 0x40 DUP1 DUP4 KECCAK256 CALLER DUP5 MSTORE SWAP1 SWAP2 MSTORE SWAP1 KECCAK256 SLOAD PUSH1 0xFF AND ISZERO PUSH2 0x1841 JUMPI POP JUMP JUMPDEST PUSH4 0xE2517D3F PUSH1 0xE0 SHL PUSH1 0x0 MSTORE CALLER PUSH1 0x4 MSTORE PUSH1 0x24 MSTORE PUSH1 0x44 PUSH1 0x0 REVERT JUMPDEST PUSH1 0x1 PUSH1 0x1 PUSH1 0xA0 SHL SUB DUP2 AND PUSH1 0x0 SWAP1 DUP2 MSTORE PUSH32 0xB7DB2DD08FCB62D0C9E08C51941CAE53C267786A0B75803FB7960902FC8EF97D PUSH1 0x20 MSTORE PUSH1 0x40 SWAP1 KECCAK256 SLOAD PUSH1 0xFF AND PUSH2 0x1905 JUMPI PUSH1 0x1 PUSH1 0x1 PUSH1 0xA0 SHL SUB AND PUSH1 0x0 DUP2 DUP2 MSTORE PUSH32 0xB7DB2DD08FCB62D0C9E08C51941CAE53C267786A0B75803FB7960902FC8EF97D PUSH1 0x20 MSTORE PUSH1 0x40 DUP2 KECCAK256 DUP1 SLOAD PUSH1 0xFF NOT AND PUSH1 0x1 OR SWAP1 SSTORE CALLER SWAP2 SWAP1 PUSH32 0x2F8788117E7EFF1D82E926EC794901D17C78024A50270940304540A733656F0D DUP2 DUP1 LOG4 PUSH1 0x1 SWAP1 JUMP JUMPDEST POP PUSH1 0x0 SWAP1 JUMP JUMPDEST PUSH1 0x1 PUSH1 0x1 PUSH1 0xA0 SHL SUB DUP2 AND PUSH1 0x0 SWAP1 DUP2 MSTORE PUSH32 0x448256DB8F8FB95EE3EAAF89C1051414494E85CEBB6057FCF996CC3D0CCFB456 PUSH1 0x20 MSTORE PUSH1 0x40 SWAP1 KECCAK256 SLOAD PUSH1 0xFF AND PUSH2 0x1905 JUMPI PUSH1 0x1 PUSH1 0x1 PUSH1 0xA0 SHL SUB DUP2 AND PUSH1 0x0 SWAP1 DUP2 MSTORE PUSH32 0x448256DB8F8FB95EE3EAAF89C1051414494E85CEBB6057FCF996CC3D0CCFB456 PUSH1 0x20 MSTORE PUSH1 0x40 SWAP1 KECCAK256 DUP1 SLOAD PUSH1 0xFF NOT AND PUSH1 0x1 OR SWAP1 SSTORE CALLER SWAP1 PUSH1 0x1 PUSH1 0x1 PUSH1 0xA0 SHL SUB AND PUSH32 0x97667070C54EF182B0F5858B034BEAC1B6F3089AA2D3188BB1E8929F4FA9B929 PUSH32 0x2F8788117E7EFF1D82E926EC794901D17C78024A50270940304540A733656F0D PUSH1 0x0 DUP1 LOG4 PUSH1 0x1 SWAP1 JUMP JUMPDEST PUSH1 0x0 DUP2 DUP2 MSTORE PUSH1 0x0 DUP1 MLOAD PUSH1 0x20 PUSH2 0x1C63 DUP4 CODECOPY DUP2 MLOAD SWAP2 MSTORE PUSH1 0x20 SWAP1 DUP2 MSTORE PUSH1 0x40 DUP1 DUP4 KECCAK256 PUSH1 0x1 PUSH1 0x1 PUSH1 0xA0 SHL SUB DUP7 AND DUP5 MSTORE SWAP1 SWAP2 MSTORE SWAP1 KECCAK256 SLOAD PUSH1 0xFF AND PUSH2 0x1A89 JUMPI PUSH1 0x0 DUP2 DUP2 MSTORE PUSH1 0x0 DUP1 MLOAD PUSH1 0x20 PUSH2 0x1C63 DUP4 CODECOPY DUP2 MLOAD SWAP2 MSTORE PUSH1 0x20 SWAP1 DUP2 MSTORE PUSH1 0x40 DUP1 DUP4 KECCAK256 PUSH1 0x1 PUSH1 0x1 PUSH1 0xA0 SHL SUB DUP7 AND DUP5 MSTORE SWAP1 SWAP2 MSTORE SWAP1 KECCAK256 DUP1 SLOAD PUSH1 0xFF NOT AND PUSH1 0x1 OR SWAP1 SSTORE CALLER SWAP2 PUSH1 0x1 PUSH1 0x1 PUSH1 0xA0 SHL SUB AND SWAP1 PUSH32 0x2F8788117E7EFF1D82E926EC794901D17C78024A50270940304540A733656F0D PUSH1 0x0 DUP1 LOG4 PUSH1 0x1 SWAP1 JUMP JUMPDEST POP POP PUSH1 0x0 SWAP1 JUMP JUMPDEST PUSH1 0x0 DUP2 DUP2 MSTORE PUSH1 0x0 DUP1 MLOAD PUSH1 0x20 PUSH2 0x1C63 DUP4 CODECOPY DUP2 MLOAD SWAP2 MSTORE PUSH1 0x20 SWAP1 DUP2 MSTORE PUSH1 0x40 DUP1 DUP4 KECCAK256 PUSH1 0x1 PUSH1 0x1 PUSH1 0xA0 SHL SUB DUP7 AND DUP5 MSTORE SWAP1 SWAP2 MSTORE SWAP1 KECCAK256 SLOAD PUSH1 0xFF AND ISZERO PUSH2 0x1A89 JUMPI PUSH1 0x0 DUP2 DUP2 MSTORE PUSH1 0x0 DUP1 MLOAD PUSH1 0x20 PUSH2 0x1C63 DUP4 CODECOPY DUP2 MLOAD SWAP2 MSTORE PUSH1 0x20 SWAP1 DUP2 MSTORE PUSH1 0x40 DUP1 DUP4 KECCAK256 PUSH1 0x1 PUSH1 0x1 PUSH1 0xA0 SHL SUB DUP7 AND DUP5 MSTORE SWAP1 SWAP2 MSTORE SWAP1 KECCAK256 DUP1 SLOAD PUSH1 0xFF NOT AND SWAP1 SSTORE CALLER SWAP2 PUSH1 0x1 PUSH1 0x1 PUSH1 0xA0 SHL SUB AND SWAP1 PUSH32 0xF6391F5C32D9C69D2A47EA670B442974B53935D1EDC7FD64EB21E047A839171B PUSH1 0x0 DUP1 LOG4 PUSH1 0x1 SWAP1 JUMP JUMPDEST PUSH1 0x40 MLOAD PUSH1 0x20 DUP2 ADD SWAP2 PUSH32 0x19457468657265756D205369676E6564204D6573736167653A0A333200000000 DUP4 MSTORE PUSH1 0x3C DUP3 ADD MSTORE PUSH1 0x3C DUP2 MSTORE PUSH2 0x1B74 PUSH1 0x5C DUP3 PUSH2 0xB6A JUMP JUMPDEST MLOAD SWAP1 KECCAK256 SWAP1 JUMP JUMPDEST PUSH1 0x41 DUP3 MLOAD SUB PUSH2 0x23D JUMPI PUSH1 0x80 PUSH1 0x0 SWAP2 DUP4 PUSH1 0x20 DUP1 SWAP6 ADD MLOAD PUSH1 0x60 PUSH1 0x40 DUP4 ADD MLOAD SWAP3 ADD MLOAD DUP6 BYTE PUSH1 0x40 MLOAD SWAP4 DUP5 MSTORE DUP7 DUP5 ADD MSTORE PUSH1 0x40 DUP4 ADD MSTORE PUSH1 0x60 DUP3 ADD MSTORE DUP3 DUP1 MSTORE PUSH1 0x1 GAS STATICCALL ISZERO PUSH2 0x3FC JUMPI PUSH1 0x0 MLOAD SWAP1 JUMP JUMPDEST SWAP4 SWAP3 SWAP2 SWAP1 PUSH1 0xFF PUSH1 0x0 DUP1 MLOAD PUSH1 0x20 PUSH2 0x1C83 DUP4 CODECOPY DUP2 MLOAD SWAP2 MSTORE SLOAD PUSH1 0x40 SHR AND ISZERO PUSH2 0x1C51 JUMPI PUSH2 0x162D SWAP5 PUSH1 0x1 DUP1 PUSH1 0xA0 SHL SUB AND PUSH1 0x1 PUSH1 0x1 PUSH1 0x60 SHL SUB PUSH1 0xA0 SHL PUSH1 0x2 SLOAD AND OR PUSH1 0x2 SSTORE PUSH2 0x1C08 CALLER PUSH2 0x1859 JUMP JUMPDEST POP PUSH2 0x1C12 CALLER PUSH2 0x190B JUMP JUMPDEST POP PUSH1 0x1 DUP1 PUSH1 0xA0 SHL SUB AND PUSH1 0x1 PUSH1 0x1 PUSH1 0x60 SHL SUB PUSH1 0xA0 SHL PUSH1 0x3 SLOAD AND OR PUSH1 0x3 SSTORE PUSH1 0x5 SSTORE PUSH1 0x1 DUP1 PUSH1 0xA0 SHL SUB AND PUSH1 0x1 PUSH1 0x1 PUSH1 0x60 SHL SUB PUSH1 0xA0 SHL PUSH1 0x6 SLOAD AND OR PUSH1 0x6 SSTORE PUSH1 0x7 SSTORE JUMP JUMPDEST PUSH4 0x1AFCD79F PUSH1 0xE3 SHL PUSH1 0x0 MSTORE PUSH1 0x4 PUSH1 0x0 REVERT INVALID MUL 0xDD PUSH28 0xC7DEC4DCEEDDA775E58DD541E08A116C6C53815C0BD028192F7B6268 STOP CREATE 0xC5 PUSH31 0x16840DF040F15088DC2F81FE391C3923BEC73E23A9662EFC9C229C6A00A164 PUSH20 0x6F6C634300081C000A0000000000000000000000 "},"methodIdentifiers":{"A_HUNDRED_PERCENT()":"81803632","DEFAULT_ADMIN_ROLE()":"a217fddf","MINTER_ROLE()":"d5391393","OPERATOR_ROLE()":"f5b541a6","allowToSellKey(address,uint256)":"882e9918","buyKey(uint256)":"9fef93f8","buyKeyFor(uint256,address)":"15534028","commission()":"e1489191","generateKey(bytes)":"8d5ea68b","generated(address)":"62bea295","getRoleAdmin(bytes32)":"248a9ca3","grantRole(bytes32,address)":"2f2ff15d","hasRole(bytes32,address)":"91d14854","initialize(address,address,uint256,address,uint256)":"f7c00e63","key()":"3943380c","keyGenerators(uint256)":"b77c0f00","needToCheckWhitelist()":"8fd7c568","priceWithCommission(uint256)":"5ba906c0","renounceRole(bytes32,address)":"36568abe","revokeRole(bytes32,address)":"d547741f","sellKey(uint256,uint256)":"0d54a882","sellPriceWithCommission(uint256)":"66c04491","setCommission(uint256,address,uint256)":"79894f96","setKeyContract(address)":"7d9edc96","setKeyGeneratos(uint256,address)":"8dc9330f","setNeedToCheckWhitelist(bool)":"b0afbfd2","setSigner(address)":"6c19e783","signer()":"238ac933","supportsInterface(bytes4)":"01ffc9a7"}},"storageLayout":{"storage":[{"astId":923,"contract":"contracts/DmtpTech.sol:DmtpTech","label":"_status","offset":0,"slot":"0","type":"t_uint256"},{"astId":1076,"contract":"contracts/DmtpTech.sol:DmtpTech","label":"_keyIdCounter","offset":0,"slot":"1","type":"t_uint256"},{"astId":1079,"contract":"contracts/DmtpTech.sol:DmtpTech","label":"key","offset":0,"slot":"2","type":"t_contract(IKey)1932"},{"astId":1081,"contract":"contracts/DmtpTech.sol:DmtpTech","label":"signer","offset":0,"slot":"3","type":"t_address"},{"astId":1085,"contract":"contracts/DmtpTech.sol:DmtpTech","label":"generated","offset":0,"slot":"4","type":"t_mapping(t_address,t_uint256)"},{"astId":1088,"contract":"contracts/DmtpTech.sol:DmtpTech","label":"commission","offset":0,"slot":"5","type":"t_struct(Commission)1074_storage"},{"astId":1092,"contract":"contracts/DmtpTech.sol:DmtpTech","label":"keyGenerators","offset":0,"slot":"8","type":"t_mapping(t_uint256,t_address)"},{"astId":1094,"contract":"contracts/DmtpTech.sol:DmtpTech","label":"needToCheckWhitelist","offset":0,"slot":"9","type":"t_bool"}],"types":{"t_address":{"encoding":"inplace","label":"address","numberOfBytes":"20"},"t_bool":{"encoding":"inplace","label":"bool","numberOfBytes":"1"},"t_contract(IKey)1932":{"encoding":"inplace","label":"contract IKey","numberOfBytes":"20"},"t_mapping(t_address,t_uint256)":{"encoding":"mapping","key":"t_address","label":"mapping(address => uint256)","numberOfBytes":"32","value":"t_uint256"},"t_mapping(t_uint256,t_address)":{"encoding":"mapping","key":"t_uint256","label":"mapping(uint256 => address)","numberOfBytes":"32","value":"t_address"},"t_struct(Commission)1074_storage":{"encoding":"inplace","label":"struct DmtpTech.Commission","members":[{"astId":1069,"contract":"contracts/DmtpTech.sol:DmtpTech","label":"rate","offset":0,"slot":"0","type":"t_uint256"},{"astId":1071,"contract":"contracts/DmtpTech.sol:DmtpTech","label":"receiver","offset":0,"slot":"1","type":"t_address"},{"astId":1073,"contract":"contracts/DmtpTech.sol:DmtpTech","label":"keyGeneratorRate","offset":0,"slot":"2","type":"t_uint256"}],"numberOfBytes":"96"},"t_uint256":{"encoding":"inplace","label":"uint256","numberOfBytes":"32"}}}}}}