{
  "_format": "hh-sol-artifact-1",
  "contractName": "DmtpTech",
  "sourceName": "contracts/DmtpTech.sol",
  "abi": [
    {
      "inputs": [],
      "name": "AccessControlBadConfirmation",
      "type": "error"
    },
    {
      "inputs": [
        {
          "internalType": "address",
          "name": "account",
          "type": "address"
        },
        {
          "internalType": "bytes32",
          "name": "neededRole",
          "type": "bytes32"
        }
      ],
      "name": "AccessControlUnauthorizedAccount",
      "type": "error"
    },
    {
      "inputs": [],
      "name": "InvalidInitialization",
      "type": "error"
    },
    {
      "inputs": [],
      "name": "NotInitializing",
      "type": "error"
    },
    {
      "inputs": [],
      "name": "ReentrancyGuardReentrantCall",
      "type": "error"
    },
    {
      "anonymous": false,
      "inputs": [
        {
          "indexed": false,
          "internalType": "uint256",
          "name": "rate",
          "type": "uint256"
        },
        {
          "indexed": false,
          "internalType": "address",
          "name": "receiver_",
          "type": "address"
        },
        {
          "indexed": false,
          "internalType": "uint256",
          "name": "keyGeneratorRate",
          "type": "uint256"
        }
      ],
      "name": "CommissionUpdated",
      "type": "event"
    },
    {
      "anonymous": false,
      "inputs": [
        {
          "indexed": false,
          "internalType": "uint64",
          "name": "version",
          "type": "uint64"
        }
      ],
      "name": "Initialized",
      "type": "event"
    },
    {
      "anonymous": false,
      "inputs": [
        {
          "indexed": false,
          "internalType": "uint256",
          "name": "keyId",
          "type": "uint256"
        },
        {
          "indexed": false,
          "internalType": "address",
          "name": "buyer",
          "type": "address"
        },
        {
          "indexed": false,
          "internalType": "uint256",
          "name": "price",
          "type": "uint256"
        }
      ],
      "name": "KeyBought",
      "type": "event"
    },
    {
      "anonymous": false,
      "inputs": [
        {
          "indexed": false,
          "internalType": "address",
          "name": "key",
          "type": "address"
        }
      ],
      "name": "KeyContractUpdated",
      "type": "event"
    },
    {
      "anonymous": false,
      "inputs": [
        {
          "indexed": false,
          "internalType": "uint256",
          "name": "keyId",
          "type": "uint256"
        },
        {
          "indexed": false,
          "internalType": "address",
          "name": "kol",
          "type": "address"
        }
      ],
      "name": "KeyGenerated",
      "type": "event"
    },
    {
      "anonymous": false,
      "inputs": [
        {
          "indexed": false,
          "internalType": "uint256",
          "name": "keyId",
          "type": "uint256"
        },
        {
          "indexed": false,
          "internalType": "address",
          "name": "seller",
          "type": "address"
        },
        {
          "indexed": false,
          "internalType": "uint256",
          "name": "price",
          "type": "uint256"
        }
      ],
      "name": "KeySold",
      "type": "event"
    },
    {
      "anonymous": false,
      "inputs": [
        {
          "indexed": true,
          "internalType": "bytes32",
          "name": "role",
          "type": "bytes32"
        },
        {
          "indexed": true,
          "internalType": "bytes32",
          "name": "previousAdminRole",
          "type": "bytes32"
        },
        {
          "indexed": true,
          "internalType": "bytes32",
          "name": "newAdminRole",
          "type": "bytes32"
        }
      ],
      "name": "RoleAdminChanged",
      "type": "event"
    },
    {
      "anonymous": false,
      "inputs": [
        {
          "indexed": true,
          "internalType": "bytes32",
          "name": "role",
          "type": "bytes32"
        },
        {
          "indexed": true,
          "internalType": "address",
          "name": "account",
          "type": "address"
        },
        {
          "indexed": true,
          "internalType": "address",
          "name": "sender",
          "type": "address"
        }
      ],
      "name": "RoleGranted",
      "type": "event"
    },
    {
      "anonymous": false,
      "inputs": [
        {
          "indexed": true,
          "internalType": "bytes32",
          "name": "role",
          "type": "bytes32"
        },
        {
          "indexed": true,
          "internalType": "address",
          "name": "account",
          "type": "address"
        },
        {
          "indexed": true,
          "internalType": "address",
          "name": "sender",
          "type": "address"
        }
      ],
      "name": "RoleRevoked",
      "type": "event"
    },
    {
      "anonymous": false,
      "inputs": [
        {
          "indexed": false,
          "internalType": "address",
          "name": "signer",
          "type": "address"
        }
      ],
      "name": "SignerSet",
      "type": "event"
    },
    {
      "inputs": [],
      "name": "A_HUNDRED_PERCENT",
      "outputs": [
        {
          "internalType": "uint256",
          "name": "",
          "type": "uint256"
        }
      ],
      "stateMutability": "view",
      "type": "function"
    },
    {
      "inputs": [],
      "name": "DEFAULT_ADMIN_ROLE",
      "outputs": [
        {
          "internalType": "bytes32",
          "name": "",
          "type": "bytes32"
        }
      ],
      "stateMutability": "view",
      "type": "function"
    },
    {
      "inputs": [],
      "name": "MINTER_ROLE",
      "outputs": [
        {
          "internalType": "bytes32",
          "name": "",
          "type": "bytes32"
        }
      ],
      "stateMutability": "view",
      "type": "function"
    },
    {
      "inputs": [],
      "name": "OPERATOR_ROLE",
      "outputs": [
        {
          "internalType": "bytes32",
          "name": "",
          "type": "bytes32"
        }
      ],
      "stateMutability": "view",
      "type": "function"
    },
    {
      "inputs": [
        {
          "internalType": "address",
          "name": "seller_",
          "type": "address"
        },
        {
          "internalType": "uint256",
          "name": "id_",
          "type": "uint256"
        }
      ],
      "name": "allowToSellKey",
      "outputs": [
        {
          "internalType": "bool",
          "name": "",
          "type": "bool"
        }
      ],
      "stateMutability": "view",
      "type": "function"
    },
    {
      "inputs": [
        {
          "internalType": "uint256",
          "name": "id_",
          "type": "uint256"
        }
      ],
      "name": "buyKey",
      "outputs": [],
      "stateMutability": "payable",
      "type": "function"
    },
    {
      "inputs": [
        {
          "internalType": "uint256",
          "name": "id_",
          "type": "uint256"
        },
        {
          "internalType": "address",
          "name": "receiver_",
          "type": "address"
        }
      ],
      "name": "buyKeyFor",
      "outputs": [],
      "stateMutability": "payable",
      "type": "function"
    },
    {
      "inputs": [],
      "name": "commission",
      "outputs": [
        {
          "internalType": "uint256",
          "name": "rate",
          "type": "uint256"
        },
        {
          "internalType": "address",
          "name": "receiver",
          "type": "address"
        },
        {
          "internalType": "uint256",
          "name": "keyGeneratorRate",
          "type": "uint256"
        }
      ],
      "stateMutability": "view",
      "type": "function"
    },
    {
      "inputs": [
        {
          "internalType": "bytes",
          "name": "signature_",
          "type": "bytes"
        }
      ],
      "name": "generateKey",
      "outputs": [],
      "stateMutability": "nonpayable",
      "type": "function"
    },
    {
      "inputs": [
        {
          "internalType": "address",
          "name": "",
          "type": "address"
        }
      ],
      "name": "generated",
      "outputs": [
        {
          "internalType": "uint256",
          "name": "",
          "type": "uint256"
        }
      ],
      "stateMutability": "view",
      "type": "function"
    },
    {
      "inputs": [
        {
          "internalType": "bytes32",
          "name": "role",
          "type": "bytes32"
        }
      ],
      "name": "getRoleAdmin",
      "outputs": [
        {
          "internalType": "bytes32",
          "name": "",
          "type": "bytes32"
        }
      ],
      "stateMutability": "view",
      "type": "function"
    },
    {
      "inputs": [
        {
          "internalType": "bytes32",
          "name": "role",
          "type": "bytes32"
        },
        {
          "internalType": "address",
          "name": "account",
          "type": "address"
        }
      ],
      "name": "grantRole",
      "outputs": [],
      "stateMutability": "nonpayable",
      "type": "function"
    },
    {
      "inputs": [
        {
          "internalType": "bytes32",
          "name": "role",
          "type": "bytes32"
        },
        {
          "internalType": "address",
          "name": "account",
          "type": "address"
        }
      ],
      "name": "hasRole",
      "outputs": [
        {
          "internalType": "bool",
          "name": "",
          "type": "bool"
        }
      ],
      "stateMutability": "view",
      "type": "function"
    },
    {
      "inputs": [
        {
          "internalType": "address",
          "name": "key_",
          "type": "address"
        },
        {
          "internalType": "address",
          "name": "signer_",
          "type": "address"
        },
        {
          "internalType": "uint256",
          "name": "commissionRate_",
          "type": "uint256"
        },
        {
          "internalType": "address",
          "name": "commissionReceiver_",
          "type": "address"
        },
        {
          "internalType": "uint256",
          "name": "commissionKeyGeneratorRate_",
          "type": "uint256"
        }
      ],
      "name": "initialize",
      "outputs": [],
      "stateMutability": "nonpayable",
      "type": "function"
    },
    {
      "inputs": [],
      "name": "key",
      "outputs": [
        {
          "internalType": "contract IKey",
          "name": "",
          "type": "address"
        }
      ],
      "stateMutability": "view",
      "type": "function"
    },
    {
      "inputs": [
        {
          "internalType": "uint256",
          "name": "",
          "type": "uint256"
        }
      ],
      "name": "keyGenerators",
      "outputs": [
        {
          "internalType": "address",
          "name": "",
          "type": "address"
        }
      ],
      "stateMutability": "view",
      "type": "function"
    },
    {
      "inputs": [],
      "name": "needToCheckWhitelist",
      "outputs": [
        {
          "internalType": "bool",
          "name": "",
          "type": "bool"
        }
      ],
      "stateMutability": "view",
      "type": "function"
    },
    {
      "inputs": [
        {
          "internalType": "uint256",
          "name": "id_",
          "type": "uint256"
        }
      ],
      "name": "priceWithCommission",
      "outputs": [
        {
          "internalType": "uint256",
          "name": "price",
          "type": "uint256"
        },
        {
          "internalType": "uint256",
          "name": "fee",
          "type": "uint256"
        },
        {
          "internalType": "uint256",
          "name": "payout",
          "type": "uint256"
        }
      ],
      "stateMutability": "view",
      "type": "function"
    },
    {
      "inputs": [
        {
          "internalType": "bytes32",
          "name": "role",
          "type": "bytes32"
        },
        {
          "internalType": "address",
          "name": "callerConfirmation",
          "type": "address"
        }
      ],
      "name": "renounceRole",
      "outputs": [],
      "stateMutability": "nonpayable",
      "type": "function"
    },
    {
      "inputs": [
        {
          "internalType": "bytes32",
          "name": "role",
          "type": "bytes32"
        },
        {
          "internalType": "address",
          "name": "account",
          "type": "address"
        }
      ],
      "name": "revokeRole",
      "outputs": [],
      "stateMutability": "nonpayable",
      "type": "function"
    },
    {
      "inputs": [
        {
          "internalType": "uint256",
          "name": "id_",
          "type": "uint256"
        },
        {
          "internalType": "uint256",
          "name": "price_",
          "type": "uint256"
        }
      ],
      "name": "sellKey",
      "outputs": [],
      "stateMutability": "nonpayable",
      "type": "function"
    },
    {
      "inputs": [
        {
          "internalType": "uint256",
          "name": "id_",
          "type": "uint256"
        }
      ],
      "name": "sellPriceWithCommission",
      "outputs": [
        {
          "internalType": "uint256",
          "name": "price",
          "type": "uint256"
        },
        {
          "internalType": "uint256",
          "name": "fee",
          "type": "uint256"
        },
        {
          "internalType": "uint256",
          "name": "payout",
          "type": "uint256"
        }
      ],
      "stateMutability": "view",
      "type": "function"
    },
    {
      "inputs": [
        {
          "internalType": "uint256",
          "name": "rate_",
          "type": "uint256"
        },
        {
          "internalType": "address",
          "name": "receiver_",
          "type": "address"
        },
        {
          "internalType": "uint256",
          "name": "keyGeneratorRate_",
          "type": "uint256"
        }
      ],
      "name": "setCommission",
      "outputs": [],
      "stateMutability": "nonpayable",
      "type": "function"
    },
    {
      "inputs": [
        {
          "internalType": "address",
          "name": "key_",
          "type": "address"
        }
      ],
      "name": "setKeyContract",
      "outputs": [],
      "stateMutability": "nonpayable",
      "type": "function"
    },
    {
      "inputs": [
        {
          "internalType": "uint256",
          "name": "keyId_",
          "type": "uint256"
        },
        {
          "internalType": "address",
          "name": "account_",
          "type": "address"
        }
      ],
      "name": "setKeyGeneratos",
      "outputs": [],
      "stateMutability": "nonpayable",
      "type": "function"
    },
    {
      "inputs": [
        {
          "internalType": "bool",
          "name": "check_",
          "type": "bool"
        }
      ],
      "name": "setNeedToCheckWhitelist",
      "outputs": [],
      "stateMutability": "nonpayable",
      "type": "function"
    },
    {
      "inputs": [
        {
          "internalType": "address",
          "name": "signer_",
          "type": "address"
        }
      ],
      "name": "setSigner",
      "outputs": [],
      "stateMutability": "nonpayable",
      "type": "function"
    },
    {
      "inputs": [],
      "name": "signer",
      "outputs": [
        {
          "internalType": "address",
          "name": "",
          "type": "address"
        }
      ],
      "stateMutability": "view",
      "type": "function"
    },
    {
      "inputs": [
        {
          "internalType": "bytes4",
          "name": "interfaceId",
          "type": "bytes4"
        }
      ],
      "name": "supportsInterface",
      "outputs": [
        {
          "internalType": "bool",
          "name": "",
          "type": "bool"
        }
      ],
      "stateMutability": "view",
      "type": "function"
    }
  ],
  "bytecode": "0x60808060405234601a576001600055611caf90816100208239f35b600080fdfe6080604052600436101561001257600080fd5b60003560e01c806301ffc9a7146101e75780630d54a882146101e257806315534028146101dd578063238ac933146101d8578063248a9ca3146101d35780632f2ff15d146101ce57806336568abe146101c95780633943380c146101c45780635ba906c0146101bf57806362bea295146101ba57806366c04491146101b55780636c19e783146101b057806379894f96146101ab5780637d9edc96146101a657806381803632146101a1578063882e99181461019c5780638d5ea68b146101975780638dc9330f146101925780638fd7c5681461018d57806391d14854146101885780639fef93f814610183578063a217fddf1461017e578063b0afbfd214610179578063b77c0f0014610174578063d53913931461016f578063d547741f1461016a578063e148919114610165578063f5b541a6146101605763f7c00e631461015b57600080fd5b6110d1565b611096565b61105c565b61102b565b610ff0565b610fbc565b610f30565b610f14565b610d1a565b610cba565b610c97565b610c14565b610b91565b610b23565b610b06565b610a93565b6109f9565b610986565b6108fa565b6108c0565b610813565b6107ea565b6107a4565b61076e565b610748565b61071f565b6104f3565b610242565b3461023d57602036600319011261023d5760043563ffffffff60e01b811680910361023d57602090637965db0b60e01b811490811561022c575b506040519015158152f35b6301ffc9a760e01b14905038610221565b600080fd5b3461023d57604036600319011261023d5760043560243561026161177b565b61027361026e8333611432565b611271565b600254610290906001600160a01b03165b6001600160a01b031690565b604051635478737160e11b81526004810184905291602083602481855afa9283156103fc5760009361047c575b50826102c991146112d7565b6102e06102d860055484611339565b612710900490565b906102eb8284611351565b813b1561023d57604051637a94c56560e11b81523360048201526024810186905260016044820152916000908390606490829084905af19182156103fc57600092839283928392610462575b50818115610459575b3390f1156103fc576103576102d860075484611339565b808015801561040a575b50506006546001600160a01b0316806103bf575b604080518681523360208201529081018590527f76bf686fc9ca17368677b445c3982fe5bdba241b5b1ec5a879739a52e16203769080606081015b0390a16103bd6001600055565b005b600092839283928392916103e5916103df906001600160a01b0316610284565b92611351565b90828215610401575bf1156103fc57388080610375565b6112cb565b506108fc6103ee565b6000808093819361043b61028461028461042e8d6000526008602052604060002090565b546001600160a01b031690565b908390610450575bf1156103fc578038610361565b506108fc610443565b506108fc610340565b806104708461047693610b6a565b80610714565b38610337565b6102c99193506104a39060203d6020116104aa575b61049b8183610b6a565b8101906112bc565b92906102bd565b503d610491565b602435906001600160a01b038216820361023d57565b600435906001600160a01b038216820361023d57565b606435906001600160a01b038216820361023d57565b604036600319011261023d5760043561050a6104b1565b61051261177b565b61052060015483111561135e565b600254610535906001600160a01b0316610284565b60405163b9186d7d60e01b8152600481018490529290602084602481845afa9384156103fc576000946106f3575b506105736102d860055486611339565b9061058861058183876113b8565b34146112d7565b803b1561023d5760405163731133e960e01b81526001600160a01b03851660048201526024810184905260016044820152608060648201526000608482018190529091829060a490829084905af180156103fc576106de575b506105f16102d860075486611339565b808015801561069c575b50506006546001600160a01b03168061065c575b5050604080519283526001600160a01b03909316602083015250908101919091527fced28ea7ef5f4276044389e457757e3f21ca4368040c3b864e3890bcd56a99889080606081016103b0565b6000928392839283929161067c916103df906001600160a01b0316610284565b90828215610693575bf1156103fc5738808061060f565b506108fc610685565b600080809381936106c061028461028461042e8c6000526008602052604060002090565b9083906106d5575bf1156103fc5780386105fb565b506108fc6106c8565b8061047060006106ed93610b6a565b386105e1565b61070d91945060203d6020116104aa5761049b8183610b6a565b9238610563565b600091031261023d57565b3461023d57600036600319011261023d576003546040516001600160a01b039091168152602090f35b3461023d57602036600319011261023d5760206107666004356113c5565b604051908152f35b3461023d57604036600319011261023d576103bd60043561078d6104b1565b9061079f61079a826113c5565b61180f565b6119e2565b3461023d57604036600319011261023d576004356107c06104b1565b336001600160a01b038216036107d9576103bd91611a90565b63334bd91960e11b60005260046000fd5b3461023d57600036600319011261023d576002546040516001600160a01b039091168152602090f35b3461023d57602036600319011261023d5760025460405163b9186d7d60e01b8152600480359082015290602090829060249082906001600160a01b03165afa9081156103fc576000916108a1575b5061271061087160055483611339565b049061089d61088083836113b8565b604051938493846040919493926060820195825260208201520152565b0390f35b6108ba915060203d6020116104aa5761049b8183610b6a565b38610861565b3461023d57602036600319011261023d576001600160a01b036108e16104c7565b1660005260046020526020604060002054604051908152f35b3461023d57602036600319011261023d57600254604051635478737160e11b8152600480359082015290602090829060249082906001600160a01b03165afa9081156103fc57600091610967575b5061271061095860055483611339565b049061089d6108808383611351565b610980915060203d6020116104aa5761049b8183610b6a565b38610948565b3461023d57602036600319011261023d577f9eaa897564d022fb8c5efaf0acdb5d9d27b440b2aad44400b6e1c702e65b9ed360206109c26104c7565b6109ca61179d565b6001600160a01b03166109de8115156113e6565b600380546001600160a01b03191682179055604051908152a1005b3461023d57606036600319011261023d577f827988aa1b695ab4719b95a49399fb75159954cc25d5b37c53cf23e8a6a58d36600435610a366104b1565b90610a8e604435610a4561179d565b600680546001600160a01b0319166001600160a01b0395909516948517905560058390556007819055604080519384526020840194909452928201929092529081906060820190565b0390a1005b3461023d57602036600319011261023d577f9c421f75c1b2cd6cdf5bd68ae0986ad4518d273a5c59745ac6454392b0b709a56020610acf6104c7565b610ad761179d565b6001600160a01b0316610aeb8115156113e6565b600280546001600160a01b03191682179055604051908152a1005b3461023d57600036600319011261023d5760206040516127108152f35b3461023d57604036600319011261023d576020610b4a610b416104c7565b60243590611432565b6040519015158152f35b634e487b7160e01b600052604160045260246000fd5b90601f8019910116810190811067ffffffffffffffff821117610b8c57604052565b610b54565b3461023d57602036600319011261023d5760043567ffffffffffffffff811161023d573660238201121561023d57806004013567ffffffffffffffff8111610b8c5760405190610beb601f8201601f191660200183610b6a565b808252366024828501011161023d5760208160009260246103bd960183860137830101526114f1565b3461023d57604036600319011261023d576103bd600435610c336104b1565b90610c3c61179d565b80151580610c8b575b610c4e9061135e565b610c626001600160a01b03831615156113e6565b600052600860205260406000209060018060a01b03166001600160601b0360a01b825416179055565b50600154811115610c45565b3461023d57600036600319011261023d57602060ff600954166040519015158152f35b3461023d57604036600319011261023d57602060ff610d0e600435610cdd6104b1565b90600052600080516020611c63833981519152845260406000209060018060a01b0316600052602052604060002090565b54166040519015158152f35b602036600319011261023d57600435610d3161177b565b610d3f60015482111561135e565b600254610d54906001600160a01b0316610284565b60405163b9186d7d60e01b81526004810183905290602082602481845afa9182156103fc57600092610ef3575b50610d916102d860055484611339565b90610d9f61058183856113b8565b803b1561023d5760405163731133e960e01b81523360048201526024810185905260016044820152608060648201526000608482018190529091829060a490829084905af180156103fc57610ede575b50610dff6102d860075484611339565b8080158015610e9c575b50506006546001600160a01b031680610e5c575b604080518681523360208201529081018590527fced28ea7ef5f4276044389e457757e3f21ca4368040c3b864e3890bcd56a99889080606081016103b0565b60009283928392839291610e7c916103df906001600160a01b0316610284565b90828215610e93575bf1156103fc57388080610e1d565b506108fc610e85565b60008080938193610ec061028461028461042e8d6000526008602052604060002090565b908390610ed5575bf1156103fc578038610e09565b506108fc610ec8565b806104706000610eed93610b6a565b38610def565b610f0d91925060203d6020116104aa5761049b8183610b6a565b9038610d81565b3461023d57600036600319011261023d57602060405160008152f35b3461023d57602036600319011261023d576004358015801580920361023d57610f5761179d565b6009549160ff8316151514610f775760ff169060ff191617600955600080f35b60405162461bcd60e51b815260206004820152601860248201527f444d54505f544543485f434f4e4649475f4841535f53455400000000000000006044820152606490fd5b3461023d57602036600319011261023d576004356000526008602052602060018060a01b0360406000205416604051908152f35b3461023d57600036600319011261023d5760206040517f9f2df0fed2c77648de5860a4cc508cd0818c85b8b8a1ab4ceeef8d981c8956a68152f35b3461023d57604036600319011261023d576103bd60043561104a6104b1565b9061105761079a826113c5565b611a90565b3461023d57600036600319011261023d57600554600654600754604080519384526001600160a01b03909216602084015290820152606090f35b3461023d57600036600319011261023d5760206040517f97667070c54ef182b0f5858b034beac1b6f3089aa2d3188bb1e8929f4fa9b9298152f35b3461023d5760a036600319011261023d576110ea6104c7565b6110f26104b1565b906044356110fe6104dd565b60843591600080516020611c83833981519152549467ffffffffffffffff6111426111346111308960ff9060401c1690565b1590565b9767ffffffffffffffff1690565b1680159081611269575b600114908161125f575b159081611256575b50611245576111a4948661119b600167ffffffffffffffff19600080516020611c83833981519152541617600080516020611c8383398151915255565b61120957611bc1565b6111aa57005b6111d660ff60401b19600080516020611c838339815191525416600080516020611c8383398151915255565b604051600181527fc7f505b2f371ae2175ee4913f4499e1f2633a7b5936321eed1cdaeb6115181d2908060208101610a8e565b6112406801000000000000000060ff60401b19600080516020611c83833981519152541617600080516020611c8383398151915255565b611bc1565b63f92ee8a960e01b60005260046000fd5b9050153861115e565b303b159150611156565b87915061114c565b1561127857565b606460405162461bcd60e51b815260206004820152602060248201527f444d54505f544543485f4e4f545f414c4c4f575f544f5f53454c4c5f4b4559536044820152fd5b9081602091031261023d575190565b6040513d6000823e3d90fd5b156112de57565b60405162461bcd60e51b815260206004820152601760248201527f444d54505f544543485f50524943455f4348414e4745440000000000000000006044820152606490fd5b634e487b7160e01b600052601160045260246000fd5b8181029291811591840414171561134c57565b611323565b9190820391821161134c57565b1561136557565b60405162461bcd60e51b815260206004820152601b60248201527f444d54505f544543485f504152414d5f4b45595f494e56414c494400000000006044820152606490fd5b906001820180921161134c57565b9190820180921161134c57565b600052600080516020611c6383398151915260205260016040600020015490565b156113ed57565b60405162461bcd60e51b815260206004820152601f60248201527f444d54505f544543485f504152414d5f414444524553535f494e56414c4944006044820152606490fd5b6001600160a01b0381166000908152600460205260409020829054036114ea576114a69160209161147361028461028461028460025460018060a01b031690565b604051627eeac760e11b81526001600160a01b039092166004830152602482019290925292839190829081906044820190565b03915afa80156103fc576001916000916114cb575b50116114c657600090565b600190565b6114e4915060203d6020116104aa5761049b8183610b6a565b386114bb565b5050600190565b6114f961177b565b3360009081526004602052604090206115139054156116d9565b60095460ff16611644575b5061152a6001546113aa565b60025461153f906001600160a01b0316610284565b90813b1561023d5760405163731133e960e01b81523360048201526024810182905260016044820152608060648201526000608482018190529092839060a490829084905af19081156103fc577f21f36f1ce7fe044293979690e893402c51515f757aa4e48b13bcfb269a9b6410926116209261162f575b506115c181600155565b33600090815260046020526040902081905561160a336115eb836000526008602052604060002090565b80546001600160a01b0319166001600160a01b03909216919091179055565b6040805191825233602083015290918291820190565b0390a161162d6001600055565b565b80610470600061163e93610b6a565b386115b7565b6116ad6116d3916116a860405160208101906116a0816116923046338791604893916001600160601b03199060601b16835260148301526001600160601b03199060601b1660348201520190565b03601f198101835282610b6a565b519020611b35565b611b7a565b6003546116c2906001600160a01b0316610284565b6001600160a01b0390911614611725565b3861151e565b156116e057565b60405162461bcd60e51b815260206004820152601c60248201527f444d54505f544543485f414c52454144595f4953535545445f4b4559000000006044820152606490fd5b1561172c57565b60405162461bcd60e51b815260206004820152602160248201527f444d54505f544543485f504152414d5f5349474e41545552455f494e56414c496044820152601160fa1b6064820152608490fd5b60026000541461178c576002600055565b633ee5aeb560e01b60005260046000fd5b3360009081527f448256db8f8fb95ee3eaaf89c1051414494e85cebb6057fcf996cc3d0ccfb456602052604090205460ff16156117d657565b63e2517d3f60e01b600052336004527f97667070c54ef182b0f5858b034beac1b6f3089aa2d3188bb1e8929f4fa9b92960245260446000fd5b6000818152600080516020611c638339815191526020908152604080832033845290915290205460ff16156118415750565b63e2517d3f60e01b6000523360045260245260446000fd5b6001600160a01b03811660009081527fb7db2dd08fcb62d0c9e08c51941cae53c267786a0b75803fb7960902fc8ef97d602052604090205460ff16611905576001600160a01b031660008181527fb7db2dd08fcb62d0c9e08c51941cae53c267786a0b75803fb7960902fc8ef97d60205260408120805460ff191660011790553391907f2f8788117e7eff1d82e926ec794901d17c78024a50270940304540a733656f0d8180a4600190565b50600090565b6001600160a01b03811660009081527f448256db8f8fb95ee3eaaf89c1051414494e85cebb6057fcf996cc3d0ccfb456602052604090205460ff16611905576001600160a01b03811660009081527f448256db8f8fb95ee3eaaf89c1051414494e85cebb6057fcf996cc3d0ccfb45660205260409020805460ff1916600117905533906001600160a01b03167f97667070c54ef182b0f5858b034beac1b6f3089aa2d3188bb1e8929f4fa9b9297f2f8788117e7eff1d82e926ec794901d17c78024a50270940304540a733656f0d600080a4600190565b6000818152600080516020611c63833981519152602090815260408083206001600160a01b038616845290915290205460ff16611a89576000818152600080516020611c63833981519152602090815260408083206001600160a01b03861684529091529020805460ff1916600117905533916001600160a01b0316907f2f8788117e7eff1d82e926ec794901d17c78024a50270940304540a733656f0d600080a4600190565b5050600090565b6000818152600080516020611c63833981519152602090815260408083206001600160a01b038616845290915290205460ff1615611a89576000818152600080516020611c63833981519152602090815260408083206001600160a01b03861684529091529020805460ff1916905533916001600160a01b0316907ff6391f5c32d9c69d2a47ea670b442974b53935d1edc7fd64eb21e047a839171b600080a4600190565b60405160208101917f19457468657265756d205369676e6564204d6573736167653a0a3332000000008352603c820152603c8152611b74605c82610b6a565b51902090565b604182510361023d5760806000918360208095015160606040830151920151851a604051938452868401526040830152606082015282805260015afa156103fc5760005190565b9392919060ff600080516020611c838339815191525460401c1615611c515761162d9460018060a01b03166001600160601b0360a01b6002541617600255611c0833611859565b50611c123361190b565b5060018060a01b03166001600160601b0360a01b600354161760035560055560018060a01b03166001600160601b0360a01b6006541617600655600755565b631afcd79f60e31b60005260046000fdfe02dd7bc7dec4dceedda775e58dd541e08a116c6c53815c0bd028192f7b626800f0c57e16840df040f15088dc2f81fe391c3923bec73e23a9662efc9c229c6a00a164736f6c634300081c000a",
  "linkReferences": {},
  "deployedLinkReferences": {}
}