{
  "_format": "hh-sol-artifact-1",
  "contractName": "Key",
  "sourceName": "contracts/Key.sol",
  "abi": [
    {
      "inputs": [],
      "name": "AccessControlBadConfirmation",
      "type": "error"
    },
    {
      "inputs": [
        {
          "internalType": "address",
          "name": "account",
          "type": "address"
        },
        {
          "internalType": "bytes32",
          "name": "neededRole",
          "type": "bytes32"
        }
      ],
      "name": "AccessControlUnauthorizedAccount",
      "type": "error"
    },
    {
      "inputs": [
        {
          "internalType": "address",
          "name": "sender",
          "type": "address"
        },
        {
          "internalType": "uint256",
          "name": "balance",
          "type": "uint256"
        },
        {
          "internalType": "uint256",
          "name": "needed",
          "type": "uint256"
        },
        {
          "internalType": "uint256",
          "name": "tokenId",
          "type": "uint256"
        }
      ],
      "name": "ERC1155InsufficientBalance",
      "type": "error"
    },
    {
      "inputs": [
        {
          "internalType": "address",
          "name": "approver",
          "type": "address"
        }
      ],
      "name": "ERC1155InvalidApprover",
      "type": "error"
    },
    {
      "inputs": [
        {
          "internalType": "uint256",
          "name": "idsLength",
          "type": "uint256"
        },
        {
          "internalType": "uint256",
          "name": "valuesLength",
          "type": "uint256"
        }
      ],
      "name": "ERC1155InvalidArrayLength",
      "type": "error"
    },
    {
      "inputs": [
        {
          "internalType": "address",
          "name": "operator",
          "type": "address"
        }
      ],
      "name": "ERC1155InvalidOperator",
      "type": "error"
    },
    {
      "inputs": [
        {
          "internalType": "address",
          "name": "receiver",
          "type": "address"
        }
      ],
      "name": "ERC1155InvalidReceiver",
      "type": "error"
    },
    {
      "inputs": [
        {
          "internalType": "address",
          "name": "sender",
          "type": "address"
        }
      ],
      "name": "ERC1155InvalidSender",
      "type": "error"
    },
    {
      "inputs": [
        {
          "internalType": "address",
          "name": "operator",
          "type": "address"
        },
        {
          "internalType": "address",
          "name": "owner",
          "type": "address"
        }
      ],
      "name": "ERC1155MissingApprovalForAll",
      "type": "error"
    },
    {
      "inputs": [],
      "name": "InvalidInitialization",
      "type": "error"
    },
    {
      "inputs": [],
      "name": "NotInitializing",
      "type": "error"
    },
    {
      "inputs": [
        {
          "internalType": "uint256",
          "name": "x",
          "type": "uint256"
        },
        {
          "internalType": "uint256",
          "name": "y",
          "type": "uint256"
        }
      ],
      "name": "PRBMath_MulDiv18_Overflow",
      "type": "error"
    },
    {
      "inputs": [
        {
          "internalType": "uint256",
          "name": "x",
          "type": "uint256"
        },
        {
          "internalType": "uint256",
          "name": "y",
          "type": "uint256"
        },
        {
          "internalType": "uint256",
          "name": "denominator",
          "type": "uint256"
        }
      ],
      "name": "PRBMath_MulDiv_Overflow",
      "type": "error"
    },
    {
      "inputs": [
        {
          "internalType": "UD60x18",
          "name": "x",
          "type": "uint256"
        }
      ],
      "name": "PRBMath_UD60x18_Exp2_InputTooBig",
      "type": "error"
    },
    {
      "inputs": [
        {
          "internalType": "UD60x18",
          "name": "x",
          "type": "uint256"
        }
      ],
      "name": "PRBMath_UD60x18_Log_InputTooSmall",
      "type": "error"
    },
    {
      "anonymous": false,
      "inputs": [
        {
          "indexed": true,
          "internalType": "address",
          "name": "account",
          "type": "address"
        },
        {
          "indexed": true,
          "internalType": "address",
          "name": "operator",
          "type": "address"
        },
        {
          "indexed": false,
          "internalType": "bool",
          "name": "approved",
          "type": "bool"
        }
      ],
      "name": "ApprovalForAll",
      "type": "event"
    },
    {
      "anonymous": false,
      "inputs": [
        {
          "indexed": false,
          "internalType": "uint64",
          "name": "version",
          "type": "uint64"
        }
      ],
      "name": "Initialized",
      "type": "event"
    },
    {
      "anonymous": false,
      "inputs": [
        {
          "indexed": false,
          "internalType": "uint256",
          "name": "issueLimit",
          "type": "uint256"
        }
      ],
      "name": "IssueLimitUpdated",
      "type": "event"
    },
    {
      "anonymous": false,
      "inputs": [
        {
          "indexed": true,
          "internalType": "bytes32",
          "name": "role",
          "type": "bytes32"
        },
        {
          "indexed": true,
          "internalType": "bytes32",
          "name": "previousAdminRole",
          "type": "bytes32"
        },
        {
          "indexed": true,
          "internalType": "bytes32",
          "name": "newAdminRole",
          "type": "bytes32"
        }
      ],
      "name": "RoleAdminChanged",
      "type": "event"
    },
    {
      "anonymous": false,
      "inputs": [
        {
          "indexed": true,
          "internalType": "bytes32",
          "name": "role",
          "type": "bytes32"
        },
        {
          "indexed": true,
          "internalType": "address",
          "name": "account",
          "type": "address"
        },
        {
          "indexed": true,
          "internalType": "address",
          "name": "sender",
          "type": "address"
        }
      ],
      "name": "RoleGranted",
      "type": "event"
    },
    {
      "anonymous": false,
      "inputs": [
        {
          "indexed": true,
          "internalType": "bytes32",
          "name": "role",
          "type": "bytes32"
        },
        {
          "indexed": true,
          "internalType": "address",
          "name": "account",
          "type": "address"
        },
        {
          "indexed": true,
          "internalType": "address",
          "name": "sender",
          "type": "address"
        }
      ],
      "name": "RoleRevoked",
      "type": "event"
    },
    {
      "anonymous": false,
      "inputs": [
        {
          "indexed": true,
          "internalType": "address",
          "name": "operator",
          "type": "address"
        },
        {
          "indexed": true,
          "internalType": "address",
          "name": "from",
          "type": "address"
        },
        {
          "indexed": true,
          "internalType": "address",
          "name": "to",
          "type": "address"
        },
        {
          "indexed": false,
          "internalType": "uint256[]",
          "name": "ids",
          "type": "uint256[]"
        },
        {
          "indexed": false,
          "internalType": "uint256[]",
          "name": "values",
          "type": "uint256[]"
        }
      ],
      "name": "TransferBatch",
      "type": "event"
    },
    {
      "anonymous": false,
      "inputs": [
        {
          "indexed": true,
          "internalType": "address",
          "name": "operator",
          "type": "address"
        },
        {
          "indexed": true,
          "internalType": "address",
          "name": "from",
          "type": "address"
        },
        {
          "indexed": true,
          "internalType": "address",
          "name": "to",
          "type": "address"
        },
        {
          "indexed": false,
          "internalType": "uint256",
          "name": "id",
          "type": "uint256"
        },
        {
          "indexed": false,
          "internalType": "uint256",
          "name": "value",
          "type": "uint256"
        }
      ],
      "name": "TransferSingle",
      "type": "event"
    },
    {
      "anonymous": false,
      "inputs": [
        {
          "indexed": false,
          "internalType": "string",
          "name": "value",
          "type": "string"
        },
        {
          "indexed": true,
          "internalType": "uint256",
          "name": "id",
          "type": "uint256"
        }
      ],
      "name": "URI",
      "type": "event"
    },
    {
      "inputs": [],
      "name": "DEFAULT_ADMIN_ROLE",
      "outputs": [
        {
          "internalType": "bytes32",
          "name": "",
          "type": "bytes32"
        }
      ],
      "stateMutability": "view",
      "type": "function"
    },
    {
      "inputs": [],
      "name": "MINTER_ROLE",
      "outputs": [
        {
          "internalType": "bytes32",
          "name": "",
          "type": "bytes32"
        }
      ],
      "stateMutability": "view",
      "type": "function"
    },
    {
      "inputs": [],
      "name": "OPERATOR_ROLE",
      "outputs": [
        {
          "internalType": "bytes32",
          "name": "",
          "type": "bytes32"
        }
      ],
      "stateMutability": "view",
      "type": "function"
    },
    {
      "inputs": [
        {
          "internalType": "uint256",
          "name": "index_",
          "type": "uint256"
        }
      ],
      "name": "_priceOf",
      "outputs": [
        {
          "internalType": "uint256",
          "name": "",
          "type": "uint256"
        }
      ],
      "stateMutability": "pure",
      "type": "function"
    },
    {
      "inputs": [
        {
          "internalType": "uint256",
          "name": "id",
          "type": "uint256"
        }
      ],
      "name": "availableToBuy",
      "outputs": [
        {
          "internalType": "uint256",
          "name": "",
          "type": "uint256"
        }
      ],
      "stateMutability": "view",
      "type": "function"
    },
    {
      "inputs": [
        {
          "internalType": "address",
          "name": "account",
          "type": "address"
        },
        {
          "internalType": "uint256",
          "name": "id",
          "type": "uint256"
        }
      ],
      "name": "balanceOf",
      "outputs": [
        {
          "internalType": "uint256",
          "name": "",
          "type": "uint256"
        }
      ],
      "stateMutability": "view",
      "type": "function"
    },
    {
      "inputs": [
        {
          "internalType": "address[]",
          "name": "accounts",
          "type": "address[]"
        },
        {
          "internalType": "uint256[]",
          "name": "ids",
          "type": "uint256[]"
        }
      ],
      "name": "balanceOfBatch",
      "outputs": [
        {
          "internalType": "uint256[]",
          "name": "",
          "type": "uint256[]"
        }
      ],
      "stateMutability": "view",
      "type": "function"
    },
    {
      "inputs": [
        {
          "internalType": "address",
          "name": "account",
          "type": "address"
        },
        {
          "internalType": "uint256",
          "name": "id",
          "type": "uint256"
        },
        {
          "internalType": "uint256",
          "name": "amount_",
          "type": "uint256"
        }
      ],
      "name": "burn",
      "outputs": [],
      "stateMutability": "nonpayable",
      "type": "function"
    },
    {
      "inputs": [
        {
          "internalType": "bytes32",
          "name": "role",
          "type": "bytes32"
        }
      ],
      "name": "getRoleAdmin",
      "outputs": [
        {
          "internalType": "bytes32",
          "name": "",
          "type": "bytes32"
        }
      ],
      "stateMutability": "view",
      "type": "function"
    },
    {
      "inputs": [
        {
          "internalType": "bytes32",
          "name": "role",
          "type": "bytes32"
        },
        {
          "internalType": "address",
          "name": "account",
          "type": "address"
        }
      ],
      "name": "grantRole",
      "outputs": [],
      "stateMutability": "nonpayable",
      "type": "function"
    },
    {
      "inputs": [
        {
          "internalType": "bytes32",
          "name": "role",
          "type": "bytes32"
        },
        {
          "internalType": "address",
          "name": "account",
          "type": "address"
        }
      ],
      "name": "hasRole",
      "outputs": [
        {
          "internalType": "bool",
          "name": "",
          "type": "bool"
        }
      ],
      "stateMutability": "view",
      "type": "function"
    },
    {
      "inputs": [
        {
          "internalType": "string",
          "name": "uri_",
          "type": "string"
        },
        {
          "internalType": "uint256",
          "name": "issueLimit_",
          "type": "uint256"
        }
      ],
      "name": "initialize",
      "outputs": [],
      "stateMutability": "nonpayable",
      "type": "function"
    },
    {
      "inputs": [
        {
          "internalType": "address",
          "name": "account",
          "type": "address"
        },
        {
          "internalType": "address",
          "name": "operator",
          "type": "address"
        }
      ],
      "name": "isApprovedForAll",
      "outputs": [
        {
          "internalType": "bool",
          "name": "",
          "type": "bool"
        }
      ],
      "stateMutability": "view",
      "type": "function"
    },
    {
      "inputs": [],
      "name": "issueLimit",
      "outputs": [
        {
          "internalType": "uint256",
          "name": "",
          "type": "uint256"
        }
      ],
      "stateMutability": "view",
      "type": "function"
    },
    {
      "inputs": [
        {
          "internalType": "address",
          "name": "to",
          "type": "address"
        },
        {
          "internalType": "uint256",
          "name": "id",
          "type": "uint256"
        },
        {
          "internalType": "uint256",
          "name": "amount",
          "type": "uint256"
        },
        {
          "internalType": "bytes",
          "name": "data",
          "type": "bytes"
        }
      ],
      "name": "mint",
      "outputs": [],
      "stateMutability": "nonpayable",
      "type": "function"
    },
    {
      "inputs": [
        {
          "internalType": "uint256",
          "name": "id_",
          "type": "uint256"
        }
      ],
      "name": "priceOf",
      "outputs": [
        {
          "internalType": "uint256",
          "name": "",
          "type": "uint256"
        }
      ],
      "stateMutability": "view",
      "type": "function"
    },
    {
      "inputs": [
        {
          "internalType": "uint256[]",
          "name": "ids",
          "type": "uint256[]"
        }
      ],
      "name": "priceOfBatch",
      "outputs": [
        {
          "internalType": "uint256[]",
          "name": "",
          "type": "uint256[]"
        }
      ],
      "stateMutability": "view",
      "type": "function"
    },
    {
      "inputs": [
        {
          "internalType": "bytes32",
          "name": "role",
          "type": "bytes32"
        },
        {
          "internalType": "address",
          "name": "callerConfirmation",
          "type": "address"
        }
      ],
      "name": "renounceRole",
      "outputs": [],
      "stateMutability": "nonpayable",
      "type": "function"
    },
    {
      "inputs": [
        {
          "internalType": "bytes32",
          "name": "role",
          "type": "bytes32"
        },
        {
          "internalType": "address",
          "name": "account",
          "type": "address"
        }
      ],
      "name": "revokeRole",
      "outputs": [],
      "stateMutability": "nonpayable",
      "type": "function"
    },
    {
      "inputs": [
        {
          "internalType": "address",
          "name": "from",
          "type": "address"
        },
        {
          "internalType": "address",
          "name": "to",
          "type": "address"
        },
        {
          "internalType": "uint256[]",
          "name": "ids",
          "type": "uint256[]"
        },
        {
          "internalType": "uint256[]",
          "name": "values",
          "type": "uint256[]"
        },
        {
          "internalType": "bytes",
          "name": "data",
          "type": "bytes"
        }
      ],
      "name": "safeBatchTransferFrom",
      "outputs": [],
      "stateMutability": "nonpayable",
      "type": "function"
    },
    {
      "inputs": [
        {
          "internalType": "address",
          "name": "from",
          "type": "address"
        },
        {
          "internalType": "address",
          "name": "to",
          "type": "address"
        },
        {
          "internalType": "uint256",
          "name": "id",
          "type": "uint256"
        },
        {
          "internalType": "uint256",
          "name": "value",
          "type": "uint256"
        },
        {
          "internalType": "bytes",
          "name": "data",
          "type": "bytes"
        }
      ],
      "name": "safeTransferFrom",
      "outputs": [],
      "stateMutability": "nonpayable",
      "type": "function"
    },
    {
      "inputs": [
        {
          "internalType": "uint256",
          "name": "id_",
          "type": "uint256"
        }
      ],
      "name": "sellPriceOf",
      "outputs": [
        {
          "internalType": "uint256",
          "name": "",
          "type": "uint256"
        }
      ],
      "stateMutability": "view",
      "type": "function"
    },
    {
      "inputs": [
        {
          "internalType": "uint256[]",
          "name": "ids",
          "type": "uint256[]"
        }
      ],
      "name": "sellPriceOfBatch",
      "outputs": [
        {
          "internalType": "uint256[]",
          "name": "",
          "type": "uint256[]"
        }
      ],
      "stateMutability": "view",
      "type": "function"
    },
    {
      "inputs": [
        {
          "internalType": "address",
          "name": "operator",
          "type": "address"
        },
        {
          "internalType": "bool",
          "name": "approved",
          "type": "bool"
        }
      ],
      "name": "setApprovalForAll",
      "outputs": [],
      "stateMutability": "nonpayable",
      "type": "function"
    },
    {
      "inputs": [
        {
          "internalType": "uint256",
          "name": "issueLimit_",
          "type": "uint256"
        }
      ],
      "name": "setIssueLimit",
      "outputs": [],
      "stateMutability": "nonpayable",
      "type": "function"
    },
    {
      "inputs": [
        {
          "internalType": "bytes4",
          "name": "interfaceId",
          "type": "bytes4"
        }
      ],
      "name": "supportsInterface",
      "outputs": [
        {
          "internalType": "bool",
          "name": "",
          "type": "bool"
        }
      ],
      "stateMutability": "view",
      "type": "function"
    },
    {
      "inputs": [
        {
          "internalType": "uint256",
          "name": "",
          "type": "uint256"
        }
      ],
      "name": "totalSupply",
      "outputs": [
        {
          "internalType": "uint256",
          "name": "",
          "type": "uint256"
        }
      ],
      "stateMutability": "view",
      "type": "function"
    },
    {
      "inputs": [
        {
          "internalType": "uint256",
          "name": "",
          "type": "uint256"
        }
      ],
      "name": "uri",
      "outputs": [
        {
          "internalType": "string",
          "name": "",
          "type": "string"
        }
      ],
      "stateMutability": "view",
      "type": "function"
    }
  ],
  "bytecode": "0x60808060405234601557612cef908161001b8239f35b600080fdfe6080604052600436101561001257600080fd5b60003560e01c8062fdd58e146101d657806301ffc9a7146101d15780630e543d74146101cc5780630e89341c146101c7578063248a9ca3146101c25780632eb2c2d6146101bd5780632f2ff15d146101b857806336568abe146101b35780634cfd2de5146101ae5780634e1273f4146101a95780634f069f66146101a457806350cf823b1461019f578063731133e91461019a5780638beaf7d71461019557806391d1485414610190578063a217fddf1461018b578063a22cb46514610186578063a8f0e6e214610181578063b9186d7d1461017c578063bd85b03914610177578063c0eed2e014610172578063d53913931461016d578063d547741f14610168578063e985e9c514610163578063eea8f5da1461015e578063f242432a14610159578063f5298aca146101545763f5b541a61461014f57600080fd5b6110b9565b610fc6565b610eca565b610eac565b610e7b565b610e4a565b610e0f565b610da8565b610d7c565b610d21565b610ce8565b610c3d565b610c21565b610bc1565b610a21565b61094e565b610930565b61087a565b6107bb565b61079d565b610757565b610721565b610695565b610602565b61050f565b610449565b61029e565b610220565b600435906001600160a01b03821682036101f157565b600080fd5b602435906001600160a01b03821682036101f157565b35906001600160a01b03821682036101f157565b346101f15760403660031901126101f157602061028361023e6101db565b6024356000527f88be536d5240c274a3b1d3a1be54482fd9caa294f08c62a7cde569f49a3c4500835260406000209060018060a01b0316600052602052604060002090565b54604051908152f35b6001600160e01b03198116036101f157565b346101f15760203660031901126101f1576004356102bb8161028c565b63ffffffff60e01b16636cdb3d1360e11b8114908115610316575b81156102eb575b506040519015158152602090f35b637965db0b60e01b811491508115610305575b50386102dd565b6301ffc9a760e01b149050386102fe565b6303a24d0760e21b811491506102d6565b634e487b7160e01b600052604160045260246000fd5b90601f801991011681019081106001600160401b0382111761035e57604052565b610327565b6001600160401b03811161035e5760051b60200190565b9080601f830112156101f157813561039181610363565b9261039f604051948561033d565b81845260208085019260051b8201019283116101f157602001905b8282106103c75750505090565b81358152602091820191016103ba565b60206003198201126101f157600435906001600160401b0382116101f1576104019160040161037a565b90565b906020808351928381520192019060005b8181106104225750505090565b8251845260209384019390920191600101610415565b906020610401928181520190610404565b346101f157610457366103d7565b610461815161112d565b9060005b81518110156104a3578061047b6001928461115f565b516000526000602052610492604060002054611337565b61049c828661115f565b5201610465565b604051602080825281906104b990820186610404565b0390f35b919082519283825260005b8481106104e9575050826000602080949584010152601f8019910116010190565b806020809284010151828286010152016104c8565b9060206104019281815201906104bd565b346101f15760203660031901126101f1576040516000600080516020612cc38339815191525461053e81611189565b80845290600181169081156105de5750600114610572575b6104b9836105668185038261033d565b604051918291826104fe565b600080516020612cc383398151915260009081527ff429cb5e2ec84cbb765e76b31964a56ccde03e7a6122d6cc4afb19edc55edeed939250905b8082106105c457509091508101602001610566610556565b9192600181602092548385880101520191019092916105ac565b60ff191660208086019190915291151560051b840190910191506105669050610556565b346101f15760203660031901126101f15760206106206004356111c3565b604051908152f35b6001600160401b03811161035e57601f01601f191660200190565b92919261064f82610628565b9161065d604051938461033d565b8294818452818301116101f1578281602093846000960137010152565b9080601f830112156101f15781602061040193359101610643565b346101f15760a03660031901126101f1576106ae6101db565b6106b66101f6565b906044356001600160401b0381116101f1576106d690369060040161037a565b6064356001600160401b0381116101f1576106f590369060040161037a565b90608435936001600160401b0385116101f15761071961071f95369060040161067a565b936111e4565b005b346101f15760403660031901126101f15761071f6004356107406101f6565b9061075261074d826111c3565b611404565b6115d7565b346101f15760403660031901126101f1576004356107736101f6565b336001600160a01b0382160361078c5761071f91611685565b63334bd91960e11b60005260046000fd5b346101f15760203660031901126101f157602061062060043561125a565b346101f15760403660031901126101f1576004356001600160401b0381116101f157366023820112156101f1578060040135906107f782610363565b91610805604051938461033d565b8083526024602084019160051b830101913683116101f157602401905b82821061086257836024356001600160401b0381116101f1576104b99161085061085692369060040161037a565b90611286565b60405191829182610438565b6020809161086f8461020c565b815201910190610822565b346101f15760203660031901126101f1573360009081527f448256db8f8fb95ee3eaaf89c1051414494e85cebb6057fcf996cc3d0ccfb45660205260409020546004359060ff16156108f7576020817fbb72ce8874020b3b98429d653df927cac6618ac1932384b1446bf04bf9a1b7e592600155604051908152a1005b63e2517d3f60e01b600052336004527f97667070c54ef182b0f5858b034beac1b6f3089aa2d3188bb1e8929f4fa9b92960245260446000fd5b346101f15760203660031901126101f1576020610620600435611337565b346101f15760803660031901126101f1576109676101db565b604435906024356064356001600160401b0381116101f15761098d90369060040161067a565b90610996611392565b806000526000602052604060002054848101809111610a1c57600154106109e5576109c96109d99285836109e1966117f3565b6000526000602052604060002090565b918254611371565b9055005b60405162461bcd60e51b815260206004820152600f60248201526e12d15657d254d4d55157d312535255608a1b6044820152606490fd5b611237565b346101f15760403660031901126101f1576004356001600160401b0381116101f157366023820112156101f157610a62903690602481600401359101610643565b600080516020612ca383398151915254906024356001600160401b03610a97604085901c60ff1615946001600160401b031690565b1680159081610bb9575b6001149081610baf575b159081610ba6575b50610b9557610af89183610aef60016001600160401b0319600080516020612ca3833981519152541617600080516020612ca383398151915255565b610b5957611944565b610afe57005b610b2a60ff60401b19600080516020612ca38339815191525416600080516020612ca383398151915255565b604051600181527fc7f505b2f371ae2175ee4913f4499e1f2633a7b5936321eed1cdaeb6115181d290602090a1005b610b906801000000000000000060ff60401b19600080516020612ca3833981519152541617600080516020612ca383398151915255565b611944565b63f92ee8a960e01b60005260046000fd5b90501538610ab3565b303b159150610aab565b849150610aa1565b346101f15760403660031901126101f157602060ff610c15600435610be46101f6565b90600052600080516020612c83833981519152845260406000209060018060a01b0316600052602052604060002090565b54166040519015158152f35b346101f15760003660031901126101f157602060405160008152f35b346101f15760403660031901126101f157610c566101db565b6024358015158091036101f1576001600160a01b038216918215610cd357610c9890610c81336110f4565b9060018060a01b0316600052602052604060002090565b60ff1981541660ff83161790556040519081527f17307eab39ab6107e8899845ad3d59bd9653f200f220920489ca2b5937696c3160203392a3005b62ced3e160e81b600052600060045260246000fd5b346101f15760203660031901126101f15760043560005260006020526040600020546000198101908111610a1c57610620602091611337565b346101f15760203660031901126101f15760043560005260006020526020610620604060002054611337565b6000527f88be536d5240c274a3b1d3a1be54482fd9caa294f08c62a7cde569f49a3c4500602052604060002090565b346101f15760203660031901126101f15760043560005260006020526020604060002054604051908152f35b346101f157610db6366103d7565b610dc0815161112d565b9060005b81518110156104a357610dd7818361115f565b516000526000602052604060002054906000198201918211610a1c57610dfe600192611337565b610e08828661115f565b5201610dc4565b346101f15760003660031901126101f15760206040517f9f2df0fed2c77648de5860a4cc508cd0818c85b8b8a1ab4ceeef8d981c8956a68152f35b346101f15760403660031901126101f15761071f600435610e696101f6565b90610e7661074d826111c3565b611685565b346101f15760403660031901126101f157602060ff610c15610e9b6101db565b610c81610ea66101f6565b916110f4565b346101f15760003660031901126101f1576020600154604051908152f35b346101f15760a03660031901126101f157610ee36101db565b610eeb6101f6565b60443590606435926084356001600160401b0381116101f157610f1290369060040161067a565b926001600160a01b0382163381141580610fb5575b610f9d576001600160a01b03841615610f875715610f725761071f94610f6a60405192600184526020840152604083019160018352606084015260808301604052565b929091611bdf565b626a0d4560e21b600052600060045260246000fd5b632bfa23e760e11b600052600060045260246000fd5b63711bec9160e11b6000523360045260245260446000fd5b50610fc0338461137e565b15610f27565b346101f15760603660031901126101f157610fdf6101db565b602435604435916001600160a01b03811633811480156110a9575b1561105a5715610f7257816109c961105292611039866109e1969160405192600184526020840152604083019160018352606084015260808301604052565b906040519261104960208561033d565b60008452611a9d565b91825461124d565b60405162461bcd60e51b815260206004820152602160248201527f4b45595f43414c4c45525f4e4f545f4f574e45525f4e4f525f415050524f56456044820152601160fa1b6064820152608490fd5b506110b4338361137e565b610ffa565b346101f15760003660031901126101f15760206040517f97667070c54ef182b0f5858b034beac1b6f3089aa2d3188bb1e8929f4fa9b9298152f35b6001600160a01b031660009081527f88be536d5240c274a3b1d3a1be54482fd9caa294f08c62a7cde569f49a3c45016020526040902090565b9061113782610363565b611144604051918261033d565b8281528092611155601f1991610363565b0190602036910137565b80518210156111735760209160051b010190565b634e487b7160e01b600052603260045260246000fd5b90600182811c921680156111b9575b60208310146111a357565b634e487b7160e01b600052602260045260246000fd5b91607f1691611198565b600052600080516020612c8383398151915260205260016040600020015490565b939291906001600160a01b038516338114158061121f575b610f9d576001600160a01b03821615610f875715610f725761121d94611bdf565b565b5060ff61122f33610c81896110f4565b5416156111fc565b634e487b7160e01b600052601160045260246000fd5b91908203918211610a1c57565b60005260006020526040600020546001549080821161127a575050600090565b8103908111610a1c5790565b919091805183518082036113205750506112a0815161112d565b9060005b8151811015611319578061130760019260051b602080828701015191890101516000527f88be536d5240c274a3b1d3a1be54482fd9caa294f08c62a7cde569f49a3c450060205260406000209060018060a01b0316600052602052604060002090565b54611312828661115f565b52016112a4565b5090925050565b635b05999160e01b60005260045260245260446000fd5b670de0b6b3a7640000810290808204670de0b6b3a76400001490151715610a1c5761136c6113676104019261175a565b612757565b61281d565b91908201809211610a1c57565b60ff91610c8161138d926110f4565b541690565b3360009081527f549fe2656c81d2947b3b913f0a53b9ea86c71e049f3a1b8aa23c09a8a05cb8d4602052604090205460ff16156113cb57565b63e2517d3f60e01b600052336004527f9f2df0fed2c77648de5860a4cc508cd0818c85b8b8a1ab4ceeef8d981c8956a660245260446000fd5b6000818152600080516020612c838339815191526020908152604080832033845290915290205460ff16156114365750565b63e2517d3f60e01b6000523360045260245260446000fd5b6001600160a01b03811660009081527fb7db2dd08fcb62d0c9e08c51941cae53c267786a0b75803fb7960902fc8ef97d602052604090205460ff166114fa576001600160a01b031660008181527fb7db2dd08fcb62d0c9e08c51941cae53c267786a0b75803fb7960902fc8ef97d60205260408120805460ff191660011790553391907f2f8788117e7eff1d82e926ec794901d17c78024a50270940304540a733656f0d8180a4600190565b50600090565b6001600160a01b03811660009081527f448256db8f8fb95ee3eaaf89c1051414494e85cebb6057fcf996cc3d0ccfb456602052604090205460ff166114fa576001600160a01b03811660009081527f448256db8f8fb95ee3eaaf89c1051414494e85cebb6057fcf996cc3d0ccfb45660205260409020805460ff1916600117905533906001600160a01b03167f97667070c54ef182b0f5858b034beac1b6f3089aa2d3188bb1e8929f4fa9b9297f2f8788117e7eff1d82e926ec794901d17c78024a50270940304540a733656f0d600080a4600190565b6000818152600080516020612c83833981519152602090815260408083206001600160a01b038616845290915290205460ff1661167e576000818152600080516020612c83833981519152602090815260408083206001600160a01b03861684529091529020805460ff1916600117905533916001600160a01b0316907f2f8788117e7eff1d82e926ec794901d17c78024a50270940304540a733656f0d600080a4600190565b5050600090565b6000818152600080516020612c83833981519152602090815260408083206001600160a01b038616845290915290205460ff161561167e576000818152600080516020612c83833981519152602090815260408083206001600160a01b03861684529091529020805460ff1916905533916001600160a01b0316907ff6391f5c32d9c69d2a47ea670b442974b53935d1edc7fd64eb21e047a839171b600080a4600190565b8015611744576ec097ce7bc90715b34b9f10000000000490565b634e487b7160e01b600052601260045260246000fd5b60009080611769575050600090565b90670de0b6b3a764000082146117e5571561178b5750670de0b6b3a764000090565b670de0b6b3a76400008111156117bd576117b867153ba6e4ca5900006117b361040193611d9f565b6128ca565b611eab565b6117e06117b867153ba6e4ca5900006117b36117db6104019561172a565b611d9f565b61172a565b5050670de0b6b3a764000090565b6001600160a01b03811693929091908415610f875761182f60405192600184526020840152604083019160018352606084015260808301604052565b92815184519081810361192d57505060005b8251811015611876578060019160051b61186e6109d987610c81602080868b010151958c01015194610d4d565b905501611841565b5092919360018251146000146118f15760208281015184820151604080519283529282015260009133917fc3d58168c5ae7397731d063d5bbf3d657854427343f4c083240f7aacaa2d0f629190a45b80516001036118e5579060208061121d9593015191015191600033612b54565b61121d93600033612a1f565b60006040517f4a39dc06d4c0dbc64b70af90fd698a233a518aa5d07e595d983b8c0526c8f7fb339180611925888883612962565b0390a46118c5565b635b05999160e01b60005260045260245260446000fd5b61194c612bf4565b611954612bf4565b61195c612bf4565b8051906001600160401b03821161035e5761198e82611989600080516020612cc383398151915254611189565b612c22565b602090601f83116001146119f95791806119c49261121d95946000926119ee575b50508160011b916000199060031b1c19161790565b600080516020612cc3833981519152555b6119de3361144e565b506119e833611500565b50600155565b0151905038806119af565b600080516020612cc3833981519152600052601f19831691907ff429cb5e2ec84cbb765e76b31964a56ccde03e7a6122d6cc4afb19edc55edeed9260005b818110611a85575091600193918561121d97969410611a6c575b505050811b01600080516020612cc3833981519152556119d5565b015160001960f88460031b161c19169055388080611a51565b92936020600181928786015181550195019301611a37565b909250825182519081810361192d5750506001600160a01b0381168015159490939060005b8251811015611b55578060051b876020808387010151928801015190611aed575b5050600101611ac2565b611afa86610c8184610d4d565b54818110611b1e5786610c816001959493611b16930393610d4d565b559038611ae3565b6040516303dee4c560e01b81526001600160a01b038816600482015260248101919091526044810182905260648101839052608490fd5b50945060009392915060018151148414611bac5760209081015191810151604080519384529183015233917fc3d58168c5ae7397731d063d5bbf3d657854427343f4c083240f7aacaa2d0f6291819081015b0390a4565b60405133927f4a39dc06d4c0dbc64b70af90fd698a233a518aa5d07e595d983b8c0526c8f7fb928291611ba79183612962565b949392909193845182519081810361192d5750506001600160a01b0386811695861515959185168015159391929060005b8451811015611cd1578060051b90898988602080868b010151958c01015192611c60575b93600194611c46575b50505001611c10565b611c5691610c816109d992610d4d565b9055388981611c3d565b50509091611c718d610c8183610d4d565b54828110611c9a578291898f611c91600197968f950391610c8185610d4d565b55909450611c34565b6040516303dee4c560e01b81526001600160a01b038f16600482015260248101919091526044810183905260648101829052608490fd5b509198959392979096506001885114600014611d655760208881015186820151604080519283529282015233917fc3d58168c5ae7397731d063d5bbf3d657854427343f4c083240f7aacaa2d0f6291a45b611d2e575b5050505050565b8451600103611d5457602080611d4a9601519201519233612b54565b3880808080611d27565b611d6094919233612a1f565b611d4a565b6040517f4a39dc06d4c0dbc64b70af90fd698a233a518aa5d07e595d983b8c0526c8f7fb339180611d97898d83612962565b0390a4611d22565b90670de0b6b3a76400008210611e9657670de0b6b3a764000082046fffffffffffffffffffffffffffffffff811160071b90811c6001600160401b03811160061b90811c63ffffffff811160051b90811c61ffff811160041b90811c9060ff821160031b91821c92600f841160021b93841c94600160038711811b96871c11961717171717171791670de0b6b3a76400008302921c91670de0b6b3a76400008314611e92576706f05b59d3b2000092835b611e5957509150565b670de0b6b3a76400009080020492671bc16d674ec80000841015611e82575b60011c9283611e50565b60019390931c9290810190611e78565b9150565b5063036d32ef60e41b60005260045260246000fd5b680a688906bd8affffff811161274357670de0b6b3a76400009060401b04600160bf1b67ff000000000000008216612616575b670de0b6b3a7640000611f479166ff0000000000008416612506575b65ff000000000084166123fe575b64ff0000000084166122fe575b63ff0000008416612206575b62ff00008416612116575b61ff00841661202e575b60ff8416611f4e575b029160401c90565b60bf031c90565b6080841661201b575b60408416612008575b60208416611ff5575b60108416611fe2575b60088416611fcf575b60048416611fbc575b60028416611fa9575b6001841615611f3f57680100000000000000010260401c611f3f565b680100000000000000010260401c611f8d565b680100000000000000030260401c611f84565b680100000000000000060260401c611f7b565b6801000000000000000b0260401c611f72565b680100000000000000160260401c611f69565b6801000000000000002c0260401c611f60565b680100000000000000590260401c611f57565b6180008416612103575b61400084166120f0575b61200084166120dd575b61100084166120ca575b61080084166120b7575b61040084166120a4575b6102008416612091575b610100841615611f3657680100000000000000b10260401c611f36565b680100000000000001630260401c612074565b680100000000000002c60260401c61206a565b6801000000000000058c0260401c612060565b68010000000000000b170260401c612056565b6801000000000000162e0260401c61204c565b68010000000000002c5d0260401c612042565b680100000000000058b90260401c612038565b6280000084166121f3575b6240000084166121e0575b6220000084166121cd575b6210000084166121ba575b6208000084166121a7575b620400008416612194575b620200008416612181575b62010000841615611f2c576801000000000000b1720260401c611f2c565b680100000000000162e40260401c612163565b6801000000000002c5c80260401c612158565b68010000000000058b910260401c61214d565b680100000000000b17210260401c612142565b68010000000000162e430260401c612137565b680100000000002c5c860260401c61212c565b6801000000000058b90c0260401c612121565b638000000084166122eb575b634000000084166122d8575b632000000084166122c5575b631000000084166122b2575b6308000000841661229f575b6304000000841661228c575b63020000008416612279575b6301000000841615611f215768010000000000b172180260401c611f21565b6801000000000162e4300260401c61225a565b68010000000002c5c8600260401c61224e565b680100000000058b90c00260401c612242565b6801000000000b17217f0260401c612236565b680100000000162e42ff0260401c61222a565b6801000000002c5c85fe0260401c61221e565b68010000000058b90bfc0260401c612212565b64800000000084166123eb575b64400000000084166123d8575b64200000000084166123c5575b64100000000084166123b2575b640800000000841661239f575b640400000000841661238c575b6402000000008416612379575b640100000000841615611f1557680100000000b17217f80260401c611f15565b68010000000162e42ff10260401c612359565b680100000002c5c85fe30260401c61234c565b6801000000058b90bfce0260401c61233f565b68010000000b17217fbb0260401c612332565b6801000000162e42fff00260401c612325565b68010000002c5c8601cc0260401c612318565b680100000058b90c0b490260401c61230b565b6580000000000084166124f3575b6540000000000084166124e0575b6520000000000084166124cd575b6510000000000084166124ba575b6508000000000084166124a7575b650400000000008416612494575b650200000000008416612481575b65010000000000841615611f08576801000000b1721835510260401c611f08565b680100000162e430e5a20260401c612460565b6801000002c5c863b73f0260401c612452565b68010000058b90cf1e6e0260401c612444565b680100000b1721bcfc9a0260401c612436565b68010000162e43f4f8310260401c612428565b680100002c5c89d5ec6d0260401c61241a565b6801000058b91b5bc9ae0260401c61240c565b66800000000000008416612603575b664000000000000084166125f0575b662000000000000084166125dd575b661000000000000084166125ca575b660800000000000084166125b7575b660400000000000084166125a4575b66020000000000008416612591575b6601000000000000841615611efa5768010000b17255775c040260401c611efa565b6801000162e525ee05470260401c61256f565b68010002c5cc37da94920260401c612560565b680100058ba01fb9f96d0260401c612551565b6801000b175effdc76ba0260401c612542565b680100162f3904051fa10260401c612533565b6801002c605e2e8cec500260401c612524565b68010058c86da1c09ea20260401c612515565b6780000000000000008216612730575b670de0b6b3a7640000611f4791674000000000000000841661271d575b672000000000000000841661270a575b67100000000000000084166126f7575b67080000000000000084166126e4575b67040000000000000084166126d1575b67020000000000000084166126be575b67010000000000000084166126ab575b915050611ede565b680100b1afa5abcbed610260401c6126a3565b68010163da9fb33356d80260401c612693565b680102c9a3e778060ee70260401c612683565b6801059b0d31585743ae0260401c612673565b68010b5586cf9890f62a0260401c612663565b6801172b83c7d517adce0260401c612653565b6801306fe0a31b7152df0260401c612643565b5068016a09e667f3bcc909607f1b612626565b63b3b6ba1f60e01b60005260045260246000fd5b90600019670de0b6b3a76400008309670de0b6b3a764000083029081808210910390808203911461280c576856bc75e2d6310000008110156127dd576856bc75e2d631000000670de0b6b3a76400007f2fdf29ec6a12d6f7bf48d6861d4b553283e011b18b576460d489e3a9addec2d194950990828211900360e81b910360181c170290565b630c740aef60e31b6000526004849052670de0b6b3a76400006024526856bc75e2d63100000060445260646000fd5b506856bc75e2d63100000090049150565b90600019670de0b6b3a76400008309670de0b6b3a76400008302908180821091039080820391146128ba57670de0b6b3a764000081101561289957670de0b6b3a7640000807faccb18165bd6fe31ae1cf318dc5b51eee0e1ba569b88cd74c1773b91fac1066994950990828211900360ee1b910360121c170290565b83635173648d60e01b600052600452670de0b6b3a764000060245260446000fd5b50670de0b6b3a764000090049150565b9091906000198382098382029182808310920391808303921461295157670de0b6b3a7640000821015612938577faccb18165bd6fe31ae1cf318dc5b51eee0e1ba569b88cd74c1773b91fac106699394670de0b6b3a7640000910990828211900360ee1b910360121c170290565b8490635173648d60e01b60005260045260245260446000fd5b5050670de0b6b3a764000090049150565b909161297961040193604084526040840190610404565b916020818403910152610404565b908160209103126101f157516104018161028c565b6001600160a01b0391821681529116602082015260a06040820181905261040194919391926129e192916129d39190860190610404565b908482036060860152610404565b9160808184039101526104bd565b3d15612a1a573d90612a0082610628565b91612a0e604051938461033d565b82523d6000602084013e565b606090565b9091949293853b612a33575b505050505050565b602093612a5591604051968795869563bc197c8160e01b87526004870161299c565b038160006001600160a01b0387165af160009181612aea575b50612aaa5750612a7c6129ef565b8051919082612aa357632bfa23e760e11b6000526001600160a01b03821660045260246000fd5b9050602001fd5b6001600160e01b0319166343e6837f60e01b01612acd5750388080808080612a2b565b632bfa23e760e11b6000526001600160a01b031660045260246000fd5b612b0d91925060203d602011612b14575b612b05818361033d565b810190612987565b9038612a6e565b503d612afb565b6001600160a01b039182168152911660208201526040810191909152606081019190915260a060808201819052610401929101906104bd565b9091949293853b612b6757505050505050565b602093612b8991604051968795869563f23a6e6160e01b875260048701612b1b565b038160006001600160a01b0387165af160009181612bd3575b50612bb05750612a7c6129ef565b6001600160e01b031916630dc5919f60e01b01612acd5750388080808080612a2b565b612bed91925060203d602011612b1457612b05818361033d565b9038612ba2565b60ff600080516020612ca38339815191525460401c1615612c1157565b631afcd79f60e31b60005260046000fd5b601f8111612c2e575050565b600080516020612cc38339815191526000526020600020906020601f840160051c83019310612c78575b601f0160051c01905b818110612c6c575050565b60008155600101612c61565b9091508190612c5856fe02dd7bc7dec4dceedda775e58dd541e08a116c6c53815c0bd028192f7b626800f0c57e16840df040f15088dc2f81fe391c3923bec73e23a9662efc9c229c6a0088be536d5240c274a3b1d3a1be54482fd9caa294f08c62a7cde569f49a3c4502a164736f6c634300081c000a",
  "linkReferences": {},
  "deployedLinkReferences": {}
}